{
  "_format": "hh-sol-artifact-1",
  "contractName": "RoyaltyRegistry",
  "sourceName": "contracts/sbinft/market/v1/royalty/RoyaltyRegistry.sol",
  "abi": [
    {
      "inputs": [],
      "stateMutability": "nonpayable",
      "type": "constructor"
    },
    {
      "anonymous": false,
      "inputs": [
        {
          "indexed": false,
          "internalType": "address",
          "name": "",
          "type": "address"
        }
      ],
      "name": "AdminAdded",
      "type": "event"
    },
    {
      "anonymous": false,
      "inputs": [
        {
          "indexed": false,
          "internalType": "address",
          "name": "previousAdmin",
          "type": "address"
        },
        {
          "indexed": false,
          "internalType": "address",
          "name": "newAdmin",
          "type": "address"
        }
      ],
      "name": "AdminChanged",
      "type": "event"
    },
    {
      "anonymous": false,
      "inputs": [
        {
          "indexed": false,
          "internalType": "address",
          "name": "",
          "type": "address"
        }
      ],
      "name": "AdminRemoved",
      "type": "event"
    },
    {
      "anonymous": false,
      "inputs": [
        {
          "indexed": true,
          "internalType": "address",
          "name": "beacon",
          "type": "address"
        }
      ],
      "name": "BeaconUpgraded",
      "type": "event"
    },
    {
      "anonymous": false,
      "inputs": [
        {
          "indexed": true,
          "internalType": "address",
          "name": "token",
          "type": "address"
        }
      ],
      "name": "CollectionDefaultRoyaltyInfoDeleted",
      "type": "event"
    },
    {
      "anonymous": false,
      "inputs": [
        {
          "indexed": true,
          "internalType": "address",
          "name": "token",
          "type": "address"
        }
      ],
      "name": "CollectionDefaultRoyaltyInfoSet",
      "type": "event"
    },
    {
      "anonymous": false,
      "inputs": [
        {
          "indexed": false,
          "internalType": "uint8",
          "name": "version",
          "type": "uint8"
        }
      ],
      "name": "Initialized",
      "type": "event"
    },
    {
      "anonymous": false,
      "inputs": [
        {
          "indexed": false,
          "internalType": "uint8",
          "name": "maxRoyaltyReceiversCount",
          "type": "uint8"
        }
      ],
      "name": "MaxRoyaltyReceiversCountUpdated",
      "type": "event"
    },
    {
      "anonymous": false,
      "inputs": [
        {
          "indexed": true,
          "internalType": "address",
          "name": "token",
          "type": "address"
        },
        {
          "indexed": true,
          "internalType": "uint256",
          "name": "tokenId",
          "type": "uint256"
        }
      ],
      "name": "TokenRoyaltyInfoReset",
      "type": "event"
    },
    {
      "anonymous": false,
      "inputs": [
        {
          "indexed": true,
          "internalType": "address",
          "name": "token",
          "type": "address"
        },
        {
          "indexed": true,
          "internalType": "uint256",
          "name": "tokenId",
          "type": "uint256"
        }
      ],
      "name": "TokenRoyaltyInfoSet",
      "type": "event"
    },
    {
      "anonymous": false,
      "inputs": [
        {
          "indexed": true,
          "internalType": "address",
          "name": "implementation",
          "type": "address"
        }
      ],
      "name": "Upgraded",
      "type": "event"
    },
    {
      "inputs": [],
      "name": "__RoyaltyRegistry_init",
      "outputs": [],
      "stateMutability": "nonpayable",
      "type": "function"
    },
    {
      "inputs": [
        {
          "internalType": "address[]",
          "name": "newAdmin",
          "type": "address[]"
        }
      ],
      "name": "addAdmin",
      "outputs": [],
      "stateMutability": "nonpayable",
      "type": "function"
    },
    {
      "inputs": [
        {
          "internalType": "address",
          "name": "newAdmin",
          "type": "address"
        }
      ],
      "name": "addAdmin",
      "outputs": [],
      "stateMutability": "nonpayable",
      "type": "function"
    },
    {
      "inputs": [
        {
          "internalType": "address",
          "name": "_token",
          "type": "address"
        }
      ],
      "name": "deleteCollectionDefaultRoyalty",
      "outputs": [],
      "stateMutability": "nonpayable",
      "type": "function"
    },
    {
      "inputs": [],
      "name": "feeDenominator",
      "outputs": [
        {
          "internalType": "uint16",
          "name": "",
          "type": "uint16"
        }
      ],
      "stateMutability": "pure",
      "type": "function"
    },
    {
      "inputs": [
        {
          "internalType": "address",
          "name": "checkAdmin",
          "type": "address"
        }
      ],
      "name": "isAdmin",
      "outputs": [
        {
          "internalType": "bool",
          "name": "",
          "type": "bool"
        }
      ],
      "stateMutability": "view",
      "type": "function"
    },
    {
      "inputs": [],
      "name": "maxRoyaltyReceiversCount",
      "outputs": [
        {
          "internalType": "uint8",
          "name": "",
          "type": "uint8"
        }
      ],
      "stateMutability": "view",
      "type": "function"
    },
    {
      "inputs": [],
      "name": "proxiableUUID",
      "outputs": [
        {
          "internalType": "bytes32",
          "name": "",
          "type": "bytes32"
        }
      ],
      "stateMutability": "view",
      "type": "function"
    },
    {
      "inputs": [
        {
          "internalType": "address",
          "name": "admin",
          "type": "address"
        }
      ],
      "name": "removeAdmin",
      "outputs": [],
      "stateMutability": "nonpayable",
      "type": "function"
    },
    {
      "inputs": [
        {
          "internalType": "address",
          "name": "_token",
          "type": "address"
        },
        {
          "internalType": "uint256",
          "name": "_tokenId",
          "type": "uint256"
        }
      ],
      "name": "resetTokenRoyalty",
      "outputs": [],
      "stateMutability": "nonpayable",
      "type": "function"
    },
    {
      "inputs": [
        {
          "internalType": "uint256",
          "name": "",
          "type": "uint256"
        },
        {
          "internalType": "uint256",
          "name": "",
          "type": "uint256"
        }
      ],
      "name": "royaltyInfo",
      "outputs": [
        {
          "internalType": "address",
          "name": "",
          "type": "address"
        },
        {
          "internalType": "uint256",
          "name": "",
          "type": "uint256"
        }
      ],
      "stateMutability": "view",
      "type": "function"
    },
    {
      "inputs": [
        {
          "internalType": "address",
          "name": "_token",
          "type": "address"
        },
        {
          "internalType": "uint256",
          "name": "_tokenId",
          "type": "uint256"
        },
        {
          "internalType": "uint256",
          "name": "_salePrice",
          "type": "uint256"
        },
        {
          "internalType": "uint8",
          "name": "_isSecondarySale",
          "type": "uint8"
        }
      ],
      "name": "royaltyInfo",
      "outputs": [
        {
          "internalType": "address[]",
          "name": "",
          "type": "address[]"
        },
        {
          "internalType": "uint256[]",
          "name": "",
          "type": "uint256[]"
        },
        {
          "internalType": "uint8",
          "name": "",
          "type": "uint8"
        }
      ],
      "stateMutability": "view",
      "type": "function"
    },
    {
      "inputs": [
        {
          "internalType": "address",
          "name": "token",
          "type": "address"
        },
        {
          "components": [
            {
              "components": [
                {
                  "internalType": "address",
                  "name": "receiver",
                  "type": "address"
                },
                {
                  "internalType": "uint16",
                  "name": "primaryPercentage",
                  "type": "uint16"
                },
                {
                  "internalType": "uint16",
                  "name": "secondaryPercentage",
                  "type": "uint16"
                }
              ],
              "internalType": "struct RoyaltyRegistry.Royalty[]",
              "name": "royaltyList",
              "type": "tuple[]"
            },
            {
              "internalType": "uint8",
              "name": "primaryCount",
              "type": "uint8"
            },
            {
              "internalType": "uint8",
              "name": "secondaryCount",
              "type": "uint8"
            },
            {
              "internalType": "uint16",
              "name": "secondaryOnwardsRoyaltyPercentage",
              "type": "uint16"
            }
          ],
          "internalType": "struct RoyaltyRegistry.RoyaltyInfo",
          "name": "royaltyInfo_",
          "type": "tuple"
        },
        {
          "internalType": "bytes",
          "name": "sign",
          "type": "bytes"
        }
      ],
      "name": "setCollectionDefaultRoyalty",
      "outputs": [],
      "stateMutability": "nonpayable",
      "type": "function"
    },
    {
      "inputs": [
        {
          "internalType": "address",
          "name": "token",
          "type": "address"
        },
        {
          "internalType": "uint256",
          "name": "tokenId",
          "type": "uint256"
        },
        {
          "components": [
            {
              "components": [
                {
                  "internalType": "address",
                  "name": "receiver",
                  "type": "address"
                },
                {
                  "internalType": "uint16",
                  "name": "primaryPercentage",
                  "type": "uint16"
                },
                {
                  "internalType": "uint16",
                  "name": "secondaryPercentage",
                  "type": "uint16"
                }
              ],
              "internalType": "struct RoyaltyRegistry.Royalty[]",
              "name": "royaltyList",
              "type": "tuple[]"
            },
            {
              "internalType": "uint8",
              "name": "primaryCount",
              "type": "uint8"
            },
            {
              "internalType": "uint8",
              "name": "secondaryCount",
              "type": "uint8"
            },
            {
              "internalType": "uint16",
              "name": "secondaryOnwardsRoyaltyPercentage",
              "type": "uint16"
            }
          ],
          "internalType": "struct RoyaltyRegistry.RoyaltyInfo",
          "name": "royaltyInfo_",
          "type": "tuple"
        },
        {
          "internalType": "bytes",
          "name": "sign",
          "type": "bytes"
        }
      ],
      "name": "setTokenRoyalty",
      "outputs": [],
      "stateMutability": "nonpayable",
      "type": "function"
    },
    {
      "inputs": [
        {
          "internalType": "bytes4",
          "name": "_interfaceId",
          "type": "bytes4"
        }
      ],
      "name": "supportsInterface",
      "outputs": [
        {
          "internalType": "bool",
          "name": "",
          "type": "bool"
        }
      ],
      "stateMutability": "view",
      "type": "function"
    },
    {
      "inputs": [
        {
          "internalType": "uint8",
          "name": "_newMaxRoyaltyReceiversCount",
          "type": "uint8"
        }
      ],
      "name": "updateMaxRoyaltyReceiversCount",
      "outputs": [],
      "stateMutability": "nonpayable",
      "type": "function"
    },
    {
      "inputs": [
        {
          "internalType": "address",
          "name": "newImplementation",
          "type": "address"
        }
      ],
      "name": "upgradeTo",
      "outputs": [],
      "stateMutability": "nonpayable",
      "type": "function"
    },
    {
      "inputs": [
        {
          "internalType": "address",
          "name": "newImplementation",
          "type": "address"
        },
        {
          "internalType": "bytes",
          "name": "data",
          "type": "bytes"
        }
      ],
      "name": "upgradeToAndCall",
      "outputs": [],
      "stateMutability": "payable",
      "type": "function"
    }
  ],
  "bytecode": "0x60a0604052306080523480156200001557600080fd5b506200002062000026565b620000e8565b600054610100900460ff1615620000935760405162461bcd60e51b815260206004820152602760248201527f496e697469616c697a61626c653a20636f6e747261637420697320696e697469604482015266616c697a696e6760c81b606482015260840160405180910390fd5b60005460ff9081161015620000e6576000805460ff191660ff9081179091556040519081527f7f26b83ff96e1f2b6a682f133852f6798a09c465da95921460cefb38474024989060200160405180910390a15b565b608051612ccf62000120600039600081816106f60152818161073601528181610d6101528181610da10152610e340152612ccf6000f3fe6080604052600436106101095760003560e01c806342871157116100955780638a662c8d116100645780638a662c8d146102f45780639198d452146103145780639fdcd36714610334578063b5c8f0f614610354578063c8be10b11461038057600080fd5b8063428711571461026f5780634f1ef2861461029e57806352d1902d146102b157806370480275146102d457600080fd5b806320bdc533116100dc57806320bdc5331461019757806324d7806c146101b75780632a55205a146101f05780633659cfe61461022f5780633d0950a81461024f57600080fd5b806301ffc9a71461010e5780630d505be1146101435780631785f53c1461015a578063180b0d7e1461017a575b600080fd5b34801561011a57600080fd5b5061012e61012936600461222a565b6103a0565b60405190151581526020015b60405180910390f35b34801561014f57600080fd5b506101586103d7565b005b34801561016657600080fd5b50610158610175366004612269565b61055e565b34801561018657600080fd5b50604051612710815260200161013a565b3480156101a357600080fd5b506101586101b2366004612269565b61061c565b3480156101c357600080fd5b5061012e6101d2366004612269565b6001600160a01b031660009081526065602052604090205460ff1690565b3480156101fc57600080fd5b5061021061020b366004612286565b6106b4565b604080516001600160a01b03909316835260208301919091520161013a565b34801561023b57600080fd5b5061015861024a366004612269565b6106ec565b34801561025b57600080fd5b5061015861026a3660046122a8565b6107c8565b34801561027b57600080fd5b5061028f61028a36600461232c565b610848565b60405161013a93929190612376565b6101586102ac366004612451565b610d57565b3480156102bd57600080fd5b506102c6610e27565b60405190815260200161013a565b3480156102e057600080fd5b506101586102ef366004612269565b610eda565b34801561030057600080fd5b5061015861030f366004612553565b610f12565b34801561032057600080fd5b5061015861032f3660046125da565b6110fb565b34801561034057600080fd5b5061015861034f366004612653565b611259565b34801561036057600080fd5b5060fe5461036e9060ff1681565b60405160ff909116815260200161013a565b34801561038c57600080fd5b5061015861039b36600461267f565b611300565b60006001600160e01b03198216635a8c1c2960e01b14806103d157506301ffc9a760e01b6001600160e01b03198316145b92915050565b600054610100900460ff16158080156103f75750600054600160ff909116105b806104115750303b158015610411575060005460ff166001145b6104795760405162461bcd60e51b815260206004820152602e60248201527f496e697469616c697a61626c653a20636f6e747261637420697320616c72656160448201526d191e481a5b9a5d1a585b1a5e995960921b60648201526084015b60405180910390fd5b6000805460ff19166001179055801561049c576000805461ff0019166101001790555b6104a46113b3565b6104ac6113dc565b6104ff604051806040016040528060168152602001755342494e465420526f79616c7479526567697374727960501b815250604051806040016040528060038152602001620312e360ec1b815250611414565b6105076113b3565b60fe805460ff19166007179055801561055b576000805461ff0019169055604051600181527f7f26b83ff96e1f2b6a682f133852f6798a09c465da95921460cefb3847402498906020015b60405180910390a15b50565b3360009081526065602052604090205460ff1661058d5760405162461bcd60e51b81526004016104709061269c565b6001600160a01b03811660009081526065602052604090205460ff166106135760405162461bcd60e51b815260206004820152603560248201527f41646d696e3a72656d6f766541646d696e20747279696e6720746f2072656d6f6044820152743b32903737b71032bc34b9ba34b7339020b236b4b760591b6064820152608401610470565b61055b81611445565b3360009081526065602052604090205460ff1661064b5760405162461bcd60e51b81526004016104709061269c565b6001600160a01b038116600090815260ff602052604081209061066e82826121ee565b50600101805463ffffffff191690556040516001600160a01b038216907f13b5bf4b6466e456ed224e9c6dd5b843dd5ebde02c58f084b232feba860daefc90600090a250565b60405162461bcd60e51b815260206004820152600860248201526752523a52493a4e4960c01b60448201526000908190606401610470565b6001600160a01b037f00000000000000000000000000000000000000000000000000000000000000001630036107345760405162461bcd60e51b8152600401610470906126e2565b7f00000000000000000000000000000000000000000000000000000000000000006001600160a01b031661077d600080516020612c53833981519152546001600160a01b031690565b6001600160a01b0316146107a35760405162461bcd60e51b81526004016104709061272e565b6107ac81611496565b6040805160008082526020820190925261055b918391906114c5565b3360009081526065602052604090205460ff166107f75760405162461bcd60e51b81526004016104709061269c565b60005b81811015610843576108318383838181106108175761081761277a565b905060200201602081019061082c9190612269565b611630565b8061083b816127a6565b9150506107fa565b505050565b60608060006001600160a01b03871661088f5760405162461bcd60e51b815260206004820152600960248201526852523a52493a545a4160b81b6044820152606401610470565b856000036108cd5760405162461bcd60e51b815260206004820152600b60248201526a52523a52493a5449445a4160a81b6044820152606401610470565b846000036109095760405162461bcd60e51b815260206004820152600960248201526829291d29249d29a82d60b91b6044820152606401610470565b6001600160a01b03871660009081526101006020908152604080832089845282528083208151815460a094810282018501909352608081018381526002959491938492849190879085015b828210156109ac57600084815260209081902060408051606081018252918501546001600160a01b038116835261ffff600160a01b8204811684860152600160b01b9091041690820152825260019092019101610954565b505050908252506001919091015460ff8082166020840152610100820416604083015262010000900461ffff16606090910152805151909150600003610aee576001600160a01b038916600090815260ff602090815260408083208151815460a09481028201850190935260808101838152909491938593919285929185015b82821015610a8457600084815260209081902060408051606081018252918501546001600160a01b038116835261ffff600160a01b8204811684860152600160b01b9091041690820152825260019092019101610a2c565b505050908252506001919091015460ff8082166020840152610100820416604083015262010000900461ffff16606090910152805151909150600003610ae9575050604080516000808252602082018181528284019093529094509092509050610d4d565b600191505b8660ff8716600103610b1e57606082015161271090610b119061ffff168a6127bf565b610b1b91906127ec565b90505b60008760ff16600114610b35578260200151610b3b565b82604001515b905060008160ff1667ffffffffffffffff811115610b5b57610b5b61240a565b604051908082528060200260200182016040528015610b84578160200160208202803683370190505b50905060008260ff1667ffffffffffffffff811115610ba557610ba561240a565b604051908082528060200260200182016040528015610bce578160200160208202803683370190505b5090506000925060005b855151811015610d4057600086600001518281518110610bfa57610bfa61277a565b602002602001015190508b60ff16600103610ca057604081015161ffff811615610c9a578160000151858760ff1681518110610c3857610c3861277a565b6001600160a01b039290921660209283029190910190910152612710610c6261ffff8316896127bf565b610c6c91906127ec565b848760ff1681518110610c8157610c8161277a565b602090810291909101015285610c9681612800565b9650505b50610d2d565b602081015161ffff811615610d2b578160000151858760ff1681518110610cc957610cc961277a565b6001600160a01b039290921660209283029190910190910152612710610cf361ffff8316896127bf565b610cfd91906127ec565b848760ff1681518110610d1257610d1261277a565b602090810291909101015285610d2781612800565b9650505b505b5080610d38816127a6565b915050610bd8565b5090975095509293505050505b9450945094915050565b6001600160a01b037f0000000000000000000000000000000000000000000000000000000000000000163003610d9f5760405162461bcd60e51b8152600401610470906126e2565b7f00000000000000000000000000000000000000000000000000000000000000006001600160a01b0316610de8600080516020612c53833981519152546001600160a01b031690565b6001600160a01b031614610e0e5760405162461bcd60e51b81526004016104709061272e565b610e1782611496565b610e23828260016114c5565b5050565b6000306001600160a01b037f00000000000000000000000000000000000000000000000000000000000000001614610ec75760405162461bcd60e51b815260206004820152603860248201527f555550535570677261646561626c653a206d757374206e6f742062652063616c60448201527f6c6564207468726f7567682064656c656761746563616c6c00000000000000006064820152608401610470565b50600080516020612c5383398151915290565b3360009081526065602052604090205460ff16610f095760405162461bcd60e51b81526004016104709061269c565b61055b81611630565b610f1c85846116ee565b83600003610f5b5760405162461bcd60e51b815260206004820152600c60248201526b29291d29a1a91d2a24a2272d60a11b6044820152606401610470565b610f64336101d2565b151560000361108c57600061100083838080601f016020809104026020016040519081016040528093929190818152602001838380828437600092019190915250610ffa9250610fb791508890506119dc565b610fbf611a8d565b6040805161190160f01b6020808301919091526022820193909352604280820194909452815180820390940184526062019052815191012090565b90611ac9565b9050611024816001600160a01b031660009081526065602052604090205460ff1690565b61108a5760405162461bcd60e51b815260206004820152603160248201527f526f79616c747952656769737472793a736574546f6b656e526f79616c747920604482015270696e76616c6964207369676e617475726560781b6064820152608401610470565b505b6001600160a01b038516600090815261010060209081526040808320878452909152902083906110bc828261291c565b505060405184906001600160a01b038716907f364104cde60feddcfae5b2aff85c0544eb700a8a69692e5cceb58bb5a388f3bd90600090a35050505050565b61110584846116ee565b61110e336101d2565b15156000036111f957600061116183838080601f016020809104026020016040519081016040528093929190818152602001838380828437600092019190915250610ffa9250610fb791508890506119dc565b9050611185816001600160a01b031660009081526065602052604090205460ff1690565b6111f75760405162461bcd60e51b815260206004820152603d60248201527f526f79616c747952656769737472793a736574436f6c6c656374696f6e44656660448201527f61756c74526f79616c747920696e76616c6964207369676e61747572650000006064820152608401610470565b505b6001600160a01b038416600090815260ff60205260409020839061121d828261291c565b50506040516001600160a01b038516907f5f6ae8937774b0b080bbc19d66607dbc55d9b3ceba9ffdf952dd01bfc197a20a90600090a250505050565b3360009081526065602052604090205460ff166112885760405162461bcd60e51b81526004016104709061269c565b6001600160a01b0382166000908152610100602090815260408083208484529091528120906112b782826121ee565b50600101805463ffffffff1916905560405181906001600160a01b038416907f8c4ef2812aa9d73ea94f30cc678d3abbfd7a9601a9cb8c7d98e20f5c229c3c4d90600090a35050565b3360009081526065602052604090205460ff1661132f5760405162461bcd60e51b81526004016104709061269c565b60008160ff16116113715760405162461bcd60e51b815260206004820152600c60248201526b29291d2aa6a929219d23aa2d60a11b6044820152606401610470565b60fe805460ff191660ff83169081179091556040519081527f70c122dfc4da27e88d85b0fd0a2ed9f4b9d82558aa574bbd00fea89fc1ee500d90602001610552565b600054610100900460ff166113da5760405162461bcd60e51b815260040161047090612a5d565b565b600054610100900460ff166114035760405162461bcd60e51b815260040161047090612a5d565b61140b6113b3565b6113da33611630565b600054610100900460ff1661143b5760405162461bcd60e51b815260040161047090612a5d565b610e238282611aed565b6001600160a01b038116600081815260656020908152604091829020805460ff1916905590519182527fa3b62bc36326052d97ea62d63c3d60308ed4c3ea8ac079dd8499f1e9c4f80c0f9101610552565b3360009081526065602052604090205460ff1661055b5760405162461bcd60e51b81526004016104709061269c565b7f4910fdfa16fed3260ed0e7147f7cc6da11a60208b5b9406d12a635614ffd91435460ff16156114f85761084383611b2e565b826001600160a01b03166352d1902d6040518163ffffffff1660e01b8152600401602060405180830381865afa925050508015611552575060408051601f3d908101601f1916820190925261154f91810190612aa8565b60015b6115b55760405162461bcd60e51b815260206004820152602e60248201527f45524331393637557067726164653a206e657720696d706c656d656e7461746960448201526d6f6e206973206e6f74205555505360901b6064820152608401610470565b600080516020612c5383398151915281146116245760405162461bcd60e51b815260206004820152602960248201527f45524331393637557067726164653a20756e737570706f727465642070726f786044820152681a58589b195555525160ba1b6064820152608401610470565b50610843838383611bca565b6001600160a01b03811661169a5760405162461bcd60e51b815260206004820152602b60248201527f41646d696e3a61646441646d696e206e657741646d696e20697320746865207a60448201526a65726f206164647265737360a81b6064820152608401610470565b6001600160a01b038116600081815260656020908152604091829020805460ff1916600117905590519182527f44d6d25963f097ad14f29f06854a01f575648a1ef82f30e562ccd3889717e3399101610552565b6001600160a01b0382163b6117325760405162461bcd60e51b815260206004820152600a60248201526952523a5652493a544e4360b01b6044820152606401610470565b60008060008060005b611745868061281f565b905081101561183057600061175a878061281f565b8381811061176a5761176a61277a565b9050606002018036038101906117809190612ac1565b602081015160408201519192509061ffff8216156117a657876117a281612800565b9850505b61ffff8116156117be57866117ba81612800565b9750505b6117c88287612b33565b95506117d48186612b33565b83519095506001600160a01b031661181a5760405162461bcd60e51b815260206004820152600960248201526852523a5652493a494160b81b6044820152606401610470565b5050508080611828906127a6565b91505061173b565b5060fe5460ff90811690851611801590611853575060fe5460ff90811690841611155b61188d5760405162461bcd60e51b815260206004820152600b60248201526a52523a5652493a4f4d524360a81b6044820152606401610470565b61189d604086016020870161267f565b60ff168460ff161480156118c557506118bc606086016040870161267f565b60ff168360ff16145b6118fe5760405162461bcd60e51b815260206004820152600a60248201526952523a5652493a434e4d60b01b6044820152606401610470565b61ffff8216612710148015611918575061ffff8116612710145b6119545760405162461bcd60e51b815260206004820152600d60248201526c052523a5652493a52504e31303609c1b6044820152606401610470565b60006119666080870160608801612b55565b61ffff1611801561199a575061197f6002612710612b72565b61ffff166119936080870160608801612b55565b61ffff1611155b6119d45760405162461bcd60e51b815260206004820152600b60248201526a29291d2b29249d2927a32d60a91b6044820152606401610470565b505050505050565b60007faba5a9d1c33a8818a43e6b1ff947818e4c063cf049a5260ec91c5dc7520f9bb9611a11611a0c848061281f565b611bf5565b611a21604085016020860161267f565b611a31606086016040870161267f565b611a416080870160608801612b55565b60408051602081019690965285019390935260ff918216606085015216608083015261ffff1660a082015260c0015b604051602081830303815290604052805190602001209050919050565b6000611ac47f8b73c3c69bb8fe3d512ecc4cf759cc79239f7b179b0ffacaa9a75d522b39400f611abc60665490565b606754611cc8565b905090565b6000806000611ad88585611d12565b91509150611ae581611d57565b509392505050565b600054610100900460ff16611b145760405162461bcd60e51b815260040161047090612a5d565b815160209283012081519190920120606691909155606755565b6001600160a01b0381163b611b9b5760405162461bcd60e51b815260206004820152602d60248201527f455243313936373a206e657720696d706c656d656e746174696f6e206973206e60448201526c1bdd08184818dbdb9d1c9858dd609a1b6064820152608401610470565b600080516020612c5383398151915280546001600160a01b0319166001600160a01b0392909216919091179055565b611bd383611f0d565b600082511180611be05750805b1561084357611bef8383611f4d565b50505050565b6000808267ffffffffffffffff811115611c1157611c1161240a565b604051908082528060200260200182016040528015611c3a578160200160208202803683370190505b50905060005b83811015611c9757611c68858583818110611c5d57611c5d61277a565b905060600201612041565b828281518110611c7a57611c7a61277a565b602090810291909101015280611c8f816127a6565b915050611c40565b5080604051602001611ca99190612b93565b6040516020818303038152906040528051906020012091505092915050565b6040805160208101859052908101839052606081018290524660808201523060a082015260009060c0016040516020818303038152906040528051906020012090505b9392505050565b6000808251604103611d485760208301516040840151606085015160001a611d3c878285856120c8565b94509450505050611d50565b506000905060025b9250929050565b6000816004811115611d6b57611d6b612bc9565b03611d735750565b6001816004811115611d8757611d87612bc9565b03611dd45760405162461bcd60e51b815260206004820152601860248201527f45434453413a20696e76616c6964207369676e617475726500000000000000006044820152606401610470565b6002816004811115611de857611de8612bc9565b03611e355760405162461bcd60e51b815260206004820152601f60248201527f45434453413a20696e76616c6964207369676e6174757265206c656e677468006044820152606401610470565b6003816004811115611e4957611e49612bc9565b03611ea15760405162461bcd60e51b815260206004820152602260248201527f45434453413a20696e76616c6964207369676e6174757265202773272076616c604482015261756560f01b6064820152608401610470565b6004816004811115611eb557611eb5612bc9565b0361055b5760405162461bcd60e51b815260206004820152602260248201527f45434453413a20696e76616c6964207369676e6174757265202776272076616c604482015261756560f01b6064820152608401610470565b611f1681611b2e565b6040516001600160a01b038216907fbc7cd75a20ee27fd9adebab32041f755214dbc6bffa90cc0225b39da2e5c2d3b90600090a250565b60606001600160a01b0383163b611fb55760405162461bcd60e51b815260206004820152602660248201527f416464726573733a2064656c65676174652063616c6c20746f206e6f6e2d636f6044820152651b9d1c9858dd60d21b6064820152608401610470565b600080846001600160a01b031684604051611fd09190612c03565b600060405180830381855af49150503d806000811461200b576040519150601f19603f3d011682016040523d82523d6000602084013e612010565b606091505b50915091506120388282604051806060016040528060278152602001612c73602791396121b5565b95945050505050565b60007f1fcf8c6db284c3714bcc883252b01062c9d893cc816013eae0324bbd3b5113b36120716020840184612269565b6120816040850160208601612b55565b6120916060860160408701612b55565b6040805160208101959095526001600160a01b039093169284019290925261ffff908116606084015216608082015260a001611a70565b6000807f7fffffffffffffffffffffffffffffff5d576e7357a4501ddfe92f46681b20a08311156120ff57506000905060036121ac565b8460ff16601b1415801561211757508460ff16601c14155b1561212857506000905060046121ac565b6040805160008082526020820180845289905260ff881692820192909252606081018690526080810185905260019060a0016020604051602081039080840390855afa15801561217c573d6000803e3d6000fd5b5050604051601f1901519150506001600160a01b0381166121a5576000600192509250506121ac565b9150600090505b94509492505050565b606083156121c4575081611d0b565b8251156121d45782518084602001fd5b8160405162461bcd60e51b81526004016104709190612c1f565b508054600082559060005260206000209081019061055b91905b808211156122265780546001600160c01b0319168155600101612208565b5090565b60006020828403121561223c57600080fd5b81356001600160e01b031981168114611d0b57600080fd5b6001600160a01b038116811461055b57600080fd5b60006020828403121561227b57600080fd5b8135611d0b81612254565b6000806040838503121561229957600080fd5b50508035926020909101359150565b600080602083850312156122bb57600080fd5b823567ffffffffffffffff808211156122d357600080fd5b818501915085601f8301126122e757600080fd5b8135818111156122f657600080fd5b8660208260051b850101111561230b57600080fd5b60209290920196919550909350505050565b60ff8116811461055b57600080fd5b6000806000806080858703121561234257600080fd5b843561234d81612254565b93506020850135925060408501359150606085013561236b8161231d565b939692955090935050565b606080825284519082018190526000906020906080840190828801845b828110156123b85781516001600160a01b031684529284019290840190600101612393565b5050508381038285015285518082528683019183019060005b818110156123ed578351835292840192918401916001016123d1565b505060ff861660408601529250612402915050565b949350505050565b634e487b7160e01b600052604160045260246000fd5b604051601f8201601f1916810167ffffffffffffffff811182821017156124495761244961240a565b604052919050565b6000806040838503121561246457600080fd5b823561246f81612254565b915060208381013567ffffffffffffffff8082111561248d57600080fd5b818601915086601f8301126124a157600080fd5b8135818111156124b3576124b361240a565b6124c5601f8201601f19168501612420565b915080825287848285010111156124db57600080fd5b80848401858401376000848284010152508093505050509250929050565b60006080828403121561250b57600080fd5b50919050565b60008083601f84011261252357600080fd5b50813567ffffffffffffffff81111561253b57600080fd5b602083019150836020828501011115611d5057600080fd5b60008060008060006080868803121561256b57600080fd5b853561257681612254565b945060208601359350604086013567ffffffffffffffff8082111561259a57600080fd5b6125a689838a016124f9565b945060608801359150808211156125bc57600080fd5b506125c988828901612511565b969995985093965092949392505050565b600080600080606085870312156125f057600080fd5b84356125fb81612254565b9350602085013567ffffffffffffffff8082111561261857600080fd5b612624888389016124f9565b9450604087013591508082111561263a57600080fd5b5061264787828801612511565b95989497509550505050565b6000806040838503121561266657600080fd5b823561267181612254565b946020939093013593505050565b60006020828403121561269157600080fd5b8135611d0b8161231d565b60208082526026908201527f41646d696e3a6f6e6c7941646d696e2063616c6c6572206973206e6f7420616e6040820152651020b236b4b760d11b606082015260800190565b6020808252602c908201527f46756e6374696f6e206d7573742062652063616c6c6564207468726f7567682060408201526b19195b1959d85d1958d85b1b60a21b606082015260800190565b6020808252602c908201527f46756e6374696f6e206d7573742062652063616c6c6564207468726f7567682060408201526b6163746976652070726f787960a01b606082015260800190565b634e487b7160e01b600052603260045260246000fd5b634e487b7160e01b600052601160045260246000fd5b6000600182016127b8576127b8612790565b5060010190565b80820281158282048414176103d1576103d1612790565b634e487b7160e01b600052601260045260246000fd5b6000826127fb576127fb6127d6565b500490565b600060ff821660ff810361281657612816612790565b60010192915050565b6000808335601e1984360301811261283657600080fd5b83018035915067ffffffffffffffff82111561285157600080fd5b6020019150606081023603821315611d5057600080fd5b61ffff8116811461055b57600080fd5b600081356103d181612868565b813561289081612254565b81546001600160a01b031981166001600160a01b0392909216918217835560208401356128bc81612868565b61ffff60a01b60a09190911b166001600160b01b0319821683178117845560408501356128e881612868565b6001600160c01b0319929092169092179190911760b09190911b61ffff60b01b1617905550565b600081356103d18161231d565b8135601e1983360301811261293057600080fd5b8201803567ffffffffffffffff81111561294957600080fd5b6020820191506060808202360383131561296257600080fd5b6801000000000000000082111561297b5761297b61240a565b8354828555808310156129b2576000858152602081208481019083015b808210156129ae57828255600182019150612998565b5050505b5060008481526020902060005b838110156129e1576129d18583612885565b93820193600191820191016129bf565b5050600184019250612a096129f86020870161290f565b845460ff191660ff91909116178455565b612a2e612a186040870161290f565b845461ff00191660089190911b61ff0016178455565b612a56612a3c828701612878565b845463ffff0000191660109190911b63ffff000016178455565b5050505050565b6020808252602b908201527f496e697469616c697a61626c653a20636f6e7472616374206973206e6f74206960408201526a6e697469616c697a696e6760a81b606082015260800190565b600060208284031215612aba57600080fd5b5051919050565b600060608284031215612ad357600080fd5b6040516060810181811067ffffffffffffffff82111715612af657612af661240a565b6040528235612b0481612254565b81526020830135612b1481612868565b60208201526040830135612b2781612868565b60408201529392505050565b61ffff818116838216019080821115612b4e57612b4e612790565b5092915050565b600060208284031215612b6757600080fd5b8135611d0b81612868565b600061ffff80841680612b8757612b876127d6565b92169190910492915050565b815160009082906020808601845b83811015612bbd57815185529382019390820190600101612ba1565b50929695505050505050565b634e487b7160e01b600052602160045260246000fd5b60005b83811015612bfa578181015183820152602001612be2565b50506000910152565b60008251612c15818460208701612bdf565b9190910192915050565b6020815260008251806020840152612c3e816040850160208701612bdf565b601f01601f1916919091016040019291505056fe360894a13ba1a3210667c828492db98dca3e2076cc3735a920a3ca505d382bbc416464726573733a206c6f772d6c6576656c2064656c65676174652063616c6c206661696c6564a26469706673582212203ad7f049e557f7c47c59a694d1a965314b98a6d32820303ef4489da99af97df564736f6c63430008110033",
  "linkReferences": {},
  "deployedLinkReferences": {}
}