{
  "_format": "hh-sol-artifact-1",
  "contractName": "RoyaltyRegistry",
  "sourceName": "contracts/sbinft/market/v1/royalty/RoyaltyRegistry.sol",
  "abi": [
    {
      "inputs": [
        {
          "internalType": "address",
          "name": "trustedForwarder",
          "type": "address"
        }
      ],
      "stateMutability": "nonpayable",
      "type": "constructor"
    },
    {
      "anonymous": false,
      "inputs": [
        {
          "indexed": false,
          "internalType": "address",
          "name": "",
          "type": "address"
        }
      ],
      "name": "AdminAdded",
      "type": "event"
    },
    {
      "anonymous": false,
      "inputs": [
        {
          "indexed": false,
          "internalType": "address",
          "name": "previousAdmin",
          "type": "address"
        },
        {
          "indexed": false,
          "internalType": "address",
          "name": "newAdmin",
          "type": "address"
        }
      ],
      "name": "AdminChanged",
      "type": "event"
    },
    {
      "anonymous": false,
      "inputs": [
        {
          "indexed": false,
          "internalType": "address",
          "name": "",
          "type": "address"
        }
      ],
      "name": "AdminRemoved",
      "type": "event"
    },
    {
      "anonymous": false,
      "inputs": [
        {
          "indexed": true,
          "internalType": "address",
          "name": "beacon",
          "type": "address"
        }
      ],
      "name": "BeaconUpgraded",
      "type": "event"
    },
    {
      "anonymous": false,
      "inputs": [
        {
          "indexed": true,
          "internalType": "address",
          "name": "token",
          "type": "address"
        }
      ],
      "name": "CollectionDefaultRoyaltyInfoDeleted",
      "type": "event"
    },
    {
      "anonymous": false,
      "inputs": [
        {
          "indexed": true,
          "internalType": "address",
          "name": "token",
          "type": "address"
        }
      ],
      "name": "CollectionDefaultRoyaltyInfoSet",
      "type": "event"
    },
    {
      "anonymous": false,
      "inputs": [
        {
          "indexed": false,
          "internalType": "uint8",
          "name": "version",
          "type": "uint8"
        }
      ],
      "name": "Initialized",
      "type": "event"
    },
    {
      "anonymous": false,
      "inputs": [
        {
          "indexed": false,
          "internalType": "uint8",
          "name": "maxRoyaltyReceiversCount",
          "type": "uint8"
        }
      ],
      "name": "MaxRoyaltyReceiversCountUpdated",
      "type": "event"
    },
    {
      "anonymous": false,
      "inputs": [
        {
          "indexed": true,
          "internalType": "address",
          "name": "token",
          "type": "address"
        },
        {
          "indexed": true,
          "internalType": "uint256",
          "name": "tokenId",
          "type": "uint256"
        }
      ],
      "name": "TokenRoyaltyInfoReset",
      "type": "event"
    },
    {
      "anonymous": false,
      "inputs": [
        {
          "indexed": true,
          "internalType": "address",
          "name": "token",
          "type": "address"
        },
        {
          "indexed": true,
          "internalType": "uint256",
          "name": "tokenId",
          "type": "uint256"
        }
      ],
      "name": "TokenRoyaltyInfoSet",
      "type": "event"
    },
    {
      "anonymous": false,
      "inputs": [
        {
          "indexed": true,
          "internalType": "address",
          "name": "implementation",
          "type": "address"
        }
      ],
      "name": "Upgraded",
      "type": "event"
    },
    {
      "inputs": [],
      "name": "__RoyaltyRegistry_init",
      "outputs": [],
      "stateMutability": "nonpayable",
      "type": "function"
    },
    {
      "inputs": [
        {
          "internalType": "address[]",
          "name": "newAdmin",
          "type": "address[]"
        }
      ],
      "name": "addAdmin",
      "outputs": [],
      "stateMutability": "nonpayable",
      "type": "function"
    },
    {
      "inputs": [
        {
          "internalType": "address",
          "name": "newAdmin",
          "type": "address"
        }
      ],
      "name": "addAdmin",
      "outputs": [],
      "stateMutability": "nonpayable",
      "type": "function"
    },
    {
      "inputs": [
        {
          "internalType": "address",
          "name": "_token",
          "type": "address"
        }
      ],
      "name": "deleteCollectionDefaultRoyalty",
      "outputs": [],
      "stateMutability": "nonpayable",
      "type": "function"
    },
    {
      "inputs": [],
      "name": "feeDenominator",
      "outputs": [
        {
          "internalType": "uint16",
          "name": "",
          "type": "uint16"
        }
      ],
      "stateMutability": "pure",
      "type": "function"
    },
    {
      "inputs": [
        {
          "internalType": "address",
          "name": "checkAdmin",
          "type": "address"
        }
      ],
      "name": "isAdmin",
      "outputs": [
        {
          "internalType": "bool",
          "name": "",
          "type": "bool"
        }
      ],
      "stateMutability": "view",
      "type": "function"
    },
    {
      "inputs": [
        {
          "internalType": "address",
          "name": "forwarder",
          "type": "address"
        }
      ],
      "name": "isTrustedForwarder",
      "outputs": [
        {
          "internalType": "bool",
          "name": "",
          "type": "bool"
        }
      ],
      "stateMutability": "view",
      "type": "function"
    },
    {
      "inputs": [],
      "name": "maxRoyaltyReceiversCount",
      "outputs": [
        {
          "internalType": "uint8",
          "name": "",
          "type": "uint8"
        }
      ],
      "stateMutability": "view",
      "type": "function"
    },
    {
      "inputs": [],
      "name": "proxiableUUID",
      "outputs": [
        {
          "internalType": "bytes32",
          "name": "",
          "type": "bytes32"
        }
      ],
      "stateMutability": "view",
      "type": "function"
    },
    {
      "inputs": [
        {
          "internalType": "address",
          "name": "admin",
          "type": "address"
        }
      ],
      "name": "removeAdmin",
      "outputs": [],
      "stateMutability": "nonpayable",
      "type": "function"
    },
    {
      "inputs": [
        {
          "internalType": "address",
          "name": "_token",
          "type": "address"
        },
        {
          "internalType": "uint256",
          "name": "_tokenId",
          "type": "uint256"
        }
      ],
      "name": "resetTokenRoyalty",
      "outputs": [],
      "stateMutability": "nonpayable",
      "type": "function"
    },
    {
      "inputs": [
        {
          "internalType": "uint256",
          "name": "",
          "type": "uint256"
        },
        {
          "internalType": "uint256",
          "name": "",
          "type": "uint256"
        }
      ],
      "name": "royaltyInfo",
      "outputs": [
        {
          "internalType": "address",
          "name": "",
          "type": "address"
        },
        {
          "internalType": "uint256",
          "name": "",
          "type": "uint256"
        }
      ],
      "stateMutability": "view",
      "type": "function"
    },
    {
      "inputs": [
        {
          "internalType": "address",
          "name": "_token",
          "type": "address"
        },
        {
          "internalType": "uint256",
          "name": "_tokenId",
          "type": "uint256"
        },
        {
          "internalType": "uint256",
          "name": "_salePrice",
          "type": "uint256"
        },
        {
          "internalType": "uint8",
          "name": "_isSecondarySale",
          "type": "uint8"
        }
      ],
      "name": "royaltyInfo",
      "outputs": [
        {
          "internalType": "address[]",
          "name": "",
          "type": "address[]"
        },
        {
          "internalType": "uint256[]",
          "name": "",
          "type": "uint256[]"
        },
        {
          "internalType": "uint8",
          "name": "",
          "type": "uint8"
        }
      ],
      "stateMutability": "view",
      "type": "function"
    },
    {
      "inputs": [
        {
          "internalType": "address",
          "name": "token",
          "type": "address"
        },
        {
          "components": [
            {
              "components": [
                {
                  "internalType": "address",
                  "name": "receiver",
                  "type": "address"
                },
                {
                  "internalType": "uint16",
                  "name": "primaryPercentage",
                  "type": "uint16"
                },
                {
                  "internalType": "uint16",
                  "name": "secondaryPercentage",
                  "type": "uint16"
                }
              ],
              "internalType": "struct RoyaltyRegistry.Royalty[]",
              "name": "royaltyList",
              "type": "tuple[]"
            },
            {
              "internalType": "uint8",
              "name": "primaryCount",
              "type": "uint8"
            },
            {
              "internalType": "uint8",
              "name": "secondaryCount",
              "type": "uint8"
            },
            {
              "internalType": "uint16",
              "name": "secondaryOnwardsRoyaltyPercentage",
              "type": "uint16"
            }
          ],
          "internalType": "struct RoyaltyRegistry.RoyaltyInfo",
          "name": "royaltyInfo_",
          "type": "tuple"
        },
        {
          "internalType": "bytes",
          "name": "sign",
          "type": "bytes"
        }
      ],
      "name": "setCollectionDefaultRoyalty",
      "outputs": [],
      "stateMutability": "nonpayable",
      "type": "function"
    },
    {
      "inputs": [
        {
          "internalType": "address",
          "name": "token",
          "type": "address"
        },
        {
          "internalType": "uint256",
          "name": "tokenId",
          "type": "uint256"
        },
        {
          "components": [
            {
              "components": [
                {
                  "internalType": "address",
                  "name": "receiver",
                  "type": "address"
                },
                {
                  "internalType": "uint16",
                  "name": "primaryPercentage",
                  "type": "uint16"
                },
                {
                  "internalType": "uint16",
                  "name": "secondaryPercentage",
                  "type": "uint16"
                }
              ],
              "internalType": "struct RoyaltyRegistry.Royalty[]",
              "name": "royaltyList",
              "type": "tuple[]"
            },
            {
              "internalType": "uint8",
              "name": "primaryCount",
              "type": "uint8"
            },
            {
              "internalType": "uint8",
              "name": "secondaryCount",
              "type": "uint8"
            },
            {
              "internalType": "uint16",
              "name": "secondaryOnwardsRoyaltyPercentage",
              "type": "uint16"
            }
          ],
          "internalType": "struct RoyaltyRegistry.RoyaltyInfo",
          "name": "royaltyInfo_",
          "type": "tuple"
        },
        {
          "internalType": "bytes",
          "name": "sign",
          "type": "bytes"
        }
      ],
      "name": "setTokenRoyalty",
      "outputs": [],
      "stateMutability": "nonpayable",
      "type": "function"
    },
    {
      "inputs": [
        {
          "internalType": "bytes4",
          "name": "_interfaceId",
          "type": "bytes4"
        }
      ],
      "name": "supportsInterface",
      "outputs": [
        {
          "internalType": "bool",
          "name": "",
          "type": "bool"
        }
      ],
      "stateMutability": "view",
      "type": "function"
    },
    {
      "inputs": [
        {
          "internalType": "uint8",
          "name": "_newMaxRoyaltyReceiversCount",
          "type": "uint8"
        }
      ],
      "name": "updateMaxRoyaltyReceiversCount",
      "outputs": [],
      "stateMutability": "nonpayable",
      "type": "function"
    },
    {
      "inputs": [
        {
          "internalType": "address",
          "name": "newImplementation",
          "type": "address"
        }
      ],
      "name": "upgradeTo",
      "outputs": [],
      "stateMutability": "nonpayable",
      "type": "function"
    },
    {
      "inputs": [
        {
          "internalType": "address",
          "name": "newImplementation",
          "type": "address"
        },
        {
          "internalType": "bytes",
          "name": "data",
          "type": "bytes"
        }
      ],
      "name": "upgradeToAndCall",
      "outputs": [],
      "stateMutability": "payable",
      "type": "function"
    }
  ],
  "bytecode": "0x60c06040523060a0523480156200001557600080fd5b5060405162002fb038038062002fb0833981016040819052620000389162000118565b6001600160a01b0381166080526200004f62000056565b506200014a565b600054610100900460ff1615620000c35760405162461bcd60e51b815260206004820152602760248201527f496e697469616c697a61626c653a20636f6e747261637420697320696e697469604482015266616c697a696e6760c81b606482015260840160405180910390fd5b60005460ff908116101562000116576000805460ff191660ff9081179091556040519081527f7f26b83ff96e1f2b6a682f133852f6798a09c465da95921460cefb38474024989060200160405180910390a15b565b6000602082840312156200012b57600080fd5b81516001600160a01b03811681146200014357600080fd5b9392505050565b60805160a051612e1d620001936000396000818161077d015281816107bd01528181610dff01528181610e3f0152610ed20152600081816102fc0152611c3c0152612e1d6000f3fe6080604052600436106101145760003560e01c806342871157116100a05780638a662c8d116100645780638a662c8d1461034c5780639198d4521461036c5780639fdcd3671461038c578063b5c8f0f6146103ac578063c8be10b1146103d957600080fd5b8063428711571461027a5780634f1ef286146102a957806352d1902d146102bc578063572b6c05146102df578063704802751461032c57600080fd5b806320bdc533116100e757806320bdc533146101a257806324d7806c146101c25780632a55205a146101fb5780633659cfe61461023a5780633d0950a81461025a57600080fd5b806301ffc9a7146101195780630d505be11461014e5780631785f53c14610165578063180b0d7e14610185575b600080fd5b34801561012557600080fd5b50610139610134366004612378565b6103f9565b60405190151581526020015b60405180910390f35b34801561015a57600080fd5b50610163610430565b005b34801561017157600080fd5b506101636101803660046123b7565b6105b8565b34801561019157600080fd5b506040516127108152602001610145565b3480156101ae57600080fd5b506101636101bd3660046123b7565b61068c565b3480156101ce57600080fd5b506101396101dd3660046123b7565b6001600160a01b031660009081526097602052604090205460ff1690565b34801561020757600080fd5b5061021b6102163660046123d4565b61073b565b604080516001600160a01b039093168352602083019190915201610145565b34801561024657600080fd5b506101636102553660046123b7565b610773565b34801561026657600080fd5b506101636102753660046123f6565b61084f565b34801561028657600080fd5b5061029a61029536600461247a565b6108e5565b604051610145939291906124c4565b6101636102b736600461259f565b610df5565b3480156102c857600080fd5b506102d1610ec5565b604051908152602001610145565b3480156102eb57600080fd5b506101396102fa3660046123b7565b7f00000000000000000000000000000000000000000000000000000000000000006001600160a01b0390811691161490565b34801561033857600080fd5b506101636103473660046123b7565b610f78565b34801561035857600080fd5b506101636103673660046126a1565b610fc6565b34801561037857600080fd5b50610163610387366004612728565b6111b1565b34801561039857600080fd5b506101636103a73660046127a1565b611312565b3480156103b857600080fd5b50610130546103c79060ff1681565b60405160ff9091168152602001610145565b3480156103e557600080fd5b506101636103f43660046127cd565b6113cf565b60006001600160e01b03198216635a8c1c2960e01b148061042a57506301ffc9a760e01b6001600160e01b03198316145b92915050565b600054610100900460ff16158080156104505750600054600160ff909116105b8061046a5750303b15801561046a575060005460ff166001145b6104d25760405162461bcd60e51b815260206004820152602e60248201527f496e697469616c697a61626c653a20636f6e747261637420697320616c72656160448201526d191e481a5b9a5d1a585b1a5e995960921b60648201526084015b60405180910390fd5b6000805460ff1916600117905580156104f5576000805461ff0019166101001790555b6104fd611499565b6105056114c2565b610558604051806040016040528060168152602001755342494e465420526f79616c7479526567697374727960501b815250604051806040016040528060038152602001620312e360ec1b8152506114fc565b610560611499565b610130805460ff1916600717905580156105b5576000805461ff0019169055604051600181527f7f26b83ff96e1f2b6a682f133852f6798a09c465da95921460cefb3847402498906020015b60405180910390a15b50565b609760006105c461152d565b6001600160a01b0316815260208101919091526040016000205460ff166105fd5760405162461bcd60e51b81526004016104c9906127ea565b6001600160a01b03811660009081526097602052604090205460ff166106835760405162461bcd60e51b815260206004820152603560248201527f41646d696e3a72656d6f766541646d696e20747279696e6720746f2072656d6f6044820152743b32903737b71032bc34b9ba34b7339020b236b4b760591b60648201526084016104c9565b6105b58161153c565b6097600061069861152d565b6001600160a01b0316815260208101919091526040016000205460ff166106d15760405162461bcd60e51b81526004016104c9906127ea565b6001600160a01b038116600090815261013160205260408120906106f5828261233c565b50600101805463ffffffff191690556040516001600160a01b038216907f13b5bf4b6466e456ed224e9c6dd5b843dd5ebde02c58f084b232feba860daefc90600090a250565b60405162461bcd60e51b815260206004820152600860248201526752523a52493a4e4960c01b604482015260009081906064016104c9565b6001600160a01b037f00000000000000000000000000000000000000000000000000000000000000001630036107bb5760405162461bcd60e51b81526004016104c990612830565b7f00000000000000000000000000000000000000000000000000000000000000006001600160a01b0316610804600080516020612da1833981519152546001600160a01b031690565b6001600160a01b03161461082a5760405162461bcd60e51b81526004016104c99061287c565b6108338161158d565b604080516000808252602082019092526105b5918391906115d2565b6097600061085b61152d565b6001600160a01b0316815260208101919091526040016000205460ff166108945760405162461bcd60e51b81526004016104c9906127ea565b60005b818110156108e0576108ce8383838181106108b4576108b46128c8565b90506020020160208101906108c991906123b7565b61173d565b806108d8816128f4565b915050610897565b505050565b60608060006001600160a01b03871661092c5760405162461bcd60e51b815260206004820152600960248201526852523a52493a545a4160b81b60448201526064016104c9565b8560000361096a5760405162461bcd60e51b815260206004820152600b60248201526a52523a52493a5449445a4160a81b60448201526064016104c9565b846000036109a65760405162461bcd60e51b815260206004820152600960248201526829291d29249d29a82d60b91b60448201526064016104c9565b6001600160a01b03871660009081526101326020908152604080832089845282528083208151815460a094810282018501909352608081018381526002959491938492849190879085015b82821015610a4957600084815260209081902060408051606081018252918501546001600160a01b038116835261ffff600160a01b8204811684860152600160b01b90910416908201528252600190920191016109f1565b505050908252506001919091015460ff8082166020840152610100820416604083015262010000900461ffff16606090910152805151909150600003610b8c576001600160a01b0389166000908152610131602090815260408083208151815460a09481028201850190935260808101838152909491938593919285929185015b82821015610b2257600084815260209081902060408051606081018252918501546001600160a01b038116835261ffff600160a01b8204811684860152600160b01b9091041690820152825260019092019101610aca565b505050908252506001919091015460ff8082166020840152610100820416604083015262010000900461ffff16606090910152805151909150600003610b87575050604080516000808252602082018181528284019093529094509092509050610deb565b600191505b8660ff8716600103610bbc57606082015161271090610baf9061ffff168a61290d565b610bb9919061293a565b90505b60008760ff16600114610bd3578260200151610bd9565b82604001515b905060008160ff1667ffffffffffffffff811115610bf957610bf9612558565b604051908082528060200260200182016040528015610c22578160200160208202803683370190505b50905060008260ff1667ffffffffffffffff811115610c4357610c43612558565b604051908082528060200260200182016040528015610c6c578160200160208202803683370190505b5090506000925060005b855151811015610dde57600086600001518281518110610c9857610c986128c8565b602002602001015190508b60ff16600103610d3e57604081015161ffff811615610d38578160000151858760ff1681518110610cd657610cd66128c8565b6001600160a01b039290921660209283029190910190910152612710610d0061ffff83168961290d565b610d0a919061293a565b848760ff1681518110610d1f57610d1f6128c8565b602090810291909101015285610d348161294e565b9650505b50610dcb565b602081015161ffff811615610dc9578160000151858760ff1681518110610d6757610d676128c8565b6001600160a01b039290921660209283029190910190910152612710610d9161ffff83168961290d565b610d9b919061293a565b848760ff1681518110610db057610db06128c8565b602090810291909101015285610dc58161294e565b9650505b505b5080610dd6816128f4565b915050610c76565b5090975095509293505050505b9450945094915050565b6001600160a01b037f0000000000000000000000000000000000000000000000000000000000000000163003610e3d5760405162461bcd60e51b81526004016104c990612830565b7f00000000000000000000000000000000000000000000000000000000000000006001600160a01b0316610e86600080516020612da1833981519152546001600160a01b031690565b6001600160a01b031614610eac5760405162461bcd60e51b81526004016104c99061287c565b610eb58261158d565b610ec1828260016115d2565b5050565b6000306001600160a01b037f00000000000000000000000000000000000000000000000000000000000000001614610f655760405162461bcd60e51b815260206004820152603860248201527f555550535570677261646561626c653a206d757374206e6f742062652063616c60448201527f6c6564207468726f7567682064656c656761746563616c6c000000000000000060648201526084016104c9565b50600080516020612da183398151915290565b60976000610f8461152d565b6001600160a01b0316815260208101919091526040016000205460ff16610fbd5760405162461bcd60e51b81526004016104c9906127ea565b6105b58161173d565b610fd085846117fb565b8360000361100f5760405162461bcd60e51b815260206004820152600c60248201526b29291d29a1a91d2a24a2272d60a11b60448201526064016104c9565b61101a6101dd61152d565b15156000036111425760006110b683838080601f0160208091040260200160405190810160405280939291908181526020018383808284376000920191909152506110b0925061106d9150889050611aeb565b611075611b9c565b6040805161190160f01b6020808301919091526022820193909352604280820194909452815180820390940184526062019052815191012090565b90611bd3565b90506110da816001600160a01b031660009081526097602052604090205460ff1690565b6111405760405162461bcd60e51b815260206004820152603160248201527f526f79616c747952656769737472793a736574546f6b656e526f79616c747920604482015270696e76616c6964207369676e617475726560781b60648201526084016104c9565b505b6001600160a01b038516600090815261013260209081526040808320878452909152902083906111728282612a6a565b505060405184906001600160a01b038716907f364104cde60feddcfae5b2aff85c0544eb700a8a69692e5cceb58bb5a388f3bd90600090a35050505050565b6111bb84846117fb565b6111c66101dd61152d565b15156000036112b157600061121983838080601f0160208091040260200160405190810160405280939291908181526020018383808284376000920191909152506110b0925061106d9150889050611aeb565b905061123d816001600160a01b031660009081526097602052604090205460ff1690565b6112af5760405162461bcd60e51b815260206004820152603d60248201527f526f79616c747952656769737472793a736574436f6c6c656374696f6e44656660448201527f61756c74526f79616c747920696e76616c6964207369676e617475726500000060648201526084016104c9565b505b6001600160a01b03841660009081526101316020526040902083906112d68282612a6a565b50506040516001600160a01b038516907f5f6ae8937774b0b080bbc19d66607dbc55d9b3ceba9ffdf952dd01bfc197a20a90600090a250505050565b6097600061131e61152d565b6001600160a01b0316815260208101919091526040016000205460ff166113575760405162461bcd60e51b81526004016104c9906127ea565b6001600160a01b038216600090815261013260209081526040808320848452909152812090611386828261233c565b50600101805463ffffffff1916905560405181906001600160a01b038416907f8c4ef2812aa9d73ea94f30cc678d3abbfd7a9601a9cb8c7d98e20f5c229c3c4d90600090a35050565b609760006113db61152d565b6001600160a01b0316815260208101919091526040016000205460ff166114145760405162461bcd60e51b81526004016104c9906127ea565b60008160ff16116114565760405162461bcd60e51b815260206004820152600c60248201526b29291d2aa6a929219d23aa2d60a11b60448201526064016104c9565b610130805460ff191660ff83169081179091556040519081527f70c122dfc4da27e88d85b0fd0a2ed9f4b9d82558aa574bbd00fea89fc1ee500d906020016105ac565b600054610100900460ff166114c05760405162461bcd60e51b81526004016104c990612bab565b565b600054610100900460ff166114e95760405162461bcd60e51b81526004016104c990612bab565b6114f1611499565b6114c06108c961152d565b600054610100900460ff166115235760405162461bcd60e51b81526004016104c990612bab565b610ec18282611bf7565b6000611537611c38565b905090565b6001600160a01b038116600081815260976020908152604091829020805460ff1916905590519182527fa3b62bc36326052d97ea62d63c3d60308ed4c3ea8ac079dd8499f1e9c4f80c0f91016105ac565b6097600061159961152d565b6001600160a01b0316815260208101919091526040016000205460ff166105b55760405162461bcd60e51b81526004016104c9906127ea565b7f4910fdfa16fed3260ed0e7147f7cc6da11a60208b5b9406d12a635614ffd91435460ff1615611605576108e083611c7c565b826001600160a01b03166352d1902d6040518163ffffffff1660e01b8152600401602060405180830381865afa92505050801561165f575060408051601f3d908101601f1916820190925261165c91810190612bf6565b60015b6116c25760405162461bcd60e51b815260206004820152602e60248201527f45524331393637557067726164653a206e657720696d706c656d656e7461746960448201526d6f6e206973206e6f74205555505360901b60648201526084016104c9565b600080516020612da183398151915281146117315760405162461bcd60e51b815260206004820152602960248201527f45524331393637557067726164653a20756e737570706f727465642070726f786044820152681a58589b195555525160ba1b60648201526084016104c9565b506108e0838383611d18565b6001600160a01b0381166117a75760405162461bcd60e51b815260206004820152602b60248201527f41646d696e3a61646441646d696e206e657741646d696e20697320746865207a60448201526a65726f206164647265737360a81b60648201526084016104c9565b6001600160a01b038116600081815260976020908152604091829020805460ff1916600117905590519182527f44d6d25963f097ad14f29f06854a01f575648a1ef82f30e562ccd3889717e33991016105ac565b6001600160a01b0382163b61183f5760405162461bcd60e51b815260206004820152600a60248201526952523a5652493a544e4360b01b60448201526064016104c9565b60008060008060005b611852868061296d565b905081101561193d576000611867878061296d565b83818110611877576118776128c8565b90506060020180360381019061188d9190612c0f565b602081015160408201519192509061ffff8216156118b357876118af8161294e565b9850505b61ffff8116156118cb57866118c78161294e565b9750505b6118d58287612c81565b95506118e18186612c81565b83519095506001600160a01b03166119275760405162461bcd60e51b815260206004820152600960248201526852523a5652493a494160b81b60448201526064016104c9565b5050508080611935906128f4565b915050611848565b506101305460ff9081169085161180159061196257506101305460ff90811690841611155b61199c5760405162461bcd60e51b815260206004820152600b60248201526a52523a5652493a4f4d524360a81b60448201526064016104c9565b6119ac60408601602087016127cd565b60ff168460ff161480156119d457506119cb60608601604087016127cd565b60ff168360ff16145b611a0d5760405162461bcd60e51b815260206004820152600a60248201526952523a5652493a434e4d60b01b60448201526064016104c9565b61ffff8216612710148015611a27575061ffff8116612710145b611a635760405162461bcd60e51b815260206004820152600d60248201526c052523a5652493a52504e31303609c1b60448201526064016104c9565b6000611a756080870160608801612ca3565b61ffff16118015611aa95750611a8e6002612710612cc0565b61ffff16611aa26080870160608801612ca3565b61ffff1611155b611ae35760405162461bcd60e51b815260206004820152600b60248201526a29291d2b29249d2927a32d60a91b60448201526064016104c9565b505050505050565b60007faba5a9d1c33a8818a43e6b1ff947818e4c063cf049a5260ec91c5dc7520f9bb9611b20611b1b848061296d565b611d43565b611b3060408501602086016127cd565b611b4060608601604087016127cd565b611b506080870160608801612ca3565b60408051602081019690965285019390935260ff918216606085015216608083015261ffff1660a082015260c0015b604051602081830303815290604052805190602001209050919050565b60006115377f8b73c3c69bb8fe3d512ecc4cf759cc79239f7b179b0ffacaa9a75d522b39400f611bcb60985490565b609954611e16565b6000806000611be28585611e60565b91509150611bef81611ea5565b509392505050565b600054610100900460ff16611c1e5760405162461bcd60e51b81526004016104c990612bab565b815160209283012081519190920120609891909155609955565b60007f00000000000000000000000000000000000000000000000000000000000000006001600160a01b03163303611c77575060131936013560601c90565b503390565b6001600160a01b0381163b611ce95760405162461bcd60e51b815260206004820152602d60248201527f455243313936373a206e657720696d706c656d656e746174696f6e206973206e60448201526c1bdd08184818dbdb9d1c9858dd609a1b60648201526084016104c9565b600080516020612da183398151915280546001600160a01b0319166001600160a01b0392909216919091179055565b611d218361205b565b600082511180611d2e5750805b156108e057611d3d838361209b565b50505050565b6000808267ffffffffffffffff811115611d5f57611d5f612558565b604051908082528060200260200182016040528015611d88578160200160208202803683370190505b50905060005b83811015611de557611db6858583818110611dab57611dab6128c8565b90506060020161218f565b828281518110611dc857611dc86128c8565b602090810291909101015280611ddd816128f4565b915050611d8e565b5080604051602001611df79190612ce1565b6040516020818303038152906040528051906020012091505092915050565b6040805160208101859052908101839052606081018290524660808201523060a082015260009060c0016040516020818303038152906040528051906020012090505b9392505050565b6000808251604103611e965760208301516040840151606085015160001a611e8a87828585612216565b94509450505050611e9e565b506000905060025b9250929050565b6000816004811115611eb957611eb9612d17565b03611ec15750565b6001816004811115611ed557611ed5612d17565b03611f225760405162461bcd60e51b815260206004820152601860248201527f45434453413a20696e76616c6964207369676e6174757265000000000000000060448201526064016104c9565b6002816004811115611f3657611f36612d17565b03611f835760405162461bcd60e51b815260206004820152601f60248201527f45434453413a20696e76616c6964207369676e6174757265206c656e6774680060448201526064016104c9565b6003816004811115611f9757611f97612d17565b03611fef5760405162461bcd60e51b815260206004820152602260248201527f45434453413a20696e76616c6964207369676e6174757265202773272076616c604482015261756560f01b60648201526084016104c9565b600481600481111561200357612003612d17565b036105b55760405162461bcd60e51b815260206004820152602260248201527f45434453413a20696e76616c6964207369676e6174757265202776272076616c604482015261756560f01b60648201526084016104c9565b61206481611c7c565b6040516001600160a01b038216907fbc7cd75a20ee27fd9adebab32041f755214dbc6bffa90cc0225b39da2e5c2d3b90600090a250565b60606001600160a01b0383163b6121035760405162461bcd60e51b815260206004820152602660248201527f416464726573733a2064656c65676174652063616c6c20746f206e6f6e2d636f6044820152651b9d1c9858dd60d21b60648201526084016104c9565b600080846001600160a01b03168460405161211e9190612d51565b600060405180830381855af49150503d8060008114612159576040519150601f19603f3d011682016040523d82523d6000602084013e61215e565b606091505b50915091506121868282604051806060016040528060278152602001612dc160279139612303565b95945050505050565b60007f1fcf8c6db284c3714bcc883252b01062c9d893cc816013eae0324bbd3b5113b36121bf60208401846123b7565b6121cf6040850160208601612ca3565b6121df6060860160408701612ca3565b6040805160208101959095526001600160a01b039093169284019290925261ffff908116606084015216608082015260a001611b7f565b6000807f7fffffffffffffffffffffffffffffff5d576e7357a4501ddfe92f46681b20a083111561224d57506000905060036122fa565b8460ff16601b1415801561226557508460ff16601c14155b1561227657506000905060046122fa565b6040805160008082526020820180845289905260ff881692820192909252606081018690526080810185905260019060a0016020604051602081039080840390855afa1580156122ca573d6000803e3d6000fd5b5050604051601f1901519150506001600160a01b0381166122f3576000600192509250506122fa565b9150600090505b94509492505050565b60608315612312575081611e59565b8251156123225782518084602001fd5b8160405162461bcd60e51b81526004016104c99190612d6d565b50805460008255906000526020600020908101906105b591905b808211156123745780546001600160c01b0319168155600101612356565b5090565b60006020828403121561238a57600080fd5b81356001600160e01b031981168114611e5957600080fd5b6001600160a01b03811681146105b557600080fd5b6000602082840312156123c957600080fd5b8135611e59816123a2565b600080604083850312156123e757600080fd5b50508035926020909101359150565b6000806020838503121561240957600080fd5b823567ffffffffffffffff8082111561242157600080fd5b818501915085601f83011261243557600080fd5b81358181111561244457600080fd5b8660208260051b850101111561245957600080fd5b60209290920196919550909350505050565b60ff811681146105b557600080fd5b6000806000806080858703121561249057600080fd5b843561249b816123a2565b9350602085013592506040850135915060608501356124b98161246b565b939692955090935050565b606080825284519082018190526000906020906080840190828801845b828110156125065781516001600160a01b0316845292840192908401906001016124e1565b5050508381038285015285518082528683019183019060005b8181101561253b5783518352928401929184019160010161251f565b505060ff861660408601529250612550915050565b949350505050565b634e487b7160e01b600052604160045260246000fd5b604051601f8201601f1916810167ffffffffffffffff8111828210171561259757612597612558565b604052919050565b600080604083850312156125b257600080fd5b82356125bd816123a2565b915060208381013567ffffffffffffffff808211156125db57600080fd5b818601915086601f8301126125ef57600080fd5b81358181111561260157612601612558565b612613601f8201601f1916850161256e565b9150808252878482850101111561262957600080fd5b80848401858401376000848284010152508093505050509250929050565b60006080828403121561265957600080fd5b50919050565b60008083601f84011261267157600080fd5b50813567ffffffffffffffff81111561268957600080fd5b602083019150836020828501011115611e9e57600080fd5b6000806000806000608086880312156126b957600080fd5b85356126c4816123a2565b945060208601359350604086013567ffffffffffffffff808211156126e857600080fd5b6126f489838a01612647565b9450606088013591508082111561270a57600080fd5b506127178882890161265f565b969995985093965092949392505050565b6000806000806060858703121561273e57600080fd5b8435612749816123a2565b9350602085013567ffffffffffffffff8082111561276657600080fd5b61277288838901612647565b9450604087013591508082111561278857600080fd5b506127958782880161265f565b95989497509550505050565b600080604083850312156127b457600080fd5b82356127bf816123a2565b946020939093013593505050565b6000602082840312156127df57600080fd5b8135611e598161246b565b60208082526026908201527f41646d696e3a6f6e6c7941646d696e2063616c6c6572206973206e6f7420616e6040820152651020b236b4b760d11b606082015260800190565b6020808252602c908201527f46756e6374696f6e206d7573742062652063616c6c6564207468726f7567682060408201526b19195b1959d85d1958d85b1b60a21b606082015260800190565b6020808252602c908201527f46756e6374696f6e206d7573742062652063616c6c6564207468726f7567682060408201526b6163746976652070726f787960a01b606082015260800190565b634e487b7160e01b600052603260045260246000fd5b634e487b7160e01b600052601160045260246000fd5b600060018201612906576129066128de565b5060010190565b808202811582820484141761042a5761042a6128de565b634e487b7160e01b600052601260045260246000fd5b60008261294957612949612924565b500490565b600060ff821660ff8103612964576129646128de565b60010192915050565b6000808335601e1984360301811261298457600080fd5b83018035915067ffffffffffffffff82111561299f57600080fd5b6020019150606081023603821315611e9e57600080fd5b61ffff811681146105b557600080fd5b6000813561042a816129b6565b81356129de816123a2565b81546001600160a01b031981166001600160a01b039290921691821783556020840135612a0a816129b6565b61ffff60a01b60a09190911b166001600160b01b031982168317811784556040850135612a36816129b6565b6001600160c01b0319929092169092179190911760b09190911b61ffff60b01b1617905550565b6000813561042a8161246b565b8135601e19833603018112612a7e57600080fd5b8201803567ffffffffffffffff811115612a9757600080fd5b60208201915060608082023603831315612ab057600080fd5b68010000000000000000821115612ac957612ac9612558565b835482855580831015612b00576000858152602081208481019083015b80821015612afc57828255600182019150612ae6565b5050505b5060008481526020902060005b83811015612b2f57612b1f85836129d3565b9382019360019182019101612b0d565b5050600184019250612b57612b4660208701612a5d565b845460ff191660ff91909116178455565b612b7c612b6660408701612a5d565b845461ff00191660089190911b61ff0016178455565b612ba4612b8a8287016129c6565b845463ffff0000191660109190911b63ffff000016178455565b5050505050565b6020808252602b908201527f496e697469616c697a61626c653a20636f6e7472616374206973206e6f74206960408201526a6e697469616c697a696e6760a81b606082015260800190565b600060208284031215612c0857600080fd5b5051919050565b600060608284031215612c2157600080fd5b6040516060810181811067ffffffffffffffff82111715612c4457612c44612558565b6040528235612c52816123a2565b81526020830135612c62816129b6565b60208201526040830135612c75816129b6565b60408201529392505050565b61ffff818116838216019080821115612c9c57612c9c6128de565b5092915050565b600060208284031215612cb557600080fd5b8135611e59816129b6565b600061ffff80841680612cd557612cd5612924565b92169190910492915050565b815160009082906020808601845b83811015612d0b57815185529382019390820190600101612cef565b50929695505050505050565b634e487b7160e01b600052602160045260246000fd5b60005b83811015612d48578181015183820152602001612d30565b50506000910152565b60008251612d63818460208701612d2d565b9190910192915050565b6020815260008251806020840152612d8c816040850160208701612d2d565b601f01601f1916919091016040019291505056fe360894a13ba1a3210667c828492db98dca3e2076cc3735a920a3ca505d382bbc416464726573733a206c6f772d6c6576656c2064656c65676174652063616c6c206661696c6564a26469706673582212204df63785d2c8ea01d2bacf004d61d8d00ae3d5255349925bd8f0a42edb509c7864736f6c63430008110033",
  "linkReferences": {},
  "deployedLinkReferences": {}
}