{
  "_format": "hh-sol-artifact-1",
  "contractName": "RoyaltyRegistry",
  "sourceName": "contracts/sbinft/market/v1/royalty/RoyaltyRegistry.sol",
  "abi": [
    {
      "inputs": [],
      "stateMutability": "nonpayable",
      "type": "constructor"
    },
    {
      "anonymous": false,
      "inputs": [
        {
          "indexed": false,
          "internalType": "address",
          "name": "",
          "type": "address"
        }
      ],
      "name": "AdminAdded",
      "type": "event"
    },
    {
      "anonymous": false,
      "inputs": [
        {
          "indexed": false,
          "internalType": "address",
          "name": "previousAdmin",
          "type": "address"
        },
        {
          "indexed": false,
          "internalType": "address",
          "name": "newAdmin",
          "type": "address"
        }
      ],
      "name": "AdminChanged",
      "type": "event"
    },
    {
      "anonymous": false,
      "inputs": [
        {
          "indexed": false,
          "internalType": "address",
          "name": "",
          "type": "address"
        }
      ],
      "name": "AdminRemoved",
      "type": "event"
    },
    {
      "anonymous": false,
      "inputs": [
        {
          "indexed": true,
          "internalType": "address",
          "name": "beacon",
          "type": "address"
        }
      ],
      "name": "BeaconUpgraded",
      "type": "event"
    },
    {
      "anonymous": false,
      "inputs": [
        {
          "indexed": false,
          "internalType": "address",
          "name": "_token",
          "type": "address"
        }
      ],
      "name": "CollectionDefaultRoyaltyInfoDeleted",
      "type": "event"
    },
    {
      "anonymous": false,
      "inputs": [
        {
          "indexed": false,
          "internalType": "address",
          "name": "_token",
          "type": "address"
        }
      ],
      "name": "CollectionDefaultRoyaltyInfoSet",
      "type": "event"
    },
    {
      "anonymous": false,
      "inputs": [
        {
          "indexed": false,
          "internalType": "uint8",
          "name": "version",
          "type": "uint8"
        }
      ],
      "name": "Initialized",
      "type": "event"
    },
    {
      "anonymous": false,
      "inputs": [
        {
          "indexed": false,
          "internalType": "uint16",
          "name": "maxRoyaltyReceiversCount",
          "type": "uint16"
        }
      ],
      "name": "MaxRoyaltyReceiversCountUpdated",
      "type": "event"
    },
    {
      "anonymous": false,
      "inputs": [
        {
          "indexed": false,
          "internalType": "address",
          "name": "_token",
          "type": "address"
        },
        {
          "indexed": false,
          "internalType": "uint256",
          "name": "_tokenId",
          "type": "uint256"
        }
      ],
      "name": "TokenRoyaltyInfoReset",
      "type": "event"
    },
    {
      "anonymous": false,
      "inputs": [
        {
          "indexed": false,
          "internalType": "address",
          "name": "_token",
          "type": "address"
        },
        {
          "indexed": false,
          "internalType": "uint256",
          "name": "_tokenId",
          "type": "uint256"
        }
      ],
      "name": "TokenRoyaltyInfoSet",
      "type": "event"
    },
    {
      "anonymous": false,
      "inputs": [
        {
          "indexed": true,
          "internalType": "address",
          "name": "implementation",
          "type": "address"
        }
      ],
      "name": "Upgraded",
      "type": "event"
    },
    {
      "inputs": [],
      "name": "__RoyaltyRegistry_init",
      "outputs": [],
      "stateMutability": "nonpayable",
      "type": "function"
    },
    {
      "inputs": [
        {
          "internalType": "address[]",
          "name": "newAdmin",
          "type": "address[]"
        }
      ],
      "name": "addAdmin",
      "outputs": [],
      "stateMutability": "nonpayable",
      "type": "function"
    },
    {
      "inputs": [
        {
          "internalType": "address",
          "name": "newAdmin",
          "type": "address"
        }
      ],
      "name": "addAdmin",
      "outputs": [],
      "stateMutability": "nonpayable",
      "type": "function"
    },
    {
      "inputs": [
        {
          "internalType": "address",
          "name": "_token",
          "type": "address"
        }
      ],
      "name": "deleteCollectionDefaultRoyalty",
      "outputs": [],
      "stateMutability": "nonpayable",
      "type": "function"
    },
    {
      "inputs": [],
      "name": "feeDenominator",
      "outputs": [
        {
          "internalType": "uint16",
          "name": "",
          "type": "uint16"
        }
      ],
      "stateMutability": "pure",
      "type": "function"
    },
    {
      "inputs": [
        {
          "internalType": "address",
          "name": "checkAdmin",
          "type": "address"
        }
      ],
      "name": "isAdmin",
      "outputs": [
        {
          "internalType": "bool",
          "name": "",
          "type": "bool"
        }
      ],
      "stateMutability": "view",
      "type": "function"
    },
    {
      "inputs": [],
      "name": "maxRoyaltyReceiversCount",
      "outputs": [
        {
          "internalType": "uint16",
          "name": "",
          "type": "uint16"
        }
      ],
      "stateMutability": "view",
      "type": "function"
    },
    {
      "inputs": [],
      "name": "proxiableUUID",
      "outputs": [
        {
          "internalType": "bytes32",
          "name": "",
          "type": "bytes32"
        }
      ],
      "stateMutability": "view",
      "type": "function"
    },
    {
      "inputs": [
        {
          "internalType": "address",
          "name": "admin",
          "type": "address"
        }
      ],
      "name": "removeAdmin",
      "outputs": [],
      "stateMutability": "nonpayable",
      "type": "function"
    },
    {
      "inputs": [
        {
          "internalType": "address",
          "name": "_token",
          "type": "address"
        },
        {
          "internalType": "uint256",
          "name": "_tokenId",
          "type": "uint256"
        }
      ],
      "name": "resetTokenRoyalty",
      "outputs": [],
      "stateMutability": "nonpayable",
      "type": "function"
    },
    {
      "inputs": [
        {
          "internalType": "uint256",
          "name": "",
          "type": "uint256"
        },
        {
          "internalType": "uint256",
          "name": "",
          "type": "uint256"
        }
      ],
      "name": "royaltyInfo",
      "outputs": [
        {
          "internalType": "address",
          "name": "",
          "type": "address"
        },
        {
          "internalType": "uint256",
          "name": "",
          "type": "uint256"
        }
      ],
      "stateMutability": "view",
      "type": "function"
    },
    {
      "inputs": [
        {
          "internalType": "address",
          "name": "_token",
          "type": "address"
        },
        {
          "internalType": "uint256",
          "name": "_tokenId",
          "type": "uint256"
        },
        {
          "internalType": "uint256",
          "name": "_salePrice",
          "type": "uint256"
        },
        {
          "internalType": "uint8",
          "name": "_isSecondarySale",
          "type": "uint8"
        }
      ],
      "name": "royaltyInfo",
      "outputs": [
        {
          "internalType": "address[]",
          "name": "",
          "type": "address[]"
        },
        {
          "internalType": "uint256[]",
          "name": "",
          "type": "uint256[]"
        }
      ],
      "stateMutability": "view",
      "type": "function"
    },
    {
      "inputs": [
        {
          "internalType": "address",
          "name": "_token",
          "type": "address"
        },
        {
          "internalType": "address[]",
          "name": "_receivers",
          "type": "address[]"
        },
        {
          "internalType": "uint16[]",
          "name": "_receiversPercentage",
          "type": "uint16[]"
        },
        {
          "internalType": "uint16",
          "name": "_royaltyPercentage",
          "type": "uint16"
        }
      ],
      "name": "setCollectionDefaultRoyalty",
      "outputs": [],
      "stateMutability": "nonpayable",
      "type": "function"
    },
    {
      "inputs": [
        {
          "internalType": "address",
          "name": "_token",
          "type": "address"
        },
        {
          "internalType": "uint256",
          "name": "_tokenId",
          "type": "uint256"
        },
        {
          "internalType": "address[]",
          "name": "_receivers",
          "type": "address[]"
        },
        {
          "internalType": "uint16[]",
          "name": "_receiversPercentage",
          "type": "uint16[]"
        },
        {
          "internalType": "uint16",
          "name": "_royaltyPercentage",
          "type": "uint16"
        }
      ],
      "name": "setTokenRoyalty",
      "outputs": [],
      "stateMutability": "nonpayable",
      "type": "function"
    },
    {
      "inputs": [
        {
          "internalType": "bytes4",
          "name": "_interfaceId",
          "type": "bytes4"
        }
      ],
      "name": "supportsInterface",
      "outputs": [
        {
          "internalType": "bool",
          "name": "",
          "type": "bool"
        }
      ],
      "stateMutability": "view",
      "type": "function"
    },
    {
      "inputs": [
        {
          "internalType": "uint16",
          "name": "_newMaxRoyaltyReceiversCount",
          "type": "uint16"
        }
      ],
      "name": "updateMaxRoyaltyReceiversCount",
      "outputs": [],
      "stateMutability": "nonpayable",
      "type": "function"
    },
    {
      "inputs": [
        {
          "internalType": "address",
          "name": "newImplementation",
          "type": "address"
        }
      ],
      "name": "upgradeTo",
      "outputs": [],
      "stateMutability": "nonpayable",
      "type": "function"
    },
    {
      "inputs": [
        {
          "internalType": "address",
          "name": "newImplementation",
          "type": "address"
        },
        {
          "internalType": "bytes",
          "name": "data",
          "type": "bytes"
        }
      ],
      "name": "upgradeToAndCall",
      "outputs": [],
      "stateMutability": "payable",
      "type": "function"
    }
  ],
  "bytecode": "0x60a06040523060805234801561001457600080fd5b5061001d610022565b6100e2565b600054610100900460ff161561008e5760405162461bcd60e51b815260206004820152602760248201527f496e697469616c697a61626c653a20636f6e747261637420697320696e697469604482015266616c697a696e6760c81b606482015260840160405180910390fd5b60005460ff90811610156100e0576000805460ff191660ff9081179091556040519081527f7f26b83ff96e1f2b6a682f133852f6798a09c465da95921460cefb38474024989060200160405180910390a15b565b60805161232d6200011a6000396000818161080b0152818161084b01528181610d9c01528181610ddc0152610e6f015261232d6000f3fe6080604052600436106101095760003560e01c80633d0950a811610095578063704802751161006457806370480275146102fa5780639fdcd3671461031a578063b5c8f0f61461033a578063e163f66b14610355578063fdaf58a31461037557600080fd5b80633d0950a81461027657806342871157146102965780634f1ef286146102c457806352d1902d146102d757600080fd5b806320bdc533116100dc57806320bdc5331461019e57806324d7806c146101be57806326a47360146101f75780632a55205a146102175780633659cfe61461025657600080fd5b806301ffc9a71461010e5780630d505be1146101435780631785f53c1461015a578063180b0d7e1461017a575b600080fd5b34801561011a57600080fd5b5061012e610129366004611bf5565b610395565b60405190151581526020015b60405180910390f35b34801561014f57600080fd5b506101586103cc565b005b34801561016657600080fd5b50610158610175366004611c3b565b610501565b34801561018657600080fd5b506127105b60405161ffff909116815260200161013a565b3480156101aa57600080fd5b506101586101b9366004611c3b565b6105bf565b3480156101ca57600080fd5b5061012e6101d9366004611c3b565b6001600160a01b031660009081526065602052604090205460ff1690565b34801561020357600080fd5b50610158610212366004611cb4565b610665565b34801561022357600080fd5b50610237610232366004611d44565b6107c9565b604080516001600160a01b03909316835260208301919091520161013a565b34801561026257600080fd5b50610158610271366004611c3b565b610801565b34801561028257600080fd5b50610158610291366004611d66565b6108dd565b3480156102a257600080fd5b506102b66102b1366004611da8565b61095d565b60405161013a929190611df6565b6101586102d2366004611e90565b610d92565b3480156102e357600080fd5b506102ec610e62565b60405190815260200161013a565b34801561030657600080fd5b50610158610315366004611c3b565b610f15565b34801561032657600080fd5b50610158610335366004611f52565b610f4d565b34801561034657600080fd5b5060ca5461018b9061ffff1681565b34801561036157600080fd5b50610158610370366004611f7c565b61100b565b34801561038157600080fd5b50610158610390366004611f97565b6110c1565b60006001600160e01b03198216635a8c1c2960e01b14806103c657506301ffc9a760e01b6001600160e01b03198316145b92915050565b600054610100900460ff16158080156103ec5750600054600160ff909116105b806104065750303b158015610406575060005460ff166001145b61046e5760405162461bcd60e51b815260206004820152602e60248201527f496e697469616c697a61626c653a20636f6e747261637420697320616c72656160448201526d191e481a5b9a5d1a585b1a5e995960921b60648201526084015b60405180910390fd5b6000805460ff191660011790558015610491576000805461ff0019166101001790555b610499611273565b6104a161129c565b6104a9611273565b60ca805461ffff1916600717905580156104fe576000805461ff0019169055604051600181527f7f26b83ff96e1f2b6a682f133852f6798a09c465da95921460cefb3847402498906020015b60405180910390a15b50565b3360009081526065602052604090205460ff166105305760405162461bcd60e51b815260040161046590612032565b6001600160a01b03811660009081526065602052604090205460ff166105b65760405162461bcd60e51b815260206004820152603560248201527f41646d696e3a72656d6f766541646d696e20747279696e6720746f2072656d6f6044820152743b32903737b71032bc34b9ba34b7339020b236b4b760591b6064820152608401610465565b6104fe816112d4565b3360009081526065602052604090205460ff166105ee5760405162461bcd60e51b815260040161046590612032565b6001600160a01b038116600090815260cb60205260408120906106118282611a98565b61061f600183016000611ab6565b50600201805461ffff191690556040516001600160a01b03821681527f13b5bf4b6466e456ed224e9c6dd5b843dd5ebde02c58f084b232feba860daefc906020016104f5565b3360009081526065602052604090205460ff166106945760405162461bcd60e51b815260040161046590612032565b6106a2868686868686611325565b60405180606001604052808686808060200260200160405190810160405280939291908181526020018383602002808284376000920191909152505050908252506040805160208681028281018201909352868252928301929091879187918291850190849080828437600092018290525093855250505061ffff84166020928301526001600160a01b038916815260cb82526040902082518051919261074e92849290910190611adb565b5060208281015180516107679260018501920190611b40565b50604091820151600291909101805461ffff191661ffff909216919091179055516001600160a01b03871681527f5f6ae8937774b0b080bbc19d66607dbc55d9b3ceba9ffdf952dd01bfc197a20a9060200160405180910390a1505050505050565b60405162461bcd60e51b815260206004820152600860248201526752523a52493a4e4960c01b60448201526000908190606401610465565b6001600160a01b037f00000000000000000000000000000000000000000000000000000000000000001630036108495760405162461bcd60e51b815260040161046590612078565b7f00000000000000000000000000000000000000000000000000000000000000006001600160a01b03166108926000805160206122b1833981519152546001600160a01b031690565b6001600160a01b0316146108b85760405162461bcd60e51b8152600401610465906120c4565b6108c1816114dd565b604080516000808252602082019092526104fe9183919061150c565b3360009081526065602052604090205460ff1661090c5760405162461bcd60e51b815260040161046590612032565b60005b818110156109585761094683838381811061092c5761092c612110565b90506020020160208101906109419190611c3b565b611677565b806109508161213c565b91505061090f565b505050565b6060806001600160a01b0386166109a25760405162461bcd60e51b815260206004820152600960248201526852523a52493a545a4160b81b6044820152606401610465565b846000036109e05760405162461bcd60e51b815260206004820152600b60248201526a52523a52493a5449445a4160a81b6044820152606401610465565b83600003610a1c5760405162461bcd60e51b815260206004820152600960248201526829291d29249d29a82d60b91b6044820152606401610465565b6001600160a01b038616600090815260cc6020908152604080832088845282528083208151815460809481028201850190935260608101838152909391928492849190840182828015610a9857602002820191906000526020600020905b81546001600160a01b03168152600190910190602001808311610a7a575b5050505050815260200160018201805480602002602001604051908101604052809291908181526020018280548015610b1857602002820191906000526020600020906000905b82829054906101000a900461ffff1661ffff1681526020019060020190602082600101049283019260010382029150808411610adf5790505b50505091835250506002919091015461ffff16602090910152805151909150600003610c8d576001600160a01b038716600090815260cb602090815260409182902082518154608093810282018401909452606081018481529093919284928491840182828015610bb257602002820191906000526020600020905b81546001600160a01b03168152600190910190602001808311610b94575b5050505050815260200160018201805480602002602001604051908101604052809291908181526020018280548015610c3257602002820191906000526020600020906000905b82829054906101000a900461ffff1661ffff1681526020019060020190602082600101049283019260010382029150808411610bf95790505b50505091835250506002919091015461ffff16602090910152805151909150600003610c8d5760405162461bcd60e51b815260206004820152600a60248201526929291d29249d2924a72360b11b6044820152606401610465565b8460ff8516600103610cbd57604082015161271090610cb09061ffff1688612155565b610cba9190612182565b90505b81515160009067ffffffffffffffff811115610cdb57610cdb611e7a565b604051908082528060200260200182016040528015610d04578160200160208202803683370190505b50905060005b835151811015610d815761271061ffff1684602001518281518110610d3157610d31612110565b602002602001015161ffff1684610d489190612155565b610d529190612182565b828281518110610d6457610d64612110565b602090810291909101015280610d798161213c565b915050610d0a565b509151989197509095505050505050565b6001600160a01b037f0000000000000000000000000000000000000000000000000000000000000000163003610dda5760405162461bcd60e51b815260040161046590612078565b7f00000000000000000000000000000000000000000000000000000000000000006001600160a01b0316610e236000805160206122b1833981519152546001600160a01b031690565b6001600160a01b031614610e495760405162461bcd60e51b8152600401610465906120c4565b610e52826114dd565b610e5e8282600161150c565b5050565b6000306001600160a01b037f00000000000000000000000000000000000000000000000000000000000000001614610f025760405162461bcd60e51b815260206004820152603860248201527f555550535570677261646561626c653a206d757374206e6f742062652063616c60448201527f6c6564207468726f7567682064656c656761746563616c6c00000000000000006064820152608401610465565b506000805160206122b183398151915290565b3360009081526065602052604090205460ff16610f445760405162461bcd60e51b815260040161046590612032565b6104fe81611677565b3360009081526065602052604090205460ff16610f7c5760405162461bcd60e51b815260040161046590612032565b6001600160a01b038216600090815260cc60209081526040808320848452909152812090610faa8282611a98565b610fb8600183016000611ab6565b50600201805461ffff19169055604080516001600160a01b0384168152602081018390527f8c4ef2812aa9d73ea94f30cc678d3abbfd7a9601a9cb8c7d98e20f5c229c3c4d910160405180910390a15050565b3360009081526065602052604090205460ff1661103a5760405162461bcd60e51b815260040161046590612032565b60008161ffff161161107d5760405162461bcd60e51b815260206004820152600c60248201526b29291d2aa6a929219d23aa2d60a11b6044820152606401610465565b60ca805461ffff191661ffff83169081179091556040519081527f5228d1165c03cb429c230d853d1f66a1b6aa5db6ac391681bcd0c46e58052d62906020016104f5565b3360009081526065602052604090205460ff166110f05760405162461bcd60e51b815260040161046590612032565b6110fe878686868686611325565b8560000361113d5760405162461bcd60e51b815260206004820152600c60248201526b29291d29a1a91d2a24a2272d60a11b6044820152606401610465565b60405180606001604052808686808060200260200160405190810160405280939291908181526020018383602002808284376000920191909152505050908252506040805160208681028281018201909352868252928301929091879187918291850190849080828437600092018290525093855250505061ffff84166020928301526001600160a01b038a16815260cc825260408082208a8352835290208251805191926111f192849290910190611adb565b50602082810151805161120a9260018501920190611b40565b50604091820151600291909101805461ffff191661ffff90921691909117905580516001600160a01b0389168152602081018890527f364104cde60feddcfae5b2aff85c0544eb700a8a69692e5cceb58bb5a388f3bd910160405180910390a150505050505050565b600054610100900460ff1661129a5760405162461bcd60e51b815260040161046590612196565b565b600054610100900460ff166112c35760405162461bcd60e51b815260040161046590612196565b6112cb611273565b61129a33611677565b6001600160a01b038116600081815260656020908152604091829020805460ff1916905590519182527fa3b62bc36326052d97ea62d63c3d60308ed4c3ea8ac079dd8499f1e9c4f80c0f91016104f5565b6001600160a01b0386163b6113685760405162461bcd60e51b815260206004820152600960248201526852523a56523a544e4360b81b6044820152606401610465565b8382146113a45760405162461bcd60e51b815260206004820152600a60248201526952523a56523a444e4f4560b01b6044820152606401610465565b60ca5461ffff168411156113e65760405162461bcd60e51b815260206004820152600960248201526852523a56523a524d4560b81b6044820152606401610465565b6113f08585611735565b6114275760405162461bcd60e51b815260206004820152600860248201526752523a56523a494160c01b6044820152606401610465565b612710611434848461179e565b61ffff16146114745760405162461bcd60e51b815260206004820152600c60248201526b052523a56523a52504e3130360a41b6044820152606401610465565b60008161ffff1611801561149c575061149060026127106121e1565b61ffff168161ffff1611155b6114d55760405162461bcd60e51b815260206004820152600a60248201526929291d2b291d2927a32d60b11b6044820152606401610465565b505050505050565b3360009081526065602052604090205460ff166104fe5760405162461bcd60e51b815260040161046590612032565b7f4910fdfa16fed3260ed0e7147f7cc6da11a60208b5b9406d12a635614ffd91435460ff161561153f576109588361185d565b826001600160a01b03166352d1902d6040518163ffffffff1660e01b8152600401602060405180830381865afa925050508015611599575060408051601f3d908101601f1916820190925261159691810190612202565b60015b6115fc5760405162461bcd60e51b815260206004820152602e60248201527f45524331393637557067726164653a206e657720696d706c656d656e7461746960448201526d6f6e206973206e6f74205555505360901b6064820152608401610465565b6000805160206122b1833981519152811461166b5760405162461bcd60e51b815260206004820152602960248201527f45524331393637557067726164653a20756e737570706f727465642070726f786044820152681a58589b195555525160ba1b6064820152608401610465565b506109588383836118f9565b6001600160a01b0381166116e15760405162461bcd60e51b815260206004820152602b60248201527f41646d696e3a61646441646d696e206e657741646d696e20697320746865207a60448201526a65726f206164647265737360a81b6064820152608401610465565b6001600160a01b038116600081815260656020908152604091829020805460ff1916600117905590519182527f44d6d25963f097ad14f29f06854a01f575648a1ef82f30e562ccd3889717e33991016104f5565b6000805b8281101561179457600084848381811061175557611755612110565b905060200201602081019061176a9190611c3b565b6001600160a01b0316036117825760009150506103c6565b8061178c8161213c565b915050611739565b5060019392505050565b600080805b838110156118555760008585838181106117bf576117bf612110565b90506020020160208101906117d49190611f7c565b61ffff16116118105760405162461bcd60e51b815260206004820152600860248201526729291d21a81d292d60c11b6044820152606401610465565b84848281811061182257611822612110565b90506020020160208101906118379190611f7c565b611841908361221b565b91508061184d8161213c565b9150506117a3565b509392505050565b6001600160a01b0381163b6118ca5760405162461bcd60e51b815260206004820152602d60248201527f455243313936373a206e657720696d706c656d656e746174696f6e206973206e60448201526c1bdd08184818dbdb9d1c9858dd609a1b6064820152608401610465565b6000805160206122b183398151915280546001600160a01b0319166001600160a01b0392909216919091179055565b61190283611924565b60008251118061190f5750805b156109585761191e8383611964565b50505050565b61192d8161185d565b6040516001600160a01b038216907fbc7cd75a20ee27fd9adebab32041f755214dbc6bffa90cc0225b39da2e5c2d3b90600090a250565b60606001600160a01b0383163b6119cc5760405162461bcd60e51b815260206004820152602660248201527f416464726573733a2064656c65676174652063616c6c20746f206e6f6e2d636f6044820152651b9d1c9858dd60d21b6064820152608401610465565b600080846001600160a01b0316846040516119e79190612261565b600060405180830381855af49150503d8060008114611a22576040519150601f19603f3d011682016040523d82523d6000602084013e611a27565b606091505b5091509150611a4f82826040518060600160405280602781526020016122d160279139611a58565b95945050505050565b60608315611a67575081611a91565b825115611a775782518084602001fd5b8160405162461bcd60e51b8152600401610465919061227d565b9392505050565b50805460008255906000526020600020908101906104fe9190611be0565b50805460008255600f0160109004906000526020600020908101906104fe9190611be0565b828054828255906000526020600020908101928215611b30579160200282015b82811115611b3057825182546001600160a01b0319166001600160a01b03909116178255602090920191600190910190611afb565b50611b3c929150611be0565b5090565b82805482825590600052602060002090600f01601090048101928215611b305791602002820160005b83821115611ba957835183826101000a81548161ffff021916908361ffff1602179055509260200192600201602081600101049283019260010302611b69565b8015611bd75782816101000a81549061ffff0219169055600201602081600101049283019260010302611ba9565b5050611b3c9291505b5b80821115611b3c5760008155600101611be1565b600060208284031215611c0757600080fd5b81356001600160e01b031981168114611a9157600080fd5b80356001600160a01b0381168114611c3657600080fd5b919050565b600060208284031215611c4d57600080fd5b611a9182611c1f565b60008083601f840112611c6857600080fd5b50813567ffffffffffffffff811115611c8057600080fd5b6020830191508360208260051b8501011115611c9b57600080fd5b9250929050565b803561ffff81168114611c3657600080fd5b60008060008060008060808789031215611ccd57600080fd5b611cd687611c1f565b9550602087013567ffffffffffffffff80821115611cf357600080fd5b611cff8a838b01611c56565b90975095506040890135915080821115611d1857600080fd5b50611d2589828a01611c56565b9094509250611d38905060608801611ca2565b90509295509295509295565b60008060408385031215611d5757600080fd5b50508035926020909101359150565b60008060208385031215611d7957600080fd5b823567ffffffffffffffff811115611d9057600080fd5b611d9c85828601611c56565b90969095509350505050565b60008060008060808587031215611dbe57600080fd5b611dc785611c1f565b93506020850135925060408501359150606085013560ff81168114611deb57600080fd5b939692955090935050565b604080825283519082018190526000906020906060840190828701845b82811015611e385781516001600160a01b031684529284019290840190600101611e13565b5050508381038285015284518082528583019183019060005b81811015611e6d57835183529284019291840191600101611e51565b5090979650505050505050565b634e487b7160e01b600052604160045260246000fd5b60008060408385031215611ea357600080fd5b611eac83611c1f565b9150602083013567ffffffffffffffff80821115611ec957600080fd5b818501915085601f830112611edd57600080fd5b813581811115611eef57611eef611e7a565b604051601f8201601f19908116603f01168101908382118183101715611f1757611f17611e7a565b81604052828152886020848701011115611f3057600080fd5b8260208601602083013760006020848301015280955050505050509250929050565b60008060408385031215611f6557600080fd5b611f6e83611c1f565b946020939093013593505050565b600060208284031215611f8e57600080fd5b611a9182611ca2565b600080600080600080600060a0888a031215611fb257600080fd5b611fbb88611c1f565b965060208801359550604088013567ffffffffffffffff80821115611fdf57600080fd5b611feb8b838c01611c56565b909750955060608a013591508082111561200457600080fd5b506120118a828b01611c56565b9094509250612024905060808901611ca2565b905092959891949750929550565b60208082526026908201527f41646d696e3a6f6e6c7941646d696e2063616c6c6572206973206e6f7420616e6040820152651020b236b4b760d11b606082015260800190565b6020808252602c908201527f46756e6374696f6e206d7573742062652063616c6c6564207468726f7567682060408201526b19195b1959d85d1958d85b1b60a21b606082015260800190565b6020808252602c908201527f46756e6374696f6e206d7573742062652063616c6c6564207468726f7567682060408201526b6163746976652070726f787960a01b606082015260800190565b634e487b7160e01b600052603260045260246000fd5b634e487b7160e01b600052601160045260246000fd5b60006001820161214e5761214e612126565b5060010190565b80820281158282048414176103c6576103c6612126565b634e487b7160e01b600052601260045260246000fd5b6000826121915761219161216c565b500490565b6020808252602b908201527f496e697469616c697a61626c653a20636f6e7472616374206973206e6f74206960408201526a6e697469616c697a696e6760a81b606082015260800190565b600061ffff808416806121f6576121f661216c565b92169190910492915050565b60006020828403121561221457600080fd5b5051919050565b61ffff81811683821601908082111561223657612236612126565b5092915050565b60005b83811015612258578181015183820152602001612240565b50506000910152565b6000825161227381846020870161223d565b9190910192915050565b602081526000825180602084015261229c81604085016020870161223d565b601f01601f1916919091016040019291505056fe360894a13ba1a3210667c828492db98dca3e2076cc3735a920a3ca505d382bbc416464726573733a206c6f772d6c6576656c2064656c65676174652063616c6c206661696c6564a264697066735822122003aea4ca16d1bb16774693f20121e859446edd1e07e9942857ded87d4d9eec2c64736f6c63430008110033",
  "linkReferences": {},
  "deployedLinkReferences": {}
}