{
  "_format": "hh-sol-artifact-1",
  "contractName": "OrderDomain",
  "sourceName": "contracts/sbinft/market/v1/library/OrderDomain.sol",
  "abi": [
    {
      "inputs": [],
      "name": "ERC20_PAYMENT_MODE",
      "outputs": [
        {
          "internalType": "bytes4",
          "name": "",
          "type": "bytes4"
        }
      ],
      "stateMutability": "view",
      "type": "function"
    },
    {
      "inputs": [],
      "name": "NATIVE_PAYMENT_MODE",
      "outputs": [
        {
          "internalType": "bytes4",
          "name": "",
          "type": "bytes4"
        }
      ],
      "stateMutability": "view",
      "type": "function"
    }
  ],
  "bytecode": "0x60e1610039600b82828239805160001a60731461002c57634e487b7160e01b600052600060045260246000fd5b30600052607381538281f3fe7300000000000000000000000000000000000000003014608060405260043610603d5760003560e01c80638ac70285146042578063cd7a3a37146085575b600080fd5b60687f8ae85d849167ff996c04040c44924fd364217285e4cad818292c7ac37c0a345b81565b6040516001600160e01b0319909116815260200160405180910390f35b60687ffdae1ba7c826abdc4c99903c8056f82a1a04a615c94c895c32d24a82e8ecf7cd8156fea26469706673582212200a0f840fa3a530697aed3eb384cd8efb47a5457ea53840df9b7b7693dbc6dfe164736f6c63430008110033",
  "linkReferences": {},
  "deployedLinkReferences": {}
}