{
  "_format": "hh-sol-artifact-1",
  "contractName": "TransferProxy",
  "sourceName": "contracts/sbinft/market/v1/transfer-proxy/TransferProxy.sol",
  "abi": [
    {
      "anonymous": false,
      "inputs": [
        {
          "indexed": false,
          "internalType": "address",
          "name": "",
          "type": "address"
        }
      ],
      "name": "AdminAdded",
      "type": "event"
    },
    {
      "anonymous": false,
      "inputs": [
        {
          "indexed": false,
          "internalType": "address",
          "name": "previousAdmin",
          "type": "address"
        },
        {
          "indexed": false,
          "internalType": "address",
          "name": "newAdmin",
          "type": "address"
        }
      ],
      "name": "AdminChanged",
      "type": "event"
    },
    {
      "anonymous": false,
      "inputs": [
        {
          "indexed": false,
          "internalType": "address",
          "name": "",
          "type": "address"
        }
      ],
      "name": "AdminRemoved",
      "type": "event"
    },
    {
      "anonymous": false,
      "inputs": [
        {
          "indexed": true,
          "internalType": "address",
          "name": "beacon",
          "type": "address"
        }
      ],
      "name": "BeaconUpgraded",
      "type": "event"
    },
    {
      "anonymous": false,
      "inputs": [
        {
          "indexed": false,
          "internalType": "uint8",
          "name": "version",
          "type": "uint8"
        }
      ],
      "name": "Initialized",
      "type": "event"
    },
    {
      "anonymous": false,
      "inputs": [
        {
          "indexed": true,
          "internalType": "address",
          "name": "implementation",
          "type": "address"
        }
      ],
      "name": "Upgraded",
      "type": "event"
    },
    {
      "inputs": [],
      "name": "__TransferProxy_init",
      "outputs": [],
      "stateMutability": "nonpayable",
      "type": "function"
    },
    {
      "inputs": [
        {
          "internalType": "address[]",
          "name": "newAdmin",
          "type": "address[]"
        }
      ],
      "name": "addAdmin",
      "outputs": [],
      "stateMutability": "nonpayable",
      "type": "function"
    },
    {
      "inputs": [
        {
          "internalType": "address",
          "name": "newAdmin",
          "type": "address"
        }
      ],
      "name": "addAdmin",
      "outputs": [],
      "stateMutability": "nonpayable",
      "type": "function"
    },
    {
      "inputs": [
        {
          "internalType": "contract IERC1155",
          "name": "_token",
          "type": "address"
        },
        {
          "internalType": "address",
          "name": "_from",
          "type": "address"
        },
        {
          "internalType": "address",
          "name": "_to",
          "type": "address"
        },
        {
          "internalType": "uint256",
          "name": "_tokenId",
          "type": "uint256"
        },
        {
          "internalType": "uint256",
          "name": "_value",
          "type": "uint256"
        },
        {
          "internalType": "bytes",
          "name": "_data",
          "type": "bytes"
        }
      ],
      "name": "erc1155safeTransferFrom",
      "outputs": [],
      "stateMutability": "nonpayable",
      "type": "function"
    },
    {
      "inputs": [
        {
          "internalType": "contract IERC20",
          "name": "_token",
          "type": "address"
        },
        {
          "internalType": "address",
          "name": "_from",
          "type": "address"
        },
        {
          "internalType": "address",
          "name": "_to",
          "type": "address"
        },
        {
          "internalType": "uint256",
          "name": "_value",
          "type": "uint256"
        }
      ],
      "name": "erc20safeTransferFrom",
      "outputs": [],
      "stateMutability": "nonpayable",
      "type": "function"
    },
    {
      "inputs": [
        {
          "internalType": "contract IERC721",
          "name": "_token",
          "type": "address"
        },
        {
          "internalType": "address",
          "name": "_from",
          "type": "address"
        },
        {
          "internalType": "address",
          "name": "_to",
          "type": "address"
        },
        {
          "internalType": "uint256",
          "name": "_tokenId",
          "type": "uint256"
        }
      ],
      "name": "erc721safeTransferFrom",
      "outputs": [],
      "stateMutability": "nonpayable",
      "type": "function"
    },
    {
      "inputs": [
        {
          "internalType": "address",
          "name": "checkAdmin",
          "type": "address"
        }
      ],
      "name": "isAdmin",
      "outputs": [
        {
          "internalType": "bool",
          "name": "",
          "type": "bool"
        }
      ],
      "stateMutability": "view",
      "type": "function"
    },
    {
      "inputs": [],
      "name": "proxiableUUID",
      "outputs": [
        {
          "internalType": "bytes32",
          "name": "",
          "type": "bytes32"
        }
      ],
      "stateMutability": "view",
      "type": "function"
    },
    {
      "inputs": [
        {
          "internalType": "address",
          "name": "admin",
          "type": "address"
        }
      ],
      "name": "removeAdmin",
      "outputs": [],
      "stateMutability": "nonpayable",
      "type": "function"
    },
    {
      "inputs": [
        {
          "internalType": "bytes4",
          "name": "_interfaceId",
          "type": "bytes4"
        }
      ],
      "name": "supportsInterface",
      "outputs": [
        {
          "internalType": "bool",
          "name": "",
          "type": "bool"
        }
      ],
      "stateMutability": "view",
      "type": "function"
    },
    {
      "inputs": [
        {
          "internalType": "address",
          "name": "newImplementation",
          "type": "address"
        }
      ],
      "name": "upgradeTo",
      "outputs": [],
      "stateMutability": "nonpayable",
      "type": "function"
    },
    {
      "inputs": [
        {
          "internalType": "address",
          "name": "newImplementation",
          "type": "address"
        },
        {
          "internalType": "bytes",
          "name": "data",
          "type": "bytes"
        }
      ],
      "name": "upgradeToAndCall",
      "outputs": [],
      "stateMutability": "payable",
      "type": "function"
    }
  ],
  "bytecode": "0x60a06040523060805234801561001457600080fd5b5060805161145c61004c6000396000818161035201528181610392015281816105cf0152818161060f01526106a2015261145c6000f3fe6080604052600436106100a75760003560e01c80634f1ef286116100645780634f1ef2861461019157806352d1902d146101a457806370480275146101c7578063776062c3146101e75780639c1c2ee914610207578063f709b9061461022757600080fd5b806301ffc9a7146100ac5780631785f53c146100e157806324d7806c146101035780633659cfe61461013c5780633d0950a81461015c578063495edf861461017c575b600080fd5b3480156100b857600080fd5b506100cc6100c7366004610eb5565b610247565b60405190151581526020015b60405180910390f35b3480156100ed57600080fd5b506101016100fc366004610ef4565b61027e565b005b34801561010f57600080fd5b506100cc61011e366004610ef4565b6001600160a01b031660009081526065602052604090205460ff1690565b34801561014857600080fd5b50610101610157366004610ef4565b610348565b34801561016857600080fd5b50610101610177366004610f11565b610424565b34801561018857600080fd5b506101016104a4565b61010161019f366004610f9c565b6105c5565b3480156101b057600080fd5b506101b9610695565b6040519081526020016100d8565b3480156101d357600080fd5b506101016101e2366004610ef4565b610748565b3480156101f357600080fd5b50610101610202366004611060565b610780565b34801561021357600080fd5b506101016102223660046110b1565b610831565b34801561023357600080fd5b50610101610242366004611060565b6108d1565b60006001600160e01b0319821663071d7d4b60e21b148061027857506301ffc9a760e01b6001600160e01b03198316145b92915050565b3360009081526065602052604090205460ff166102b65760405162461bcd60e51b81526004016102ad9061116f565b60405180910390fd5b6001600160a01b03811660009081526065602052604090205460ff1661033c5760405162461bcd60e51b815260206004820152603560248201527f41646d696e3a72656d6f766541646d696e20747279696e6720746f2072656d6f6044820152743b32903737b71032bc34b9ba34b7339020b236b4b760591b60648201526084016102ad565b61034581610970565b50565b6001600160a01b037f00000000000000000000000000000000000000000000000000000000000000001630036103905760405162461bcd60e51b81526004016102ad906111b5565b7f00000000000000000000000000000000000000000000000000000000000000006001600160a01b03166103d96000805160206113e0833981519152546001600160a01b031690565b6001600160a01b0316146103ff5760405162461bcd60e51b81526004016102ad90611201565b610408816109c1565b60408051600080825260208201909252610345918391906109f0565b3360009081526065602052604090205460ff166104535760405162461bcd60e51b81526004016102ad9061116f565b60005b8181101561049f5761048d8383838181106104735761047361124d565b90506020020160208101906104889190610ef4565b610b5b565b8061049781611263565b915050610456565b505050565b600054610100900460ff16158080156104c45750600054600160ff909116105b806104de5750303b1580156104de575060005460ff166001145b6105415760405162461bcd60e51b815260206004820152602e60248201527f496e697469616c697a61626c653a20636f6e747261637420697320616c72656160448201526d191e481a5b9a5d1a585b1a5e995960921b60648201526084016102ad565b6000805460ff191660011790558015610564576000805461ff0019166101001790555b61056c610c19565b610574610c42565b61057c610c19565b8015610345576000805461ff0019169055604051600181527f7f26b83ff96e1f2b6a682f133852f6798a09c465da95921460cefb3847402498906020015b60405180910390a150565b6001600160a01b037f000000000000000000000000000000000000000000000000000000000000000016300361060d5760405162461bcd60e51b81526004016102ad906111b5565b7f00000000000000000000000000000000000000000000000000000000000000006001600160a01b03166106566000805160206113e0833981519152546001600160a01b031690565b6001600160a01b03161461067c5760405162461bcd60e51b81526004016102ad90611201565b610685826109c1565b610691828260016109f0565b5050565b6000306001600160a01b037f000000000000000000000000000000000000000000000000000000000000000016146107355760405162461bcd60e51b815260206004820152603860248201527f555550535570677261646561626c653a206d757374206e6f742062652063616c60448201527f6c6564207468726f7567682064656c656761746563616c6c000000000000000060648201526084016102ad565b506000805160206113e083398151915290565b3360009081526065602052604090205460ff166107775760405162461bcd60e51b81526004016102ad9061116f565b61034581610b5b565b3360009081526065602052604090205460ff166107af5760405162461bcd60e51b81526004016102ad9061116f565b6040516323b872dd60e01b81526001600160a01b0384811660048301528381166024830152604482018390528516906323b872dd906064016020604051808303816000875af1158015610806573d6000803e3d6000fd5b505050506040513d601f19601f8201168201806040525081019061082a919061128a565b5050505050565b3360009081526065602052604090205460ff166108605760405162461bcd60e51b81526004016102ad9061116f565b604051637921219560e11b81526001600160a01b0388169063f242432a90610896908990899089908990899089906004016112ac565b600060405180830381600087803b1580156108b057600080fd5b505af11580156108c4573d6000803e3d6000fd5b5050505050505050505050565b3360009081526065602052604090205460ff166109005760405162461bcd60e51b81526004016102ad9061116f565b604051632142170760e11b81526001600160a01b0384811660048301528381166024830152604482018390528516906342842e0e90606401600060405180830381600087803b15801561095257600080fd5b505af1158015610966573d6000803e3d6000fd5b5050505050505050565b6001600160a01b038116600081815260656020908152604091829020805460ff1916905590519182527fa3b62bc36326052d97ea62d63c3d60308ed4c3ea8ac079dd8499f1e9c4f80c0f91016105ba565b3360009081526065602052604090205460ff166103455760405162461bcd60e51b81526004016102ad9061116f565b7f4910fdfa16fed3260ed0e7147f7cc6da11a60208b5b9406d12a635614ffd91435460ff1615610a235761049f83610c7a565b826001600160a01b03166352d1902d6040518163ffffffff1660e01b8152600401602060405180830381865afa925050508015610a7d575060408051601f3d908101601f19168201909252610a7a91810190611308565b60015b610ae05760405162461bcd60e51b815260206004820152602e60248201527f45524331393637557067726164653a206e657720696d706c656d656e7461746960448201526d6f6e206973206e6f74205555505360901b60648201526084016102ad565b6000805160206113e08339815191528114610b4f5760405162461bcd60e51b815260206004820152602960248201527f45524331393637557067726164653a20756e737570706f727465642070726f786044820152681a58589b195555525160ba1b60648201526084016102ad565b5061049f838383610d16565b6001600160a01b038116610bc55760405162461bcd60e51b815260206004820152602b60248201527f41646d696e3a61646441646d696e206e657741646d696e20697320746865207a60448201526a65726f206164647265737360a81b60648201526084016102ad565b6001600160a01b038116600081815260656020908152604091829020805460ff1916600117905590519182527f44d6d25963f097ad14f29f06854a01f575648a1ef82f30e562ccd3889717e33991016105ba565b600054610100900460ff16610c405760405162461bcd60e51b81526004016102ad90611321565b565b600054610100900460ff16610c695760405162461bcd60e51b81526004016102ad90611321565b610c71610c19565b610c4033610b5b565b6001600160a01b0381163b610ce75760405162461bcd60e51b815260206004820152602d60248201527f455243313936373a206e657720696d706c656d656e746174696f6e206973206e60448201526c1bdd08184818dbdb9d1c9858dd609a1b60648201526084016102ad565b6000805160206113e083398151915280546001600160a01b0319166001600160a01b0392909216919091179055565b610d1f83610d41565b600082511180610d2c5750805b1561049f57610d3b8383610d81565b50505050565b610d4a81610c7a565b6040516001600160a01b038216907fbc7cd75a20ee27fd9adebab32041f755214dbc6bffa90cc0225b39da2e5c2d3b90600090a250565b60606001600160a01b0383163b610de95760405162461bcd60e51b815260206004820152602660248201527f416464726573733a2064656c65676174652063616c6c20746f206e6f6e2d636f6044820152651b9d1c9858dd60d21b60648201526084016102ad565b600080846001600160a01b031684604051610e049190611390565b600060405180830381855af49150503d8060008114610e3f576040519150601f19603f3d011682016040523d82523d6000602084013e610e44565b606091505b5091509150610e6c828260405180606001604052806027815260200161140060279139610e75565b95945050505050565b60608315610e84575081610eae565b825115610e945782518084602001fd5b8160405162461bcd60e51b81526004016102ad91906113ac565b9392505050565b600060208284031215610ec757600080fd5b81356001600160e01b031981168114610eae57600080fd5b6001600160a01b038116811461034557600080fd5b600060208284031215610f0657600080fd5b8135610eae81610edf565b60008060208385031215610f2457600080fd5b823567ffffffffffffffff80821115610f3c57600080fd5b818501915085601f830112610f5057600080fd5b813581811115610f5f57600080fd5b8660208260051b8501011115610f7457600080fd5b60209290920196919550909350505050565b634e487b7160e01b600052604160045260246000fd5b60008060408385031215610faf57600080fd5b8235610fba81610edf565b9150602083013567ffffffffffffffff80821115610fd757600080fd5b818501915085601f830112610feb57600080fd5b813581811115610ffd57610ffd610f86565b604051601f8201601f19908116603f0116810190838211818310171561102557611025610f86565b8160405282815288602084870101111561103e57600080fd5b8260208601602083013760006020848301015280955050505050509250929050565b6000806000806080858703121561107657600080fd5b843561108181610edf565b9350602085013561109181610edf565b925060408501356110a181610edf565b9396929550929360600135925050565b600080600080600080600060c0888a0312156110cc57600080fd5b87356110d781610edf565b965060208801356110e781610edf565b955060408801356110f781610edf565b9450606088013593506080880135925060a088013567ffffffffffffffff8082111561112257600080fd5b818a0191508a601f83011261113657600080fd5b81358181111561114557600080fd5b8b602082850101111561115757600080fd5b60208301945080935050505092959891949750929550565b60208082526026908201527f41646d696e3a6f6e6c7941646d696e2063616c6c6572206973206e6f7420616e6040820152651020b236b4b760d11b606082015260800190565b6020808252602c908201527f46756e6374696f6e206d7573742062652063616c6c6564207468726f7567682060408201526b19195b1959d85d1958d85b1b60a21b606082015260800190565b6020808252602c908201527f46756e6374696f6e206d7573742062652063616c6c6564207468726f7567682060408201526b6163746976652070726f787960a01b606082015260800190565b634e487b7160e01b600052603260045260246000fd5b60006001820161128357634e487b7160e01b600052601160045260246000fd5b5060010190565b60006020828403121561129c57600080fd5b81518015158114610eae57600080fd5b6001600160a01b03878116825286166020820152604081018590526060810184905260a06080820181905281018290526000828460c0840137600060c0848401015260c0601f19601f8501168301019050979650505050505050565b60006020828403121561131a57600080fd5b5051919050565b6020808252602b908201527f496e697469616c697a61626c653a20636f6e7472616374206973206e6f74206960408201526a6e697469616c697a696e6760a81b606082015260800190565b60005b8381101561138757818101518382015260200161136f565b50506000910152565b600082516113a281846020870161136c565b9190910192915050565b60208152600082518060208401526113cb81604085016020870161136c565b601f01601f1916919091016040019291505056fe360894a13ba1a3210667c828492db98dca3e2076cc3735a920a3ca505d382bbc416464726573733a206c6f772d6c6576656c2064656c65676174652063616c6c206661696c6564a26469706673582212208e47aaaf0988fb6a3fbb45d57d7ad853646dd7524abdaf5fcd5856ef8e08aa9c64736f6c63430008110033",
  "linkReferences": {},
  "deployedLinkReferences": {}
}