{
  "_format": "hh-sol-artifact-1",
  "contractName": "NanakusaNFTUpgradeable",
  "sourceName": "contracts/sbinft/token/erc721/nanakusa/v1/NanakusaNFTUpgradeable.sol",
  "abi": [
    {
      "inputs": [
        {
          "internalType": "address",
          "name": "trustedForwarder",
          "type": "address"
        }
      ],
      "stateMutability": "nonpayable",
      "type": "constructor"
    },
    {
      "anonymous": false,
      "inputs": [
        {
          "indexed": false,
          "internalType": "address",
          "name": "",
          "type": "address"
        }
      ],
      "name": "AdminAdded",
      "type": "event"
    },
    {
      "anonymous": false,
      "inputs": [
        {
          "indexed": false,
          "internalType": "address",
          "name": "previousAdmin",
          "type": "address"
        },
        {
          "indexed": false,
          "internalType": "address",
          "name": "newAdmin",
          "type": "address"
        }
      ],
      "name": "AdminChanged",
      "type": "event"
    },
    {
      "anonymous": false,
      "inputs": [
        {
          "indexed": false,
          "internalType": "address",
          "name": "",
          "type": "address"
        }
      ],
      "name": "AdminRemoved",
      "type": "event"
    },
    {
      "anonymous": false,
      "inputs": [
        {
          "indexed": true,
          "internalType": "address",
          "name": "owner",
          "type": "address"
        },
        {
          "indexed": true,
          "internalType": "address",
          "name": "approved",
          "type": "address"
        },
        {
          "indexed": true,
          "internalType": "uint256",
          "name": "tokenId",
          "type": "uint256"
        }
      ],
      "name": "Approval",
      "type": "event"
    },
    {
      "anonymous": false,
      "inputs": [
        {
          "indexed": true,
          "internalType": "address",
          "name": "owner",
          "type": "address"
        },
        {
          "indexed": true,
          "internalType": "address",
          "name": "operator",
          "type": "address"
        },
        {
          "indexed": false,
          "internalType": "bool",
          "name": "approved",
          "type": "bool"
        }
      ],
      "name": "ApprovalForAll",
      "type": "event"
    },
    {
      "anonymous": false,
      "inputs": [
        {
          "indexed": true,
          "internalType": "address",
          "name": "beacon",
          "type": "address"
        }
      ],
      "name": "BeaconUpgraded",
      "type": "event"
    },
    {
      "anonymous": false,
      "inputs": [
        {
          "indexed": false,
          "internalType": "uint8",
          "name": "version",
          "type": "uint8"
        }
      ],
      "name": "Initialized",
      "type": "event"
    },
    {
      "anonymous": false,
      "inputs": [
        {
          "indexed": false,
          "internalType": "address",
          "name": "account",
          "type": "address"
        }
      ],
      "name": "Paused",
      "type": "event"
    },
    {
      "anonymous": false,
      "inputs": [
        {
          "indexed": false,
          "internalType": "address",
          "name": "operator",
          "type": "address"
        }
      ],
      "name": "PreApprovedOperatorAdded",
      "type": "event"
    },
    {
      "anonymous": false,
      "inputs": [
        {
          "indexed": false,
          "internalType": "address",
          "name": "operator",
          "type": "address"
        }
      ],
      "name": "PreApprovedOperatorRemoved",
      "type": "event"
    },
    {
      "anonymous": false,
      "inputs": [
        {
          "indexed": true,
          "internalType": "address",
          "name": "from",
          "type": "address"
        },
        {
          "indexed": true,
          "internalType": "address",
          "name": "to",
          "type": "address"
        },
        {
          "indexed": true,
          "internalType": "uint256",
          "name": "tokenId",
          "type": "uint256"
        }
      ],
      "name": "Transfer",
      "type": "event"
    },
    {
      "anonymous": false,
      "inputs": [
        {
          "indexed": false,
          "internalType": "address",
          "name": "account",
          "type": "address"
        }
      ],
      "name": "Unpaused",
      "type": "event"
    },
    {
      "anonymous": false,
      "inputs": [
        {
          "indexed": true,
          "internalType": "address",
          "name": "implementation",
          "type": "address"
        }
      ],
      "name": "Upgraded",
      "type": "event"
    },
    {
      "inputs": [
        {
          "internalType": "string",
          "name": "name_",
          "type": "string"
        },
        {
          "internalType": "string",
          "name": "symbol_",
          "type": "string"
        },
        {
          "internalType": "address[]",
          "name": "operatorList",
          "type": "address[]"
        }
      ],
      "name": "__NanakusaNFTUpgradeable_init",
      "outputs": [],
      "stateMutability": "nonpayable",
      "type": "function"
    },
    {
      "inputs": [
        {
          "internalType": "address[]",
          "name": "newAdmin",
          "type": "address[]"
        }
      ],
      "name": "addAdmin",
      "outputs": [],
      "stateMutability": "nonpayable",
      "type": "function"
    },
    {
      "inputs": [
        {
          "internalType": "address",
          "name": "newAdmin",
          "type": "address"
        }
      ],
      "name": "addAdmin",
      "outputs": [],
      "stateMutability": "nonpayable",
      "type": "function"
    },
    {
      "inputs": [
        {
          "internalType": "address[]",
          "name": "operatorList",
          "type": "address[]"
        }
      ],
      "name": "addPreApprovedOperator",
      "outputs": [],
      "stateMutability": "nonpayable",
      "type": "function"
    },
    {
      "inputs": [
        {
          "internalType": "address",
          "name": "to",
          "type": "address"
        },
        {
          "internalType": "uint256",
          "name": "tokenId",
          "type": "uint256"
        }
      ],
      "name": "approve",
      "outputs": [],
      "stateMutability": "nonpayable",
      "type": "function"
    },
    {
      "inputs": [
        {
          "internalType": "address",
          "name": "owner",
          "type": "address"
        }
      ],
      "name": "balanceOf",
      "outputs": [
        {
          "internalType": "uint256",
          "name": "",
          "type": "uint256"
        }
      ],
      "stateMutability": "view",
      "type": "function"
    },
    {
      "inputs": [
        {
          "internalType": "uint256",
          "name": "tokenId",
          "type": "uint256"
        }
      ],
      "name": "burn",
      "outputs": [],
      "stateMutability": "nonpayable",
      "type": "function"
    },
    {
      "inputs": [],
      "name": "deleteDefaultRoyalty",
      "outputs": [],
      "stateMutability": "nonpayable",
      "type": "function"
    },
    {
      "inputs": [
        {
          "internalType": "uint256",
          "name": "tokenId",
          "type": "uint256"
        }
      ],
      "name": "getApproved",
      "outputs": [
        {
          "internalType": "address",
          "name": "",
          "type": "address"
        }
      ],
      "stateMutability": "view",
      "type": "function"
    },
    {
      "inputs": [],
      "name": "getLastMintedTokenId",
      "outputs": [
        {
          "internalType": "uint256",
          "name": "",
          "type": "uint256"
        }
      ],
      "stateMutability": "view",
      "type": "function"
    },
    {
      "inputs": [
        {
          "internalType": "address",
          "name": "checkAdmin",
          "type": "address"
        }
      ],
      "name": "isAdmin",
      "outputs": [
        {
          "internalType": "bool",
          "name": "",
          "type": "bool"
        }
      ],
      "stateMutability": "view",
      "type": "function"
    },
    {
      "inputs": [
        {
          "internalType": "address",
          "name": "owner_",
          "type": "address"
        },
        {
          "internalType": "address",
          "name": "operator",
          "type": "address"
        }
      ],
      "name": "isApprovedForAll",
      "outputs": [
        {
          "internalType": "bool",
          "name": "",
          "type": "bool"
        }
      ],
      "stateMutability": "view",
      "type": "function"
    },
    {
      "inputs": [
        {
          "internalType": "address",
          "name": "operator",
          "type": "address"
        }
      ],
      "name": "isPreApprovedOperator",
      "outputs": [
        {
          "internalType": "bool",
          "name": "",
          "type": "bool"
        }
      ],
      "stateMutability": "view",
      "type": "function"
    },
    {
      "inputs": [
        {
          "internalType": "address",
          "name": "forwarder",
          "type": "address"
        }
      ],
      "name": "isTrustedForwarder",
      "outputs": [
        {
          "internalType": "bool",
          "name": "",
          "type": "bool"
        }
      ],
      "stateMutability": "view",
      "type": "function"
    },
    {
      "inputs": [
        {
          "components": [
            {
              "internalType": "address",
              "name": "creator",
              "type": "address"
            },
            {
              "internalType": "uint256",
              "name": "nftId",
              "type": "uint256"
            },
            {
              "internalType": "string",
              "name": "tokenURI",
              "type": "string"
            }
          ],
          "internalType": "struct INanakusa.MintData",
          "name": "mintData",
          "type": "tuple"
        },
        {
          "internalType": "address",
          "name": "transferTo",
          "type": "address"
        },
        {
          "internalType": "bytes",
          "name": "mintSign",
          "type": "bytes"
        }
      ],
      "name": "lazyMintAndTransfer",
      "outputs": [],
      "stateMutability": "nonpayable",
      "type": "function"
    },
    {
      "inputs": [
        {
          "components": [
            {
              "internalType": "address",
              "name": "creator",
              "type": "address"
            },
            {
              "internalType": "uint256",
              "name": "nftId",
              "type": "uint256"
            },
            {
              "internalType": "string",
              "name": "tokenURI",
              "type": "string"
            }
          ],
          "internalType": "struct INanakusa.MintData",
          "name": "mintData",
          "type": "tuple"
        },
        {
          "internalType": "bytes",
          "name": "mintSign",
          "type": "bytes"
        }
      ],
      "name": "mintToken",
      "outputs": [],
      "stateMutability": "nonpayable",
      "type": "function"
    },
    {
      "inputs": [],
      "name": "name",
      "outputs": [
        {
          "internalType": "string",
          "name": "",
          "type": "string"
        }
      ],
      "stateMutability": "view",
      "type": "function"
    },
    {
      "inputs": [
        {
          "internalType": "uint256",
          "name": "tokenId",
          "type": "uint256"
        }
      ],
      "name": "ownerOf",
      "outputs": [
        {
          "internalType": "address",
          "name": "",
          "type": "address"
        }
      ],
      "stateMutability": "view",
      "type": "function"
    },
    {
      "inputs": [],
      "name": "pause",
      "outputs": [],
      "stateMutability": "nonpayable",
      "type": "function"
    },
    {
      "inputs": [],
      "name": "paused",
      "outputs": [
        {
          "internalType": "bool",
          "name": "",
          "type": "bool"
        }
      ],
      "stateMutability": "view",
      "type": "function"
    },
    {
      "inputs": [],
      "name": "proxiableUUID",
      "outputs": [
        {
          "internalType": "bytes32",
          "name": "",
          "type": "bytes32"
        }
      ],
      "stateMutability": "view",
      "type": "function"
    },
    {
      "inputs": [
        {
          "internalType": "address",
          "name": "admin",
          "type": "address"
        }
      ],
      "name": "removeAdmin",
      "outputs": [],
      "stateMutability": "nonpayable",
      "type": "function"
    },
    {
      "inputs": [
        {
          "internalType": "address[]",
          "name": "operatorList",
          "type": "address[]"
        }
      ],
      "name": "removePreApprovedOperator",
      "outputs": [],
      "stateMutability": "nonpayable",
      "type": "function"
    },
    {
      "inputs": [
        {
          "internalType": "uint256",
          "name": "tokenId",
          "type": "uint256"
        }
      ],
      "name": "resetTokenRoyalty",
      "outputs": [],
      "stateMutability": "nonpayable",
      "type": "function"
    },
    {
      "inputs": [
        {
          "internalType": "uint256",
          "name": "_tokenId",
          "type": "uint256"
        },
        {
          "internalType": "uint256",
          "name": "_salePrice",
          "type": "uint256"
        }
      ],
      "name": "royaltyInfo",
      "outputs": [
        {
          "internalType": "address",
          "name": "",
          "type": "address"
        },
        {
          "internalType": "uint256",
          "name": "",
          "type": "uint256"
        }
      ],
      "stateMutability": "view",
      "type": "function"
    },
    {
      "inputs": [
        {
          "internalType": "address",
          "name": "from",
          "type": "address"
        },
        {
          "internalType": "address",
          "name": "to",
          "type": "address"
        },
        {
          "internalType": "uint256",
          "name": "tokenId",
          "type": "uint256"
        }
      ],
      "name": "safeTransferFrom",
      "outputs": [],
      "stateMutability": "nonpayable",
      "type": "function"
    },
    {
      "inputs": [
        {
          "internalType": "address",
          "name": "from",
          "type": "address"
        },
        {
          "internalType": "address",
          "name": "to",
          "type": "address"
        },
        {
          "internalType": "uint256",
          "name": "tokenId",
          "type": "uint256"
        },
        {
          "internalType": "bytes",
          "name": "data",
          "type": "bytes"
        }
      ],
      "name": "safeTransferFrom",
      "outputs": [],
      "stateMutability": "nonpayable",
      "type": "function"
    },
    {
      "inputs": [
        {
          "internalType": "address",
          "name": "operator",
          "type": "address"
        },
        {
          "internalType": "bool",
          "name": "approved",
          "type": "bool"
        }
      ],
      "name": "setApprovalForAll",
      "outputs": [],
      "stateMutability": "nonpayable",
      "type": "function"
    },
    {
      "inputs": [
        {
          "internalType": "address",
          "name": "receiver",
          "type": "address"
        },
        {
          "internalType": "uint96",
          "name": "feeNumerator",
          "type": "uint96"
        }
      ],
      "name": "setDefaultRoyalty",
      "outputs": [],
      "stateMutability": "nonpayable",
      "type": "function"
    },
    {
      "inputs": [
        {
          "internalType": "uint256",
          "name": "tokenId",
          "type": "uint256"
        },
        {
          "internalType": "address",
          "name": "receiver",
          "type": "address"
        },
        {
          "internalType": "uint96",
          "name": "feeNumerator",
          "type": "uint96"
        }
      ],
      "name": "setTokenRoyalty",
      "outputs": [],
      "stateMutability": "nonpayable",
      "type": "function"
    },
    {
      "inputs": [
        {
          "internalType": "bytes4",
          "name": "interfaceId",
          "type": "bytes4"
        }
      ],
      "name": "supportsInterface",
      "outputs": [
        {
          "internalType": "bool",
          "name": "",
          "type": "bool"
        }
      ],
      "stateMutability": "view",
      "type": "function"
    },
    {
      "inputs": [],
      "name": "symbol",
      "outputs": [
        {
          "internalType": "string",
          "name": "",
          "type": "string"
        }
      ],
      "stateMutability": "view",
      "type": "function"
    },
    {
      "inputs": [
        {
          "internalType": "uint256",
          "name": "tokenId",
          "type": "uint256"
        }
      ],
      "name": "tokenURI",
      "outputs": [
        {
          "internalType": "string",
          "name": "",
          "type": "string"
        }
      ],
      "stateMutability": "view",
      "type": "function"
    },
    {
      "inputs": [
        {
          "internalType": "address",
          "name": "from",
          "type": "address"
        },
        {
          "internalType": "address",
          "name": "to",
          "type": "address"
        },
        {
          "internalType": "uint256",
          "name": "tokenId",
          "type": "uint256"
        }
      ],
      "name": "transferFrom",
      "outputs": [],
      "stateMutability": "nonpayable",
      "type": "function"
    },
    {
      "inputs": [],
      "name": "unpause",
      "outputs": [],
      "stateMutability": "nonpayable",
      "type": "function"
    },
    {
      "inputs": [
        {
          "internalType": "address",
          "name": "newImplementation",
          "type": "address"
        }
      ],
      "name": "upgradeTo",
      "outputs": [],
      "stateMutability": "nonpayable",
      "type": "function"
    },
    {
      "inputs": [
        {
          "internalType": "address",
          "name": "newImplementation",
          "type": "address"
        },
        {
          "internalType": "bytes",
          "name": "data",
          "type": "bytes"
        }
      ],
      "name": "upgradeToAndCall",
      "outputs": [],
      "stateMutability": "payable",
      "type": "function"
    }
  ],
  "bytecode": "0x60c06040523060a0523480156200001557600080fd5b50604051620042ed380380620042ed833981016040819052620000389162000118565b6001600160a01b0381166080526200004f62000056565b506200014a565b600054610100900460ff1615620000c35760405162461bcd60e51b815260206004820152602760248201527f496e697469616c697a61626c653a20636f6e747261637420697320696e697469604482015266616c697a696e6760c81b606482015260840160405180910390fd5b60005460ff908116101562000116576000805460ff191660ff9081179091556040519081527f7f26b83ff96e1f2b6a682f133852f6798a09c465da95921460cefb38474024989060200160405180910390a15b565b6000602082840312156200012b57600080fd5b81516001600160a01b03811681146200014357600080fd5b9392505050565b60805160a05161415a6200019360003960008181610e3301528181610e730152818161103a0152818161107a01526111090152600081816104b0015261284e015261415a6000f3fe60806040526004361061021a5760003560e01c80635944c753116101235780638a616bc0116100ab578063c87b56dd1161006f578063c87b56dd14610688578063cad83591146106a8578063e79c2455146106c8578063e985e9c5146106e8578063f80bd3591461070857600080fd5b80638a616bc0146105fe57806395d89b411461061e578063a22cb46514610633578063aa1b103f14610653578063b88d4fde1461066857600080fd5b806367db2d92116100f257806367db2d9214610559578063704802751461059357806370a08231146105b35780637974e46a146105d35780638456cb59146105e957600080fd5b80635944c753146104e05780635c975abb146105005780635e73ea34146105195780636352211e1461053957600080fd5b80632bb65084116101a657806342842e0e1161017557806342842e0e1461041d57806342966c681461043d5780634f1ef2861461045d57806352d1902d14610470578063572b6c051461049357600080fd5b80632bb65084146103a85780633659cfe6146103c85780633d0950a8146103e85780633f4ba83a1461040857600080fd5b8063095ea7b3116101ed578063095ea7b3146102d05780631785f53c146102f057806323b872dd1461031057806324d7806c146103305780632a55205a1461036957600080fd5b806301ffc9a71461021f57806304634d8d1461025457806306fdde0314610276578063081812fc14610298575b600080fd5b34801561022b57600080fd5b5061023f61023a3660046134e6565b610728565b60405190151581526020015b60405180910390f35b34801561026057600080fd5b5061027461026f366004613536565b610739565b005b34801561028257600080fd5b5061028b610795565b60405161024b91906135b9565b3480156102a457600080fd5b506102b86102b33660046135cc565b610827565b6040516001600160a01b03909116815260200161024b565b3480156102dc57600080fd5b506102746102eb3660046135e5565b61084f565b3480156102fc57600080fd5b5061027461030b36600461360f565b610976565b34801561031c57600080fd5b5061027461032b36600461362a565b610a4d565b34801561033c57600080fd5b5061023f61034b36600461360f565b6001600160a01b031660009081526065602052604090205460ff1690565b34801561037557600080fd5b50610389610384366004613666565b610a85565b604080516001600160a01b03909316835260208301919091520161024b565b3480156103b457600080fd5b506102746103c33660046136e1565b610b33565b3480156103d457600080fd5b506102746103e336600461360f565b610e29565b3480156103f457600080fd5b50610274610403366004613757565b610f05565b34801561041457600080fd5b50610274610f96565b34801561042957600080fd5b5061027461043836600461362a565b610fe5565b34801561044957600080fd5b506102746104583660046135cc565b611000565b61027461046b366004613880565b611030565b34801561047c57600080fd5b506104856110fc565b60405190815260200161024b565b34801561049f57600080fd5b5061023f6104ae36600461360f565b7f00000000000000000000000000000000000000000000000000000000000000006001600160a01b0390811691161490565b3480156104ec57600080fd5b506102746104fb3660046138cd565b6111af565b34801561050c57600080fd5b506101625460ff1661023f565b34801561052557600080fd5b50610274610534366004613909565b611240565b34801561054557600080fd5b506102b86105543660046135cc565b61142f565b34801561056557600080fd5b5061023f61057436600461360f565b6001600160a01b0316600090815261028e602052604090205460ff1690565b34801561059f57600080fd5b506102746105ae36600461360f565b611490565b3480156105bf57600080fd5b506104856105ce36600461360f565b6114de565b3480156105df57600080fd5b5061028f54610485565b3480156105f557600080fd5b50610274611565565b34801561060a57600080fd5b506102746106193660046135cc565b6115b2565b34801561062a57600080fd5b5061028b61164b565b34801561063f57600080fd5b5061027461064e366004613971565b61165a565b34801561065f57600080fd5b5061027461166c565b34801561067457600080fd5b506102746106833660046139ad565b6116bb565b34801561069457600080fd5b5061028b6106a33660046135cc565b6116fa565b3480156106b457600080fd5b506102746106c3366004613a9a565b611705565b3480156106d457600080fd5b506102746106e3366004613a9a565b611805565b3480156106f457600080fd5b5061023f610703366004613ace565b611938565b34801561071457600080fd5b50610274610723366004613af8565b61198d565b600061073382611b3d565b92915050565b60656000610745611b48565b6001600160a01b0316815260208101919091526040016000205460ff166107875760405162461bcd60e51b815260040161077e90613b7f565b60405180910390fd5b6107918282611b57565b5050565b606060fe80546107a490613bc5565b80601f01602080910402602001604051908101604052809291908181526020018280546107d090613bc5565b801561081d5780601f106107f25761010080835404028352916020019161081d565b820191906000526020600020905b81548152906001019060200180831161080057829003601f168201915b5050505050905090565b600061083282611c11565b50600090815261010260205260409020546001600160a01b031690565b600061085a8261142f565b9050806001600160a01b0316836001600160a01b0316036108c75760405162461bcd60e51b815260206004820152602160248201527f4552433732313a20617070726f76616c20746f2063757272656e74206f776e656044820152603960f91b606482015260840161077e565b806001600160a01b03166108d9611b48565b6001600160a01b031614806108f557506108f581610703611b48565b6109675760405162461bcd60e51b815260206004820152603e60248201527f4552433732313a20617070726f76652063616c6c6572206973206e6f7420746f60448201527f6b656e206f776e6572206e6f7220617070726f76656420666f7220616c6c0000606482015260840161077e565b6109718383611c71565b505050565b60656000610982611b48565b6001600160a01b0316815260208101919091526040016000205460ff166109bb5760405162461bcd60e51b815260040161077e90613b7f565b6001600160a01b03811660009081526065602052604090205460ff16610a415760405162461bcd60e51b815260206004820152603560248201527f41646d696e3a72656d6f766541646d696e20747279696e6720746f2072656d6f6044820152743b32903737b71032bc34b9ba34b7339020b236b4b760591b606482015260840161077e565b610a4a81611ce0565b50565b610a5e610a58611b48565b82611d38565b610a7a5760405162461bcd60e51b815260040161077e90613bf9565b610971838383611d97565b600082815260cd602090815260408083208151808301909252546001600160a01b038116808352600160a01b9091046001600160601b0316928201929092528291610afa57506040805180820190915260cc546001600160a01b0381168252600160a01b90046001600160601b031660208201525b602081015160009061271090610b19906001600160601b031687613c5d565b610b239190613c8a565b91519350909150505b9250929050565b6001600160a01b038316610b955760405162461bcd60e51b815260206004820152603560248201526000805160206140de8339815191526044820152741d1c985b9cd9995c951bc81a5cc81a5b9d985b1a59605a1b606482015260840161077e565b6000846020013511610c0e5760405162461bcd60e51b815260206004820152604860248201526000805160206140de83398151915260448201527f6d696e74446174612e6e66744964206d7573742062652067726561746572207460648201526768616e207a65726f60c01b608482015260a40161077e565b6000610c1d6040860186613c9e565b905011610c805760405162461bcd60e51b815260206004820152603c60248201526000805160206140de83398151915260448201527f6d696e74446174612e746f6b656e55524920697320696e76616c696400000000606482015260840161077e565b6000610d1383838080601f016020809104026020016040519081016040528093929190818152602001838380828437600092019190915250610d0d9250610cca9150899050611f41565b610cd2611fe5565b6040805161190160f01b6020808301919091526022820193909352604280820194909452815180820390940184526062019052815191012090565b90612060565b9050610d37816001600160a01b031660009081526065602052604090205460ff1690565b610d8d5760405162461bcd60e51b815260206004820152603360248201526000805160206140de8339815191526044820152723737ba1039b4b3b732b210313c9020b236b4b760691b606482015260840161077e565b60208501803590610da890610da2908861360f565b82612084565b610df381610db96040890189613c9e565b8080601f01602080910402602001604051908101604052809392919081815260200183838082843760009201919091525061209e92505050565b610e1e610e03602088018861360f565b86886020013560405180602001604052806000815250612133565b61028f555050505050565b6001600160a01b037f0000000000000000000000000000000000000000000000000000000000000000163003610e715760405162461bcd60e51b815260040161077e90613ce4565b7f00000000000000000000000000000000000000000000000000000000000000006001600160a01b0316610eba6000805160206140be833981519152546001600160a01b031690565b6001600160a01b031614610ee05760405162461bcd60e51b815260040161077e90613d30565b610ee981612166565b60408051600080825260208201909252610a4a918391906121ab565b60656000610f11611b48565b6001600160a01b0316815260208101919091526040016000205460ff16610f4a5760405162461bcd60e51b815260040161077e90613b7f565b60005b8181101561097157610f84838383818110610f6a57610f6a613d7c565b9050602002016020810190610f7f919061360f565b612316565b80610f8e81613d92565b915050610f4d565b60656000610fa2611b48565b6001600160a01b0316815260208101919091526040016000205460ff16610fdb5760405162461bcd60e51b815260040161077e90613b7f565b610fe36123d4565b565b610971838383604051806020016040528060008152506116bb565b61100b610a58611b48565b6110275760405162461bcd60e51b815260040161077e90613bf9565b610a4a8161242d565b6001600160a01b037f00000000000000000000000000000000000000000000000000000000000000001630036110785760405162461bcd60e51b815260040161077e90613ce4565b7f00000000000000000000000000000000000000000000000000000000000000006001600160a01b03166110c16000805160206140be833981519152546001600160a01b031690565b6001600160a01b0316146110e75760405162461bcd60e51b815260040161077e90613d30565b6110f082612166565b610791828260016121ab565b6000306001600160a01b037f0000000000000000000000000000000000000000000000000000000000000000161461119c5760405162461bcd60e51b815260206004820152603860248201527f555550535570677261646561626c653a206d757374206e6f742062652063616c60448201527f6c6564207468726f7567682064656c656761746563616c6c0000000000000000606482015260840161077e565b506000805160206140be83398151915290565b6111b7611b48565b6001600160a01b03166111c98461142f565b6001600160a01b0316146112355760405162461bcd60e51b815260206004820152602d60248201527f4e616e616b7573614e46543a206f6e6c79206f776e65722063616e207365742060448201526c546f6b656e20526f79616c747960981b606482015260840161077e565b610971838383612436565b60008360200135116112ba5760405162461bcd60e51b815260206004820152603e60248201527f4e616e616b7573614e46543a6d696e74546f6b656e206d696e74446174612e6e60448201527f66744964206d7573742062652067726561746572207468616e207a65726f0000606482015260840161077e565b60006112c96040850185613c9e565b9050116113335760405162461bcd60e51b815260206004820152603260248201527f4e616e616b7573614e46543a6d696e74546f6b656e206d696e74446174612e746044820152711bdad95b955492481a5cc81a5b9d985b1a5960721b606482015260840161077e565b600061137d83838080601f016020809104026020016040519081016040528093929190818152602001838380828437600092019190915250610d0d9250610cca9150889050611f41565b90506113a1816001600160a01b031660009081526065602052604090205460ff1690565b6113ff5760405162461bcd60e51b815260206004820152602960248201527f4e616e616b7573614e46543a6d696e74546f6b656e206e6f74207369676e656460448201526810313c9020b236b4b760b91b606482015260840161077e565b6020840180359061141490610da2908761360f565b61142581610db96040880188613c9e565b61028f5550505050565b600081815261010060205260408120546001600160a01b0316806107335760405162461bcd60e51b8152602060048201526018602482015277115490cdcc8c4e881a5b9d985b1a59081d1bdad95b88125160421b604482015260640161077e565b6065600061149c611b48565b6001600160a01b0316815260208101919091526040016000205460ff166114d55760405162461bcd60e51b815260040161077e90613b7f565b610a4a81612316565b60006001600160a01b0382166115485760405162461bcd60e51b815260206004820152602960248201527f4552433732313a2061646472657373207a65726f206973206e6f7420612076616044820152683634b21037bbb732b960b91b606482015260840161077e565b506001600160a01b03166000908152610101602052604090205490565b60656000611571611b48565b6001600160a01b0316815260208101919091526040016000205460ff166115aa5760405162461bcd60e51b815260040161077e90613b7f565b610fe3612501565b6115ba611b48565b6001600160a01b03166115cc8261142f565b6001600160a01b03161461163a5760405162461bcd60e51b815260206004820152602f60248201527f4e616e616b7573614e46543a206f6e6c79206f776e65722063616e207265736560448201526e7420546f6b656e20526f79616c747960881b606482015260840161077e565b600090815260cd6020526040812055565b606060ff80546107a490613bc5565b610791611665611b48565b8383612540565b60656000611678611b48565b6001600160a01b0316815260208101919091526040016000205460ff166116b15760405162461bcd60e51b815260040161077e90613b7f565b610fe3600060cc55565b6116cc6116c6611b48565b83611d38565b6116e85760405162461bcd60e51b815260040161077e90613bf9565b6116f484848484612133565b50505050565b60606107338261260f565b60656000611711611b48565b6001600160a01b0316815260208101919091526040016000205460ff1661174a5760405162461bcd60e51b815260040161077e90613b7f565b60005b815181101561079157600082828151811061176a5761176a613d7c565b60200260200101519050611797816001600160a01b0316600090815261028e602052604090205460ff1690565b156117f2576001600160a01b038116600081815261028e6020908152604091829020805460ff1916905590519182527ff8f9e1bebee7b0c58697594ecda657e7f23175d236f37eb4407d7a9eaa13bdaa910160405180910390a15b50806117fd81613d92565b91505061174d565b60656000611811611b48565b6001600160a01b0316815260208101919091526040016000205460ff1661184a5760405162461bcd60e51b815260040161077e90613b7f565b60005b815181101561079157600082828151811061186a5761186a613d7c565b6020026020010151905060006001600160a01b0316816001600160a01b0316141580156118a157506000816001600160a01b03163b115b80156118c757506001600160a01b038116600090815261028e602052604090205460ff16155b15611925576001600160a01b038116600081815261028e6020908152604091829020805460ff1916600117905590519182527fc8dfb5ab9ab6cf753862beaaf785f23636e0eab79a3542f13d4073588583f73d910160405180910390a15b508061193081613d92565b91505061184d565b6001600160a01b038116600090815261028e602052604081205460ff168061198657506001600160a01b038084166000908152610103602090815260408083209386168352929052205460ff165b9392505050565b600054610100900460ff16158080156119ad5750600054600160ff909116105b806119c75750303b1580156119c7575060005460ff166001145b611a2a5760405162461bcd60e51b815260206004820152602e60248201527f496e697469616c697a61626c653a20636f6e747261637420697320616c72656160448201526d191e481a5b9a5d1a585b1a5e995960921b606482015260840161077e565b6000805460ff191660011790558015611a4d576000805461ff0019166101001790555b611aa76040518060400160405280601f81526020017f5342494e4654204e616e616b757361204e4654205570677261646561626c6500815250604051806040016040528060038152602001620312e360ec1b815250612718565b611aaf612749565b611ab98484612783565b611ac16127b4565b611ac96127e3565b611ad16127e3565b611ad96127e3565b611ae16127b4565b611ae96127e3565b611af282611805565b80156116f4576000805461ff0019169055604051600181527f7f26b83ff96e1f2b6a682f133852f6798a09c465da95921460cefb38474024989060200160405180910390a150505050565b60006107338261280a565b6000611b5261284a565b905090565b6127106001600160601b0382161115611b825760405162461bcd60e51b815260040161077e90613dab565b6001600160a01b038216611bd85760405162461bcd60e51b815260206004820152601960248201527f455243323938313a20696e76616c696420726563656976657200000000000000604482015260640161077e565b604080518082019091526001600160a01b039092168083526001600160601b039091166020909201829052600160a01b9091021760cc55565b600081815261010060205260409020546001600160a01b0316610a4a5760405162461bcd60e51b8152602060048201526018602482015277115490cdcc8c4e881a5b9d985b1a59081d1bdad95b88125160421b604482015260640161077e565b60008181526101026020526040902080546001600160a01b0319166001600160a01b0384169081179091558190611ca78261142f565b6001600160a01b03167f8c5be1e5ebec7d5bd14f71427d1e84f3dd0314c0f7b2291e5b200ac8c7c3b92560405160405180910390a45050565b6001600160a01b038116600081815260656020908152604091829020805460ff1916905590519182527fa3b62bc36326052d97ea62d63c3d60308ed4c3ea8ac079dd8499f1e9c4f80c0f91015b60405180910390a150565b600080611d448361142f565b9050806001600160a01b0316846001600160a01b03161480611d6b5750611d6b8185611938565b80611d8f5750836001600160a01b0316611d8484610827565b6001600160a01b0316145b949350505050565b826001600160a01b0316611daa8261142f565b6001600160a01b031614611e0e5760405162461bcd60e51b815260206004820152602560248201527f4552433732313a207472616e736665722066726f6d20696e636f72726563742060448201526437bbb732b960d91b606482015260840161077e565b6001600160a01b038216611e705760405162461bcd60e51b8152602060048201526024808201527f4552433732313a207472616e7366657220746f20746865207a65726f206164646044820152637265737360e01b606482015260840161077e565b611e7b83838361288e565b611e86600082611c71565b6001600160a01b038316600090815261010160205260408120805460019290611eb0908490613df5565b90915550506001600160a01b038216600090815261010160205260408120805460019290611edf908490613e08565b90915550506000818152610100602052604080822080546001600160a01b0319166001600160a01b0386811691821790925591518493918716917fddf252ad1be2c89b69c2b068fc378daa952ba7f163c4a11628f55a4df523b3ef91a4505050565b60007fef794e6d6869d49dbff445812bf818a6333bfc231f266b4c115072185760f4fe611f71602084018461360f565b6020840135611f836040860186613c9e565b604051611f91929190613e1b565b604051908190038120611fc8949392916020019384526001600160a01b039290921660208401526040830152606082015260800190565b604051602081830303815290604052805190602001209050919050565b6000611b527f8b73c3c69bb8fe3d512ecc4cf759cc79239f7b179b0ffacaa9a75d522b39400f61201460665490565b6067546040805160208101859052908101839052606081018290524660808201523060a082015260009060c0016040516020818303038152906040528051906020012090509392505050565b600080600061206f8585612899565b9150915061207c816128db565b509392505050565b610791828260405180602001604052806000815250612a91565b600082815261010060205260409020546001600160a01b031661211a5760405162461bcd60e51b815260206004820152602e60248201527f45524337323155524953746f726167653a2055524920736574206f66206e6f6e60448201526d32bc34b9ba32b73a103a37b5b2b760911b606482015260840161077e565b6000828152610130602052604090206109718282613e79565b61213e848484611d97565b61214a84848484612ac4565b6116f45760405162461bcd60e51b815260040161077e90613f38565b60656000612172611b48565b6001600160a01b0316815260208101919091526040016000205460ff16610a4a5760405162461bcd60e51b815260040161077e90613b7f565b7f4910fdfa16fed3260ed0e7147f7cc6da11a60208b5b9406d12a635614ffd91435460ff16156121de5761097183612bcc565b826001600160a01b03166352d1902d6040518163ffffffff1660e01b8152600401602060405180830381865afa925050508015612238575060408051601f3d908101601f1916820190925261223591810190613f8a565b60015b61229b5760405162461bcd60e51b815260206004820152602e60248201527f45524331393637557067726164653a206e657720696d706c656d656e7461746960448201526d6f6e206973206e6f74205555505360901b606482015260840161077e565b6000805160206140be833981519152811461230a5760405162461bcd60e51b815260206004820152602960248201527f45524331393637557067726164653a20756e737570706f727465642070726f786044820152681a58589b195555525160ba1b606482015260840161077e565b50610971838383612c68565b6001600160a01b0381166123805760405162461bcd60e51b815260206004820152602b60248201527f41646d696e3a61646441646d696e206e657741646d696e20697320746865207a60448201526a65726f206164647265737360a81b606482015260840161077e565b6001600160a01b038116600081815260656020908152604091829020805460ff1916600117905590519182527f44d6d25963f097ad14f29f06854a01f575648a1ef82f30e562ccd3889717e3399101611d2d565b6123dc612c8d565b610162805460ff191690557f5db9ee0a495bf2e6ff9c91a7834c1ba4fdd244a5e8aa4e537bd38aeae4b073aa612410611b48565b6040516001600160a01b03909116815260200160405180910390a1565b610a4a81612cd7565b6127106001600160601b03821611156124615760405162461bcd60e51b815260040161077e90613dab565b6001600160a01b0382166124b75760405162461bcd60e51b815260206004820152601b60248201527f455243323938313a20496e76616c696420706172616d65746572730000000000604482015260640161077e565b6040805180820182526001600160a01b0393841681526001600160601b039283166020808301918252600096875260cd90529190942093519051909116600160a01b029116179055565b612509612ce0565b610162805460ff191660011790557f62e78cea01bee320cd4e420270b5ea74000d11b0c9f74754ebdbfc544b05a258612410611b48565b816001600160a01b0316836001600160a01b0316036125a15760405162461bcd60e51b815260206004820152601960248201527f4552433732313a20617070726f766520746f2063616c6c657200000000000000604482015260640161077e565b6001600160a01b0383811660008181526101036020908152604080832094871680845294825291829020805460ff191686151590811790915591519182527f17307eab39ab6107e8899845ad3d59bd9653f200f220920489ca2b5937696c31910160405180910390a3505050565b606061261a82611c11565b600082815261013060205260408120805461263490613bc5565b80601f016020809104026020016040519081016040528092919081815260200182805461266090613bc5565b80156126ad5780601f10612682576101008083540402835291602001916126ad565b820191906000526020600020905b81548152906001019060200180831161269057829003601f168201915b5050505050905060006126cb60408051602081019091526000815290565b905080516000036126dd575092915050565b81511561270f5780826040516020016126f7929190613fa3565b60405160208183030381529060405292505050919050565b611d8f84612d27565b600054610100900460ff1661273f5760405162461bcd60e51b815260040161077e90613fd2565b6107918282612d9a565b600054610100900460ff166127705760405162461bcd60e51b815260040161077e90613fd2565b6127786127e3565b610fe3610f7f611b48565b600054610100900460ff166127aa5760405162461bcd60e51b815260040161077e90613fd2565b6107918282612ddb565b600054610100900460ff166127db5760405162461bcd60e51b815260040161077e90613fd2565b610fe3612e1b565b600054610100900460ff16610fe35760405162461bcd60e51b815260040161077e90613fd2565b60006001600160e01b031982166380ac58cd60e01b148061283b57506001600160e01b03198216635b5e139f60e01b145b80610733575061073382612e4f565b60007f00000000000000000000000000000000000000000000000000000000000000006001600160a01b03163303612889575060131936013560601c90565b503390565b610971838383612e84565b60008082516041036128cf5760208301516040840151606085015160001a6128c387828585612eec565b94509450505050610b2c565b50600090506002610b2c565b60008160048111156128ef576128ef61401d565b036128f75750565b600181600481111561290b5761290b61401d565b036129585760405162461bcd60e51b815260206004820152601860248201527f45434453413a20696e76616c6964207369676e61747572650000000000000000604482015260640161077e565b600281600481111561296c5761296c61401d565b036129b95760405162461bcd60e51b815260206004820152601f60248201527f45434453413a20696e76616c6964207369676e6174757265206c656e67746800604482015260640161077e565b60038160048111156129cd576129cd61401d565b03612a255760405162461bcd60e51b815260206004820152602260248201527f45434453413a20696e76616c6964207369676e6174757265202773272076616c604482015261756560f01b606482015260840161077e565b6004816004811115612a3957612a3961401d565b03610a4a5760405162461bcd60e51b815260206004820152602260248201527f45434453413a20696e76616c6964207369676e6174757265202776272076616c604482015261756560f01b606482015260840161077e565b612a9b8383612fd9565b612aa86000848484612ac4565b6109715760405162461bcd60e51b815260040161077e90613f38565b60006001600160a01b0384163b15612bc157836001600160a01b031663150b7a02612aed611b48565b8786866040518563ffffffff1660e01b8152600401612b0f9493929190614033565b6020604051808303816000875af1925050508015612b4a575060408051601f3d908101601f19168201909252612b4791810190614070565b60015b612ba7573d808015612b78576040519150601f19603f3d011682016040523d82523d6000602084013e612b7d565b606091505b508051600003612b9f5760405162461bcd60e51b815260040161077e90613f38565b805181602001fd5b6001600160e01b031916630a85bd0160e11b149050611d8f565b506001949350505050565b6001600160a01b0381163b612c395760405162461bcd60e51b815260206004820152602d60248201527f455243313936373a206e657720696d706c656d656e746174696f6e206973206e60448201526c1bdd08184818dbdb9d1c9858dd609a1b606482015260840161077e565b6000805160206140be83398151915280546001600160a01b0319166001600160a01b0392909216919091179055565b612c718361312a565b600082511180612c7e5750805b15610971576116f4838361316a565b6101625460ff16610fe35760405162461bcd60e51b815260206004820152601460248201527314185d5cd8589b194e881b9bdd081c185d5cd95960621b604482015260640161077e565b61163a8161325e565b6101625460ff1615610fe35760405162461bcd60e51b815260206004820152601060248201526f14185d5cd8589b194e881c185d5cd95960821b604482015260640161077e565b6060612d3282611c11565b6000612d4960408051602081019091526000815290565b90506000815111612d695760405180602001604052806000815250611986565b80612d73846132a0565b604051602001612d84929190613fa3565b6040516020818303038152906040529392505050565b600054610100900460ff16612dc15760405162461bcd60e51b815260040161077e90613fd2565b815160209283012081519190920120606691909155606755565b600054610100900460ff16612e025760405162461bcd60e51b815260040161077e90613fd2565b60fe612e0e8382613e79565b5060ff6109718282613e79565b600054610100900460ff16612e425760405162461bcd60e51b815260040161077e90613fd2565b610162805460ff19169055565b60006001600160e01b0319821663152a902d60e11b148061073357506301ffc9a760e01b6001600160e01b0319831614610733565b6101625460ff16156109715760405162461bcd60e51b815260206004820152602b60248201527f4552433732315061757361626c653a20746f6b656e207472616e73666572207760448201526a1a1a5b19481c185d5cd95960aa1b606482015260840161077e565b6000807f7fffffffffffffffffffffffffffffff5d576e7357a4501ddfe92f46681b20a0831115612f235750600090506003612fd0565b8460ff16601b14158015612f3b57508460ff16601c14155b15612f4c5750600090506004612fd0565b6040805160008082526020820180845289905260ff881692820192909252606081018690526080810185905260019060a0016020604051602081039080840390855afa158015612fa0573d6000803e3d6000fd5b5050604051601f1901519150506001600160a01b038116612fc957600060019250925050612fd0565b9150600090505b94509492505050565b6001600160a01b03821661302f5760405162461bcd60e51b815260206004820181905260248201527f4552433732313a206d696e7420746f20746865207a65726f2061646472657373604482015260640161077e565b600081815261010060205260409020546001600160a01b0316156130955760405162461bcd60e51b815260206004820152601c60248201527f4552433732313a20746f6b656e20616c7265616479206d696e74656400000000604482015260640161077e565b6130a16000838361288e565b6001600160a01b0382166000908152610101602052604081208054600192906130cb908490613e08565b90915550506000818152610100602052604080822080546001600160a01b0319166001600160a01b03861690811790915590518392907fddf252ad1be2c89b69c2b068fc378daa952ba7f163c4a11628f55a4df523b3ef908290a45050565b61313381612bcc565b6040516001600160a01b038216907fbc7cd75a20ee27fd9adebab32041f755214dbc6bffa90cc0225b39da2e5c2d3b90600090a250565b60606001600160a01b0383163b6131d25760405162461bcd60e51b815260206004820152602660248201527f416464726573733a2064656c65676174652063616c6c20746f206e6f6e2d636f6044820152651b9d1c9858dd60d21b606482015260840161077e565b600080846001600160a01b0316846040516131ed919061408d565b600060405180830381855af49150503d8060008114613228576040519150601f19603f3d011682016040523d82523d6000602084013e61322d565b606091505b509150915061325582826040518060600160405280602781526020016140fe602791396133a0565b95945050505050565b613267816133d9565b600081815261013060205260409020805461328190613bc5565b159050610a4a57600081815261013060205260408120610a4a91613482565b6060816000036132c75750506040805180820190915260018152600360fc1b602082015290565b8160005b81156132f157806132db81613d92565b91506132ea9050600a83613c8a565b91506132cb565b6000816001600160401b0381111561330b5761330b6137cb565b6040519080825280601f01601f191660200182016040528015613335576020820181803683370190505b5090505b8415611d8f5761334a600183613df5565b9150613357600a866140a9565b613362906030613e08565b60f81b81838151811061337757613377613d7c565b60200101906001600160f81b031916908160001a905350613399600a86613c8a565b9450613339565b606083156133af575081611986565b8251156133bf5782518084602001fd5b8160405162461bcd60e51b815260040161077e91906135b9565b60006133e48261142f565b90506133f28160008461288e565b6133fd600083611c71565b6001600160a01b038116600090815261010160205260408120805460019290613427908490613df5565b90915550506000828152610100602052604080822080546001600160a01b0319169055518391906001600160a01b038416907fddf252ad1be2c89b69c2b068fc378daa952ba7f163c4a11628f55a4df523b3ef908390a45050565b50805461348e90613bc5565b6000825580601f1061349e575050565b601f016020900490600052602060002090810190610a4a91905b808211156134cc57600081556001016134b8565b5090565b6001600160e01b031981168114610a4a57600080fd5b6000602082840312156134f857600080fd5b8135611986816134d0565b80356001600160a01b038116811461351a57600080fd5b919050565b80356001600160601b038116811461351a57600080fd5b6000806040838503121561354957600080fd5b61355283613503565b91506135606020840161351f565b90509250929050565b60005b8381101561358457818101518382015260200161356c565b50506000910152565b600081518084526135a5816020860160208601613569565b601f01601f19169290920160200192915050565b602081526000611986602083018461358d565b6000602082840312156135de57600080fd5b5035919050565b600080604083850312156135f857600080fd5b61360183613503565b946020939093013593505050565b60006020828403121561362157600080fd5b61198682613503565b60008060006060848603121561363f57600080fd5b61364884613503565b925061365660208501613503565b9150604084013590509250925092565b6000806040838503121561367957600080fd5b50508035926020909101359150565b60006060828403121561369a57600080fd5b50919050565b60008083601f8401126136b257600080fd5b5081356001600160401b038111156136c957600080fd5b602083019150836020828501011115610b2c57600080fd5b600080600080606085870312156136f757600080fd5b84356001600160401b038082111561370e57600080fd5b61371a88838901613688565b955061372860208801613503565b9450604087013591508082111561373e57600080fd5b5061374b878288016136a0565b95989497509550505050565b6000806020838503121561376a57600080fd5b82356001600160401b038082111561378157600080fd5b818501915085601f83011261379557600080fd5b8135818111156137a457600080fd5b8660208260051b85010111156137b957600080fd5b60209290920196919550909350505050565b634e487b7160e01b600052604160045260246000fd5b604051601f8201601f191681016001600160401b0381118282101715613809576138096137cb565b604052919050565b600082601f83011261382257600080fd5b81356001600160401b0381111561383b5761383b6137cb565b61384e601f8201601f19166020016137e1565b81815284602083860101111561386357600080fd5b816020850160208301376000918101602001919091529392505050565b6000806040838503121561389357600080fd5b61389c83613503565b915060208301356001600160401b038111156138b757600080fd5b6138c385828601613811565b9150509250929050565b6000806000606084860312156138e257600080fd5b833592506138f260208501613503565b91506139006040850161351f565b90509250925092565b60008060006040848603121561391e57600080fd5b83356001600160401b038082111561393557600080fd5b61394187838801613688565b9450602086013591508082111561395757600080fd5b50613964868287016136a0565b9497909650939450505050565b6000806040838503121561398457600080fd5b61398d83613503565b9150602083013580151581146139a257600080fd5b809150509250929050565b600080600080608085870312156139c357600080fd5b6139cc85613503565b93506139da60208601613503565b92506040850135915060608501356001600160401b038111156139fc57600080fd5b613a0887828801613811565b91505092959194509250565b600082601f830112613a2557600080fd5b813560206001600160401b03821115613a4057613a406137cb565b8160051b613a4f8282016137e1565b9283528481018201928281019087851115613a6957600080fd5b83870192505b84831015613a8f57613a8083613503565b82529183019190830190613a6f565b979650505050505050565b600060208284031215613aac57600080fd5b81356001600160401b03811115613ac257600080fd5b611d8f84828501613a14565b60008060408385031215613ae157600080fd5b613aea83613503565b915061356060208401613503565b600080600060608486031215613b0d57600080fd5b83356001600160401b0380821115613b2457600080fd5b613b3087838801613811565b94506020860135915080821115613b4657600080fd5b613b5287838801613811565b93506040860135915080821115613b6857600080fd5b50613b7586828701613a14565b9150509250925092565b60208082526026908201527f41646d696e3a6f6e6c7941646d696e2063616c6c6572206973206e6f7420616e6040820152651020b236b4b760d11b606082015260800190565b600181811c90821680613bd957607f821691505b60208210810361369a57634e487b7160e01b600052602260045260246000fd5b6020808252602e908201527f4552433732313a2063616c6c6572206973206e6f7420746f6b656e206f776e6560408201526d1c881b9bdc88185c1c1c9bdd995960921b606082015260800190565b634e487b7160e01b600052601160045260246000fd5b808202811582820484141761073357610733613c47565b634e487b7160e01b600052601260045260246000fd5b600082613c9957613c99613c74565b500490565b6000808335601e19843603018112613cb557600080fd5b8301803591506001600160401b03821115613ccf57600080fd5b602001915036819003821315610b2c57600080fd5b6020808252602c908201527f46756e6374696f6e206d7573742062652063616c6c6564207468726f7567682060408201526b19195b1959d85d1958d85b1b60a21b606082015260800190565b6020808252602c908201527f46756e6374696f6e206d7573742062652063616c6c6564207468726f7567682060408201526b6163746976652070726f787960a01b606082015260800190565b634e487b7160e01b600052603260045260246000fd5b600060018201613da457613da4613c47565b5060010190565b6020808252602a908201527f455243323938313a20726f79616c7479206665652077696c6c206578636565646040820152692073616c65507269636560b01b606082015260800190565b8181038181111561073357610733613c47565b8082018082111561073357610733613c47565b8183823760009101908152919050565b601f82111561097157600081815260208120601f850160051c81016020861015613e525750805b601f850160051c820191505b81811015613e7157828155600101613e5e565b505050505050565b81516001600160401b03811115613e9257613e926137cb565b613ea681613ea08454613bc5565b84613e2b565b602080601f831160018114613edb5760008415613ec35750858301515b600019600386901b1c1916600185901b178555613e71565b600085815260208120601f198616915b82811015613f0a57888601518255948401946001909101908401613eeb565b5085821015613f285787850151600019600388901b60f8161c191681555b5050505050600190811b01905550565b60208082526032908201527f4552433732313a207472616e7366657220746f206e6f6e20455243373231526560408201527131b2b4bb32b91034b6b83632b6b2b73a32b960711b606082015260800190565b600060208284031215613f9c57600080fd5b5051919050565b60008351613fb5818460208801613569565b835190830190613fc9818360208801613569565b01949350505050565b6020808252602b908201527f496e697469616c697a61626c653a20636f6e7472616374206973206e6f74206960408201526a6e697469616c697a696e6760a81b606082015260800190565b634e487b7160e01b600052602160045260246000fd5b6001600160a01b03858116825284166020820152604081018390526080606082018190526000906140669083018461358d565b9695505050505050565b60006020828403121561408257600080fd5b8151611986816134d0565b6000825161409f818460208701613569565b9190910192915050565b6000826140b8576140b8613c74565b50069056fe360894a13ba1a3210667c828492db98dca3e2076cc3735a920a3ca505d382bbc4e616e616b7573614e46543a6c617a794d696e74416e645472616e7366657220416464726573733a206c6f772d6c6576656c2064656c65676174652063616c6c206661696c6564a26469706673582212203d08ba861440c82ce1ca2db2fae50373ebe87b422535e7c2af748dfa8227c60f64736f6c63430008110033",
  "linkReferences": {},
  "deployedLinkReferences": {}
}