{
  "_format": "hh-sol-artifact-1",
  "contractName": "NanakusaNFTUpgradeable",
  "sourceName": "contracts/sbinft/token/erc721/nanakusa/v1/NanakusaNFTUpgradeable.sol",
  "abi": [
    {
      "inputs": [
        {
          "internalType": "address",
          "name": "trustedForwarder",
          "type": "address"
        }
      ],
      "stateMutability": "nonpayable",
      "type": "constructor"
    },
    {
      "anonymous": false,
      "inputs": [
        {
          "indexed": false,
          "internalType": "address",
          "name": "",
          "type": "address"
        }
      ],
      "name": "AdminAdded",
      "type": "event"
    },
    {
      "anonymous": false,
      "inputs": [
        {
          "indexed": false,
          "internalType": "address",
          "name": "previousAdmin",
          "type": "address"
        },
        {
          "indexed": false,
          "internalType": "address",
          "name": "newAdmin",
          "type": "address"
        }
      ],
      "name": "AdminChanged",
      "type": "event"
    },
    {
      "anonymous": false,
      "inputs": [
        {
          "indexed": false,
          "internalType": "address",
          "name": "",
          "type": "address"
        }
      ],
      "name": "AdminRemoved",
      "type": "event"
    },
    {
      "anonymous": false,
      "inputs": [
        {
          "indexed": true,
          "internalType": "address",
          "name": "owner",
          "type": "address"
        },
        {
          "indexed": true,
          "internalType": "address",
          "name": "approved",
          "type": "address"
        },
        {
          "indexed": true,
          "internalType": "uint256",
          "name": "tokenId",
          "type": "uint256"
        }
      ],
      "name": "Approval",
      "type": "event"
    },
    {
      "anonymous": false,
      "inputs": [
        {
          "indexed": true,
          "internalType": "address",
          "name": "owner",
          "type": "address"
        },
        {
          "indexed": true,
          "internalType": "address",
          "name": "operator",
          "type": "address"
        },
        {
          "indexed": false,
          "internalType": "bool",
          "name": "approved",
          "type": "bool"
        }
      ],
      "name": "ApprovalForAll",
      "type": "event"
    },
    {
      "anonymous": false,
      "inputs": [
        {
          "indexed": true,
          "internalType": "address",
          "name": "beacon",
          "type": "address"
        }
      ],
      "name": "BeaconUpgraded",
      "type": "event"
    },
    {
      "anonymous": false,
      "inputs": [
        {
          "indexed": false,
          "internalType": "uint8",
          "name": "version",
          "type": "uint8"
        }
      ],
      "name": "Initialized",
      "type": "event"
    },
    {
      "anonymous": false,
      "inputs": [
        {
          "indexed": false,
          "internalType": "address",
          "name": "account",
          "type": "address"
        }
      ],
      "name": "Paused",
      "type": "event"
    },
    {
      "anonymous": false,
      "inputs": [
        {
          "indexed": false,
          "internalType": "address",
          "name": "operator",
          "type": "address"
        }
      ],
      "name": "PreApprovedOperatorAdded",
      "type": "event"
    },
    {
      "anonymous": false,
      "inputs": [
        {
          "indexed": false,
          "internalType": "address",
          "name": "operator",
          "type": "address"
        }
      ],
      "name": "PreApprovedOperatorRemoved",
      "type": "event"
    },
    {
      "anonymous": false,
      "inputs": [
        {
          "indexed": true,
          "internalType": "address",
          "name": "from",
          "type": "address"
        },
        {
          "indexed": true,
          "internalType": "address",
          "name": "to",
          "type": "address"
        },
        {
          "indexed": true,
          "internalType": "uint256",
          "name": "tokenId",
          "type": "uint256"
        }
      ],
      "name": "Transfer",
      "type": "event"
    },
    {
      "anonymous": false,
      "inputs": [
        {
          "indexed": false,
          "internalType": "address",
          "name": "account",
          "type": "address"
        }
      ],
      "name": "Unpaused",
      "type": "event"
    },
    {
      "anonymous": false,
      "inputs": [
        {
          "indexed": true,
          "internalType": "address",
          "name": "implementation",
          "type": "address"
        }
      ],
      "name": "Upgraded",
      "type": "event"
    },
    {
      "inputs": [
        {
          "internalType": "string",
          "name": "name_",
          "type": "string"
        },
        {
          "internalType": "string",
          "name": "symbol_",
          "type": "string"
        },
        {
          "internalType": "address[]",
          "name": "operatorList",
          "type": "address[]"
        }
      ],
      "name": "__NanakusaNFT_init",
      "outputs": [],
      "stateMutability": "nonpayable",
      "type": "function"
    },
    {
      "inputs": [
        {
          "internalType": "address[]",
          "name": "newAdmin",
          "type": "address[]"
        }
      ],
      "name": "addAdmin",
      "outputs": [],
      "stateMutability": "nonpayable",
      "type": "function"
    },
    {
      "inputs": [
        {
          "internalType": "address",
          "name": "newAdmin",
          "type": "address"
        }
      ],
      "name": "addAdmin",
      "outputs": [],
      "stateMutability": "nonpayable",
      "type": "function"
    },
    {
      "inputs": [
        {
          "internalType": "address[]",
          "name": "operatorList",
          "type": "address[]"
        }
      ],
      "name": "addPreApprovedOperator",
      "outputs": [],
      "stateMutability": "nonpayable",
      "type": "function"
    },
    {
      "inputs": [
        {
          "internalType": "address",
          "name": "to",
          "type": "address"
        },
        {
          "internalType": "uint256",
          "name": "tokenId",
          "type": "uint256"
        }
      ],
      "name": "approve",
      "outputs": [],
      "stateMutability": "nonpayable",
      "type": "function"
    },
    {
      "inputs": [
        {
          "internalType": "address",
          "name": "owner",
          "type": "address"
        }
      ],
      "name": "balanceOf",
      "outputs": [
        {
          "internalType": "uint256",
          "name": "",
          "type": "uint256"
        }
      ],
      "stateMutability": "view",
      "type": "function"
    },
    {
      "inputs": [
        {
          "internalType": "uint256",
          "name": "tokenId",
          "type": "uint256"
        }
      ],
      "name": "burn",
      "outputs": [],
      "stateMutability": "nonpayable",
      "type": "function"
    },
    {
      "inputs": [],
      "name": "deleteDefaultRoyalty",
      "outputs": [],
      "stateMutability": "nonpayable",
      "type": "function"
    },
    {
      "inputs": [
        {
          "internalType": "uint256",
          "name": "tokenId",
          "type": "uint256"
        }
      ],
      "name": "getApproved",
      "outputs": [
        {
          "internalType": "address",
          "name": "",
          "type": "address"
        }
      ],
      "stateMutability": "view",
      "type": "function"
    },
    {
      "inputs": [
        {
          "internalType": "address",
          "name": "checkAdmin",
          "type": "address"
        }
      ],
      "name": "isAdmin",
      "outputs": [
        {
          "internalType": "bool",
          "name": "",
          "type": "bool"
        }
      ],
      "stateMutability": "view",
      "type": "function"
    },
    {
      "inputs": [
        {
          "internalType": "address",
          "name": "owner_",
          "type": "address"
        },
        {
          "internalType": "address",
          "name": "operator",
          "type": "address"
        }
      ],
      "name": "isApprovedForAll",
      "outputs": [
        {
          "internalType": "bool",
          "name": "",
          "type": "bool"
        }
      ],
      "stateMutability": "view",
      "type": "function"
    },
    {
      "inputs": [
        {
          "internalType": "address",
          "name": "operator",
          "type": "address"
        }
      ],
      "name": "isPreApprovedOperator",
      "outputs": [
        {
          "internalType": "bool",
          "name": "",
          "type": "bool"
        }
      ],
      "stateMutability": "view",
      "type": "function"
    },
    {
      "inputs": [
        {
          "internalType": "address",
          "name": "forwarder",
          "type": "address"
        }
      ],
      "name": "isTrustedForwarder",
      "outputs": [
        {
          "internalType": "bool",
          "name": "",
          "type": "bool"
        }
      ],
      "stateMutability": "view",
      "type": "function"
    },
    {
      "inputs": [
        {
          "components": [
            {
              "internalType": "address",
              "name": "creator",
              "type": "address"
            },
            {
              "internalType": "uint256",
              "name": "nftId",
              "type": "uint256"
            },
            {
              "internalType": "string",
              "name": "tokenURI",
              "type": "string"
            },
            {
              "internalType": "address",
              "name": "royaltyReceiver",
              "type": "address"
            },
            {
              "internalType": "uint96",
              "name": "royaltyFeeNumerator",
              "type": "uint96"
            }
          ],
          "internalType": "struct NanakusaNFTUpgradeable.MintData",
          "name": "mintData",
          "type": "tuple"
        },
        {
          "internalType": "address",
          "name": "transferTo",
          "type": "address"
        },
        {
          "internalType": "bytes",
          "name": "mintSign",
          "type": "bytes"
        }
      ],
      "name": "lazyMintAndTransfer",
      "outputs": [],
      "stateMutability": "nonpayable",
      "type": "function"
    },
    {
      "inputs": [
        {
          "components": [
            {
              "internalType": "address",
              "name": "creator",
              "type": "address"
            },
            {
              "internalType": "uint256",
              "name": "nftId",
              "type": "uint256"
            },
            {
              "internalType": "string",
              "name": "tokenURI",
              "type": "string"
            },
            {
              "internalType": "address",
              "name": "royaltyReceiver",
              "type": "address"
            },
            {
              "internalType": "uint96",
              "name": "royaltyFeeNumerator",
              "type": "uint96"
            }
          ],
          "internalType": "struct NanakusaNFTUpgradeable.MintData",
          "name": "mintData",
          "type": "tuple"
        },
        {
          "internalType": "bytes",
          "name": "mintSign",
          "type": "bytes"
        }
      ],
      "name": "mintToken",
      "outputs": [],
      "stateMutability": "nonpayable",
      "type": "function"
    },
    {
      "inputs": [],
      "name": "name",
      "outputs": [
        {
          "internalType": "string",
          "name": "",
          "type": "string"
        }
      ],
      "stateMutability": "view",
      "type": "function"
    },
    {
      "inputs": [
        {
          "internalType": "uint256",
          "name": "tokenId",
          "type": "uint256"
        }
      ],
      "name": "ownerOf",
      "outputs": [
        {
          "internalType": "address",
          "name": "",
          "type": "address"
        }
      ],
      "stateMutability": "view",
      "type": "function"
    },
    {
      "inputs": [],
      "name": "pause",
      "outputs": [],
      "stateMutability": "nonpayable",
      "type": "function"
    },
    {
      "inputs": [],
      "name": "paused",
      "outputs": [
        {
          "internalType": "bool",
          "name": "",
          "type": "bool"
        }
      ],
      "stateMutability": "view",
      "type": "function"
    },
    {
      "inputs": [],
      "name": "proxiableUUID",
      "outputs": [
        {
          "internalType": "bytes32",
          "name": "",
          "type": "bytes32"
        }
      ],
      "stateMutability": "view",
      "type": "function"
    },
    {
      "inputs": [
        {
          "internalType": "address",
          "name": "admin",
          "type": "address"
        }
      ],
      "name": "removeAdmin",
      "outputs": [],
      "stateMutability": "nonpayable",
      "type": "function"
    },
    {
      "inputs": [
        {
          "internalType": "address[]",
          "name": "operatorList",
          "type": "address[]"
        }
      ],
      "name": "removePreApprovedOperator",
      "outputs": [],
      "stateMutability": "nonpayable",
      "type": "function"
    },
    {
      "inputs": [
        {
          "internalType": "uint256",
          "name": "tokenId",
          "type": "uint256"
        }
      ],
      "name": "resetTokenRoyalty",
      "outputs": [],
      "stateMutability": "nonpayable",
      "type": "function"
    },
    {
      "inputs": [
        {
          "internalType": "uint256",
          "name": "_tokenId",
          "type": "uint256"
        },
        {
          "internalType": "uint256",
          "name": "_salePrice",
          "type": "uint256"
        }
      ],
      "name": "royaltyInfo",
      "outputs": [
        {
          "internalType": "address",
          "name": "",
          "type": "address"
        },
        {
          "internalType": "uint256",
          "name": "",
          "type": "uint256"
        }
      ],
      "stateMutability": "view",
      "type": "function"
    },
    {
      "inputs": [
        {
          "internalType": "address",
          "name": "from",
          "type": "address"
        },
        {
          "internalType": "address",
          "name": "to",
          "type": "address"
        },
        {
          "internalType": "uint256",
          "name": "tokenId",
          "type": "uint256"
        }
      ],
      "name": "safeTransferFrom",
      "outputs": [],
      "stateMutability": "nonpayable",
      "type": "function"
    },
    {
      "inputs": [
        {
          "internalType": "address",
          "name": "from",
          "type": "address"
        },
        {
          "internalType": "address",
          "name": "to",
          "type": "address"
        },
        {
          "internalType": "uint256",
          "name": "tokenId",
          "type": "uint256"
        },
        {
          "internalType": "bytes",
          "name": "data",
          "type": "bytes"
        }
      ],
      "name": "safeTransferFrom",
      "outputs": [],
      "stateMutability": "nonpayable",
      "type": "function"
    },
    {
      "inputs": [
        {
          "internalType": "address",
          "name": "operator",
          "type": "address"
        },
        {
          "internalType": "bool",
          "name": "approved",
          "type": "bool"
        }
      ],
      "name": "setApprovalForAll",
      "outputs": [],
      "stateMutability": "nonpayable",
      "type": "function"
    },
    {
      "inputs": [
        {
          "internalType": "address",
          "name": "receiver",
          "type": "address"
        },
        {
          "internalType": "uint96",
          "name": "feeNumerator",
          "type": "uint96"
        }
      ],
      "name": "setDefaultRoyalty",
      "outputs": [],
      "stateMutability": "nonpayable",
      "type": "function"
    },
    {
      "inputs": [
        {
          "internalType": "uint256",
          "name": "tokenId",
          "type": "uint256"
        },
        {
          "internalType": "address",
          "name": "receiver",
          "type": "address"
        },
        {
          "internalType": "uint96",
          "name": "feeNumerator",
          "type": "uint96"
        }
      ],
      "name": "setTokenRoyalty",
      "outputs": [],
      "stateMutability": "nonpayable",
      "type": "function"
    },
    {
      "inputs": [
        {
          "internalType": "bytes4",
          "name": "interfaceId",
          "type": "bytes4"
        }
      ],
      "name": "supportsInterface",
      "outputs": [
        {
          "internalType": "bool",
          "name": "",
          "type": "bool"
        }
      ],
      "stateMutability": "view",
      "type": "function"
    },
    {
      "inputs": [],
      "name": "symbol",
      "outputs": [
        {
          "internalType": "string",
          "name": "",
          "type": "string"
        }
      ],
      "stateMutability": "view",
      "type": "function"
    },
    {
      "inputs": [
        {
          "internalType": "uint256",
          "name": "tokenId",
          "type": "uint256"
        }
      ],
      "name": "tokenURI",
      "outputs": [
        {
          "internalType": "string",
          "name": "",
          "type": "string"
        }
      ],
      "stateMutability": "view",
      "type": "function"
    },
    {
      "inputs": [
        {
          "internalType": "address",
          "name": "from",
          "type": "address"
        },
        {
          "internalType": "address",
          "name": "to",
          "type": "address"
        },
        {
          "internalType": "uint256",
          "name": "tokenId",
          "type": "uint256"
        }
      ],
      "name": "transferFrom",
      "outputs": [],
      "stateMutability": "nonpayable",
      "type": "function"
    },
    {
      "inputs": [],
      "name": "unpause",
      "outputs": [],
      "stateMutability": "nonpayable",
      "type": "function"
    },
    {
      "inputs": [
        {
          "internalType": "address",
          "name": "newImplementation",
          "type": "address"
        }
      ],
      "name": "upgradeTo",
      "outputs": [],
      "stateMutability": "nonpayable",
      "type": "function"
    },
    {
      "inputs": [
        {
          "internalType": "address",
          "name": "newImplementation",
          "type": "address"
        },
        {
          "internalType": "bytes",
          "name": "data",
          "type": "bytes"
        }
      ],
      "name": "upgradeToAndCall",
      "outputs": [],
      "stateMutability": "payable",
      "type": "function"
    }
  ],
  "bytecode": "0x60c06040523060a0523480156200001557600080fd5b506040516200439c3803806200439c833981016040819052620000389162000118565b6001600160a01b0381166080526200004f62000056565b506200014a565b600054610100900460ff1615620000c35760405162461bcd60e51b815260206004820152602760248201527f496e697469616c697a61626c653a20636f6e747261637420697320696e697469604482015266616c697a696e6760c81b606482015260840160405180910390fd5b60005460ff908116101562000116576000805460ff191660ff9081179091556040519081527f7f26b83ff96e1f2b6a682f133852f6798a09c465da95921460cefb38474024989060200160405180910390a15b565b6000602082840312156200012b57600080fd5b81516001600160a01b03811681146200014357600080fd5b9392505050565b60805160a0516142096200019360003960008181610dda01528181610e1a01528181610fe10152818161102101526110b00152600081816104a501526128ea01526142096000f3fe60806040526004361061020f5760003560e01c80635944c75311610118578063a22cb465116100a0578063cad835911161006f578063cad8359114610667578063e79c245514610687578063e985e9c5146106a7578063ee3fc1e3146106c7578063fccefbd9146106e757600080fd5b8063a22cb465146105f2578063aa1b103f14610612578063b88d4fde14610627578063c87b56dd1461064757600080fd5b806370480275116100e7578063704802751461056857806370a08231146105885780638456cb59146105a85780638a616bc0146105bd57806395d89b41146105dd57600080fd5b80635944c753146104d55780635c975abb146104f55780636352211e1461050e57806367db2d921461052e57600080fd5b80632a55205a1161019b57806342842e0e1161016a57806342842e0e1461041257806342966c68146104325780634f1ef2861461045257806352d1902d14610465578063572b6c051461048857600080fd5b80632a55205a1461037e5780633659cfe6146103bd5780633d0950a8146103dd5780633f4ba83a146103fd57600080fd5b8063095ea7b3116101e2578063095ea7b3146102c55780631785f53c146102e55780631d4853981461030557806323b872dd1461032557806324d7806c1461034557600080fd5b806301ffc9a71461021457806304634d8d1461024957806306fdde031461026b578063081812fc1461028d575b600080fd5b34801561022057600080fd5b5061023461022f366004613582565b610707565b60405190151581526020015b60405180910390f35b34801561025557600080fd5b506102696102643660046135d2565b610718565b005b34801561027757600080fd5b50610280610774565b6040516102409190613655565b34801561029957600080fd5b506102ad6102a8366004613668565b610806565b6040516001600160a01b039091168152602001610240565b3480156102d157600080fd5b506102696102e0366004613681565b61082e565b3480156102f157600080fd5b506102696103003660046136ab565b610955565b34801561031157600080fd5b5061026961032036600461371f565b610a2c565b34801561033157600080fd5b50610269610340366004613787565b610cea565b34801561035157600080fd5b506102346103603660046136ab565b6001600160a01b031660009081526065602052604090205460ff1690565b34801561038a57600080fd5b5061039e6103993660046137c3565b610d22565b604080516001600160a01b039093168352602083019190915201610240565b3480156103c957600080fd5b506102696103d83660046136ab565b610dd0565b3480156103e957600080fd5b506102696103f83660046137e5565b610eac565b34801561040957600080fd5b50610269610f3d565b34801561041e57600080fd5b5061026961042d366004613787565b610f8c565b34801561043e57600080fd5b5061026961044d366004613668565b610fa7565b61026961046036600461390e565b610fd7565b34801561047157600080fd5b5061047a6110a3565b604051908152602001610240565b34801561049457600080fd5b506102346104a33660046136ab565b7f00000000000000000000000000000000000000000000000000000000000000006001600160a01b0390811691161490565b3480156104e157600080fd5b506102696104f036600461395b565b611156565b34801561050157600080fd5b506101625460ff16610234565b34801561051a57600080fd5b506102ad610529366004613668565b6111e7565b34801561053a57600080fd5b506102346105493660046136ab565b6001600160a01b0316600090815261028e602052604090205460ff1690565b34801561057457600080fd5b506102696105833660046136ab565b611248565b34801561059457600080fd5b5061047a6105a33660046136ab565b611296565b3480156105b457600080fd5b5061026961131d565b3480156105c957600080fd5b506102696105d8366004613668565b61136a565b3480156105e957600080fd5b50610280611403565b3480156105fe57600080fd5b5061026961060d366004613997565b611412565b34801561061e57600080fd5b50610269611424565b34801561063357600080fd5b506102696106423660046139d3565b611473565b34801561065357600080fd5b50610280610662366004613668565b6114b2565b34801561067357600080fd5b50610269610682366004613ac0565b6114bd565b34801561069357600080fd5b506102696106a2366004613ac0565b6115bd565b3480156106b357600080fd5b506102346106c2366004613af4565b6116f0565b3480156106d357600080fd5b506102696106e2366004613b1e565b611745565b3480156106f357600080fd5b50610269610702366004613b94565b6119f3565b600061071282611ba3565b92915050565b60656000610724611bae565b6001600160a01b0316815260208101919091526040016000205460ff166107665760405162461bcd60e51b815260040161075d90613c1b565b60405180910390fd5b6107708282611bbd565b5050565b606060fe805461078390613c61565b80601f01602080910402602001604051908101604052809291908181526020018280546107af90613c61565b80156107fc5780601f106107d1576101008083540402835291602001916107fc565b820191906000526020600020905b8154815290600101906020018083116107df57829003601f168201915b5050505050905090565b600061081182611c77565b50600090815261010260205260409020546001600160a01b031690565b6000610839826111e7565b9050806001600160a01b0316836001600160a01b0316036108a65760405162461bcd60e51b815260206004820152602160248201527f4552433732313a20617070726f76616c20746f2063757272656e74206f776e656044820152603960f91b606482015260840161075d565b806001600160a01b03166108b8611bae565b6001600160a01b031614806108d457506108d4816106c2611bae565b6109465760405162461bcd60e51b815260206004820152603e60248201527f4552433732313a20617070726f76652063616c6c6572206973206e6f7420746f60448201527f6b656e206f776e6572206e6f7220617070726f76656420666f7220616c6c0000606482015260840161075d565b6109508383611cd7565b505050565b60656000610961611bae565b6001600160a01b0316815260208101919091526040016000205460ff1661099a5760405162461bcd60e51b815260040161075d90613c1b565b6001600160a01b03811660009081526065602052604090205460ff16610a205760405162461bcd60e51b815260206004820152603560248201527f41646d696e3a72656d6f766541646d696e20747279696e6720746f2072656d6f6044820152743b32903737b71032bc34b9ba34b7339020b236b4b760591b606482015260840161075d565b610a2981611d46565b50565b6000836020013511610aa65760405162461bcd60e51b815260206004820152603e60248201527f4e616e616b7573614e46543a6d696e74546f6b656e206d696e74446174612e6e60448201527f66744964206d7573742062652067726561746572207468616e207a65726f0000606482015260840161075d565b6000610ab56040850185613c95565b905011610b1f5760405162461bcd60e51b815260206004820152603260248201527f4e616e616b7573614e46543a6d696e74546f6b656e206d696e74446174612e746044820152711bdad95b955492481a5cc81a5b9d985b1a5960721b606482015260840161075d565b6000610bb283838080601f016020809104026020016040519081016040528093929190818152602001838380828437600092019190915250610bac9250610b699150889050611d9e565b610b71611e78565b6040805161190160f01b6020808301919091526022820193909352604280820194909452815180820390940184526062019052815191012090565b90611ef3565b9050610bd6816001600160a01b031660009081526065602052604090205460ff1690565b610c345760405162461bcd60e51b815260206004820152602960248201527f4e616e616b7573614e46543a6d696e74546f6b656e206e6f74207369676e656460448201526810313c9020b236b4b760b91b606482015260840161075d565b60208401803590610c4f90610c4990876136ab565b82611f17565b610c9a81610c606040880188613c95565b8080601f016020809104026020016040519081016040528093929190818152602001838380828437600092019190915250611f3192505050565b6000610cac60808701606088016136ab565b6001600160a01b031614610ce357610ce381610cce60808801606089016136ab565b610cde60a0890160808a01613cdb565b611fc6565b5050505050565b610cfb610cf5611bae565b82612091565b610d175760405162461bcd60e51b815260040161075d90613cf6565b6109508383836120f0565b600082815260cd602090815260408083208151808301909252546001600160a01b038116808352600160a01b9091046001600160601b0316928201929092528291610d9757506040805180820190915260cc546001600160a01b0381168252600160a01b90046001600160601b031660208201525b602081015160009061271090610db6906001600160601b031687613d5a565b610dc09190613d87565b91519350909150505b9250929050565b6001600160a01b037f0000000000000000000000000000000000000000000000000000000000000000163003610e185760405162461bcd60e51b815260040161075d90613d9b565b7f00000000000000000000000000000000000000000000000000000000000000006001600160a01b0316610e6160008051602061416d833981519152546001600160a01b031690565b6001600160a01b031614610e875760405162461bcd60e51b815260040161075d90613de7565b610e908161229a565b60408051600080825260208201909252610a29918391906122df565b60656000610eb8611bae565b6001600160a01b0316815260208101919091526040016000205460ff16610ef15760405162461bcd60e51b815260040161075d90613c1b565b60005b8181101561095057610f2b838383818110610f1157610f11613e33565b9050602002016020810190610f2691906136ab565b61244a565b80610f3581613e49565b915050610ef4565b60656000610f49611bae565b6001600160a01b0316815260208101919091526040016000205460ff16610f825760405162461bcd60e51b815260040161075d90613c1b565b610f8a612508565b565b61095083838360405180602001604052806000815250611473565b610fb2610cf5611bae565b610fce5760405162461bcd60e51b815260040161075d90613cf6565b610a2981612561565b6001600160a01b037f000000000000000000000000000000000000000000000000000000000000000016300361101f5760405162461bcd60e51b815260040161075d90613d9b565b7f00000000000000000000000000000000000000000000000000000000000000006001600160a01b031661106860008051602061416d833981519152546001600160a01b031690565b6001600160a01b03161461108e5760405162461bcd60e51b815260040161075d90613de7565b6110978261229a565b610770828260016122df565b6000306001600160a01b037f000000000000000000000000000000000000000000000000000000000000000016146111435760405162461bcd60e51b815260206004820152603860248201527f555550535570677261646561626c653a206d757374206e6f742062652063616c60448201527f6c6564207468726f7567682064656c656761746563616c6c0000000000000000606482015260840161075d565b5060008051602061416d83398151915290565b61115e611bae565b6001600160a01b0316611170846111e7565b6001600160a01b0316146111dc5760405162461bcd60e51b815260206004820152602d60248201527f4e616e616b7573614e46543a206f6e6c79206f776e65722063616e207365742060448201526c546f6b656e20526f79616c747960981b606482015260840161075d565b610950838383611fc6565b600081815261010060205260408120546001600160a01b0316806107125760405162461bcd60e51b8152602060048201526018602482015277115490cdcc8c4e881a5b9d985b1a59081d1bdad95b88125160421b604482015260640161075d565b60656000611254611bae565b6001600160a01b0316815260208101919091526040016000205460ff1661128d5760405162461bcd60e51b815260040161075d90613c1b565b610a298161244a565b60006001600160a01b0382166113005760405162461bcd60e51b815260206004820152602960248201527f4552433732313a2061646472657373207a65726f206973206e6f7420612076616044820152683634b21037bbb732b960b91b606482015260840161075d565b506001600160a01b03166000908152610101602052604090205490565b60656000611329611bae565b6001600160a01b0316815260208101919091526040016000205460ff166113625760405162461bcd60e51b815260040161075d90613c1b565b610f8a61256a565b611372611bae565b6001600160a01b0316611384826111e7565b6001600160a01b0316146113f25760405162461bcd60e51b815260206004820152602f60248201527f4e616e616b7573614e46543a206f6e6c79206f776e65722063616e207265736560448201526e7420546f6b656e20526f79616c747960881b606482015260840161075d565b600090815260cd6020526040812055565b606060ff805461078390613c61565b61077061141d611bae565b83836125a9565b60656000611430611bae565b6001600160a01b0316815260208101919091526040016000205460ff166114695760405162461bcd60e51b815260040161075d90613c1b565b610f8a600060cc55565b61148461147e611bae565b83612091565b6114a05760405162461bcd60e51b815260040161075d90613cf6565b6114ac84848484612678565b50505050565b6060610712826126ab565b606560006114c9611bae565b6001600160a01b0316815260208101919091526040016000205460ff166115025760405162461bcd60e51b815260040161075d90613c1b565b60005b815181101561077057600082828151811061152257611522613e33565b6020026020010151905061154f816001600160a01b0316600090815261028e602052604090205460ff1690565b156115aa576001600160a01b038116600081815261028e6020908152604091829020805460ff1916905590519182527ff8f9e1bebee7b0c58697594ecda657e7f23175d236f37eb4407d7a9eaa13bdaa910160405180910390a15b50806115b581613e49565b915050611505565b606560006115c9611bae565b6001600160a01b0316815260208101919091526040016000205460ff166116025760405162461bcd60e51b815260040161075d90613c1b565b60005b815181101561077057600082828151811061162257611622613e33565b6020026020010151905060006001600160a01b0316816001600160a01b03161415801561165957506000816001600160a01b03163b115b801561167f57506001600160a01b038116600090815261028e602052604090205460ff16155b156116dd576001600160a01b038116600081815261028e6020908152604091829020805460ff1916600117905590519182527fc8dfb5ab9ab6cf753862beaaf785f23636e0eab79a3542f13d4073588583f73d910160405180910390a15b50806116e881613e49565b915050611605565b6001600160a01b038116600090815261028e602052604081205460ff168061173e57506001600160a01b038084166000908152610103602090815260408083209386168352929052205460ff165b9392505050565b6001600160a01b0383166117a75760405162461bcd60e51b8152602060048201526035602482015260008051602061418d8339815191526044820152741d1c985b9cd9995c951bc81a5cc81a5b9d985b1a59605a1b606482015260840161075d565b60008460200135116118205760405162461bcd60e51b8152602060048201526048602482015260008051602061418d83398151915260448201527f6d696e74446174612e6e66744964206d7573742062652067726561746572207460648201526768616e207a65726f60c01b608482015260a40161075d565b600061182f6040860186613c95565b9050116118925760405162461bcd60e51b815260206004820152603c602482015260008051602061418d83398151915260448201527f6d696e74446174612e746f6b656e55524920697320696e76616c696400000000606482015260840161075d565b60006118dc83838080601f016020809104026020016040519081016040528093929190818152602001838380828437600092019190915250610bac9250610b699150899050611d9e565b9050611900816001600160a01b031660009081526065602052604090205460ff1690565b6119565760405162461bcd60e51b8152602060048201526033602482015260008051602061418d8339815191526044820152723737ba1039b4b3b732b210313c9020b236b4b760691b606482015260840161075d565b6020850180359061196b90610c4990886136ab565b61197c81610c606040890189613c95565b600061198e60808801606089016136ab565b6001600160a01b0316146119c0576119c0816119b06080890160608a016136ab565b610cde60a08a0160808b01613cdb565b6119eb6119d060208801886136ab565b86886020013560405180602001604052806000815250612678565b505050505050565b600054610100900460ff1615808015611a135750600054600160ff909116105b80611a2d5750303b158015611a2d575060005460ff166001145b611a905760405162461bcd60e51b815260206004820152602e60248201527f496e697469616c697a61626c653a20636f6e747261637420697320616c72656160448201526d191e481a5b9a5d1a585b1a5e995960921b606482015260840161075d565b6000805460ff191660011790558015611ab3576000805461ff0019166101001790555b611b0d6040518060400160405280601f81526020017f5342494e4654204e616e616b757361204e4654205570677261646561626c6500815250604051806040016040528060038152602001620312e360ec1b8152506127b4565b611b156127e5565b611b1f848461281f565b611b27612850565b611b2f61287f565b611b3761287f565b611b3f61287f565b611b47612850565b611b4f61287f565b611b58826115bd565b80156114ac576000805461ff0019169055604051600181527f7f26b83ff96e1f2b6a682f133852f6798a09c465da95921460cefb38474024989060200160405180910390a150505050565b6000610712826128a6565b6000611bb86128e6565b905090565b6127106001600160601b0382161115611be85760405162461bcd60e51b815260040161075d90613e62565b6001600160a01b038216611c3e5760405162461bcd60e51b815260206004820152601960248201527f455243323938313a20696e76616c696420726563656976657200000000000000604482015260640161075d565b604080518082019091526001600160a01b039092168083526001600160601b039091166020909201829052600160a01b9091021760cc55565b600081815261010060205260409020546001600160a01b0316610a295760405162461bcd60e51b8152602060048201526018602482015277115490cdcc8c4e881a5b9d985b1a59081d1bdad95b88125160421b604482015260640161075d565b60008181526101026020526040902080546001600160a01b0319166001600160a01b0384169081179091558190611d0d826111e7565b6001600160a01b03167f8c5be1e5ebec7d5bd14f71427d1e84f3dd0314c0f7b2291e5b200ac8c7c3b92560405160405180910390a45050565b6001600160a01b038116600081815260656020908152604091829020805460ff1916905590519182527fa3b62bc36326052d97ea62d63c3d60308ed4c3ea8ac079dd8499f1e9c4f80c0f91015b60405180910390a150565b60007f2515cad45b6abc3af00956979cf9783ae61a06496817054c19d6ec260449e6e2611dce60208401846136ab565b6020840135611de06040860186613c95565b604051611dee929190613eac565b604051908190039020611e0760808701606088016136ab565b611e1760a0880160808901613cdb565b6040805160208101979097526001600160a01b03958616908701526060860193909352608085019190915290911660a08301526001600160601b031660c082015260e001604051602081830303815290604052805190602001209050919050565b6000611bb87f8b73c3c69bb8fe3d512ecc4cf759cc79239f7b179b0ffacaa9a75d522b39400f611ea760665490565b6067546040805160208101859052908101839052606081018290524660808201523060a082015260009060c0016040516020818303038152906040528051906020012090509392505050565b6000806000611f02858561292a565b91509150611f0f8161296c565b509392505050565b610770828260405180602001604052806000815250612b22565b600082815261010060205260409020546001600160a01b0316611fad5760405162461bcd60e51b815260206004820152602e60248201527f45524337323155524953746f726167653a2055524920736574206f66206e6f6e60448201526d32bc34b9ba32b73a103a37b5b2b760911b606482015260840161075d565b6000828152610130602052604090206109508282613f02565b6127106001600160601b0382161115611ff15760405162461bcd60e51b815260040161075d90613e62565b6001600160a01b0382166120475760405162461bcd60e51b815260206004820152601b60248201527f455243323938313a20496e76616c696420706172616d65746572730000000000604482015260640161075d565b6040805180820182526001600160a01b0393841681526001600160601b039283166020808301918252600096875260cd90529190942093519051909116600160a01b029116179055565b60008061209d836111e7565b9050806001600160a01b0316846001600160a01b031614806120c457506120c481856116f0565b806120e85750836001600160a01b03166120dd84610806565b6001600160a01b0316145b949350505050565b826001600160a01b0316612103826111e7565b6001600160a01b0316146121675760405162461bcd60e51b815260206004820152602560248201527f4552433732313a207472616e736665722066726f6d20696e636f72726563742060448201526437bbb732b960d91b606482015260840161075d565b6001600160a01b0382166121c95760405162461bcd60e51b8152602060048201526024808201527f4552433732313a207472616e7366657220746f20746865207a65726f206164646044820152637265737360e01b606482015260840161075d565b6121d4838383612b55565b6121df600082611cd7565b6001600160a01b038316600090815261010160205260408120805460019290612209908490613fc1565b90915550506001600160a01b038216600090815261010160205260408120805460019290612238908490613fd4565b90915550506000818152610100602052604080822080546001600160a01b0319166001600160a01b0386811691821790925591518493918716917fddf252ad1be2c89b69c2b068fc378daa952ba7f163c4a11628f55a4df523b3ef91a4505050565b606560006122a6611bae565b6001600160a01b0316815260208101919091526040016000205460ff16610a295760405162461bcd60e51b815260040161075d90613c1b565b7f4910fdfa16fed3260ed0e7147f7cc6da11a60208b5b9406d12a635614ffd91435460ff16156123125761095083612b60565b826001600160a01b03166352d1902d6040518163ffffffff1660e01b8152600401602060405180830381865afa92505050801561236c575060408051601f3d908101601f1916820190925261236991810190613fe7565b60015b6123cf5760405162461bcd60e51b815260206004820152602e60248201527f45524331393637557067726164653a206e657720696d706c656d656e7461746960448201526d6f6e206973206e6f74205555505360901b606482015260840161075d565b60008051602061416d833981519152811461243e5760405162461bcd60e51b815260206004820152602960248201527f45524331393637557067726164653a20756e737570706f727465642070726f786044820152681a58589b195555525160ba1b606482015260840161075d565b50610950838383612bfc565b6001600160a01b0381166124b45760405162461bcd60e51b815260206004820152602b60248201527f41646d696e3a61646441646d696e206e657741646d696e20697320746865207a60448201526a65726f206164647265737360a81b606482015260840161075d565b6001600160a01b038116600081815260656020908152604091829020805460ff1916600117905590519182527f44d6d25963f097ad14f29f06854a01f575648a1ef82f30e562ccd3889717e3399101611d93565b612510612c21565b610162805460ff191690557f5db9ee0a495bf2e6ff9c91a7834c1ba4fdd244a5e8aa4e537bd38aeae4b073aa612544611bae565b6040516001600160a01b03909116815260200160405180910390a1565b610a2981612c6b565b612572612c74565b610162805460ff191660011790557f62e78cea01bee320cd4e420270b5ea74000d11b0c9f74754ebdbfc544b05a258612544611bae565b816001600160a01b0316836001600160a01b03160361260a5760405162461bcd60e51b815260206004820152601960248201527f4552433732313a20617070726f766520746f2063616c6c657200000000000000604482015260640161075d565b6001600160a01b0383811660008181526101036020908152604080832094871680845294825291829020805460ff191686151590811790915591519182527f17307eab39ab6107e8899845ad3d59bd9653f200f220920489ca2b5937696c31910160405180910390a3505050565b6126838484846120f0565b61268f84848484612cbb565b6114ac5760405162461bcd60e51b815260040161075d90614000565b60606126b682611c77565b60008281526101306020526040812080546126d090613c61565b80601f01602080910402602001604051908101604052809291908181526020018280546126fc90613c61565b80156127495780601f1061271e57610100808354040283529160200191612749565b820191906000526020600020905b81548152906001019060200180831161272c57829003601f168201915b50505050509050600061276760408051602081019091526000815290565b90508051600003612779575092915050565b8151156127ab578082604051602001612793929190614052565b60405160208183030381529060405292505050919050565b6120e884612dc3565b600054610100900460ff166127db5760405162461bcd60e51b815260040161075d90614081565b6107708282612e36565b600054610100900460ff1661280c5760405162461bcd60e51b815260040161075d90614081565b61281461287f565b610f8a610f26611bae565b600054610100900460ff166128465760405162461bcd60e51b815260040161075d90614081565b6107708282612e77565b600054610100900460ff166128775760405162461bcd60e51b815260040161075d90614081565b610f8a612eb7565b600054610100900460ff16610f8a5760405162461bcd60e51b815260040161075d90614081565b60006001600160e01b031982166380ac58cd60e01b14806128d757506001600160e01b03198216635b5e139f60e01b145b80610712575061071282612eeb565b60007f00000000000000000000000000000000000000000000000000000000000000006001600160a01b03163303612925575060131936013560601c90565b503390565b60008082516041036129605760208301516040840151606085015160001a61295487828585612f20565b94509450505050610dc9565b50600090506002610dc9565b6000816004811115612980576129806140cc565b036129885750565b600181600481111561299c5761299c6140cc565b036129e95760405162461bcd60e51b815260206004820152601860248201527f45434453413a20696e76616c6964207369676e61747572650000000000000000604482015260640161075d565b60028160048111156129fd576129fd6140cc565b03612a4a5760405162461bcd60e51b815260206004820152601f60248201527f45434453413a20696e76616c6964207369676e6174757265206c656e67746800604482015260640161075d565b6003816004811115612a5e57612a5e6140cc565b03612ab65760405162461bcd60e51b815260206004820152602260248201527f45434453413a20696e76616c6964207369676e6174757265202773272076616c604482015261756560f01b606482015260840161075d565b6004816004811115612aca57612aca6140cc565b03610a295760405162461bcd60e51b815260206004820152602260248201527f45434453413a20696e76616c6964207369676e6174757265202776272076616c604482015261756560f01b606482015260840161075d565b612b2c838361300d565b612b396000848484612cbb565b6109505760405162461bcd60e51b815260040161075d90614000565b61095083838361315e565b6001600160a01b0381163b612bcd5760405162461bcd60e51b815260206004820152602d60248201527f455243313936373a206e657720696d706c656d656e746174696f6e206973206e60448201526c1bdd08184818dbdb9d1c9858dd609a1b606482015260840161075d565b60008051602061416d83398151915280546001600160a01b0319166001600160a01b0392909216919091179055565b612c05836131c6565b600082511180612c125750805b15610950576114ac8383613206565b6101625460ff16610f8a5760405162461bcd60e51b815260206004820152601460248201527314185d5cd8589b194e881b9bdd081c185d5cd95960621b604482015260640161075d565b6113f2816132fa565b6101625460ff1615610f8a5760405162461bcd60e51b815260206004820152601060248201526f14185d5cd8589b194e881c185d5cd95960821b604482015260640161075d565b60006001600160a01b0384163b15612db857836001600160a01b031663150b7a02612ce4611bae565b8786866040518563ffffffff1660e01b8152600401612d0694939291906140e2565b6020604051808303816000875af1925050508015612d41575060408051601f3d908101601f19168201909252612d3e9181019061411f565b60015b612d9e573d808015612d6f576040519150601f19603f3d011682016040523d82523d6000602084013e612d74565b606091505b508051600003612d965760405162461bcd60e51b815260040161075d90614000565b805181602001fd5b6001600160e01b031916630a85bd0160e11b1490506120e8565b506001949350505050565b6060612dce82611c77565b6000612de560408051602081019091526000815290565b90506000815111612e05576040518060200160405280600081525061173e565b80612e0f8461333c565b604051602001612e20929190614052565b6040516020818303038152906040529392505050565b600054610100900460ff16612e5d5760405162461bcd60e51b815260040161075d90614081565b815160209283012081519190920120606691909155606755565b600054610100900460ff16612e9e5760405162461bcd60e51b815260040161075d90614081565b60fe612eaa8382613f02565b5060ff6109508282613f02565b600054610100900460ff16612ede5760405162461bcd60e51b815260040161075d90614081565b610162805460ff19169055565b60006001600160e01b0319821663152a902d60e11b148061071257506301ffc9a760e01b6001600160e01b0319831614610712565b6000807f7fffffffffffffffffffffffffffffff5d576e7357a4501ddfe92f46681b20a0831115612f575750600090506003613004565b8460ff16601b14158015612f6f57508460ff16601c14155b15612f805750600090506004613004565b6040805160008082526020820180845289905260ff881692820192909252606081018690526080810185905260019060a0016020604051602081039080840390855afa158015612fd4573d6000803e3d6000fd5b5050604051601f1901519150506001600160a01b038116612ffd57600060019250925050613004565b9150600090505b94509492505050565b6001600160a01b0382166130635760405162461bcd60e51b815260206004820181905260248201527f4552433732313a206d696e7420746f20746865207a65726f2061646472657373604482015260640161075d565b600081815261010060205260409020546001600160a01b0316156130c95760405162461bcd60e51b815260206004820152601c60248201527f4552433732313a20746f6b656e20616c7265616479206d696e74656400000000604482015260640161075d565b6130d560008383612b55565b6001600160a01b0382166000908152610101602052604081208054600192906130ff908490613fd4565b90915550506000818152610100602052604080822080546001600160a01b0319166001600160a01b03861690811790915590518392907fddf252ad1be2c89b69c2b068fc378daa952ba7f163c4a11628f55a4df523b3ef908290a45050565b6101625460ff16156109505760405162461bcd60e51b815260206004820152602b60248201527f4552433732315061757361626c653a20746f6b656e207472616e73666572207760448201526a1a1a5b19481c185d5cd95960aa1b606482015260840161075d565b6131cf81612b60565b6040516001600160a01b038216907fbc7cd75a20ee27fd9adebab32041f755214dbc6bffa90cc0225b39da2e5c2d3b90600090a250565b60606001600160a01b0383163b61326e5760405162461bcd60e51b815260206004820152602660248201527f416464726573733a2064656c65676174652063616c6c20746f206e6f6e2d636f6044820152651b9d1c9858dd60d21b606482015260840161075d565b600080846001600160a01b031684604051613289919061413c565b600060405180830381855af49150503d80600081146132c4576040519150601f19603f3d011682016040523d82523d6000602084013e6132c9565b606091505b50915091506132f182826040518060600160405280602781526020016141ad6027913961343c565b95945050505050565b61330381613475565b600081815261013060205260409020805461331d90613c61565b159050610a2957600081815261013060205260408120610a299161351e565b6060816000036133635750506040805180820190915260018152600360fc1b602082015290565b8160005b811561338d578061337781613e49565b91506133869050600a83613d87565b9150613367565b6000816001600160401b038111156133a7576133a7613859565b6040519080825280601f01601f1916602001820160405280156133d1576020820181803683370190505b5090505b84156120e8576133e6600183613fc1565b91506133f3600a86614158565b6133fe906030613fd4565b60f81b81838151811061341357613413613e33565b60200101906001600160f81b031916908160001a905350613435600a86613d87565b94506133d5565b6060831561344b57508161173e565b82511561345b5782518084602001fd5b8160405162461bcd60e51b815260040161075d9190613655565b6000613480826111e7565b905061348e81600084612b55565b613499600083611cd7565b6001600160a01b0381166000908152610101602052604081208054600192906134c3908490613fc1565b90915550506000828152610100602052604080822080546001600160a01b0319169055518391906001600160a01b038416907fddf252ad1be2c89b69c2b068fc378daa952ba7f163c4a11628f55a4df523b3ef908390a45050565b50805461352a90613c61565b6000825580601f1061353a575050565b601f016020900490600052602060002090810190610a2991905b808211156135685760008155600101613554565b5090565b6001600160e01b031981168114610a2957600080fd5b60006020828403121561359457600080fd5b813561173e8161356c565b80356001600160a01b03811681146135b657600080fd5b919050565b80356001600160601b03811681146135b657600080fd5b600080604083850312156135e557600080fd5b6135ee8361359f565b91506135fc602084016135bb565b90509250929050565b60005b83811015613620578181015183820152602001613608565b50506000910152565b60008151808452613641816020860160208601613605565b601f01601f19169290920160200192915050565b60208152600061173e6020830184613629565b60006020828403121561367a57600080fd5b5035919050565b6000806040838503121561369457600080fd5b61369d8361359f565b946020939093013593505050565b6000602082840312156136bd57600080fd5b61173e8261359f565b600060a082840312156136d857600080fd5b50919050565b60008083601f8401126136f057600080fd5b5081356001600160401b0381111561370757600080fd5b602083019150836020828501011115610dc957600080fd5b60008060006040848603121561373457600080fd5b83356001600160401b038082111561374b57600080fd5b613757878388016136c6565b9450602086013591508082111561376d57600080fd5b5061377a868287016136de565b9497909650939450505050565b60008060006060848603121561379c57600080fd5b6137a58461359f565b92506137b36020850161359f565b9150604084013590509250925092565b600080604083850312156137d657600080fd5b50508035926020909101359150565b600080602083850312156137f857600080fd5b82356001600160401b038082111561380f57600080fd5b818501915085601f83011261382357600080fd5b81358181111561383257600080fd5b8660208260051b850101111561384757600080fd5b60209290920196919550909350505050565b634e487b7160e01b600052604160045260246000fd5b604051601f8201601f191681016001600160401b038111828210171561389757613897613859565b604052919050565b600082601f8301126138b057600080fd5b81356001600160401b038111156138c9576138c9613859565b6138dc601f8201601f191660200161386f565b8181528460208386010111156138f157600080fd5b816020850160208301376000918101602001919091529392505050565b6000806040838503121561392157600080fd5b61392a8361359f565b915060208301356001600160401b0381111561394557600080fd5b6139518582860161389f565b9150509250929050565b60008060006060848603121561397057600080fd5b833592506139806020850161359f565b915061398e604085016135bb565b90509250925092565b600080604083850312156139aa57600080fd5b6139b38361359f565b9150602083013580151581146139c857600080fd5b809150509250929050565b600080600080608085870312156139e957600080fd5b6139f28561359f565b9350613a006020860161359f565b92506040850135915060608501356001600160401b03811115613a2257600080fd5b613a2e8782880161389f565b91505092959194509250565b600082601f830112613a4b57600080fd5b813560206001600160401b03821115613a6657613a66613859565b8160051b613a7582820161386f565b9283528481018201928281019087851115613a8f57600080fd5b83870192505b84831015613ab557613aa68361359f565b82529183019190830190613a95565b979650505050505050565b600060208284031215613ad257600080fd5b81356001600160401b03811115613ae857600080fd5b6120e884828501613a3a565b60008060408385031215613b0757600080fd5b613b108361359f565b91506135fc6020840161359f565b60008060008060608587031215613b3457600080fd5b84356001600160401b0380821115613b4b57600080fd5b613b57888389016136c6565b9550613b656020880161359f565b94506040870135915080821115613b7b57600080fd5b50613b88878288016136de565b95989497509550505050565b600080600060608486031215613ba957600080fd5b83356001600160401b0380821115613bc057600080fd5b613bcc8783880161389f565b94506020860135915080821115613be257600080fd5b613bee8783880161389f565b93506040860135915080821115613c0457600080fd5b50613c1186828701613a3a565b9150509250925092565b60208082526026908201527f41646d696e3a6f6e6c7941646d696e2063616c6c6572206973206e6f7420616e6040820152651020b236b4b760d11b606082015260800190565b600181811c90821680613c7557607f821691505b6020821081036136d857634e487b7160e01b600052602260045260246000fd5b6000808335601e19843603018112613cac57600080fd5b8301803591506001600160401b03821115613cc657600080fd5b602001915036819003821315610dc957600080fd5b600060208284031215613ced57600080fd5b61173e826135bb565b6020808252602e908201527f4552433732313a2063616c6c6572206973206e6f7420746f6b656e206f776e6560408201526d1c881b9bdc88185c1c1c9bdd995960921b606082015260800190565b634e487b7160e01b600052601160045260246000fd5b808202811582820484141761071257610712613d44565b634e487b7160e01b600052601260045260246000fd5b600082613d9657613d96613d71565b500490565b6020808252602c908201527f46756e6374696f6e206d7573742062652063616c6c6564207468726f7567682060408201526b19195b1959d85d1958d85b1b60a21b606082015260800190565b6020808252602c908201527f46756e6374696f6e206d7573742062652063616c6c6564207468726f7567682060408201526b6163746976652070726f787960a01b606082015260800190565b634e487b7160e01b600052603260045260246000fd5b600060018201613e5b57613e5b613d44565b5060010190565b6020808252602a908201527f455243323938313a20726f79616c7479206665652077696c6c206578636565646040820152692073616c65507269636560b01b606082015260800190565b8183823760009101908152919050565b601f82111561095057600081815260208120601f850160051c81016020861015613ee35750805b601f850160051c820191505b818110156119eb57828155600101613eef565b81516001600160401b03811115613f1b57613f1b613859565b613f2f81613f298454613c61565b84613ebc565b602080601f831160018114613f645760008415613f4c5750858301515b600019600386901b1c1916600185901b1785556119eb565b600085815260208120601f198616915b82811015613f9357888601518255948401946001909101908401613f74565b5085821015613fb15787850151600019600388901b60f8161c191681555b5050505050600190811b01905550565b8181038181111561071257610712613d44565b8082018082111561071257610712613d44565b600060208284031215613ff957600080fd5b5051919050565b60208082526032908201527f4552433732313a207472616e7366657220746f206e6f6e20455243373231526560408201527131b2b4bb32b91034b6b83632b6b2b73a32b960711b606082015260800190565b60008351614064818460208801613605565b835190830190614078818360208801613605565b01949350505050565b6020808252602b908201527f496e697469616c697a61626c653a20636f6e7472616374206973206e6f74206960408201526a6e697469616c697a696e6760a81b606082015260800190565b634e487b7160e01b600052602160045260246000fd5b6001600160a01b038581168252841660208201526040810183905260806060820181905260009061411590830184613629565b9695505050505050565b60006020828403121561413157600080fd5b815161173e8161356c565b6000825161414e818460208701613605565b9190910192915050565b60008261416757614167613d71565b50069056fe360894a13ba1a3210667c828492db98dca3e2076cc3735a920a3ca505d382bbc4e616e616b7573614e46543a6c617a794d696e74416e645472616e7366657220416464726573733a206c6f772d6c6576656c2064656c65676174652063616c6c206661696c6564a26469706673582212208072242db2350e8fd6e9bc550277264d10dbb2d3c2134177a6a98c1241a0a2cf64736f6c63430008110033",
  "linkReferences": {},
  "deployedLinkReferences": {}
}