{
  "_format": "hh-sol-artifact-1",
  "contractName": "TransferProxy",
  "sourceName": "contracts/sbinft/market/v1/transfer-proxy/TransferProxy.sol",
  "abi": [
    {
      "inputs": [
        {
          "internalType": "address",
          "name": "trustedForwarder",
          "type": "address"
        }
      ],
      "stateMutability": "nonpayable",
      "type": "constructor"
    },
    {
      "anonymous": false,
      "inputs": [
        {
          "indexed": false,
          "internalType": "address",
          "name": "",
          "type": "address"
        }
      ],
      "name": "AdminAdded",
      "type": "event"
    },
    {
      "anonymous": false,
      "inputs": [
        {
          "indexed": false,
          "internalType": "address",
          "name": "previousAdmin",
          "type": "address"
        },
        {
          "indexed": false,
          "internalType": "address",
          "name": "newAdmin",
          "type": "address"
        }
      ],
      "name": "AdminChanged",
      "type": "event"
    },
    {
      "anonymous": false,
      "inputs": [
        {
          "indexed": false,
          "internalType": "address",
          "name": "",
          "type": "address"
        }
      ],
      "name": "AdminRemoved",
      "type": "event"
    },
    {
      "anonymous": false,
      "inputs": [
        {
          "indexed": true,
          "internalType": "address",
          "name": "beacon",
          "type": "address"
        }
      ],
      "name": "BeaconUpgraded",
      "type": "event"
    },
    {
      "anonymous": false,
      "inputs": [
        {
          "indexed": false,
          "internalType": "uint8",
          "name": "version",
          "type": "uint8"
        }
      ],
      "name": "Initialized",
      "type": "event"
    },
    {
      "anonymous": false,
      "inputs": [
        {
          "indexed": true,
          "internalType": "address",
          "name": "implementation",
          "type": "address"
        }
      ],
      "name": "Upgraded",
      "type": "event"
    },
    {
      "inputs": [],
      "name": "__TransferProxy_init",
      "outputs": [],
      "stateMutability": "nonpayable",
      "type": "function"
    },
    {
      "inputs": [
        {
          "internalType": "address[]",
          "name": "newAdmin",
          "type": "address[]"
        }
      ],
      "name": "addAdmin",
      "outputs": [],
      "stateMutability": "nonpayable",
      "type": "function"
    },
    {
      "inputs": [
        {
          "internalType": "address",
          "name": "newAdmin",
          "type": "address"
        }
      ],
      "name": "addAdmin",
      "outputs": [],
      "stateMutability": "nonpayable",
      "type": "function"
    },
    {
      "inputs": [
        {
          "internalType": "contract IERC1155",
          "name": "_token",
          "type": "address"
        },
        {
          "internalType": "address",
          "name": "_from",
          "type": "address"
        },
        {
          "internalType": "address",
          "name": "_to",
          "type": "address"
        },
        {
          "internalType": "uint256",
          "name": "_tokenId",
          "type": "uint256"
        },
        {
          "internalType": "uint256",
          "name": "_value",
          "type": "uint256"
        },
        {
          "internalType": "bytes",
          "name": "_data",
          "type": "bytes"
        }
      ],
      "name": "erc1155safeTransferFrom",
      "outputs": [],
      "stateMutability": "nonpayable",
      "type": "function"
    },
    {
      "inputs": [
        {
          "internalType": "contract IERC20",
          "name": "_token",
          "type": "address"
        },
        {
          "internalType": "address",
          "name": "_from",
          "type": "address"
        },
        {
          "internalType": "address",
          "name": "_to",
          "type": "address"
        },
        {
          "internalType": "uint256",
          "name": "_value",
          "type": "uint256"
        }
      ],
      "name": "erc20safeTransferFrom",
      "outputs": [],
      "stateMutability": "nonpayable",
      "type": "function"
    },
    {
      "inputs": [
        {
          "internalType": "contract IERC721",
          "name": "_token",
          "type": "address"
        },
        {
          "internalType": "address",
          "name": "_from",
          "type": "address"
        },
        {
          "internalType": "address",
          "name": "_to",
          "type": "address"
        },
        {
          "internalType": "uint256",
          "name": "_tokenId",
          "type": "uint256"
        }
      ],
      "name": "erc721safeTransferFrom",
      "outputs": [],
      "stateMutability": "nonpayable",
      "type": "function"
    },
    {
      "inputs": [
        {
          "internalType": "address",
          "name": "checkAdmin",
          "type": "address"
        }
      ],
      "name": "isAdmin",
      "outputs": [
        {
          "internalType": "bool",
          "name": "",
          "type": "bool"
        }
      ],
      "stateMutability": "view",
      "type": "function"
    },
    {
      "inputs": [
        {
          "internalType": "address",
          "name": "forwarder",
          "type": "address"
        }
      ],
      "name": "isTrustedForwarder",
      "outputs": [
        {
          "internalType": "bool",
          "name": "",
          "type": "bool"
        }
      ],
      "stateMutability": "view",
      "type": "function"
    },
    {
      "inputs": [],
      "name": "proxiableUUID",
      "outputs": [
        {
          "internalType": "bytes32",
          "name": "",
          "type": "bytes32"
        }
      ],
      "stateMutability": "view",
      "type": "function"
    },
    {
      "inputs": [
        {
          "internalType": "address",
          "name": "admin",
          "type": "address"
        }
      ],
      "name": "removeAdmin",
      "outputs": [],
      "stateMutability": "nonpayable",
      "type": "function"
    },
    {
      "inputs": [
        {
          "internalType": "bytes4",
          "name": "_interfaceId",
          "type": "bytes4"
        }
      ],
      "name": "supportsInterface",
      "outputs": [
        {
          "internalType": "bool",
          "name": "",
          "type": "bool"
        }
      ],
      "stateMutability": "view",
      "type": "function"
    },
    {
      "inputs": [
        {
          "internalType": "address",
          "name": "newImplementation",
          "type": "address"
        }
      ],
      "name": "upgradeTo",
      "outputs": [],
      "stateMutability": "nonpayable",
      "type": "function"
    },
    {
      "inputs": [
        {
          "internalType": "address",
          "name": "newImplementation",
          "type": "address"
        },
        {
          "internalType": "bytes",
          "name": "data",
          "type": "bytes"
        }
      ],
      "name": "upgradeToAndCall",
      "outputs": [],
      "stateMutability": "payable",
      "type": "function"
    }
  ],
  "bytecode": "0x60c06040523060a05234801561001457600080fd5b506040516117393803806117398339810160408190526100339161010e565b6001600160a01b03811660805261004861004e565b5061013e565b600054610100900460ff16156100ba5760405162461bcd60e51b815260206004820152602760248201527f496e697469616c697a61626c653a20636f6e747261637420697320696e697469604482015266616c697a696e6760c81b606482015260840160405180910390fd5b60005460ff908116101561010c576000805460ff191660ff9081179091556040519081527f7f26b83ff96e1f2b6a682f133852f6798a09c465da95921460cefb38474024989060200160405180910390a15b565b60006020828403121561012057600080fd5b81516001600160a01b038116811461013757600080fd5b9392505050565b60805160a0516115b3610186600039600081816103d00152818161041001528181610663015281816106a301526107360152600081816101ff0152610d9101526115b36000f3fe6080604052600436106100c25760003560e01c80634f1ef2861161007f5780637048027511610059578063704802751461022f578063776062c31461024f5780639c1c2ee91461026f578063f709b9061461028f57600080fd5b80634f1ef286146101ac57806352d1902d146101bf578063572b6c05146101e257600080fd5b806301ffc9a7146100c75780631785f53c146100fc57806324d7806c1461011e5780633659cfe6146101575780633d0950a814610177578063495edf8614610197575b600080fd5b3480156100d357600080fd5b506100e76100e236600461100c565b6102af565b60405190151581526020015b60405180910390f35b34801561010857600080fd5b5061011c61011736600461104b565b6102e6565b005b34801561012a57600080fd5b506100e761013936600461104b565b6001600160a01b031660009081526097602052604090205460ff1690565b34801561016357600080fd5b5061011c61017236600461104b565b6103c6565b34801561018357600080fd5b5061011c610192366004611068565b6104a2565b3480156101a357600080fd5b5061011c610538565b61011c6101ba3660046110f3565b610659565b3480156101cb57600080fd5b506101d4610729565b6040519081526020016100f3565b3480156101ee57600080fd5b506100e76101fd36600461104b565b7f00000000000000000000000000000000000000000000000000000000000000006001600160a01b0390811691161490565b34801561023b57600080fd5b5061011c61024a36600461104b565b6107dc565b34801561025b57600080fd5b5061011c61026a3660046111b7565b61082a565b34801561027b57600080fd5b5061011c61028a366004611208565b6108f1565b34801561029b57600080fd5b5061011c6102aa3660046111b7565b6109a7565b60006001600160e01b0319821663071d7d4b60e21b14806102e057506301ffc9a760e01b6001600160e01b03198316145b92915050565b609760006102f2610a5c565b6001600160a01b0316815260208101919091526040016000205460ff166103345760405162461bcd60e51b815260040161032b906112c6565b60405180910390fd5b6001600160a01b03811660009081526097602052604090205460ff166103ba5760405162461bcd60e51b815260206004820152603560248201527f41646d696e3a72656d6f766541646d696e20747279696e6720746f2072656d6f6044820152743b32903737b71032bc34b9ba34b7339020b236b4b760591b606482015260840161032b565b6103c381610a6b565b50565b6001600160a01b037f000000000000000000000000000000000000000000000000000000000000000016300361040e5760405162461bcd60e51b815260040161032b9061130c565b7f00000000000000000000000000000000000000000000000000000000000000006001600160a01b0316610457600080516020611537833981519152546001600160a01b031690565b6001600160a01b03161461047d5760405162461bcd60e51b815260040161032b90611358565b61048681610abc565b604080516000808252602082019092526103c391839190610b01565b609760006104ae610a5c565b6001600160a01b0316815260208101919091526040016000205460ff166104e75760405162461bcd60e51b815260040161032b906112c6565b60005b8181101561053357610521838383818110610507576105076113a4565b905060200201602081019061051c919061104b565b610c6c565b8061052b816113ba565b9150506104ea565b505050565b600054610100900460ff16158080156105585750600054600160ff909116105b806105725750303b158015610572575060005460ff166001145b6105d55760405162461bcd60e51b815260206004820152602e60248201527f496e697469616c697a61626c653a20636f6e747261637420697320616c72656160448201526d191e481a5b9a5d1a585b1a5e995960921b606482015260840161032b565b6000805460ff1916600117905580156105f8576000805461ff0019166101001790555b610600610d2a565b610608610d53565b610610610d2a565b80156103c3576000805461ff0019169055604051600181527f7f26b83ff96e1f2b6a682f133852f6798a09c465da95921460cefb3847402498906020015b60405180910390a150565b6001600160a01b037f00000000000000000000000000000000000000000000000000000000000000001630036106a15760405162461bcd60e51b815260040161032b9061130c565b7f00000000000000000000000000000000000000000000000000000000000000006001600160a01b03166106ea600080516020611537833981519152546001600160a01b031690565b6001600160a01b0316146107105760405162461bcd60e51b815260040161032b90611358565b61071982610abc565b61072582826001610b01565b5050565b6000306001600160a01b037f000000000000000000000000000000000000000000000000000000000000000016146107c95760405162461bcd60e51b815260206004820152603860248201527f555550535570677261646561626c653a206d757374206e6f742062652063616c60448201527f6c6564207468726f7567682064656c656761746563616c6c0000000000000000606482015260840161032b565b5060008051602061153783398151915290565b609760006107e8610a5c565b6001600160a01b0316815260208101919091526040016000205460ff166108215760405162461bcd60e51b815260040161032b906112c6565b6103c381610c6c565b60976000610836610a5c565b6001600160a01b0316815260208101919091526040016000205460ff1661086f5760405162461bcd60e51b815260040161032b906112c6565b6040516323b872dd60e01b81526001600160a01b0384811660048301528381166024830152604482018390528516906323b872dd906064016020604051808303816000875af11580156108c6573d6000803e3d6000fd5b505050506040513d601f19601f820116820180604052508101906108ea91906113e1565b5050505050565b609760006108fd610a5c565b6001600160a01b0316815260208101919091526040016000205460ff166109365760405162461bcd60e51b815260040161032b906112c6565b604051637921219560e11b81526001600160a01b0388169063f242432a9061096c90899089908990899089908990600401611403565b600060405180830381600087803b15801561098657600080fd5b505af115801561099a573d6000803e3d6000fd5b5050505050505050505050565b609760006109b3610a5c565b6001600160a01b0316815260208101919091526040016000205460ff166109ec5760405162461bcd60e51b815260040161032b906112c6565b604051632142170760e11b81526001600160a01b0384811660048301528381166024830152604482018390528516906342842e0e90606401600060405180830381600087803b158015610a3e57600080fd5b505af1158015610a52573d6000803e3d6000fd5b5050505050505050565b6000610a66610d8d565b905090565b6001600160a01b038116600081815260976020908152604091829020805460ff1916905590519182527fa3b62bc36326052d97ea62d63c3d60308ed4c3ea8ac079dd8499f1e9c4f80c0f910161064e565b60976000610ac8610a5c565b6001600160a01b0316815260208101919091526040016000205460ff166103c35760405162461bcd60e51b815260040161032b906112c6565b7f4910fdfa16fed3260ed0e7147f7cc6da11a60208b5b9406d12a635614ffd91435460ff1615610b345761053383610dd1565b826001600160a01b03166352d1902d6040518163ffffffff1660e01b8152600401602060405180830381865afa925050508015610b8e575060408051601f3d908101601f19168201909252610b8b9181019061145f565b60015b610bf15760405162461bcd60e51b815260206004820152602e60248201527f45524331393637557067726164653a206e657720696d706c656d656e7461746960448201526d6f6e206973206e6f74205555505360901b606482015260840161032b565b6000805160206115378339815191528114610c605760405162461bcd60e51b815260206004820152602960248201527f45524331393637557067726164653a20756e737570706f727465642070726f786044820152681a58589b195555525160ba1b606482015260840161032b565b50610533838383610e6d565b6001600160a01b038116610cd65760405162461bcd60e51b815260206004820152602b60248201527f41646d696e3a61646441646d696e206e657741646d696e20697320746865207a60448201526a65726f206164647265737360a81b606482015260840161032b565b6001600160a01b038116600081815260976020908152604091829020805460ff1916600117905590519182527f44d6d25963f097ad14f29f06854a01f575648a1ef82f30e562ccd3889717e339910161064e565b600054610100900460ff16610d515760405162461bcd60e51b815260040161032b90611478565b565b600054610100900460ff16610d7a5760405162461bcd60e51b815260040161032b90611478565b610d82610d2a565b610d5161051c610a5c565b60007f00000000000000000000000000000000000000000000000000000000000000006001600160a01b03163303610dcc575060131936013560601c90565b503390565b6001600160a01b0381163b610e3e5760405162461bcd60e51b815260206004820152602d60248201527f455243313936373a206e657720696d706c656d656e746174696f6e206973206e60448201526c1bdd08184818dbdb9d1c9858dd609a1b606482015260840161032b565b60008051602061153783398151915280546001600160a01b0319166001600160a01b0392909216919091179055565b610e7683610e98565b600082511180610e835750805b1561053357610e928383610ed8565b50505050565b610ea181610dd1565b6040516001600160a01b038216907fbc7cd75a20ee27fd9adebab32041f755214dbc6bffa90cc0225b39da2e5c2d3b90600090a250565b60606001600160a01b0383163b610f405760405162461bcd60e51b815260206004820152602660248201527f416464726573733a2064656c65676174652063616c6c20746f206e6f6e2d636f6044820152651b9d1c9858dd60d21b606482015260840161032b565b600080846001600160a01b031684604051610f5b91906114e7565b600060405180830381855af49150503d8060008114610f96576040519150601f19603f3d011682016040523d82523d6000602084013e610f9b565b606091505b5091509150610fc3828260405180606001604052806027815260200161155760279139610fcc565b95945050505050565b60608315610fdb575081611005565b825115610feb5782518084602001fd5b8160405162461bcd60e51b815260040161032b9190611503565b9392505050565b60006020828403121561101e57600080fd5b81356001600160e01b03198116811461100557600080fd5b6001600160a01b03811681146103c357600080fd5b60006020828403121561105d57600080fd5b813561100581611036565b6000806020838503121561107b57600080fd5b823567ffffffffffffffff8082111561109357600080fd5b818501915085601f8301126110a757600080fd5b8135818111156110b657600080fd5b8660208260051b85010111156110cb57600080fd5b60209290920196919550909350505050565b634e487b7160e01b600052604160045260246000fd5b6000806040838503121561110657600080fd5b823561111181611036565b9150602083013567ffffffffffffffff8082111561112e57600080fd5b818501915085601f83011261114257600080fd5b813581811115611154576111546110dd565b604051601f8201601f19908116603f0116810190838211818310171561117c5761117c6110dd565b8160405282815288602084870101111561119557600080fd5b8260208601602083013760006020848301015280955050505050509250929050565b600080600080608085870312156111cd57600080fd5b84356111d881611036565b935060208501356111e881611036565b925060408501356111f881611036565b9396929550929360600135925050565b600080600080600080600060c0888a03121561122357600080fd5b873561122e81611036565b9650602088013561123e81611036565b9550604088013561124e81611036565b9450606088013593506080880135925060a088013567ffffffffffffffff8082111561127957600080fd5b818a0191508a601f83011261128d57600080fd5b81358181111561129c57600080fd5b8b60208285010111156112ae57600080fd5b60208301945080935050505092959891949750929550565b60208082526026908201527f41646d696e3a6f6e6c7941646d696e2063616c6c6572206973206e6f7420616e6040820152651020b236b4b760d11b606082015260800190565b6020808252602c908201527f46756e6374696f6e206d7573742062652063616c6c6564207468726f7567682060408201526b19195b1959d85d1958d85b1b60a21b606082015260800190565b6020808252602c908201527f46756e6374696f6e206d7573742062652063616c6c6564207468726f7567682060408201526b6163746976652070726f787960a01b606082015260800190565b634e487b7160e01b600052603260045260246000fd5b6000600182016113da57634e487b7160e01b600052601160045260246000fd5b5060010190565b6000602082840312156113f357600080fd5b8151801515811461100557600080fd5b6001600160a01b03878116825286166020820152604081018590526060810184905260a06080820181905281018290526000828460c0840137600060c0848401015260c0601f19601f8501168301019050979650505050505050565b60006020828403121561147157600080fd5b5051919050565b6020808252602b908201527f496e697469616c697a61626c653a20636f6e7472616374206973206e6f74206960408201526a6e697469616c697a696e6760a81b606082015260800190565b60005b838110156114de5781810151838201526020016114c6565b50506000910152565b600082516114f98184602087016114c3565b9190910192915050565b60208152600082518060208401526115228160408501602087016114c3565b601f01601f1916919091016040019291505056fe360894a13ba1a3210667c828492db98dca3e2076cc3735a920a3ca505d382bbc416464726573733a206c6f772d6c6576656c2064656c65676174652063616c6c206661696c6564a264697066735822122032fc154a73d4519e05aaac60321245d565c10cf54dfbe41d38ea3a3e1a4f8a5964736f6c63430008110033",
  "linkReferences": {},
  "deployedLinkReferences": {}
}