{
  "_format": "hh-sol-artifact-1",
  "contractName": "PlatformRegistry",
  "sourceName": "contracts/sbinft/market/v1/platform/PlatformRegistry.sol",
  "abi": [
    {
      "inputs": [
        {
          "internalType": "address",
          "name": "trustedForwarder",
          "type": "address"
        }
      ],
      "stateMutability": "nonpayable",
      "type": "constructor"
    },
    {
      "anonymous": false,
      "inputs": [
        {
          "indexed": false,
          "internalType": "address",
          "name": "",
          "type": "address"
        }
      ],
      "name": "AdminAdded",
      "type": "event"
    },
    {
      "anonymous": false,
      "inputs": [
        {
          "indexed": false,
          "internalType": "address",
          "name": "previousAdmin",
          "type": "address"
        },
        {
          "indexed": false,
          "internalType": "address",
          "name": "newAdmin",
          "type": "address"
        }
      ],
      "name": "AdminChanged",
      "type": "event"
    },
    {
      "anonymous": false,
      "inputs": [
        {
          "indexed": false,
          "internalType": "address",
          "name": "",
          "type": "address"
        }
      ],
      "name": "AdminRemoved",
      "type": "event"
    },
    {
      "anonymous": false,
      "inputs": [
        {
          "indexed": true,
          "internalType": "address",
          "name": "beacon",
          "type": "address"
        }
      ],
      "name": "BeaconUpgraded",
      "type": "event"
    },
    {
      "anonymous": false,
      "inputs": [
        {
          "indexed": false,
          "internalType": "address",
          "name": "addedToken",
          "type": "address"
        }
      ],
      "name": "ERC20AddedToWhitelist",
      "type": "event"
    },
    {
      "anonymous": false,
      "inputs": [
        {
          "indexed": false,
          "internalType": "address",
          "name": "removedToken",
          "type": "address"
        }
      ],
      "name": "ERC20RemovedFromWhitelist",
      "type": "event"
    },
    {
      "anonymous": false,
      "inputs": [
        {
          "indexed": true,
          "internalType": "address",
          "name": "platformSigner",
          "type": "address"
        },
        {
          "indexed": true,
          "internalType": "address",
          "name": "partnerPf",
          "type": "address"
        }
      ],
      "name": "ExternalPlatformFeeReceiverUpdated",
      "type": "event"
    },
    {
      "anonymous": false,
      "inputs": [
        {
          "indexed": false,
          "internalType": "uint8",
          "name": "version",
          "type": "uint8"
        }
      ],
      "name": "Initialized",
      "type": "event"
    },
    {
      "anonymous": false,
      "inputs": [
        {
          "indexed": true,
          "internalType": "address",
          "name": "collection",
          "type": "address"
        },
        {
          "indexed": true,
          "internalType": "address",
          "name": "partner",
          "type": "address"
        }
      ],
      "name": "PartnerFeeReceiverUpdated",
      "type": "event"
    },
    {
      "anonymous": false,
      "inputs": [
        {
          "indexed": false,
          "internalType": "uint16",
          "name": "pfFeelowerlimit",
          "type": "uint16"
        }
      ],
      "name": "PlatformFeeLowerRateUpdated",
      "type": "event"
    },
    {
      "anonymous": false,
      "inputs": [
        {
          "indexed": true,
          "internalType": "address",
          "name": "_pfFeeReceiver",
          "type": "address"
        }
      ],
      "name": "PlatformFeeReceiverUpdated",
      "type": "event"
    },
    {
      "anonymous": false,
      "inputs": [
        {
          "indexed": false,
          "internalType": "address",
          "name": "addedAddress",
          "type": "address"
        }
      ],
      "name": "PlatformSignerAdded",
      "type": "event"
    },
    {
      "anonymous": false,
      "inputs": [
        {
          "indexed": false,
          "internalType": "address",
          "name": "removedAddress",
          "type": "address"
        }
      ],
      "name": "PlatformSignerRemoved",
      "type": "event"
    },
    {
      "anonymous": false,
      "inputs": [
        {
          "indexed": true,
          "internalType": "address",
          "name": "implementation",
          "type": "address"
        }
      ],
      "name": "Upgraded",
      "type": "event"
    },
    {
      "inputs": [
        {
          "internalType": "address payable",
          "name": "_pfFeeReceiver_",
          "type": "address"
        },
        {
          "internalType": "address[]",
          "name": "_platformSignerList",
          "type": "address[]"
        },
        {
          "internalType": "address[]",
          "name": "_whitelistERC20List",
          "type": "address[]"
        }
      ],
      "name": "__PlatformRegistry_init",
      "outputs": [],
      "stateMutability": "nonpayable",
      "type": "function"
    },
    {
      "inputs": [
        {
          "internalType": "address[]",
          "name": "newAdmin",
          "type": "address[]"
        }
      ],
      "name": "addAdmin",
      "outputs": [],
      "stateMutability": "nonpayable",
      "type": "function"
    },
    {
      "inputs": [
        {
          "internalType": "address",
          "name": "newAdmin",
          "type": "address"
        }
      ],
      "name": "addAdmin",
      "outputs": [],
      "stateMutability": "nonpayable",
      "type": "function"
    },
    {
      "inputs": [
        {
          "internalType": "address[]",
          "name": "_platformSignerList",
          "type": "address[]"
        }
      ],
      "name": "addPlatformSigner",
      "outputs": [],
      "stateMutability": "nonpayable",
      "type": "function"
    },
    {
      "inputs": [
        {
          "internalType": "address[]",
          "name": "_addTokenList",
          "type": "address[]"
        }
      ],
      "name": "addToERC20Whitelist",
      "outputs": [],
      "stateMutability": "nonpayable",
      "type": "function"
    },
    {
      "inputs": [
        {
          "components": [
            {
              "internalType": "uint256",
              "name": "auctionId",
              "type": "uint256"
            },
            {
              "internalType": "bytes4",
              "name": "pfKind",
              "type": "bytes4"
            },
            {
              "internalType": "address payable",
              "name": "creatorAddress",
              "type": "address"
            },
            {
              "components": [
                {
                  "internalType": "bytes4",
                  "name": "originKind",
                  "type": "bytes4"
                },
                {
                  "internalType": "address",
                  "name": "asset",
                  "type": "address"
                },
                {
                  "internalType": "uint256",
                  "name": "assetId",
                  "type": "uint256"
                },
                {
                  "internalType": "uint16",
                  "name": "partnerFeeRate",
                  "type": "uint16"
                },
                {
                  "internalType": "uint8",
                  "name": "isSecondarySale",
                  "type": "uint8"
                }
              ],
              "internalType": "struct AuctionDomain.Asset",
              "name": "asset",
              "type": "tuple"
            },
            {
              "components": [
                {
                  "internalType": "bytes4",
                  "name": "auctionKind",
                  "type": "bytes4"
                },
                {
                  "internalType": "bytes4",
                  "name": "bidMode",
                  "type": "bytes4"
                },
                {
                  "internalType": "address",
                  "name": "paymentToken",
                  "type": "address"
                }
              ],
              "internalType": "struct AuctionDomain.AuctionType",
              "name": "auctionType",
              "type": "tuple"
            },
            {
              "internalType": "uint256",
              "name": "startPrice",
              "type": "uint256"
            },
            {
              "internalType": "uint256",
              "name": "startTime",
              "type": "uint256"
            },
            {
              "internalType": "uint256",
              "name": "endTime",
              "type": "uint256"
            },
            {
              "internalType": "uint16",
              "name": "pfFeeRate",
              "type": "uint16"
            },
            {
              "internalType": "uint16",
              "name": "externalPfFeeRate",
              "type": "uint16"
            },
            {
              "internalType": "address",
              "name": "platformSigner",
              "type": "address"
            }
          ],
          "internalType": "struct AuctionDomain.Auction",
          "name": "_auction",
          "type": "tuple"
        }
      ],
      "name": "checkParametaForAuctionCreate",
      "outputs": [],
      "stateMutability": "nonpayable",
      "type": "function"
    },
    {
      "inputs": [
        {
          "internalType": "address",
          "name": "_token",
          "type": "address"
        }
      ],
      "name": "getExternalPlatformFeeReceiver",
      "outputs": [
        {
          "internalType": "address payable",
          "name": "",
          "type": "address"
        }
      ],
      "stateMutability": "nonpayable",
      "type": "function"
    },
    {
      "inputs": [
        {
          "internalType": "address",
          "name": "_token",
          "type": "address"
        }
      ],
      "name": "getPartnerFeeReceiver",
      "outputs": [
        {
          "internalType": "address payable",
          "name": "",
          "type": "address"
        }
      ],
      "stateMutability": "nonpayable",
      "type": "function"
    },
    {
      "inputs": [],
      "name": "getPlatformFeeRateLowerLimit",
      "outputs": [
        {
          "internalType": "uint16",
          "name": "",
          "type": "uint16"
        }
      ],
      "stateMutability": "nonpayable",
      "type": "function"
    },
    {
      "inputs": [],
      "name": "getPlatformFeeReceiver",
      "outputs": [
        {
          "internalType": "address payable",
          "name": "",
          "type": "address"
        }
      ],
      "stateMutability": "view",
      "type": "function"
    },
    {
      "inputs": [
        {
          "internalType": "address",
          "name": "checkAdmin",
          "type": "address"
        }
      ],
      "name": "isAdmin",
      "outputs": [
        {
          "internalType": "bool",
          "name": "",
          "type": "bool"
        }
      ],
      "stateMutability": "view",
      "type": "function"
    },
    {
      "inputs": [
        {
          "internalType": "address",
          "name": "_collection",
          "type": "address"
        },
        {
          "internalType": "address",
          "name": "_partnerFeeReceiver",
          "type": "address"
        }
      ],
      "name": "isPartnerFeeReceiver",
      "outputs": [
        {
          "internalType": "bool",
          "name": "",
          "type": "bool"
        }
      ],
      "stateMutability": "view",
      "type": "function"
    },
    {
      "inputs": [
        {
          "internalType": "address",
          "name": "_signer",
          "type": "address"
        }
      ],
      "name": "isPlatformSigner",
      "outputs": [
        {
          "internalType": "bool",
          "name": "",
          "type": "bool"
        }
      ],
      "stateMutability": "view",
      "type": "function"
    },
    {
      "inputs": [
        {
          "internalType": "address",
          "name": "forwarder",
          "type": "address"
        }
      ],
      "name": "isTrustedForwarder",
      "outputs": [
        {
          "internalType": "bool",
          "name": "",
          "type": "bool"
        }
      ],
      "stateMutability": "view",
      "type": "function"
    },
    {
      "inputs": [
        {
          "internalType": "address",
          "name": "_token",
          "type": "address"
        }
      ],
      "name": "isWhitelistedERC20",
      "outputs": [
        {
          "internalType": "bool",
          "name": "",
          "type": "bool"
        }
      ],
      "stateMutability": "view",
      "type": "function"
    },
    {
      "inputs": [],
      "name": "proxiableUUID",
      "outputs": [
        {
          "internalType": "bytes32",
          "name": "",
          "type": "bytes32"
        }
      ],
      "stateMutability": "view",
      "type": "function"
    },
    {
      "inputs": [
        {
          "internalType": "address",
          "name": "admin",
          "type": "address"
        }
      ],
      "name": "removeAdmin",
      "outputs": [],
      "stateMutability": "nonpayable",
      "type": "function"
    },
    {
      "inputs": [
        {
          "internalType": "address[]",
          "name": "_removeTokenList",
          "type": "address[]"
        }
      ],
      "name": "removeFromERC20Whitelist",
      "outputs": [],
      "stateMutability": "nonpayable",
      "type": "function"
    },
    {
      "inputs": [
        {
          "internalType": "address[]",
          "name": "_platformSignerList",
          "type": "address[]"
        }
      ],
      "name": "removePlatformSigner",
      "outputs": [],
      "stateMutability": "nonpayable",
      "type": "function"
    },
    {
      "inputs": [
        {
          "internalType": "bytes4",
          "name": "_interfaceId",
          "type": "bytes4"
        }
      ],
      "name": "supportsInterface",
      "outputs": [
        {
          "internalType": "bool",
          "name": "",
          "type": "bool"
        }
      ],
      "stateMutability": "view",
      "type": "function"
    },
    {
      "inputs": [
        {
          "internalType": "address",
          "name": "_externalPlatformToken",
          "type": "address"
        },
        {
          "internalType": "address payable",
          "name": "_partnerPfFeeReceiver",
          "type": "address"
        }
      ],
      "name": "updateExternalPlatformFeeReceiver",
      "outputs": [],
      "stateMutability": "nonpayable",
      "type": "function"
    },
    {
      "inputs": [
        {
          "internalType": "address",
          "name": "_collection",
          "type": "address"
        },
        {
          "internalType": "address payable",
          "name": "_partnerFeeReceiver",
          "type": "address"
        }
      ],
      "name": "updatePartnerFeeReceiver",
      "outputs": [],
      "stateMutability": "nonpayable",
      "type": "function"
    },
    {
      "inputs": [
        {
          "internalType": "uint16",
          "name": "_platformFeeLowerLimit",
          "type": "uint16"
        }
      ],
      "name": "updatePlatformFeeLowerLimit",
      "outputs": [],
      "stateMutability": "nonpayable",
      "type": "function"
    },
    {
      "inputs": [
        {
          "internalType": "address payable",
          "name": "_newPlatformFeeReceiver",
          "type": "address"
        }
      ],
      "name": "updatePlatformFeeReceiver",
      "outputs": [],
      "stateMutability": "nonpayable",
      "type": "function"
    },
    {
      "inputs": [
        {
          "internalType": "address",
          "name": "newImplementation",
          "type": "address"
        }
      ],
      "name": "upgradeTo",
      "outputs": [],
      "stateMutability": "nonpayable",
      "type": "function"
    },
    {
      "inputs": [
        {
          "internalType": "address",
          "name": "newImplementation",
          "type": "address"
        },
        {
          "internalType": "bytes",
          "name": "data",
          "type": "bytes"
        }
      ],
      "name": "upgradeToAndCall",
      "outputs": [],
      "stateMutability": "payable",
      "type": "function"
    }
  ],
  "bytecode": "0x60c06040523060a0523480156200001557600080fd5b506040516200259438038062002594833981016040819052620000389162000118565b6001600160a01b0381166080526200004f62000056565b506200014a565b600054610100900460ff1615620000c35760405162461bcd60e51b815260206004820152602760248201527f496e697469616c697a61626c653a20636f6e747261637420697320696e697469604482015266616c697a696e6760c81b606482015260840160405180910390fd5b60005460ff908116101562000116576000805460ff191660ff9081179091556040519081527f7f26b83ff96e1f2b6a682f133852f6798a09c465da95921460cefb38474024989060200160405180910390a15b565b6000602082840312156200012b57600080fd5b81516001600160a01b03811681146200014357600080fd5b9392505050565b60805160a05161240162000193600039600081816106ba015281816106fa015281816109210152818161096101526109f40152600081816103ae0152611c5a01526124016000f3fe6080604052600436106101815760003560e01c80636859c996116100d157806392b1ea521161008a578063a5366ecb11610064578063a5366ecb14610515578063cd4a0f3414610535578063da5f2d9214610555578063f815d6cf1461057557600080fd5b806392b1ea52146104b55780639df09564146104d55780639fac71ad146104f557600080fd5b80636859c996146103de5780637048027514610417578063707d1848146104375780637d4bc8b71461045557806388cd8a6b146104755780638ef59b7c1461049557600080fd5b806344057f631161013e5780635247385c116101185780635247385c1461031557806352d1902d1461034e578063552f41e014610371578063572b6c051461039157600080fd5b806344057f63146102a85780634d4ed32c146102c85780634f1ef2861461030257600080fd5b806301ffc9a7146101865780631785f53c146101bb57806324d7806c146101dd5780632888241b146102165780633659cfe6146102685780633d0950a814610288575b600080fd5b34801561019257600080fd5b506101a66101a1366004611ed5565b610599565b60405190151581526020015b60405180910390f35b3480156101c757600080fd5b506101db6101d6366004611f14565b6105d0565b005b3480156101e957600080fd5b506101a66101f8366004611f14565b6001600160a01b031660009081526065602052604090205460ff1690565b34801561022257600080fd5b50610250610231366004611f14565b6001600160a01b03908116600090815261010160205260409020541690565b6040516001600160a01b0390911681526020016101b2565b34801561027457600080fd5b506101db610283366004611f14565b6106b0565b34801561029457600080fd5b506101db6102a3366004611f7d565b61078c565b3480156102b457600080fd5b506101db6102c3366004611f7d565b610822565b3480156102d457600080fd5b506101a66102e3366004611f14565b6001600160a01b0316600090815260ff60208190526040909120541690565b6101db610310366004611fd5565b610917565b34801561032157600080fd5b506101a6610330366004611f14565b6001600160a01b0316600090815260fe602052604090205460ff1690565b34801561035a57600080fd5b506103636109e7565b6040519081526020016101b2565b34801561037d57600080fd5b506101db61038c366004611f14565b610a9a565b34801561039d57600080fd5b506101a66103ac366004611f14565b7f00000000000000000000000000000000000000000000000000000000000000006001600160a01b0390811691161490565b3480156103ea57600080fd5b506102506103f9366004611f14565b6001600160a01b03908116600090815260fd60205260409020541690565b34801561042357600080fd5b506101db610432366004611f14565b610b6c565b34801561044357600080fd5b5060fc546001600160a01b0316610250565b34801561046157600080fd5b506101db610470366004611f7d565b610bba565b34801561048157600080fd5b506101db610490366004612099565b610cc6565b3480156104a157600080fd5b506101db6104b03660046120d2565b610deb565b3480156104c157600080fd5b506101db6104d03660046120f6565b610e7c565b3480156104e157600080fd5b506101db6104f036600461210f565b61131e565b34801561050157600080fd5b506101a6610510366004612099565b611461565b34801561052157600080fd5b506101db610530366004611f7d565b61150e565b34801561054157600080fd5b506101db610550366004611f7d565b611600565b34801561056157600080fd5b506101db610570366004612099565b6116f2565b34801561058157600080fd5b506101005460405161ffff90911681526020016101b2565b60006001600160e01b031982166302d7f8cb60e01b14806105ca57506301ffc9a760e01b6001600160e01b03198316145b92915050565b606560006105dc611817565b6001600160a01b0316815260208101919091526040016000205460ff1661061e5760405162461bcd60e51b815260040161061590612192565b60405180910390fd5b6001600160a01b03811660009081526065602052604090205460ff166106a45760405162461bcd60e51b815260206004820152603560248201527f41646d696e3a72656d6f766541646d696e20747279696e6720746f2072656d6f6044820152743b32903737b71032bc34b9ba34b7339020b236b4b760591b6064820152608401610615565b6106ad81611826565b50565b6001600160a01b037f00000000000000000000000000000000000000000000000000000000000000001630036106f85760405162461bcd60e51b8152600401610615906121d8565b7f00000000000000000000000000000000000000000000000000000000000000006001600160a01b0316610741600080516020612385833981519152546001600160a01b031690565b6001600160a01b0316146107675760405162461bcd60e51b815260040161061590612224565b61077081611877565b604080516000808252602082019092526106ad918391906118bc565b60656000610798611817565b6001600160a01b0316815260208101919091526040016000205460ff166107d15760405162461bcd60e51b815260040161061590612192565b60005b8181101561081d5761080b8383838181106107f1576107f1612270565b90506020020160208101906108069190611f14565b611a27565b8061081581612286565b9150506107d4565b505050565b6065600061082e611817565b6001600160a01b0316815260208101919091526040016000205460ff166108675760405162461bcd60e51b815260040161061590612192565b60005b8181101561081d57600083838381811061088657610886612270565b905060200201602081019061089b9190611f14565b90506001600160a01b03811615610904576001600160a01b038116600081815260ff6020908152604091829020805460ff1916600117905590519182527f64493f6b58fecf0b5963bd190327c4b5551e5774b83eb602f868be392da8a782910160405180910390a15b508061090f81612286565b91505061086a565b6001600160a01b037f000000000000000000000000000000000000000000000000000000000000000016300361095f5760405162461bcd60e51b8152600401610615906121d8565b7f00000000000000000000000000000000000000000000000000000000000000006001600160a01b03166109a8600080516020612385833981519152546001600160a01b031690565b6001600160a01b0316146109ce5760405162461bcd60e51b815260040161061590612224565b6109d782611877565b6109e3828260016118bc565b5050565b6000306001600160a01b037f00000000000000000000000000000000000000000000000000000000000000001614610a875760405162461bcd60e51b815260206004820152603860248201527f555550535570677261646561626c653a206d757374206e6f742062652063616c60448201527f6c6564207468726f7567682064656c656761746563616c6c00000000000000006064820152608401610615565b5060008051602061238583398151915290565b60656000610aa6611817565b6001600160a01b0316815260208101919091526040016000205460ff16610adf5760405162461bcd60e51b815260040161061590612192565b6001600160a01b038116610b225760405162461bcd60e51b815260206004820152600a602482015269453a555046523a505a4160b01b6044820152606401610615565b60fc80546001600160a01b0319166001600160a01b0383169081179091556040517f5424f6f81faafe9238c4d58ac76299338deab37460d10288e02776c68c8d5b6390600090a250565b60656000610b78611817565b6001600160a01b0316815260208101919091526040016000205460ff16610bb15760405162461bcd60e51b815260040161061590612192565b6106ad81611a27565b60656000610bc6611817565b6001600160a01b0316815260208101919091526040016000205460ff16610bff5760405162461bcd60e51b815260040161061590612192565b60005b8181101561081d576000838383818110610c1e57610c1e612270565b9050602002016020810190610c339190611f14565b90506001600160a01b03811615801590610c5657506001600160a01b0381163b15155b15610cb3576001600160a01b038116600081815260fe6020908152604091829020805460ff1916600117905590519182527f45f42530e679dbd12f34bd60947483f7fc4d07a0cb66ededb2261c4206d4563a910160405180910390a15b5080610cbe81612286565b915050610c02565b60656000610cd2611817565b6001600160a01b0316815260208101919091526040016000205460ff16610d0b5760405162461bcd60e51b815260040161061590612192565b6001600160a01b0382163b610d505760405162461bcd60e51b815260206004820152600b60248201526a453a555046523a5043434160a81b6044820152606401610615565b6001600160a01b038116610d945760405162461bcd60e51b815260206004820152600b60248201526a453a555046523a4e505a4160a81b6044820152606401610615565b6001600160a01b03828116600081815260fd602052604080822080546001600160a01b0319169486169485179055517f589ee4ae06bae381d455f1c3ce0c6724aee594ddbcab920f9a5a504de9943d989190a35050565b60656000610df7611817565b6001600160a01b0316815260208101919091526040016000205460ff16610e305760405162461bcd60e51b815260040161061590612192565b610100805461ffff191661ffff83169081179091556040519081527f9b5540d1b8eea14606b74b2167809eda8828fb3cb906886fa9b42f34d78f43db906020015b60405180910390a150565b610e94610e8f6040830160208401611ed5565b611ae5565b610ecf5760405162461bcd60e51b815260206004820152600c60248201526b413a43504641433a4149504b60a01b6044820152606401610615565b6000610ee16060830160408401611f14565b6001600160a01b031603610f265760405162461bcd60e51b815260206004820152600c60248201526b413a43504641433a4149434160a01b6044820152606401610615565b610f3e610f396080830160608401611ed5565b611b1b565b610f795760405162461bcd60e51b815260206004820152600c60248201526b413a43504641433a5341494f60a01b6044820152606401610615565b610f9b610f8c60a0830160808401611f14565b6001600160a01b03163b151590565b610fd75760405162461bcd60e51b815260206004820152600d60248201526c413a43504641433a534149414160981b6044820152606401610615565b60a081013560000361101b5760405162461bcd60e51b815260206004820152600d60248201526c413a43504641433a534149414960981b6044820152606401610615565b61103561103061014083016101208401611ed5565b611b51565b6110715760405162461bcd60e51b815260206004820152600d60248201526c413a43504641433a425449424d60981b6044820152606401610615565b61108b61108661012083016101008401611ed5565b611bbd565b6110c85760405162461bcd60e51b815260206004820152600e60248201526d413a43504641433a42544942454d60901b6044820152606401610615565b60006110dc61016083016101408401611f14565b6001600160a01b031614806111015750611101610f8c61016083016101408401611f14565b61113d5760405162461bcd60e51b815260206004820152600d60248201526c413a43504641433a425449544160981b6044820152606401610615565b428161018001351161117f5760405162461bcd60e51b815260206004820152600b60248201526a413a43504641433a53544960a81b6044820152606401610615565b806101800135816101a00135116111ca5760405162461bcd60e51b815260206004820152600f60248201526e104e90d4119050ce915512509514d5608a1b6044820152606401610615565b6101005461ffff166111e46101e083016101c084016120d2565b61ffff1610156112275760405162461bcd60e51b815260206004820152600e60248201526d104e90d4119050ce90541193151360921b6044820152606401610615565b6101005461ffff1661124161020083016101e084016120d2565b61ffff16101580611265575061125f61020082016101e083016120d2565b61ffff16155b6112a25760405162461bcd60e51b815260206004820152600e60248201526d209d21a82320a19d20a4a828232960911b6044820152606401610615565b60006112b661022083016102008401611f14565b6001600160a01b0316141580156112dd57506112dd6102e361022083016102008401611f14565b6106ad5760405162461bcd60e51b8152602060048201526012602482015271413a43504641433a414950537c50534e504160701b6044820152606401610615565b600054610100900460ff161580801561133e5750600054600160ff909116105b806113585750303b158015611358575060005460ff166001145b6113bb5760405162461bcd60e51b815260206004820152602e60248201527f496e697469616c697a61626c653a20636f6e747261637420697320616c72656160448201526d191e481a5b9a5d1a585b1a5e995960921b6064820152608401610615565b6000805460ff1916600117905580156113de576000805461ff0019166101001790555b6113e6611bf3565b6113ee611c1c565b6113f6611bf3565b6113ff86610a9a565b6114098585610822565b6114138383610bba565b8015611459576000805461ff0019169055604051600181527f7f26b83ff96e1f2b6a682f133852f6798a09c465da95921460cefb38474024989060200160405180910390a15b505050505050565b60006001600160a01b0383166114a75760405162461bcd60e51b815260206004820152600b60248201526a453a495046523a434e5a4160a81b6044820152606401610615565b6001600160a01b0382166114eb5760405162461bcd60e51b815260206004820152600b60248201526a453a495046523a504e5a4160a81b6044820152606401610615565b506001600160a01b03918216600090815260fd6020526040902054821691161490565b6065600061151a611817565b6001600160a01b0316815260208101919091526040016000205460ff166115535760405162461bcd60e51b815260040161061590612192565b60005b8181101561081d57600083838381811061157257611572612270565b90506020020160208101906115879190611f14565b90506001600160a01b038116156115ed576001600160a01b038116600081815260fe6020908152604091829020805460ff1916905590519182527f72a26be94b6f8ff29d401781a1851d009dae9befe1bfe300fabf2e03146ea763910160405180910390a15b50806115f881612286565b915050611556565b6065600061160c611817565b6001600160a01b0316815260208101919091526040016000205460ff166116455760405162461bcd60e51b815260040161061590612192565b60005b8181101561081d57600083838381811061166457611664612270565b90506020020160208101906116799190611f14565b90506001600160a01b038116156116df576001600160a01b038116600081815260ff6020908152604091829020805460ff1916905590519182527f81bf64040664fa99957e018a931d568ee336fb32f976e4c36b27b331906e5167910160405180910390a15b50806116ea81612286565b915050611648565b606560006116fe611817565b6001600160a01b0316815260208101919091526040016000205460ff166117375760405162461bcd60e51b815260040161061590612192565b6001600160a01b03821661177b5760405162461bcd60e51b815260206004820152600b60248201526a413a555046523a4e505a4160a81b6044820152606401610615565b6001600160a01b0381166117bf5760405162461bcd60e51b815260206004820152600b60248201526a413a555046523a4e505a4160a81b6044820152606401610615565b6001600160a01b038281166000818152610101602052604080822080546001600160a01b0319169486169485179055517ffae5b4c04d3cf2324d5fb190022c792c8c5577d9e743cb88a04bca4aaca08a219190a35050565b6000611821611c56565b905090565b6001600160a01b038116600081815260656020908152604091829020805460ff1916905590519182527fa3b62bc36326052d97ea62d63c3d60308ed4c3ea8ac079dd8499f1e9c4f80c0f9101610e71565b60656000611883611817565b6001600160a01b0316815260208101919091526040016000205460ff166106ad5760405162461bcd60e51b815260040161061590612192565b7f4910fdfa16fed3260ed0e7147f7cc6da11a60208b5b9406d12a635614ffd91435460ff16156118ef5761081d83611c9a565b826001600160a01b03166352d1902d6040518163ffffffff1660e01b8152600401602060405180830381865afa925050508015611949575060408051601f3d908101601f19168201909252611946918101906122ad565b60015b6119ac5760405162461bcd60e51b815260206004820152602e60248201527f45524331393637557067726164653a206e657720696d706c656d656e7461746960448201526d6f6e206973206e6f74205555505360901b6064820152608401610615565b6000805160206123858339815191528114611a1b5760405162461bcd60e51b815260206004820152602960248201527f45524331393637557067726164653a20756e737570706f727465642070726f786044820152681a58589b195555525160ba1b6064820152608401610615565b5061081d838383611d36565b6001600160a01b038116611a915760405162461bcd60e51b815260206004820152602b60248201527f41646d696e3a61646441646d696e206e657741646d696e20697320746865207a60448201526a65726f206164647265737360a81b6064820152608401610615565b6001600160a01b038116600081815260656020908152604091829020805460ff1916600117905590519182527f44d6d25963f097ad14f29f06854a01f575648a1ef82f30e562ccd3889717e3399101610e71565b60006001600160e01b03198216636026fea760e11b14806105ca57506001600160e01b03198216630f5b45a760e41b1492915050565b60006001600160e01b03198216639e80de3760e01b14806105ca57506001600160e01b0319821663163b6d3b60e21b1492915050565b60006001600160e01b0319821663fdae1ba760e01b1480611b8257506001600160e01b031982166322ba176160e21b145b80611b9d57506001600160e01b03198216633ecaa07960e21b145b806105ca57506001600160e01b0319821663d5a81f1960e01b1492915050565b60006001600160e01b031982166322ebf8cd60e21b14806105ca57506001600160e01b031982166351e7b92b60e01b1492915050565b600054610100900460ff16611c1a5760405162461bcd60e51b8152600401610615906122c6565b565b600054610100900460ff16611c435760405162461bcd60e51b8152600401610615906122c6565b611c4b611bf3565b611c1a610806611817565b60007f00000000000000000000000000000000000000000000000000000000000000006001600160a01b03163303611c95575060131936013560601c90565b503390565b6001600160a01b0381163b611d075760405162461bcd60e51b815260206004820152602d60248201527f455243313936373a206e657720696d706c656d656e746174696f6e206973206e60448201526c1bdd08184818dbdb9d1c9858dd609a1b6064820152608401610615565b60008051602061238583398151915280546001600160a01b0319166001600160a01b0392909216919091179055565b611d3f83611d61565b600082511180611d4c5750805b1561081d57611d5b8383611da1565b50505050565b611d6a81611c9a565b6040516001600160a01b038216907fbc7cd75a20ee27fd9adebab32041f755214dbc6bffa90cc0225b39da2e5c2d3b90600090a250565b60606001600160a01b0383163b611e095760405162461bcd60e51b815260206004820152602660248201527f416464726573733a2064656c65676174652063616c6c20746f206e6f6e2d636f6044820152651b9d1c9858dd60d21b6064820152608401610615565b600080846001600160a01b031684604051611e249190612335565b600060405180830381855af49150503d8060008114611e5f576040519150601f19603f3d011682016040523d82523d6000602084013e611e64565b606091505b5091509150611e8c82826040518060600160405280602781526020016123a560279139611e95565b95945050505050565b60608315611ea4575081611ece565b825115611eb45782518084602001fd5b8160405162461bcd60e51b81526004016106159190612351565b9392505050565b600060208284031215611ee757600080fd5b81356001600160e01b031981168114611ece57600080fd5b6001600160a01b03811681146106ad57600080fd5b600060208284031215611f2657600080fd5b8135611ece81611eff565b60008083601f840112611f4357600080fd5b50813567ffffffffffffffff811115611f5b57600080fd5b6020830191508360208260051b8501011115611f7657600080fd5b9250929050565b60008060208385031215611f9057600080fd5b823567ffffffffffffffff811115611fa757600080fd5b611fb385828601611f31565b90969095509350505050565b634e487b7160e01b600052604160045260246000fd5b60008060408385031215611fe857600080fd5b8235611ff381611eff565b9150602083013567ffffffffffffffff8082111561201057600080fd5b818501915085601f83011261202457600080fd5b81358181111561203657612036611fbf565b604051601f8201601f19908116603f0116810190838211818310171561205e5761205e611fbf565b8160405282815288602084870101111561207757600080fd5b8260208601602083013760006020848301015280955050505050509250929050565b600080604083850312156120ac57600080fd5b82356120b781611eff565b915060208301356120c781611eff565b809150509250929050565b6000602082840312156120e457600080fd5b813561ffff81168114611ece57600080fd5b6000610220828403121561210957600080fd5b50919050565b60008060008060006060868803121561212757600080fd5b853561213281611eff565b9450602086013567ffffffffffffffff8082111561214f57600080fd5b61215b89838a01611f31565b9096509450604088013591508082111561217457600080fd5b5061218188828901611f31565b969995985093965092949392505050565b60208082526026908201527f41646d696e3a6f6e6c7941646d696e2063616c6c6572206973206e6f7420616e6040820152651020b236b4b760d11b606082015260800190565b6020808252602c908201527f46756e6374696f6e206d7573742062652063616c6c6564207468726f7567682060408201526b19195b1959d85d1958d85b1b60a21b606082015260800190565b6020808252602c908201527f46756e6374696f6e206d7573742062652063616c6c6564207468726f7567682060408201526b6163746976652070726f787960a01b606082015260800190565b634e487b7160e01b600052603260045260246000fd5b6000600182016122a657634e487b7160e01b600052601160045260246000fd5b5060010190565b6000602082840312156122bf57600080fd5b5051919050565b6020808252602b908201527f496e697469616c697a61626c653a20636f6e7472616374206973206e6f74206960408201526a6e697469616c697a696e6760a81b606082015260800190565b60005b8381101561232c578181015183820152602001612314565b50506000910152565b60008251612347818460208701612311565b9190910192915050565b6020815260008251806020840152612370816040850160208701612311565b601f01601f1916919091016040019291505056fe360894a13ba1a3210667c828492db98dca3e2076cc3735a920a3ca505d382bbc416464726573733a206c6f772d6c6576656c2064656c65676174652063616c6c206661696c6564a2646970667358221220e9d4d43dc554d1b3230d9e7afeba81bcf47b9884190189bde8f9c3897e4a341164736f6c63430008110033",
  "linkReferences": {},
  "deployedLinkReferences": {}
}