{
  "_format": "hh-sol-artifact-1",
  "contractName": "SBINFTMultiCall",
  "sourceName": "contracts/sbinft/utils/multi-call/v1/SBINFTMultiCall.sol",
  "abi": [
    {
      "inputs": [
        {
          "internalType": "address",
          "name": "trustedForwarder",
          "type": "address"
        }
      ],
      "stateMutability": "nonpayable",
      "type": "constructor"
    },
    {
      "anonymous": false,
      "inputs": [
        {
          "indexed": false,
          "internalType": "address",
          "name": "",
          "type": "address"
        }
      ],
      "name": "AdminAdded",
      "type": "event"
    },
    {
      "anonymous": false,
      "inputs": [
        {
          "indexed": false,
          "internalType": "address",
          "name": "previousAdmin",
          "type": "address"
        },
        {
          "indexed": false,
          "internalType": "address",
          "name": "newAdmin",
          "type": "address"
        }
      ],
      "name": "AdminChanged",
      "type": "event"
    },
    {
      "anonymous": false,
      "inputs": [
        {
          "indexed": false,
          "internalType": "address",
          "name": "",
          "type": "address"
        }
      ],
      "name": "AdminRemoved",
      "type": "event"
    },
    {
      "anonymous": false,
      "inputs": [
        {
          "indexed": true,
          "internalType": "address",
          "name": "beacon",
          "type": "address"
        }
      ],
      "name": "BeaconUpgraded",
      "type": "event"
    },
    {
      "anonymous": false,
      "inputs": [
        {
          "indexed": false,
          "internalType": "uint8",
          "name": "version",
          "type": "uint8"
        }
      ],
      "name": "Initialized",
      "type": "event"
    },
    {
      "anonymous": false,
      "inputs": [
        {
          "indexed": true,
          "internalType": "address",
          "name": "implementation",
          "type": "address"
        }
      ],
      "name": "Upgraded",
      "type": "event"
    },
    {
      "inputs": [],
      "name": "__SBINFTMultiCall_init",
      "outputs": [],
      "stateMutability": "nonpayable",
      "type": "function"
    },
    {
      "inputs": [
        {
          "internalType": "address[]",
          "name": "newAdmin",
          "type": "address[]"
        }
      ],
      "name": "addAdmin",
      "outputs": [],
      "stateMutability": "nonpayable",
      "type": "function"
    },
    {
      "inputs": [
        {
          "internalType": "address",
          "name": "newAdmin",
          "type": "address"
        }
      ],
      "name": "addAdmin",
      "outputs": [],
      "stateMutability": "nonpayable",
      "type": "function"
    },
    {
      "inputs": [
        {
          "internalType": "address",
          "name": "checkAdmin",
          "type": "address"
        }
      ],
      "name": "isAdmin",
      "outputs": [
        {
          "internalType": "bool",
          "name": "",
          "type": "bool"
        }
      ],
      "stateMutability": "view",
      "type": "function"
    },
    {
      "inputs": [
        {
          "internalType": "address",
          "name": "forwarder",
          "type": "address"
        }
      ],
      "name": "isTrustedForwarder",
      "outputs": [
        {
          "internalType": "bool",
          "name": "",
          "type": "bool"
        }
      ],
      "stateMutability": "view",
      "type": "function"
    },
    {
      "inputs": [
        {
          "components": [
            {
              "components": [
                {
                  "internalType": "address",
                  "name": "target",
                  "type": "address"
                },
                {
                  "internalType": "bytes",
                  "name": "callData",
                  "type": "bytes"
                },
                {
                  "internalType": "uint256",
                  "name": "value",
                  "type": "uint256"
                }
              ],
              "internalType": "struct SBINFTMultiCall.Call[]",
              "name": "callList",
              "type": "tuple[]"
            }
          ],
          "internalType": "struct SBINFTMultiCall.CallInfo",
          "name": "callInfo",
          "type": "tuple"
        },
        {
          "internalType": "bytes",
          "name": "sign",
          "type": "bytes"
        }
      ],
      "name": "multiCall",
      "outputs": [
        {
          "internalType": "uint256",
          "name": "blockNumber",
          "type": "uint256"
        },
        {
          "internalType": "bytes[]",
          "name": "returnData",
          "type": "bytes[]"
        }
      ],
      "stateMutability": "payable",
      "type": "function"
    },
    {
      "inputs": [],
      "name": "proxiableUUID",
      "outputs": [
        {
          "internalType": "bytes32",
          "name": "",
          "type": "bytes32"
        }
      ],
      "stateMutability": "view",
      "type": "function"
    },
    {
      "inputs": [
        {
          "internalType": "address",
          "name": "admin",
          "type": "address"
        }
      ],
      "name": "removeAdmin",
      "outputs": [],
      "stateMutability": "nonpayable",
      "type": "function"
    },
    {
      "inputs": [
        {
          "internalType": "address",
          "name": "newImplementation",
          "type": "address"
        }
      ],
      "name": "upgradeTo",
      "outputs": [],
      "stateMutability": "nonpayable",
      "type": "function"
    },
    {
      "inputs": [
        {
          "internalType": "address",
          "name": "newImplementation",
          "type": "address"
        },
        {
          "internalType": "bytes",
          "name": "data",
          "type": "bytes"
        }
      ],
      "name": "upgradeToAndCall",
      "outputs": [],
      "stateMutability": "payable",
      "type": "function"
    }
  ],
  "bytecode": "0x60c0604052306080523480156200001557600080fd5b5060405162001f3f38038062001f3f833981016040819052620000389162000118565b6001600160a01b03811660a0526200004f62000056565b506200014a565b600054610100900460ff1615620000c35760405162461bcd60e51b815260206004820152602760248201527f496e697469616c697a61626c653a20636f6e747261637420697320696e697469604482015266616c697a696e6760c81b606482015260840160405180910390fd5b60005460ff908116101562000116576000805460ff191660ff9081179091556040519081527f7f26b83ff96e1f2b6a682f133852f6798a09c465da95921460cefb38474024989060200160405180910390a15b565b6000602082840312156200012b57600080fd5b81516001600160a01b03811681146200014357600080fd5b9392505050565b60805160a051611dac62000193600039600081816101990152610eb1015260008181610309015281816103490152818161047b015281816104bb015261054e0152611dac6000f3fe6080604052600436106100915760003560e01c806352d1902d1161005957806352d1902d14610159578063572b6c051461017c57806370480275146101c9578063c9125032146101e9578063cd2bf845146101fe57600080fd5b80631785f53c1461009657806324d7806c146100b85780633659cfe6146101065780633d0950a8146101265780634f1ef28614610146575b600080fd5b3480156100a257600080fd5b506100b66100b13660046116fe565b61021f565b005b3480156100c457600080fd5b506100f16100d33660046116fe565b6001600160a01b031660009081526097602052604090205460ff1690565b60405190151581526020015b60405180910390f35b34801561011257600080fd5b506100b66101213660046116fe565b6102ff565b34801561013257600080fd5b506100b6610141366004611719565b6103db565b6100b6610154366004611831565b610471565b34801561016557600080fd5b5061016e610541565b6040519081526020016100fd565b34801561018857600080fd5b506100f16101973660046116fe565b7f00000000000000000000000000000000000000000000000000000000000000006001600160a01b0390811691161490565b3480156101d557600080fd5b506100b66101e43660046116fe565b6105f4565b3480156101f557600080fd5b506100b6610642565b61021161020c36600461187f565b6107a8565b6040516100fd92919061196e565b6097600061022b610a17565b6001600160a01b0316815260208101919091526040016000205460ff1661026d5760405162461bcd60e51b8152600401610264906119d8565b60405180910390fd5b6001600160a01b03811660009081526097602052604090205460ff166102f35760405162461bcd60e51b815260206004820152603560248201527f41646d696e3a72656d6f766541646d696e20747279696e6720746f2072656d6f6044820152743b32903737b71032bc34b9ba34b7339020b236b4b760591b6064820152608401610264565b6102fc81610a26565b50565b6001600160a01b037f00000000000000000000000000000000000000000000000000000000000000001630036103475760405162461bcd60e51b815260040161026490611a1e565b7f00000000000000000000000000000000000000000000000000000000000000006001600160a01b0316610390600080516020611d07833981519152546001600160a01b031690565b6001600160a01b0316146103b65760405162461bcd60e51b815260040161026490611a6a565b6103bf81610a77565b604080516000808252602082019092526102fc91839190610abc565b609760006103e7610a17565b6001600160a01b0316815260208101919091526040016000205460ff166104205760405162461bcd60e51b8152600401610264906119d8565b60005b8181101561046c5761045a83838381811061044057610440611ab6565b905060200201602081019061045591906116fe565b610c27565b8061046481611acc565b915050610423565b505050565b6001600160a01b037f00000000000000000000000000000000000000000000000000000000000000001630036104b95760405162461bcd60e51b815260040161026490611a1e565b7f00000000000000000000000000000000000000000000000000000000000000006001600160a01b0316610502600080516020611d07833981519152546001600160a01b031690565b6001600160a01b0316146105285760405162461bcd60e51b815260040161026490611a6a565b61053182610a77565b61053d82826001610abc565b5050565b6000306001600160a01b037f000000000000000000000000000000000000000000000000000000000000000016146105e15760405162461bcd60e51b815260206004820152603860248201527f555550535570677261646561626c653a206d757374206e6f742062652063616c60448201527f6c6564207468726f7567682064656c656761746563616c6c00000000000000006064820152608401610264565b50600080516020611d0783398151915290565b60976000610600610a17565b6001600160a01b0316815260208101919091526040016000205460ff166106395760405162461bcd60e51b8152600401610264906119d8565b6102fc81610c27565b600054610100900460ff16158080156106625750600054600160ff909116105b8061067c5750303b15801561067c575060005460ff166001145b6106df5760405162461bcd60e51b815260206004820152602e60248201527f496e697469616c697a61626c653a20636f6e747261637420697320616c72656160448201526d191e481a5b9a5d1a585b1a5e995960921b6064820152608401610264565b6000805460ff191660011790558015610702576000805461ff0019166101001790555b61070a610ce5565b6107576040518060400160405280601081526020016f14d09253919508135d5b1d1a50d85b1b60821b815250604051806040016040528060038152602001620312e360ec1b815250610d21565b61075f610d52565b80156102fc576000805461ff0019169055604051600181527f7f26b83ff96e1f2b6a682f133852f6798a09c465da95921460cefb3847402498906020015b60405180910390a150565b60006060816107b78680611af3565b915050806108135760405162461bcd60e51b815260206004820152602360248201527f4d756c746943616c6c3a6d756c746943616c6c20656d7074792063616c6c206c6044820152621a5cdd60ea1b6064820152608401610264565b60006108a686868080601f0160208091040260200160405190810160405280939291908181526020018383808284376000920191909152506108a0925061085d91508b9050610d79565b610865610dde565b6040805161190160f01b6020808301919091526022820193909352604280820194909452815180820390940184526062019052815191012090565b90610e59565b90506108ca816001600160a01b031660009081526097602052604090205460ff1690565b6109245760405162461bcd60e51b815260206004820152602560248201527f4d756c746943616c6c3a6d756c746943616c6c20696e76616c6964207369676e604482015264617475726560d81b6064820152608401610264565b4393508167ffffffffffffffff8111156109405761094061178e565b60405190808252806020026020018201604052801561097357816020015b606081526020019060019003908161095e5790505b50925060005b82811015610a0c57600061098d8980611af3565b8381811061099d5761099d611ab6565b90506020028101906109af9190611b3d565b6109b890611b5d565b6020810151604082015182519293506109db926001600160a01b03169190610e7d565b8583815181106109ed576109ed611ab6565b6020026020010181905250508080610a0490611acc565b915050610979565b505050935093915050565b6000610a21610ead565b905090565b6001600160a01b038116600081815260976020908152604091829020805460ff1916905590519182527fa3b62bc36326052d97ea62d63c3d60308ed4c3ea8ac079dd8499f1e9c4f80c0f910161079d565b60976000610a83610a17565b6001600160a01b0316815260208101919091526040016000205460ff166102fc5760405162461bcd60e51b8152600401610264906119d8565b7f4910fdfa16fed3260ed0e7147f7cc6da11a60208b5b9406d12a635614ffd91435460ff1615610aef5761046c83610ef1565b826001600160a01b03166352d1902d6040518163ffffffff1660e01b8152600401602060405180830381865afa925050508015610b49575060408051601f3d908101601f19168201909252610b4691810190611bda565b60015b610bac5760405162461bcd60e51b815260206004820152602e60248201527f45524331393637557067726164653a206e657720696d706c656d656e7461746960448201526d6f6e206973206e6f74205555505360901b6064820152608401610264565b600080516020611d078339815191528114610c1b5760405162461bcd60e51b815260206004820152602960248201527f45524331393637557067726164653a20756e737570706f727465642070726f786044820152681a58589b195555525160ba1b6064820152608401610264565b5061046c838383610f8d565b6001600160a01b038116610c915760405162461bcd60e51b815260206004820152602b60248201527f41646d696e3a61646441646d696e206e657741646d696e20697320746865207a60448201526a65726f206164647265737360a81b6064820152608401610264565b6001600160a01b038116600081815260976020908152604091829020805460ff1916600117905590519182527f44d6d25963f097ad14f29f06854a01f575648a1ef82f30e562ccd3889717e339910161079d565b600054610100900460ff16610d0c5760405162461bcd60e51b815260040161026490611bf3565b610d14610d52565b610d1f610455610a17565b565b600054610100900460ff16610d485760405162461bcd60e51b815260040161026490611bf3565b61053d8282610fb8565b600054610100900460ff16610d1f5760405162461bcd60e51b815260040161026490611bf3565b60007fb0ceb51d4e74142f4b09779cd6a35581fa6472355ae6c2881ee2b11d075f2587610dae610da98480611af3565b610ff9565b6040805160208101939093528201526060015b604051602081830303815290604052805190602001209050919050565b6000610a217f8b73c3c69bb8fe3d512ecc4cf759cc79239f7b179b0ffacaa9a75d522b39400f610e0d60ca5490565b60cb546040805160208101859052908101839052606081018290524660808201523060a082015260009060c0016040516020818303038152906040528051906020012090509392505050565b6000806000610e6885856110d8565b91509150610e758161111d565b509392505050565b6060610ea3848484604051806060016040528060298152602001611d27602991396112d3565b90505b9392505050565b60007f00000000000000000000000000000000000000000000000000000000000000006001600160a01b03163303610eec575060131936013560601c90565b503390565b6001600160a01b0381163b610f5e5760405162461bcd60e51b815260206004820152602d60248201527f455243313936373a206e657720696d706c656d656e746174696f6e206973206e60448201526c1bdd08184818dbdb9d1c9858dd609a1b6064820152608401610264565b600080516020611d0783398151915280546001600160a01b0319166001600160a01b0392909216919091179055565b610f9683611404565b600082511180610fa35750805b1561046c57610fb28383611444565b50505050565b600054610100900460ff16610fdf5760405162461bcd60e51b815260040161026490611bf3565b81516020928301208151919092012060ca9190915560cb55565b6000808267ffffffffffffffff8111156110155761101561178e565b60405190808252806020026020018201604052801561103e578160200160208202803683370190505b50905060005b838110156110a75761107885858381811061106157611061611ab6565b90506020028101906110739190611b3d565b611538565b82828151811061108a5761108a611ab6565b60209081029190910101528061109f81611acc565b915050611044565b50806040516020016110b99190611c3e565b6040516020818303038152906040528051906020012091505092915050565b600080825160410361110e5760208301516040840151606085015160001a611102878285856115bc565b94509450505050611116565b506000905060025b9250929050565b600081600481111561113157611131611c74565b036111395750565b600181600481111561114d5761114d611c74565b0361119a5760405162461bcd60e51b815260206004820152601860248201527f45434453413a20696e76616c6964207369676e617475726500000000000000006044820152606401610264565b60028160048111156111ae576111ae611c74565b036111fb5760405162461bcd60e51b815260206004820152601f60248201527f45434453413a20696e76616c6964207369676e6174757265206c656e677468006044820152606401610264565b600381600481111561120f5761120f611c74565b036112675760405162461bcd60e51b815260206004820152602260248201527f45434453413a20696e76616c6964207369676e6174757265202773272076616c604482015261756560f01b6064820152608401610264565b600481600481111561127b5761127b611c74565b036102fc5760405162461bcd60e51b815260206004820152602260248201527f45434453413a20696e76616c6964207369676e6174757265202776272076616c604482015261756560f01b6064820152608401610264565b6060824710156113345760405162461bcd60e51b815260206004820152602660248201527f416464726573733a20696e73756666696369656e742062616c616e636520666f6044820152651c8818d85b1b60d21b6064820152608401610264565b6001600160a01b0385163b61138b5760405162461bcd60e51b815260206004820152601d60248201527f416464726573733a2063616c6c20746f206e6f6e2d636f6e74726163740000006044820152606401610264565b600080866001600160a01b031685876040516113a79190611c8a565b60006040518083038185875af1925050503d80600081146113e4576040519150601f19603f3d011682016040523d82523d6000602084013e6113e9565b606091505b50915091506113f98282866116a9565b979650505050505050565b61140d81610ef1565b6040516001600160a01b038216907fbc7cd75a20ee27fd9adebab32041f755214dbc6bffa90cc0225b39da2e5c2d3b90600090a250565b60606001600160a01b0383163b6114ac5760405162461bcd60e51b815260206004820152602660248201527f416464726573733a2064656c65676174652063616c6c20746f206e6f6e2d636f6044820152651b9d1c9858dd60d21b6064820152608401610264565b600080846001600160a01b0316846040516114c79190611c8a565b600060405180830381855af49150503d8060008114611502576040519150601f19603f3d011682016040523d82523d6000602084013e611507565b606091505b509150915061152f8282604051806060016040528060278152602001611d50602791396116a9565b95945050505050565b60007ffccb5f0d2501d3e40c99452b2797672c573d58375c0b5913caae60fa7de23ff461156860208401846116fe565b6115756020850185611c9c565b604051611583929190611ce3565b6040805191829003822060208301949094526001600160a01b03909216818301526060810192909252830135608082015260a001610dc1565b6000807f7fffffffffffffffffffffffffffffff5d576e7357a4501ddfe92f46681b20a08311156115f357506000905060036116a0565b8460ff16601b1415801561160b57508460ff16601c14155b1561161c57506000905060046116a0565b6040805160008082526020820180845289905260ff881692820192909252606081018690526080810185905260019060a0016020604051602081039080840390855afa158015611670573d6000803e3d6000fd5b5050604051601f1901519150506001600160a01b038116611699576000600192509250506116a0565b9150600090505b94509492505050565b606083156116b8575081610ea6565b8251156116c85782518084602001fd5b8160405162461bcd60e51b81526004016102649190611cf3565b80356001600160a01b03811681146116f957600080fd5b919050565b60006020828403121561171057600080fd5b610ea6826116e2565b6000806020838503121561172c57600080fd5b823567ffffffffffffffff8082111561174457600080fd5b818501915085601f83011261175857600080fd5b81358181111561176757600080fd5b8660208260051b850101111561177c57600080fd5b60209290920196919550909350505050565b634e487b7160e01b600052604160045260246000fd5b600082601f8301126117b557600080fd5b813567ffffffffffffffff808211156117d0576117d061178e565b604051601f8301601f19908116603f011681019082821181831017156117f8576117f861178e565b8160405283815286602085880101111561181157600080fd5b836020870160208301376000602085830101528094505050505092915050565b6000806040838503121561184457600080fd5b61184d836116e2565b9150602083013567ffffffffffffffff81111561186957600080fd5b611875858286016117a4565b9150509250929050565b60008060006040848603121561189457600080fd5b833567ffffffffffffffff808211156118ac57600080fd5b90850190602082880312156118c057600080fd5b909350602085013590808211156118d657600080fd5b818601915086601f8301126118ea57600080fd5b8135818111156118f957600080fd5b87602082850101111561190b57600080fd5b6020830194508093505050509250925092565b60005b83811015611939578181015183820152602001611921565b50506000910152565b6000815180845261195a81602086016020860161191e565b601f01601f19169290920160200192915050565b600060408201848352602060408185015281855180845260608601915060608160051b870101935082870160005b828110156119ca57605f198887030184526119b8868351611942565b9550928401929084019060010161199c565b509398975050505050505050565b60208082526026908201527f41646d696e3a6f6e6c7941646d696e2063616c6c6572206973206e6f7420616e6040820152651020b236b4b760d11b606082015260800190565b6020808252602c908201527f46756e6374696f6e206d7573742062652063616c6c6564207468726f7567682060408201526b19195b1959d85d1958d85b1b60a21b606082015260800190565b6020808252602c908201527f46756e6374696f6e206d7573742062652063616c6c6564207468726f7567682060408201526b6163746976652070726f787960a01b606082015260800190565b634e487b7160e01b600052603260045260246000fd5b600060018201611aec57634e487b7160e01b600052601160045260246000fd5b5060010190565b6000808335601e19843603018112611b0a57600080fd5b83018035915067ffffffffffffffff821115611b2557600080fd5b6020019150600581901b360382131561111657600080fd5b60008235605e19833603018112611b5357600080fd5b9190910192915050565b600060608236031215611b6f57600080fd5b6040516060810167ffffffffffffffff8282108183111715611b9357611b9361178e565b81604052611ba0856116e2565b83526020850135915080821115611bb657600080fd5b50611bc3368286016117a4565b602083015250604092830135928101929092525090565b600060208284031215611bec57600080fd5b5051919050565b6020808252602b908201527f496e697469616c697a61626c653a20636f6e7472616374206973206e6f74206960408201526a6e697469616c697a696e6760a81b606082015260800190565b815160009082906020808601845b83811015611c6857815185529382019390820190600101611c4c565b50929695505050505050565b634e487b7160e01b600052602160045260246000fd5b60008251611b5381846020870161191e565b6000808335601e19843603018112611cb357600080fd5b83018035915067ffffffffffffffff821115611cce57600080fd5b60200191503681900382131561111657600080fd5b8183823760009101908152919050565b602081526000610ea6602083018461194256fe360894a13ba1a3210667c828492db98dca3e2076cc3735a920a3ca505d382bbc416464726573733a206c6f772d6c6576656c2063616c6c20776974682076616c7565206661696c6564416464726573733a206c6f772d6c6576656c2064656c65676174652063616c6c206661696c6564a264697066735822122013bf97fb03ae4b8938d9b4397381c08f70d7d39d9a6b860fb1ddb85251e4adb264736f6c63430008110033",
  "linkReferences": {},
  "deployedLinkReferences": {}
}