{
  "_format": "hh-sol-artifact-1",
  "contractName": "PlatformRegistry",
  "sourceName": "contracts/sbinft/market/v1/platform/PlatformRegistry.sol",
  "abi": [
    {
      "inputs": [],
      "stateMutability": "nonpayable",
      "type": "constructor"
    },
    {
      "anonymous": false,
      "inputs": [
        {
          "indexed": false,
          "internalType": "address",
          "name": "",
          "type": "address"
        }
      ],
      "name": "AdminAdded",
      "type": "event"
    },
    {
      "anonymous": false,
      "inputs": [
        {
          "indexed": false,
          "internalType": "address",
          "name": "previousAdmin",
          "type": "address"
        },
        {
          "indexed": false,
          "internalType": "address",
          "name": "newAdmin",
          "type": "address"
        }
      ],
      "name": "AdminChanged",
      "type": "event"
    },
    {
      "anonymous": false,
      "inputs": [
        {
          "indexed": false,
          "internalType": "address",
          "name": "",
          "type": "address"
        }
      ],
      "name": "AdminRemoved",
      "type": "event"
    },
    {
      "anonymous": false,
      "inputs": [
        {
          "indexed": true,
          "internalType": "address",
          "name": "beacon",
          "type": "address"
        }
      ],
      "name": "BeaconUpgraded",
      "type": "event"
    },
    {
      "anonymous": false,
      "inputs": [
        {
          "indexed": false,
          "internalType": "address",
          "name": "addedToken",
          "type": "address"
        }
      ],
      "name": "ERC20AddedToWhitelist",
      "type": "event"
    },
    {
      "anonymous": false,
      "inputs": [
        {
          "indexed": false,
          "internalType": "address",
          "name": "removedToken",
          "type": "address"
        }
      ],
      "name": "ERC20RemovedFromWhitelist",
      "type": "event"
    },
    {
      "anonymous": false,
      "inputs": [
        {
          "indexed": true,
          "internalType": "address",
          "name": "platformSigner",
          "type": "address"
        },
        {
          "indexed": true,
          "internalType": "address",
          "name": "partnerPf",
          "type": "address"
        }
      ],
      "name": "ExternalPlatformFeeReceiverUpdated",
      "type": "event"
    },
    {
      "anonymous": false,
      "inputs": [
        {
          "indexed": false,
          "internalType": "uint8",
          "name": "version",
          "type": "uint8"
        }
      ],
      "name": "Initialized",
      "type": "event"
    },
    {
      "anonymous": false,
      "inputs": [
        {
          "indexed": true,
          "internalType": "address",
          "name": "collection",
          "type": "address"
        },
        {
          "indexed": true,
          "internalType": "address",
          "name": "partner",
          "type": "address"
        }
      ],
      "name": "PartnerFeeReceiverUpdated",
      "type": "event"
    },
    {
      "anonymous": false,
      "inputs": [
        {
          "indexed": false,
          "internalType": "uint16",
          "name": "pfFeelowerlimit",
          "type": "uint16"
        }
      ],
      "name": "PlatformFeeLowerRateUpdated",
      "type": "event"
    },
    {
      "anonymous": false,
      "inputs": [
        {
          "indexed": true,
          "internalType": "address",
          "name": "_pfFeeReceiver",
          "type": "address"
        }
      ],
      "name": "PlatformFeeReceiverUpdated",
      "type": "event"
    },
    {
      "anonymous": false,
      "inputs": [
        {
          "indexed": false,
          "internalType": "address",
          "name": "addedAddress",
          "type": "address"
        }
      ],
      "name": "PlatformSignerAdded",
      "type": "event"
    },
    {
      "anonymous": false,
      "inputs": [
        {
          "indexed": false,
          "internalType": "address",
          "name": "removedAddress",
          "type": "address"
        }
      ],
      "name": "PlatformSignerRemoved",
      "type": "event"
    },
    {
      "anonymous": false,
      "inputs": [
        {
          "indexed": true,
          "internalType": "address",
          "name": "implementation",
          "type": "address"
        }
      ],
      "name": "Upgraded",
      "type": "event"
    },
    {
      "inputs": [
        {
          "internalType": "address payable",
          "name": "_pfFeeReceiver_",
          "type": "address"
        },
        {
          "internalType": "address[]",
          "name": "_platformSignerList",
          "type": "address[]"
        },
        {
          "internalType": "address[]",
          "name": "_whitelistERC20List",
          "type": "address[]"
        }
      ],
      "name": "__PlatformRegistry_init",
      "outputs": [],
      "stateMutability": "nonpayable",
      "type": "function"
    },
    {
      "inputs": [
        {
          "internalType": "address[]",
          "name": "newAdmin",
          "type": "address[]"
        }
      ],
      "name": "addAdmin",
      "outputs": [],
      "stateMutability": "nonpayable",
      "type": "function"
    },
    {
      "inputs": [
        {
          "internalType": "address",
          "name": "newAdmin",
          "type": "address"
        }
      ],
      "name": "addAdmin",
      "outputs": [],
      "stateMutability": "nonpayable",
      "type": "function"
    },
    {
      "inputs": [
        {
          "internalType": "address[]",
          "name": "_platformSignerList",
          "type": "address[]"
        }
      ],
      "name": "addPlatformSigner",
      "outputs": [],
      "stateMutability": "nonpayable",
      "type": "function"
    },
    {
      "inputs": [
        {
          "internalType": "address[]",
          "name": "_addTokenList",
          "type": "address[]"
        }
      ],
      "name": "addToERC20Whitelist",
      "outputs": [],
      "stateMutability": "nonpayable",
      "type": "function"
    },
    {
      "inputs": [
        {
          "components": [
            {
              "internalType": "uint256",
              "name": "auctionId",
              "type": "uint256"
            },
            {
              "internalType": "bytes4",
              "name": "pfKind",
              "type": "bytes4"
            },
            {
              "internalType": "address payable",
              "name": "creatorAddress",
              "type": "address"
            },
            {
              "components": [
                {
                  "internalType": "bytes4",
                  "name": "originKind",
                  "type": "bytes4"
                },
                {
                  "internalType": "address",
                  "name": "asset",
                  "type": "address"
                },
                {
                  "internalType": "uint256",
                  "name": "assetId",
                  "type": "uint256"
                },
                {
                  "internalType": "uint16",
                  "name": "partnerFeeRate",
                  "type": "uint16"
                },
                {
                  "internalType": "uint8",
                  "name": "isSecondarySale",
                  "type": "uint8"
                }
              ],
              "internalType": "struct AuctionDomain.Asset",
              "name": "asset",
              "type": "tuple"
            },
            {
              "components": [
                {
                  "internalType": "bytes4",
                  "name": "auctionKind",
                  "type": "bytes4"
                },
                {
                  "internalType": "bytes4",
                  "name": "bidMode",
                  "type": "bytes4"
                },
                {
                  "internalType": "address",
                  "name": "paymentToken",
                  "type": "address"
                }
              ],
              "internalType": "struct AuctionDomain.AuctionType",
              "name": "auctionType",
              "type": "tuple"
            },
            {
              "internalType": "uint256",
              "name": "startPrice",
              "type": "uint256"
            },
            {
              "internalType": "uint256",
              "name": "startTime",
              "type": "uint256"
            },
            {
              "internalType": "uint256",
              "name": "endTime",
              "type": "uint256"
            },
            {
              "internalType": "uint16",
              "name": "pfFeeRate",
              "type": "uint16"
            },
            {
              "internalType": "uint16",
              "name": "externalPfFeeRate",
              "type": "uint16"
            },
            {
              "internalType": "address",
              "name": "platformSigner",
              "type": "address"
            }
          ],
          "internalType": "struct AuctionDomain.Auction",
          "name": "_auction",
          "type": "tuple"
        }
      ],
      "name": "checkParametaForAuctionCreate",
      "outputs": [],
      "stateMutability": "nonpayable",
      "type": "function"
    },
    {
      "inputs": [
        {
          "internalType": "address",
          "name": "_token",
          "type": "address"
        }
      ],
      "name": "getExternalPlatformFeeReceiver",
      "outputs": [
        {
          "internalType": "address payable",
          "name": "",
          "type": "address"
        }
      ],
      "stateMutability": "nonpayable",
      "type": "function"
    },
    {
      "inputs": [
        {
          "internalType": "address",
          "name": "_token",
          "type": "address"
        }
      ],
      "name": "getPartnerFeeReceiver",
      "outputs": [
        {
          "internalType": "address payable",
          "name": "",
          "type": "address"
        }
      ],
      "stateMutability": "nonpayable",
      "type": "function"
    },
    {
      "inputs": [],
      "name": "getPlatformFeeRateLowerLimit",
      "outputs": [
        {
          "internalType": "uint16",
          "name": "",
          "type": "uint16"
        }
      ],
      "stateMutability": "nonpayable",
      "type": "function"
    },
    {
      "inputs": [],
      "name": "getPlatformFeeReceiver",
      "outputs": [
        {
          "internalType": "address payable",
          "name": "",
          "type": "address"
        }
      ],
      "stateMutability": "view",
      "type": "function"
    },
    {
      "inputs": [
        {
          "internalType": "address",
          "name": "checkAdmin",
          "type": "address"
        }
      ],
      "name": "isAdmin",
      "outputs": [
        {
          "internalType": "bool",
          "name": "",
          "type": "bool"
        }
      ],
      "stateMutability": "view",
      "type": "function"
    },
    {
      "inputs": [
        {
          "internalType": "address",
          "name": "_collection",
          "type": "address"
        },
        {
          "internalType": "address",
          "name": "_partnerFeeReceiver",
          "type": "address"
        }
      ],
      "name": "isPartnerFeeReceiver",
      "outputs": [
        {
          "internalType": "bool",
          "name": "",
          "type": "bool"
        }
      ],
      "stateMutability": "view",
      "type": "function"
    },
    {
      "inputs": [
        {
          "internalType": "address",
          "name": "_signer",
          "type": "address"
        }
      ],
      "name": "isPlatformSigner",
      "outputs": [
        {
          "internalType": "bool",
          "name": "",
          "type": "bool"
        }
      ],
      "stateMutability": "view",
      "type": "function"
    },
    {
      "inputs": [
        {
          "internalType": "address",
          "name": "_token",
          "type": "address"
        }
      ],
      "name": "isWhitelistedERC20",
      "outputs": [
        {
          "internalType": "bool",
          "name": "",
          "type": "bool"
        }
      ],
      "stateMutability": "view",
      "type": "function"
    },
    {
      "inputs": [],
      "name": "proxiableUUID",
      "outputs": [
        {
          "internalType": "bytes32",
          "name": "",
          "type": "bytes32"
        }
      ],
      "stateMutability": "view",
      "type": "function"
    },
    {
      "inputs": [
        {
          "internalType": "address",
          "name": "admin",
          "type": "address"
        }
      ],
      "name": "removeAdmin",
      "outputs": [],
      "stateMutability": "nonpayable",
      "type": "function"
    },
    {
      "inputs": [
        {
          "internalType": "address[]",
          "name": "_removeTokenList",
          "type": "address[]"
        }
      ],
      "name": "removeFromERC20Whitelist",
      "outputs": [],
      "stateMutability": "nonpayable",
      "type": "function"
    },
    {
      "inputs": [
        {
          "internalType": "address[]",
          "name": "_platformSignerList",
          "type": "address[]"
        }
      ],
      "name": "removePlatformSigner",
      "outputs": [],
      "stateMutability": "nonpayable",
      "type": "function"
    },
    {
      "inputs": [
        {
          "internalType": "bytes4",
          "name": "_interfaceId",
          "type": "bytes4"
        }
      ],
      "name": "supportsInterface",
      "outputs": [
        {
          "internalType": "bool",
          "name": "",
          "type": "bool"
        }
      ],
      "stateMutability": "view",
      "type": "function"
    },
    {
      "inputs": [
        {
          "internalType": "address",
          "name": "_externalPlatformToken",
          "type": "address"
        },
        {
          "internalType": "address payable",
          "name": "_partnerPfFeeReceiver",
          "type": "address"
        }
      ],
      "name": "updateExternalPlatformFeeReceiver",
      "outputs": [],
      "stateMutability": "nonpayable",
      "type": "function"
    },
    {
      "inputs": [
        {
          "internalType": "address",
          "name": "_collection",
          "type": "address"
        },
        {
          "internalType": "address payable",
          "name": "_partnerFeeReceiver",
          "type": "address"
        }
      ],
      "name": "updatePartnerFeeReceiver",
      "outputs": [],
      "stateMutability": "nonpayable",
      "type": "function"
    },
    {
      "inputs": [
        {
          "internalType": "uint16",
          "name": "_platformFeeLowerLimit",
          "type": "uint16"
        }
      ],
      "name": "updatePlatformFeeLowerLimit",
      "outputs": [],
      "stateMutability": "nonpayable",
      "type": "function"
    },
    {
      "inputs": [
        {
          "internalType": "address payable",
          "name": "_newPlatformFeeReceiver",
          "type": "address"
        }
      ],
      "name": "updatePlatformFeeReceiver",
      "outputs": [],
      "stateMutability": "nonpayable",
      "type": "function"
    },
    {
      "inputs": [
        {
          "internalType": "address",
          "name": "newImplementation",
          "type": "address"
        }
      ],
      "name": "upgradeTo",
      "outputs": [],
      "stateMutability": "nonpayable",
      "type": "function"
    },
    {
      "inputs": [
        {
          "internalType": "address",
          "name": "newImplementation",
          "type": "address"
        },
        {
          "internalType": "bytes",
          "name": "data",
          "type": "bytes"
        }
      ],
      "name": "upgradeToAndCall",
      "outputs": [],
      "stateMutability": "payable",
      "type": "function"
    }
  ],
  "bytecode": "0x60a06040523060805234801561001457600080fd5b5061001d610022565b6100e2565b600054610100900460ff161561008e5760405162461bcd60e51b815260206004820152602760248201527f496e697469616c697a61626c653a20636f6e747261637420697320696e697469604482015266616c697a696e6760c81b606482015260840160405180910390fd5b60005460ff90811610156100e0576000805460ff191660ff9081179091556040519081527f7f26b83ff96e1f2b6a682f133852f6798a09c465da95921460cefb38474024989060200160405180910390a15b565b6080516122356200011a600039600081816106390152818161067901528181610874015281816108b4015261094701526122356000f3fe6080604052600436106101665760003560e01c80636859c996116100d157806392b1ea521161008a578063a5366ecb11610064578063a5366ecb146104ab578063cd4a0f34146104cb578063da5f2d92146104eb578063f815d6cf1461050b57600080fd5b806392b1ea521461044b5780639df095641461046b5780639fac71ad1461048b57600080fd5b80636859c9961461037457806370480275146103ad578063707d1848146103cd5780637d4bc8b7146103eb57806388cd8a6b1461040b5780638ef59b7c1461042b57600080fd5b806344057f631161012357806344057f631461028c5780634d4ed32c146102ac5780634f1ef286146102e55780635247385c146102f857806352d1902d14610331578063552f41e01461035457600080fd5b806301ffc9a71461016b5780631785f53c146101a057806324d7806c146101c25780632888241b146101fb5780633659cfe61461024c5780633d0950a81461026c575b600080fd5b34801561017757600080fd5b5061018b610186366004611d09565b61052e565b60405190151581526020015b60405180910390f35b3480156101ac57600080fd5b506101c06101bb366004611d48565b610565565b005b3480156101ce57600080fd5b5061018b6101dd366004611d48565b6001600160a01b031660009081526033602052604090205460ff1690565b34801561020757600080fd5b50610234610216366004611d48565b6001600160a01b03908116600090815260cf60205260409020541690565b6040516001600160a01b039091168152602001610197565b34801561025857600080fd5b506101c0610267366004611d48565b61062f565b34801561027857600080fd5b506101c0610287366004611db1565b61070b565b34801561029857600080fd5b506101c06102a7366004611db1565b61078b565b3480156102b857600080fd5b5061018b6102c7366004611d48565b6001600160a01b0316600090815260cd602052604090205460ff1690565b6101c06102f3366004611e09565b61086a565b34801561030457600080fd5b5061018b610313366004611d48565b6001600160a01b0316600090815260cc602052604090205460ff1690565b34801561033d57600080fd5b5061034661093a565b604051908152602001610197565b34801561036057600080fd5b506101c061036f366004611d48565b6109ed565b34801561038057600080fd5b5061023461038f366004611d48565b6001600160a01b03908116600090815260cb60205260409020541690565b3480156103b957600080fd5b506101c06103c8366004611d48565b610aa9565b3480156103d957600080fd5b5060ca546001600160a01b0316610234565b3480156103f757600080fd5b506101c0610406366004611db1565b610ae1565b34801561041757600080fd5b506101c0610426366004611ecd565b610bd7565b34801561043757600080fd5b506101c0610446366004611f06565b610ce6565b34801561045757600080fd5b506101c0610466366004611f2a565b610d60565b34801561047757600080fd5b506101c0610486366004611f43565b611200565b34801561049757600080fd5b5061018b6104a6366004611ecd565b611343565b3480156104b757600080fd5b506101c06104c6366004611db1565b6113f0565b3480156104d757600080fd5b506101c06104e6366004611db1565b6114cc565b3480156104f757600080fd5b506101c0610506366004611ecd565b6115a8565b34801561051757600080fd5b5060ce5460405161ffff9091168152602001610197565b60006001600160e01b031982166302d7f8cb60e01b148061055f57506301ffc9a760e01b6001600160e01b03198316145b92915050565b3360009081526033602052604090205460ff1661059d5760405162461bcd60e51b815260040161059490611fc6565b60405180910390fd5b6001600160a01b03811660009081526033602052604090205460ff166106235760405162461bcd60e51b815260206004820152603560248201527f41646d696e3a72656d6f766541646d696e20747279696e6720746f2072656d6f6044820152743b32903737b71032bc34b9ba34b7339020b236b4b760591b6064820152608401610594565b61062c816116b6565b50565b6001600160a01b037f00000000000000000000000000000000000000000000000000000000000000001630036106775760405162461bcd60e51b81526004016105949061200c565b7f00000000000000000000000000000000000000000000000000000000000000006001600160a01b03166106c06000805160206121b9833981519152546001600160a01b031690565b6001600160a01b0316146106e65760405162461bcd60e51b815260040161059490612058565b6106ef81611707565b6040805160008082526020820190925261062c91839190611736565b3360009081526033602052604090205460ff1661073a5760405162461bcd60e51b815260040161059490611fc6565b60005b818110156107865761077483838381811061075a5761075a6120a4565b905060200201602081019061076f9190611d48565b6118a1565b8061077e816120ba565b91505061073d565b505050565b3360009081526033602052604090205460ff166107ba5760405162461bcd60e51b815260040161059490611fc6565b60005b818110156107865760008383838181106107d9576107d96120a4565b90506020020160208101906107ee9190611d48565b90506001600160a01b03811615610857576001600160a01b038116600081815260cd6020908152604091829020805460ff1916600117905590519182527f64493f6b58fecf0b5963bd190327c4b5551e5774b83eb602f868be392da8a782910160405180910390a15b5080610862816120ba565b9150506107bd565b6001600160a01b037f00000000000000000000000000000000000000000000000000000000000000001630036108b25760405162461bcd60e51b81526004016105949061200c565b7f00000000000000000000000000000000000000000000000000000000000000006001600160a01b03166108fb6000805160206121b9833981519152546001600160a01b031690565b6001600160a01b0316146109215760405162461bcd60e51b815260040161059490612058565b61092a82611707565b61093682826001611736565b5050565b6000306001600160a01b037f000000000000000000000000000000000000000000000000000000000000000016146109da5760405162461bcd60e51b815260206004820152603860248201527f555550535570677261646561626c653a206d757374206e6f742062652063616c60448201527f6c6564207468726f7567682064656c656761746563616c6c00000000000000006064820152608401610594565b506000805160206121b983398151915290565b3360009081526033602052604090205460ff16610a1c5760405162461bcd60e51b815260040161059490611fc6565b6001600160a01b038116610a5f5760405162461bcd60e51b815260206004820152600a602482015269453a555046523a505a4160b01b6044820152606401610594565b60ca80546001600160a01b0319166001600160a01b0383169081179091556040517f5424f6f81faafe9238c4d58ac76299338deab37460d10288e02776c68c8d5b6390600090a250565b3360009081526033602052604090205460ff16610ad85760405162461bcd60e51b815260040161059490611fc6565b61062c816118a1565b3360009081526033602052604090205460ff16610b105760405162461bcd60e51b815260040161059490611fc6565b60005b81811015610786576000838383818110610b2f57610b2f6120a4565b9050602002016020810190610b449190611d48565b90506001600160a01b03811615801590610b6757506001600160a01b0381163b15155b15610bc4576001600160a01b038116600081815260cc6020908152604091829020805460ff1916600117905590519182527f45f42530e679dbd12f34bd60947483f7fc4d07a0cb66ededb2261c4206d4563a910160405180910390a15b5080610bcf816120ba565b915050610b13565b3360009081526033602052604090205460ff16610c065760405162461bcd60e51b815260040161059490611fc6565b6001600160a01b0382163b610c4b5760405162461bcd60e51b815260206004820152600b60248201526a453a555046523a5043434160a81b6044820152606401610594565b6001600160a01b038116610c8f5760405162461bcd60e51b815260206004820152600b60248201526a453a555046523a4e505a4160a81b6044820152606401610594565b6001600160a01b03828116600081815260cb602052604080822080546001600160a01b0319169486169485179055517f589ee4ae06bae381d455f1c3ce0c6724aee594ddbcab920f9a5a504de9943d989190a35050565b3360009081526033602052604090205460ff16610d155760405162461bcd60e51b815260040161059490611fc6565b60ce805461ffff191661ffff83169081179091556040519081527f9b5540d1b8eea14606b74b2167809eda8828fb3cb906886fa9b42f34d78f43db906020015b60405180910390a150565b610d78610d736040830160208401611d09565b61195f565b610db35760405162461bcd60e51b815260206004820152600c60248201526b413a43504641433a4149504b60a01b6044820152606401610594565b6000610dc56060830160408401611d48565b6001600160a01b031603610e0a5760405162461bcd60e51b815260206004820152600c60248201526b413a43504641433a4149434160a01b6044820152606401610594565b610e22610e1d6080830160608401611d09565b611995565b610e5d5760405162461bcd60e51b815260206004820152600c60248201526b413a43504641433a5341494f60a01b6044820152606401610594565b610e7f610e7060a0830160808401611d48565b6001600160a01b03163b151590565b610ebb5760405162461bcd60e51b815260206004820152600d60248201526c413a43504641433a534149414160981b6044820152606401610594565b60a0810135600003610eff5760405162461bcd60e51b815260206004820152600d60248201526c413a43504641433a534149414960981b6044820152606401610594565b610f19610f1461014083016101208401611d09565b6119cb565b610f555760405162461bcd60e51b815260206004820152600d60248201526c413a43504641433a425449424d60981b6044820152606401610594565b610f6f610f6a61012083016101008401611d09565b611a37565b610fac5760405162461bcd60e51b815260206004820152600e60248201526d413a43504641433a42544942454d60901b6044820152606401610594565b6000610fc061016083016101408401611d48565b6001600160a01b03161480610fe55750610fe5610e7061016083016101408401611d48565b6110215760405162461bcd60e51b815260206004820152600d60248201526c413a43504641433a425449544160981b6044820152606401610594565b42816101800135116110635760405162461bcd60e51b815260206004820152600b60248201526a413a43504641433a53544960a81b6044820152606401610594565b806101800135816101a00135116110ae5760405162461bcd60e51b815260206004820152600f60248201526e104e90d4119050ce915512509514d5608a1b6044820152606401610594565b60ce5461ffff166110c76101e083016101c08401611f06565b61ffff16101561110a5760405162461bcd60e51b815260206004820152600e60248201526d104e90d4119050ce90541193151360921b6044820152606401610594565b60ce5461ffff1661112361020083016101e08401611f06565b61ffff16101580611147575061114161020082016101e08301611f06565b61ffff16155b6111845760405162461bcd60e51b815260206004820152600e60248201526d209d21a82320a19d20a4a828232960911b6044820152606401610594565b600061119861022083016102008401611d48565b6001600160a01b0316141580156111bf57506111bf6102c761022083016102008401611d48565b61062c5760405162461bcd60e51b8152602060048201526012602482015271413a43504641433a414950537c50534e504160701b6044820152606401610594565b600054610100900460ff16158080156112205750600054600160ff909116105b8061123a5750303b15801561123a575060005460ff166001145b61129d5760405162461bcd60e51b815260206004820152602e60248201527f496e697469616c697a61626c653a20636f6e747261637420697320616c72656160448201526d191e481a5b9a5d1a585b1a5e995960921b6064820152608401610594565b6000805460ff1916600117905580156112c0576000805461ff0019166101001790555b6112c8611a6d565b6112d0611a96565b6112d8611a6d565b6112e1866109ed565b6112eb858561078b565b6112f58383610ae1565b801561133b576000805461ff0019169055604051600181527f7f26b83ff96e1f2b6a682f133852f6798a09c465da95921460cefb38474024989060200160405180910390a15b505050505050565b60006001600160a01b0383166113895760405162461bcd60e51b815260206004820152600b60248201526a453a495046523a434e5a4160a81b6044820152606401610594565b6001600160a01b0382166113cd5760405162461bcd60e51b815260206004820152600b60248201526a453a495046523a504e5a4160a81b6044820152606401610594565b506001600160a01b03918216600090815260cb6020526040902054821691161490565b3360009081526033602052604090205460ff1661141f5760405162461bcd60e51b815260040161059490611fc6565b60005b8181101561078657600083838381811061143e5761143e6120a4565b90506020020160208101906114539190611d48565b90506001600160a01b038116156114b9576001600160a01b038116600081815260cc6020908152604091829020805460ff1916905590519182527f72a26be94b6f8ff29d401781a1851d009dae9befe1bfe300fabf2e03146ea763910160405180910390a15b50806114c4816120ba565b915050611422565b3360009081526033602052604090205460ff166114fb5760405162461bcd60e51b815260040161059490611fc6565b60005b8181101561078657600083838381811061151a5761151a6120a4565b905060200201602081019061152f9190611d48565b90506001600160a01b03811615611595576001600160a01b038116600081815260cd6020908152604091829020805460ff1916905590519182527f81bf64040664fa99957e018a931d568ee336fb32f976e4c36b27b331906e5167910160405180910390a15b50806115a0816120ba565b9150506114fe565b3360009081526033602052604090205460ff166115d75760405162461bcd60e51b815260040161059490611fc6565b6001600160a01b03821661161b5760405162461bcd60e51b815260206004820152600b60248201526a413a555046523a4e505a4160a81b6044820152606401610594565b6001600160a01b03811661165f5760405162461bcd60e51b815260206004820152600b60248201526a413a555046523a4e505a4160a81b6044820152606401610594565b6001600160a01b03828116600081815260cf602052604080822080546001600160a01b0319169486169485179055517ffae5b4c04d3cf2324d5fb190022c792c8c5577d9e743cb88a04bca4aaca08a219190a35050565b6001600160a01b038116600081815260336020908152604091829020805460ff1916905590519182527fa3b62bc36326052d97ea62d63c3d60308ed4c3ea8ac079dd8499f1e9c4f80c0f9101610d55565b3360009081526033602052604090205460ff1661062c5760405162461bcd60e51b815260040161059490611fc6565b7f4910fdfa16fed3260ed0e7147f7cc6da11a60208b5b9406d12a635614ffd91435460ff16156117695761078683611ace565b826001600160a01b03166352d1902d6040518163ffffffff1660e01b8152600401602060405180830381865afa9250505080156117c3575060408051601f3d908101601f191682019092526117c0918101906120e1565b60015b6118265760405162461bcd60e51b815260206004820152602e60248201527f45524331393637557067726164653a206e657720696d706c656d656e7461746960448201526d6f6e206973206e6f74205555505360901b6064820152608401610594565b6000805160206121b983398151915281146118955760405162461bcd60e51b815260206004820152602960248201527f45524331393637557067726164653a20756e737570706f727465642070726f786044820152681a58589b195555525160ba1b6064820152608401610594565b50610786838383611b6a565b6001600160a01b03811661190b5760405162461bcd60e51b815260206004820152602b60248201527f41646d696e3a61646441646d696e206e657741646d696e20697320746865207a60448201526a65726f206164647265737360a81b6064820152608401610594565b6001600160a01b038116600081815260336020908152604091829020805460ff1916600117905590519182527f44d6d25963f097ad14f29f06854a01f575648a1ef82f30e562ccd3889717e3399101610d55565b60006001600160e01b03198216636026fea760e11b148061055f57506001600160e01b03198216630f5b45a760e41b1492915050565b60006001600160e01b03198216639e80de3760e01b148061055f57506001600160e01b0319821663163b6d3b60e21b1492915050565b60006001600160e01b0319821663fdae1ba760e01b14806119fc57506001600160e01b031982166322ba176160e21b145b80611a1757506001600160e01b03198216633ecaa07960e21b145b8061055f57506001600160e01b0319821663d5a81f1960e01b1492915050565b60006001600160e01b031982166322ebf8cd60e21b148061055f57506001600160e01b031982166351e7b92b60e01b1492915050565b600054610100900460ff16611a945760405162461bcd60e51b8152600401610594906120fa565b565b600054610100900460ff16611abd5760405162461bcd60e51b8152600401610594906120fa565b611ac5611a6d565b611a94336118a1565b6001600160a01b0381163b611b3b5760405162461bcd60e51b815260206004820152602d60248201527f455243313936373a206e657720696d706c656d656e746174696f6e206973206e60448201526c1bdd08184818dbdb9d1c9858dd609a1b6064820152608401610594565b6000805160206121b983398151915280546001600160a01b0319166001600160a01b0392909216919091179055565b611b7383611b95565b600082511180611b805750805b1561078657611b8f8383611bd5565b50505050565b611b9e81611ace565b6040516001600160a01b038216907fbc7cd75a20ee27fd9adebab32041f755214dbc6bffa90cc0225b39da2e5c2d3b90600090a250565b60606001600160a01b0383163b611c3d5760405162461bcd60e51b815260206004820152602660248201527f416464726573733a2064656c65676174652063616c6c20746f206e6f6e2d636f6044820152651b9d1c9858dd60d21b6064820152608401610594565b600080846001600160a01b031684604051611c589190612169565b600060405180830381855af49150503d8060008114611c93576040519150601f19603f3d011682016040523d82523d6000602084013e611c98565b606091505b5091509150611cc082826040518060600160405280602781526020016121d960279139611cc9565b95945050505050565b60608315611cd8575081611d02565b825115611ce85782518084602001fd5b8160405162461bcd60e51b81526004016105949190612185565b9392505050565b600060208284031215611d1b57600080fd5b81356001600160e01b031981168114611d0257600080fd5b6001600160a01b038116811461062c57600080fd5b600060208284031215611d5a57600080fd5b8135611d0281611d33565b60008083601f840112611d7757600080fd5b50813567ffffffffffffffff811115611d8f57600080fd5b6020830191508360208260051b8501011115611daa57600080fd5b9250929050565b60008060208385031215611dc457600080fd5b823567ffffffffffffffff811115611ddb57600080fd5b611de785828601611d65565b90969095509350505050565b634e487b7160e01b600052604160045260246000fd5b60008060408385031215611e1c57600080fd5b8235611e2781611d33565b9150602083013567ffffffffffffffff80821115611e4457600080fd5b818501915085601f830112611e5857600080fd5b813581811115611e6a57611e6a611df3565b604051601f8201601f19908116603f01168101908382118183101715611e9257611e92611df3565b81604052828152886020848701011115611eab57600080fd5b8260208601602083013760006020848301015280955050505050509250929050565b60008060408385031215611ee057600080fd5b8235611eeb81611d33565b91506020830135611efb81611d33565b809150509250929050565b600060208284031215611f1857600080fd5b813561ffff81168114611d0257600080fd5b60006102208284031215611f3d57600080fd5b50919050565b600080600080600060608688031215611f5b57600080fd5b8535611f6681611d33565b9450602086013567ffffffffffffffff80821115611f8357600080fd5b611f8f89838a01611d65565b90965094506040880135915080821115611fa857600080fd5b50611fb588828901611d65565b969995985093965092949392505050565b60208082526026908201527f41646d696e3a6f6e6c7941646d696e2063616c6c6572206973206e6f7420616e6040820152651020b236b4b760d11b606082015260800190565b6020808252602c908201527f46756e6374696f6e206d7573742062652063616c6c6564207468726f7567682060408201526b19195b1959d85d1958d85b1b60a21b606082015260800190565b6020808252602c908201527f46756e6374696f6e206d7573742062652063616c6c6564207468726f7567682060408201526b6163746976652070726f787960a01b606082015260800190565b634e487b7160e01b600052603260045260246000fd5b6000600182016120da57634e487b7160e01b600052601160045260246000fd5b5060010190565b6000602082840312156120f357600080fd5b5051919050565b6020808252602b908201527f496e697469616c697a61626c653a20636f6e7472616374206973206e6f74206960408201526a6e697469616c697a696e6760a81b606082015260800190565b60005b83811015612160578181015183820152602001612148565b50506000910152565b6000825161217b818460208701612145565b9190910192915050565b60208152600082518060208401526121a4816040850160208701612145565b601f01601f1916919091016040019291505056fe360894a13ba1a3210667c828492db98dca3e2076cc3735a920a3ca505d382bbc416464726573733a206c6f772d6c6576656c2064656c65676174652063616c6c206661696c6564a26469706673582212204efadbf7856270c451462b50c3d1b576db0fe39d25af434f32403e337278eaaf64736f6c63430008110033",
  "linkReferences": {},
  "deployedLinkReferences": {}
}