{
  "_format": "hh-sol-artifact-1",
  "contractName": "PlatformRegistry",
  "sourceName": "contracts/sbinft/market/v1/platform/PlatformRegistry.sol",
  "abi": [
    {
      "inputs": [
        {
          "internalType": "address",
          "name": "trustedForwarder",
          "type": "address"
        }
      ],
      "stateMutability": "nonpayable",
      "type": "constructor"
    },
    {
      "anonymous": false,
      "inputs": [
        {
          "indexed": false,
          "internalType": "address",
          "name": "",
          "type": "address"
        }
      ],
      "name": "AdminAdded",
      "type": "event"
    },
    {
      "anonymous": false,
      "inputs": [
        {
          "indexed": false,
          "internalType": "address",
          "name": "previousAdmin",
          "type": "address"
        },
        {
          "indexed": false,
          "internalType": "address",
          "name": "newAdmin",
          "type": "address"
        }
      ],
      "name": "AdminChanged",
      "type": "event"
    },
    {
      "anonymous": false,
      "inputs": [
        {
          "indexed": false,
          "internalType": "address",
          "name": "",
          "type": "address"
        }
      ],
      "name": "AdminRemoved",
      "type": "event"
    },
    {
      "anonymous": false,
      "inputs": [
        {
          "indexed": true,
          "internalType": "address",
          "name": "beacon",
          "type": "address"
        }
      ],
      "name": "BeaconUpgraded",
      "type": "event"
    },
    {
      "anonymous": false,
      "inputs": [
        {
          "indexed": false,
          "internalType": "address",
          "name": "addedToken",
          "type": "address"
        }
      ],
      "name": "ERC20AddedToWhitelist",
      "type": "event"
    },
    {
      "anonymous": false,
      "inputs": [
        {
          "indexed": false,
          "internalType": "address",
          "name": "removedToken",
          "type": "address"
        }
      ],
      "name": "ERC20RemovedFromWhitelist",
      "type": "event"
    },
    {
      "anonymous": false,
      "inputs": [
        {
          "indexed": true,
          "internalType": "address",
          "name": "platformSigner",
          "type": "address"
        },
        {
          "indexed": true,
          "internalType": "address",
          "name": "partnerPf",
          "type": "address"
        }
      ],
      "name": "ExternalPlatformFeeReceiverUpdated",
      "type": "event"
    },
    {
      "anonymous": false,
      "inputs": [
        {
          "indexed": false,
          "internalType": "uint8",
          "name": "version",
          "type": "uint8"
        }
      ],
      "name": "Initialized",
      "type": "event"
    },
    {
      "anonymous": false,
      "inputs": [
        {
          "indexed": true,
          "internalType": "address",
          "name": "collection",
          "type": "address"
        },
        {
          "indexed": true,
          "internalType": "address",
          "name": "partner",
          "type": "address"
        }
      ],
      "name": "PartnerFeeReceiverUpdated",
      "type": "event"
    },
    {
      "anonymous": false,
      "inputs": [
        {
          "indexed": false,
          "internalType": "uint16",
          "name": "pfFeelowerlimit",
          "type": "uint16"
        }
      ],
      "name": "PlatformFeeLowerRateUpdated",
      "type": "event"
    },
    {
      "anonymous": false,
      "inputs": [
        {
          "indexed": true,
          "internalType": "address",
          "name": "_pfFeeReceiver",
          "type": "address"
        }
      ],
      "name": "PlatformFeeReceiverUpdated",
      "type": "event"
    },
    {
      "anonymous": false,
      "inputs": [
        {
          "indexed": false,
          "internalType": "address",
          "name": "addedAddress",
          "type": "address"
        }
      ],
      "name": "PlatformSignerAdded",
      "type": "event"
    },
    {
      "anonymous": false,
      "inputs": [
        {
          "indexed": false,
          "internalType": "address",
          "name": "removedAddress",
          "type": "address"
        }
      ],
      "name": "PlatformSignerRemoved",
      "type": "event"
    },
    {
      "anonymous": false,
      "inputs": [
        {
          "indexed": true,
          "internalType": "address",
          "name": "implementation",
          "type": "address"
        }
      ],
      "name": "Upgraded",
      "type": "event"
    },
    {
      "inputs": [
        {
          "internalType": "address payable",
          "name": "_pfFeeReceiver_",
          "type": "address"
        },
        {
          "internalType": "address[]",
          "name": "_platformSignerList",
          "type": "address[]"
        },
        {
          "internalType": "address[]",
          "name": "_whitelistERC20List",
          "type": "address[]"
        }
      ],
      "name": "__PlatformRegistry_init",
      "outputs": [],
      "stateMutability": "nonpayable",
      "type": "function"
    },
    {
      "inputs": [
        {
          "internalType": "address[]",
          "name": "newAdmin",
          "type": "address[]"
        }
      ],
      "name": "addAdmin",
      "outputs": [],
      "stateMutability": "nonpayable",
      "type": "function"
    },
    {
      "inputs": [
        {
          "internalType": "address",
          "name": "newAdmin",
          "type": "address"
        }
      ],
      "name": "addAdmin",
      "outputs": [],
      "stateMutability": "nonpayable",
      "type": "function"
    },
    {
      "inputs": [
        {
          "internalType": "address[]",
          "name": "_platformSignerList",
          "type": "address[]"
        }
      ],
      "name": "addPlatformSigner",
      "outputs": [],
      "stateMutability": "nonpayable",
      "type": "function"
    },
    {
      "inputs": [
        {
          "internalType": "address[]",
          "name": "_addTokenList",
          "type": "address[]"
        }
      ],
      "name": "addToERC20Whitelist",
      "outputs": [],
      "stateMutability": "nonpayable",
      "type": "function"
    },
    {
      "inputs": [
        {
          "components": [
            {
              "internalType": "uint256",
              "name": "auctionId",
              "type": "uint256"
            },
            {
              "internalType": "bytes4",
              "name": "pfKind",
              "type": "bytes4"
            },
            {
              "internalType": "address payable",
              "name": "creatorAddress",
              "type": "address"
            },
            {
              "components": [
                {
                  "internalType": "bytes4",
                  "name": "originKind",
                  "type": "bytes4"
                },
                {
                  "internalType": "address",
                  "name": "asset",
                  "type": "address"
                },
                {
                  "internalType": "uint256",
                  "name": "assetId",
                  "type": "uint256"
                },
                {
                  "internalType": "uint16",
                  "name": "partnerFeeRate",
                  "type": "uint16"
                },
                {
                  "internalType": "uint8",
                  "name": "isSecondarySale",
                  "type": "uint8"
                }
              ],
              "internalType": "struct AuctionDomain.Asset",
              "name": "asset",
              "type": "tuple"
            },
            {
              "components": [
                {
                  "internalType": "bytes4",
                  "name": "auctionKind",
                  "type": "bytes4"
                },
                {
                  "internalType": "bytes4",
                  "name": "bidMode",
                  "type": "bytes4"
                },
                {
                  "internalType": "address",
                  "name": "paymentToken",
                  "type": "address"
                }
              ],
              "internalType": "struct AuctionDomain.AuctionType",
              "name": "auctionType",
              "type": "tuple"
            },
            {
              "internalType": "uint256",
              "name": "startPrice",
              "type": "uint256"
            },
            {
              "internalType": "uint256",
              "name": "startTime",
              "type": "uint256"
            },
            {
              "internalType": "uint256",
              "name": "endTime",
              "type": "uint256"
            },
            {
              "internalType": "uint16",
              "name": "pfFeeRate",
              "type": "uint16"
            },
            {
              "internalType": "uint16",
              "name": "externalPfFeeRate",
              "type": "uint16"
            },
            {
              "internalType": "address",
              "name": "platformSigner",
              "type": "address"
            }
          ],
          "internalType": "struct AuctionDomain.Auction",
          "name": "_auction",
          "type": "tuple"
        }
      ],
      "name": "checkParametaForAuctionCreate",
      "outputs": [],
      "stateMutability": "nonpayable",
      "type": "function"
    },
    {
      "inputs": [
        {
          "internalType": "address",
          "name": "_token",
          "type": "address"
        }
      ],
      "name": "getExternalPlatformFeeReceiver",
      "outputs": [
        {
          "internalType": "address payable",
          "name": "",
          "type": "address"
        }
      ],
      "stateMutability": "nonpayable",
      "type": "function"
    },
    {
      "inputs": [
        {
          "internalType": "address",
          "name": "_token",
          "type": "address"
        }
      ],
      "name": "getPartnerFeeReceiver",
      "outputs": [
        {
          "internalType": "address payable",
          "name": "",
          "type": "address"
        }
      ],
      "stateMutability": "nonpayable",
      "type": "function"
    },
    {
      "inputs": [],
      "name": "getPlatformFeeRateLowerLimit",
      "outputs": [
        {
          "internalType": "uint16",
          "name": "",
          "type": "uint16"
        }
      ],
      "stateMutability": "nonpayable",
      "type": "function"
    },
    {
      "inputs": [],
      "name": "getPlatformFeeReceiver",
      "outputs": [
        {
          "internalType": "address payable",
          "name": "",
          "type": "address"
        }
      ],
      "stateMutability": "view",
      "type": "function"
    },
    {
      "inputs": [
        {
          "internalType": "address",
          "name": "checkAdmin",
          "type": "address"
        }
      ],
      "name": "isAdmin",
      "outputs": [
        {
          "internalType": "bool",
          "name": "",
          "type": "bool"
        }
      ],
      "stateMutability": "view",
      "type": "function"
    },
    {
      "inputs": [
        {
          "internalType": "address",
          "name": "_collection",
          "type": "address"
        },
        {
          "internalType": "address",
          "name": "_partnerFeeReceiver",
          "type": "address"
        }
      ],
      "name": "isPartnerFeeReceiver",
      "outputs": [
        {
          "internalType": "bool",
          "name": "",
          "type": "bool"
        }
      ],
      "stateMutability": "view",
      "type": "function"
    },
    {
      "inputs": [
        {
          "internalType": "address",
          "name": "_signer",
          "type": "address"
        }
      ],
      "name": "isPlatformSigner",
      "outputs": [
        {
          "internalType": "bool",
          "name": "",
          "type": "bool"
        }
      ],
      "stateMutability": "view",
      "type": "function"
    },
    {
      "inputs": [
        {
          "internalType": "address",
          "name": "forwarder",
          "type": "address"
        }
      ],
      "name": "isTrustedForwarder",
      "outputs": [
        {
          "internalType": "bool",
          "name": "",
          "type": "bool"
        }
      ],
      "stateMutability": "view",
      "type": "function"
    },
    {
      "inputs": [
        {
          "internalType": "address",
          "name": "_token",
          "type": "address"
        }
      ],
      "name": "isWhitelistedERC20",
      "outputs": [
        {
          "internalType": "bool",
          "name": "",
          "type": "bool"
        }
      ],
      "stateMutability": "view",
      "type": "function"
    },
    {
      "inputs": [],
      "name": "proxiableUUID",
      "outputs": [
        {
          "internalType": "bytes32",
          "name": "",
          "type": "bytes32"
        }
      ],
      "stateMutability": "view",
      "type": "function"
    },
    {
      "inputs": [
        {
          "internalType": "address",
          "name": "admin",
          "type": "address"
        }
      ],
      "name": "removeAdmin",
      "outputs": [],
      "stateMutability": "nonpayable",
      "type": "function"
    },
    {
      "inputs": [
        {
          "internalType": "address[]",
          "name": "_removeTokenList",
          "type": "address[]"
        }
      ],
      "name": "removeFromERC20Whitelist",
      "outputs": [],
      "stateMutability": "nonpayable",
      "type": "function"
    },
    {
      "inputs": [
        {
          "internalType": "address[]",
          "name": "_platformSignerList",
          "type": "address[]"
        }
      ],
      "name": "removePlatformSigner",
      "outputs": [],
      "stateMutability": "nonpayable",
      "type": "function"
    },
    {
      "inputs": [
        {
          "internalType": "bytes4",
          "name": "_interfaceId",
          "type": "bytes4"
        }
      ],
      "name": "supportsInterface",
      "outputs": [
        {
          "internalType": "bool",
          "name": "",
          "type": "bool"
        }
      ],
      "stateMutability": "view",
      "type": "function"
    },
    {
      "inputs": [
        {
          "internalType": "address",
          "name": "_externalPlatformToken",
          "type": "address"
        },
        {
          "internalType": "address payable",
          "name": "_partnerPfFeeReceiver",
          "type": "address"
        }
      ],
      "name": "updateExternalPlatformFeeReceiver",
      "outputs": [],
      "stateMutability": "nonpayable",
      "type": "function"
    },
    {
      "inputs": [
        {
          "internalType": "address",
          "name": "collection",
          "type": "address"
        },
        {
          "internalType": "address payable",
          "name": "partnerFeeReceiver",
          "type": "address"
        },
        {
          "internalType": "bytes",
          "name": "sign",
          "type": "bytes"
        }
      ],
      "name": "updatePartnerFeeReceiver",
      "outputs": [],
      "stateMutability": "nonpayable",
      "type": "function"
    },
    {
      "inputs": [
        {
          "internalType": "uint16",
          "name": "_platformFeeLowerLimit",
          "type": "uint16"
        }
      ],
      "name": "updatePlatformFeeLowerLimit",
      "outputs": [],
      "stateMutability": "nonpayable",
      "type": "function"
    },
    {
      "inputs": [
        {
          "internalType": "address payable",
          "name": "_newPlatformFeeReceiver",
          "type": "address"
        }
      ],
      "name": "updatePlatformFeeReceiver",
      "outputs": [],
      "stateMutability": "nonpayable",
      "type": "function"
    },
    {
      "inputs": [
        {
          "internalType": "address",
          "name": "newImplementation",
          "type": "address"
        }
      ],
      "name": "upgradeTo",
      "outputs": [],
      "stateMutability": "nonpayable",
      "type": "function"
    },
    {
      "inputs": [
        {
          "internalType": "address",
          "name": "newImplementation",
          "type": "address"
        },
        {
          "internalType": "bytes",
          "name": "data",
          "type": "bytes"
        }
      ],
      "name": "upgradeToAndCall",
      "outputs": [],
      "stateMutability": "payable",
      "type": "function"
    }
  ],
  "bytecode": "0x60c06040523060a0523480156200001557600080fd5b5060405162002bb038038062002bb0833981016040819052620000389162000118565b6001600160a01b0381166080526200004f62000056565b506200014a565b600054610100900460ff1615620000c35760405162461bcd60e51b815260206004820152602760248201527f496e697469616c697a61626c653a20636f6e747261637420697320696e697469604482015266616c697a696e6760c81b606482015260840160405180910390fd5b60005460ff908116101562000116576000805460ff191660ff9081179091556040519081527f7f26b83ff96e1f2b6a682f133852f6798a09c465da95921460cefb38474024989060200160405180910390a15b565b6000602082840312156200012b57600080fd5b81516001600160a01b03811681146200014357600080fd5b9392505050565b60805160a051612a1d62000193600039600081816106bd015281816106fd015281816109250152818161096501526109f80152600081816103af0152611e690152612a1d6000f3fe6080604052600436106101815760003560e01c80636859c996116100d15780639d72db521161008a578063a5366ecb11610064578063a5366ecb14610518578063cd4a0f3414610538578063da5f2d9214610558578063f815d6cf1461057857600080fd5b80639d72db52146104b85780639df09564146104d85780639fac71ad146104f857600080fd5b80636859c996146103df5780637048027514610419578063707d1848146104395780637d4bc8b7146104585780638ef59b7c1461047857806392b1ea521461049857600080fd5b806344057f631161013e5780635247385c116101185780635247385c1461031557806352d1902d1461034f578063552f41e014610372578063572b6c051461039257600080fd5b806344057f63146102a85780634d4ed32c146102c85780634f1ef2861461030257600080fd5b806301ffc9a7146101865780631785f53c146101bb57806324d7806c146101dd5780632888241b146102165780633659cfe6146102685780633d0950a814610288575b600080fd5b34801561019257600080fd5b506101a66101a1366004612450565b61059c565b60405190151581526020015b60405180910390f35b3480156101c757600080fd5b506101db6101d636600461248f565b6105d3565b005b3480156101e957600080fd5b506101a66101f836600461248f565b6001600160a01b031660009081526099602052604090205460ff1690565b34801561022257600080fd5b5061025061023136600461248f565b6001600160a01b03908116600090815261013560205260409020541690565b6040516001600160a01b0390911681526020016101b2565b34801561027457600080fd5b506101db61028336600461248f565b6106b3565b34801561029457600080fd5b506101db6102a33660046124f1565b61078f565b3480156102b457600080fd5b506101db6102c33660046124f1565b610825565b3480156102d457600080fd5b506101a66102e336600461248f565b6001600160a01b03166000908152610133602052604090205460ff1690565b6101db610310366004612549565b61091b565b34801561032157600080fd5b506101a661033036600461248f565b6001600160a01b03166000908152610132602052604090205460ff1690565b34801561035b57600080fd5b506103646109eb565b6040519081526020016101b2565b34801561037e57600080fd5b506101db61038d36600461248f565b610a9e565b34801561039e57600080fd5b506101a66103ad36600461248f565b7f00000000000000000000000000000000000000000000000000000000000000006001600160a01b0390811691161490565b3480156103eb57600080fd5b506102506103fa36600461248f565b6001600160a01b03908116600090815261013160205260409020541690565b34801561042557600080fd5b506101db61043436600461248f565b610b71565b34801561044557600080fd5b50610130546001600160a01b0316610250565b34801561046457600080fd5b506101db6104733660046124f1565b610bbf565b34801561048457600080fd5b506101db61049336600461260d565b610ccc565b3480156104a457600080fd5b506101db6104b3366004612631565b610d5d565b3480156104c457600080fd5b506101db6104d336600461264a565b6111ff565b3480156104e457600080fd5b506101db6104f33660046126dc565b611444565b34801561050457600080fd5b506101a661051336600461275f565b6115e1565b34801561052457600080fd5b506101db6105333660046124f1565b61168f565b34801561054457600080fd5b506101db6105533660046124f1565b611782565b34801561056457600080fd5b506101db61057336600461275f565b611875565b34801561058457600080fd5b506101345460405161ffff90911681526020016101b2565b60006001600160e01b03198216630bb454f960e11b14806105cd57506301ffc9a760e01b6001600160e01b03198316145b92915050565b609960006105df61199a565b6001600160a01b0316815260208101919091526040016000205460ff166106215760405162461bcd60e51b815260040161061890612798565b60405180910390fd5b6001600160a01b03811660009081526099602052604090205460ff166106a75760405162461bcd60e51b815260206004820152603560248201527f41646d696e3a72656d6f766541646d696e20747279696e6720746f2072656d6f6044820152743b32903737b71032bc34b9ba34b7339020b236b4b760591b6064820152608401610618565b6106b0816119a9565b50565b6001600160a01b037f00000000000000000000000000000000000000000000000000000000000000001630036106fb5760405162461bcd60e51b8152600401610618906127de565b7f00000000000000000000000000000000000000000000000000000000000000006001600160a01b03166107446000805160206129a1833981519152546001600160a01b031690565b6001600160a01b03161461076a5760405162461bcd60e51b81526004016106189061282a565b610773816119fa565b604080516000808252602082019092526106b091839190611a3f565b6099600061079b61199a565b6001600160a01b0316815260208101919091526040016000205460ff166107d45760405162461bcd60e51b815260040161061890612798565b60005b818110156108205761080e8383838181106107f4576107f4612876565b9050602002016020810190610809919061248f565b611baa565b806108188161288c565b9150506107d7565b505050565b6099600061083161199a565b6001600160a01b0316815260208101919091526040016000205460ff1661086a5760405162461bcd60e51b815260040161061890612798565b60005b8181101561082057600083838381811061088957610889612876565b905060200201602081019061089e919061248f565b90506001600160a01b03811615610908576001600160a01b03811660008181526101336020908152604091829020805460ff1916600117905590519182527f64493f6b58fecf0b5963bd190327c4b5551e5774b83eb602f868be392da8a782910160405180910390a15b50806109138161288c565b91505061086d565b6001600160a01b037f00000000000000000000000000000000000000000000000000000000000000001630036109635760405162461bcd60e51b8152600401610618906127de565b7f00000000000000000000000000000000000000000000000000000000000000006001600160a01b03166109ac6000805160206129a1833981519152546001600160a01b031690565b6001600160a01b0316146109d25760405162461bcd60e51b81526004016106189061282a565b6109db826119fa565b6109e782826001611a3f565b5050565b6000306001600160a01b037f00000000000000000000000000000000000000000000000000000000000000001614610a8b5760405162461bcd60e51b815260206004820152603860248201527f555550535570677261646561626c653a206d757374206e6f742062652063616c60448201527f6c6564207468726f7567682064656c656761746563616c6c00000000000000006064820152608401610618565b506000805160206129a183398151915290565b60996000610aaa61199a565b6001600160a01b0316815260208101919091526040016000205460ff16610ae35760405162461bcd60e51b815260040161061890612798565b6001600160a01b038116610b265760405162461bcd60e51b815260206004820152600a602482015269503a555046523a505a4160b01b6044820152606401610618565b61013080546001600160a01b0319166001600160a01b0383169081179091556040517f5424f6f81faafe9238c4d58ac76299338deab37460d10288e02776c68c8d5b6390600090a250565b60996000610b7d61199a565b6001600160a01b0316815260208101919091526040016000205460ff16610bb65760405162461bcd60e51b815260040161061890612798565b6106b081611baa565b60996000610bcb61199a565b6001600160a01b0316815260208101919091526040016000205460ff16610c045760405162461bcd60e51b815260040161061890612798565b60005b81811015610820576000838383818110610c2357610c23612876565b9050602002016020810190610c38919061248f565b90506001600160a01b03811615801590610c5b57506001600160a01b0381163b15155b15610cb9576001600160a01b03811660008181526101326020908152604091829020805460ff1916600117905590519182527f45f42530e679dbd12f34bd60947483f7fc4d07a0cb66ededb2261c4206d4563a910160405180910390a15b5080610cc48161288c565b915050610c07565b60996000610cd861199a565b6001600160a01b0316815260208101919091526040016000205460ff16610d115760405162461bcd60e51b815260040161061890612798565b610134805461ffff191661ffff83169081179091556040519081527f9b5540d1b8eea14606b74b2167809eda8828fb3cb906886fa9b42f34d78f43db906020015b60405180910390a150565b610d75610d706040830160208401612450565b611c68565b610db05760405162461bcd60e51b815260206004820152600c60248201526b413a43504641433a4149504b60a01b6044820152606401610618565b6000610dc2606083016040840161248f565b6001600160a01b031603610e075760405162461bcd60e51b815260206004820152600c60248201526b413a43504641433a4149434160a01b6044820152606401610618565b610e1f610e1a6080830160608401612450565b611c9e565b610e5a5760405162461bcd60e51b815260206004820152600c60248201526b413a43504641433a5341494f60a01b6044820152606401610618565b610e7c610e6d60a083016080840161248f565b6001600160a01b03163b151590565b610eb85760405162461bcd60e51b815260206004820152600d60248201526c413a43504641433a534149414160981b6044820152606401610618565b60a0810135600003610efc5760405162461bcd60e51b815260206004820152600d60248201526c413a43504641433a534149414960981b6044820152606401610618565b610f16610f1161014083016101208401612450565b611cd4565b610f525760405162461bcd60e51b815260206004820152600d60248201526c413a43504641433a425449424d60981b6044820152606401610618565b610f6c610f6761012083016101008401612450565b611d40565b610fa95760405162461bcd60e51b815260206004820152600e60248201526d413a43504641433a42544942454d60901b6044820152606401610618565b6000610fbd6101608301610140840161248f565b6001600160a01b03161480610fe25750610fe2610e6d6101608301610140840161248f565b61101e5760405162461bcd60e51b815260206004820152600d60248201526c413a43504641433a425449544160981b6044820152606401610618565b42816101800135116110605760405162461bcd60e51b815260206004820152600b60248201526a413a43504641433a53544960a81b6044820152606401610618565b806101800135816101a00135116110ab5760405162461bcd60e51b815260206004820152600f60248201526e104e90d4119050ce915512509514d5608a1b6044820152606401610618565b6101345461ffff166110c56101e083016101c0840161260d565b61ffff1610156111085760405162461bcd60e51b815260206004820152600e60248201526d104e90d4119050ce90541193151360921b6044820152606401610618565b6101345461ffff1661112261020083016101e0840161260d565b61ffff16101580611146575061114061020082016101e0830161260d565b61ffff16155b6111835760405162461bcd60e51b815260206004820152600e60248201526d209d21a82320a19d20a4a828232960911b6044820152606401610618565b60006111976102208301610200840161248f565b6001600160a01b0316141580156111be57506111be6102e36102208301610200840161248f565b6106b05760405162461bcd60e51b8152602060048201526012602482015271413a43504641433a414950537c50534e504160701b6044820152606401610618565b6001600160a01b0384163b6112445760405162461bcd60e51b815260206004820152600b60248201526a503a555046523a5043434160a81b6044820152606401610618565b6001600160a01b0383166112885760405162461bcd60e51b815260206004820152600b60248201526a503a555046523a4e505a4160a81b6044820152606401610618565b6112936101f861199a565b15156000036113ea57604080517f393608ae61d9f6d4e890b36cfab0c4641cb9cffc350d2e38e827935c783fbc1460208201526001600160a01b03808716928201929092529084166060820152600090608001604051602081830303815290604052805190602001209050600061138984848080601f01602080910402602001604051908101604052809392919081815260200183838082843760009201919091525061138392508691506113489050611d76565b6040805161190160f01b6020808301919091526022820193909352604280820194909452815180820390940184526062019052815191012090565b90611dad565b90506113ae816001600160a01b03166000908152610133602052604090205460ff1690565b6113e75760405162461bcd60e51b815260206004820152600a602482015269503a555046523a49505360b01b6044820152606401610618565b50505b6001600160a01b038481166000818152610131602052604080822080546001600160a01b0319169488169485179055517f589ee4ae06bae381d455f1c3ce0c6724aee594ddbcab920f9a5a504de9943d989190a350505050565b600054610100900460ff16158080156114645750600054600160ff909116105b8061147e5750303b15801561147e575060005460ff166001145b6114e15760405162461bcd60e51b815260206004820152602e60248201527f496e697469616c697a61626c653a20636f6e747261637420697320616c72656160448201526d191e481a5b9a5d1a585b1a5e995960921b6064820152608401610618565b6000805460ff191660011790558015611504576000805461ff0019166101001790555b61150c611dd1565b611514611dfa565b61156e6040518060400160405280601881526020017f5342494e465420506c6174666f726d2052656769737472790000000000000000815250604051806040016040528060038152602001620312e360ec1b815250611e34565b611576611dd1565b61157f86610a9e565b6115898585610825565b6115938383610bbf565b80156115d9576000805461ff0019169055604051600181527f7f26b83ff96e1f2b6a682f133852f6798a09c465da95921460cefb38474024989060200160405180910390a15b505050505050565b60006001600160a01b0383166116275760405162461bcd60e51b815260206004820152600b60248201526a503a495046523a434e5a4160a81b6044820152606401610618565b6001600160a01b03821661166b5760405162461bcd60e51b815260206004820152600b60248201526a503a495046523a504e5a4160a81b6044820152606401610618565b506001600160a01b0391821660009081526101316020526040902054821691161490565b6099600061169b61199a565b6001600160a01b0316815260208101919091526040016000205460ff166116d45760405162461bcd60e51b815260040161061890612798565b60005b818110156108205760008383838181106116f3576116f3612876565b9050602002016020810190611708919061248f565b90506001600160a01b0381161561176f576001600160a01b03811660008181526101326020908152604091829020805460ff1916905590519182527f72a26be94b6f8ff29d401781a1851d009dae9befe1bfe300fabf2e03146ea763910160405180910390a15b508061177a8161288c565b9150506116d7565b6099600061178e61199a565b6001600160a01b0316815260208101919091526040016000205460ff166117c75760405162461bcd60e51b815260040161061890612798565b60005b818110156108205760008383838181106117e6576117e6612876565b90506020020160208101906117fb919061248f565b90506001600160a01b03811615611862576001600160a01b03811660008181526101336020908152604091829020805460ff1916905590519182527f81bf64040664fa99957e018a931d568ee336fb32f976e4c36b27b331906e5167910160405180910390a15b508061186d8161288c565b9150506117ca565b6099600061188161199a565b6001600160a01b0316815260208101919091526040016000205460ff166118ba5760405162461bcd60e51b815260040161061890612798565b6001600160a01b0382166118fe5760405162461bcd60e51b815260206004820152600b60248201526a413a555046523a4e505a4160a81b6044820152606401610618565b6001600160a01b0381166119425760405162461bcd60e51b815260206004820152600b60248201526a413a555046523a4e505a4160a81b6044820152606401610618565b6001600160a01b038281166000818152610135602052604080822080546001600160a01b0319169486169485179055517ffae5b4c04d3cf2324d5fb190022c792c8c5577d9e743cb88a04bca4aaca08a219190a35050565b60006119a4611e65565b905090565b6001600160a01b038116600081815260996020908152604091829020805460ff1916905590519182527fa3b62bc36326052d97ea62d63c3d60308ed4c3ea8ac079dd8499f1e9c4f80c0f9101610d52565b60996000611a0661199a565b6001600160a01b0316815260208101919091526040016000205460ff166106b05760405162461bcd60e51b815260040161061890612798565b7f4910fdfa16fed3260ed0e7147f7cc6da11a60208b5b9406d12a635614ffd91435460ff1615611a725761082083611ea9565b826001600160a01b03166352d1902d6040518163ffffffff1660e01b8152600401602060405180830381865afa925050508015611acc575060408051601f3d908101601f19168201909252611ac9918101906128b3565b60015b611b2f5760405162461bcd60e51b815260206004820152602e60248201527f45524331393637557067726164653a206e657720696d706c656d656e7461746960448201526d6f6e206973206e6f74205555505360901b6064820152608401610618565b6000805160206129a18339815191528114611b9e5760405162461bcd60e51b815260206004820152602960248201527f45524331393637557067726164653a20756e737570706f727465642070726f786044820152681a58589b195555525160ba1b6064820152608401610618565b50610820838383611f45565b6001600160a01b038116611c145760405162461bcd60e51b815260206004820152602b60248201527f41646d696e3a61646441646d696e206e657741646d696e20697320746865207a60448201526a65726f206164647265737360a81b6064820152608401610618565b6001600160a01b038116600081815260996020908152604091829020805460ff1916600117905590519182527f44d6d25963f097ad14f29f06854a01f575648a1ef82f30e562ccd3889717e3399101610d52565b60006001600160e01b03198216636026fea760e11b14806105cd57506001600160e01b03198216630f5b45a760e41b1492915050565b60006001600160e01b03198216639e80de3760e01b14806105cd57506001600160e01b0319821663163b6d3b60e21b1492915050565b60006001600160e01b0319821663fdae1ba760e01b1480611d0557506001600160e01b031982166322ba176160e21b145b80611d2057506001600160e01b03198216633ecaa07960e21b145b806105cd57506001600160e01b0319821663d5a81f1960e01b1492915050565b60006001600160e01b031982166322ebf8cd60e21b14806105cd57506001600160e01b031982166351e7b92b60e01b1492915050565b60006119a47f8b73c3c69bb8fe3d512ecc4cf759cc79239f7b179b0ffacaa9a75d522b39400f611da560015490565b600254611f70565b6000806000611dbc8585611fba565b91509150611dc981611fff565b509392505050565b600054610100900460ff16611df85760405162461bcd60e51b8152600401610618906128cc565b565b600054610100900460ff16611e215760405162461bcd60e51b8152600401610618906128cc565b611e29611dd1565b611df861080961199a565b600054610100900460ff16611e5b5760405162461bcd60e51b8152600401610618906128cc565b6109e782826121b5565b60007f00000000000000000000000000000000000000000000000000000000000000006001600160a01b03163303611ea4575060131936013560601c90565b503390565b6001600160a01b0381163b611f165760405162461bcd60e51b815260206004820152602d60248201527f455243313936373a206e657720696d706c656d656e746174696f6e206973206e60448201526c1bdd08184818dbdb9d1c9858dd609a1b6064820152608401610618565b6000805160206129a183398151915280546001600160a01b0319166001600160a01b0392909216919091179055565b611f4e836121f6565b600082511180611f5b5750805b1561082057611f6a8383612236565b50505050565b6040805160208101859052908101839052606081018290524660808201523060a082015260009060c0016040516020818303038152906040528051906020012090505b9392505050565b6000808251604103611ff05760208301516040840151606085015160001a611fe48782858561232a565b94509450505050611ff8565b506000905060025b9250929050565b600081600481111561201357612013612917565b0361201b5750565b600181600481111561202f5761202f612917565b0361207c5760405162461bcd60e51b815260206004820152601860248201527f45434453413a20696e76616c6964207369676e617475726500000000000000006044820152606401610618565b600281600481111561209057612090612917565b036120dd5760405162461bcd60e51b815260206004820152601f60248201527f45434453413a20696e76616c6964207369676e6174757265206c656e677468006044820152606401610618565b60038160048111156120f1576120f1612917565b036121495760405162461bcd60e51b815260206004820152602260248201527f45434453413a20696e76616c6964207369676e6174757265202773272076616c604482015261756560f01b6064820152608401610618565b600481600481111561215d5761215d612917565b036106b05760405162461bcd60e51b815260206004820152602260248201527f45434453413a20696e76616c6964207369676e6174757265202776272076616c604482015261756560f01b6064820152608401610618565b600054610100900460ff166121dc5760405162461bcd60e51b8152600401610618906128cc565b815160209283012081519190920120600191909155600255565b6121ff81611ea9565b6040516001600160a01b038216907fbc7cd75a20ee27fd9adebab32041f755214dbc6bffa90cc0225b39da2e5c2d3b90600090a250565b60606001600160a01b0383163b61229e5760405162461bcd60e51b815260206004820152602660248201527f416464726573733a2064656c65676174652063616c6c20746f206e6f6e2d636f6044820152651b9d1c9858dd60d21b6064820152608401610618565b600080846001600160a01b0316846040516122b99190612951565b600060405180830381855af49150503d80600081146122f4576040519150601f19603f3d011682016040523d82523d6000602084013e6122f9565b606091505b509150915061232182826040518060600160405280602781526020016129c160279139612417565b95945050505050565b6000807f7fffffffffffffffffffffffffffffff5d576e7357a4501ddfe92f46681b20a0831115612361575060009050600361240e565b8460ff16601b1415801561237957508460ff16601c14155b1561238a575060009050600461240e565b6040805160008082526020820180845289905260ff881692820192909252606081018690526080810185905260019060a0016020604051602081039080840390855afa1580156123de573d6000803e3d6000fd5b5050604051601f1901519150506001600160a01b0381166124075760006001925092505061240e565b9150600090505b94509492505050565b60608315612426575081611fb3565b8251156124365782518084602001fd5b8160405162461bcd60e51b8152600401610618919061296d565b60006020828403121561246257600080fd5b81356001600160e01b031981168114611fb357600080fd5b6001600160a01b03811681146106b057600080fd5b6000602082840312156124a157600080fd5b8135611fb38161247a565b60008083601f8401126124be57600080fd5b50813567ffffffffffffffff8111156124d657600080fd5b6020830191508360208260051b8501011115611ff857600080fd5b6000806020838503121561250457600080fd5b823567ffffffffffffffff81111561251b57600080fd5b612527858286016124ac565b90969095509350505050565b634e487b7160e01b600052604160045260246000fd5b6000806040838503121561255c57600080fd5b82356125678161247a565b9150602083013567ffffffffffffffff8082111561258457600080fd5b818501915085601f83011261259857600080fd5b8135818111156125aa576125aa612533565b604051601f8201601f19908116603f011681019083821181831017156125d2576125d2612533565b816040528281528860208487010111156125eb57600080fd5b8260208601602083013760006020848301015280955050505050509250929050565b60006020828403121561261f57600080fd5b813561ffff81168114611fb357600080fd5b6000610220828403121561264457600080fd5b50919050565b6000806000806060858703121561266057600080fd5b843561266b8161247a565b9350602085013561267b8161247a565b9250604085013567ffffffffffffffff8082111561269857600080fd5b818701915087601f8301126126ac57600080fd5b8135818111156126bb57600080fd5b8860208285010111156126cd57600080fd5b95989497505060200194505050565b6000806000806000606086880312156126f457600080fd5b85356126ff8161247a565b9450602086013567ffffffffffffffff8082111561271c57600080fd5b61272889838a016124ac565b9096509450604088013591508082111561274157600080fd5b5061274e888289016124ac565b969995985093965092949392505050565b6000806040838503121561277257600080fd5b823561277d8161247a565b9150602083013561278d8161247a565b809150509250929050565b60208082526026908201527f41646d696e3a6f6e6c7941646d696e2063616c6c6572206973206e6f7420616e6040820152651020b236b4b760d11b606082015260800190565b6020808252602c908201527f46756e6374696f6e206d7573742062652063616c6c6564207468726f7567682060408201526b19195b1959d85d1958d85b1b60a21b606082015260800190565b6020808252602c908201527f46756e6374696f6e206d7573742062652063616c6c6564207468726f7567682060408201526b6163746976652070726f787960a01b606082015260800190565b634e487b7160e01b600052603260045260246000fd5b6000600182016128ac57634e487b7160e01b600052601160045260246000fd5b5060010190565b6000602082840312156128c557600080fd5b5051919050565b6020808252602b908201527f496e697469616c697a61626c653a20636f6e7472616374206973206e6f74206960408201526a6e697469616c697a696e6760a81b606082015260800190565b634e487b7160e01b600052602160045260246000fd5b60005b83811015612948578181015183820152602001612930565b50506000910152565b6000825161296381846020870161292d565b9190910192915050565b602081526000825180602084015261298c81604085016020870161292d565b601f01601f1916919091016040019291505056fe360894a13ba1a3210667c828492db98dca3e2076cc3735a920a3ca505d382bbc416464726573733a206c6f772d6c6576656c2064656c65676174652063616c6c206661696c6564a2646970667358221220a1226ab17ec6875f29fe652cc5e5bb7f090e8a074e0c74f1515239a7598de2ec64736f6c63430008110033",
  "linkReferences": {},
  "deployedLinkReferences": {}
}