{
  "_format": "hh-sol-artifact-1",
  "contractName": "AuctionDomain",
  "sourceName": "contracts/sbinft/market/v1/library/AuctionDomain.sol",
  "abi": [
    {
      "inputs": [],
      "name": "CREDIT_CARD_BID_MODE",
      "outputs": [
        {
          "internalType": "bytes4",
          "name": "",
          "type": "bytes4"
        }
      ],
      "stateMutability": "view",
      "type": "function"
    },
    {
      "inputs": [],
      "name": "ERC20_BID_MODE",
      "outputs": [
        {
          "internalType": "bytes4",
          "name": "",
          "type": "bytes4"
        }
      ],
      "stateMutability": "view",
      "type": "function"
    },
    {
      "inputs": [],
      "name": "EXPANDABLE_AUCTION_KIND",
      "outputs": [
        {
          "internalType": "bytes4",
          "name": "",
          "type": "bytes4"
        }
      ],
      "stateMutability": "view",
      "type": "function"
    },
    {
      "inputs": [],
      "name": "EXTERNAL_PF_KIND",
      "outputs": [
        {
          "internalType": "bytes4",
          "name": "",
          "type": "bytes4"
        }
      ],
      "stateMutability": "view",
      "type": "function"
    },
    {
      "inputs": [],
      "name": "NANAKUSA_ORIGIN_KIND",
      "outputs": [
        {
          "internalType": "bytes4",
          "name": "",
          "type": "bytes4"
        }
      ],
      "stateMutability": "view",
      "type": "function"
    },
    {
      "inputs": [],
      "name": "NATIVE_BID_MODE",
      "outputs": [
        {
          "internalType": "bytes4",
          "name": "",
          "type": "bytes4"
        }
      ],
      "stateMutability": "view",
      "type": "function"
    },
    {
      "inputs": [],
      "name": "NON_EXPANDABLE_AUCTION_KIND",
      "outputs": [
        {
          "internalType": "bytes4",
          "name": "",
          "type": "bytes4"
        }
      ],
      "stateMutability": "view",
      "type": "function"
    },
    {
      "inputs": [],
      "name": "OTHER_BLOCKCHAIN_BID_MODE",
      "outputs": [
        {
          "internalType": "bytes4",
          "name": "",
          "type": "bytes4"
        }
      ],
      "stateMutability": "view",
      "type": "function"
    },
    {
      "inputs": [],
      "name": "PARTNER_ORIGIN_KIND",
      "outputs": [
        {
          "internalType": "bytes4",
          "name": "",
          "type": "bytes4"
        }
      ],
      "stateMutability": "view",
      "type": "function"
    },
    {
      "inputs": [],
      "name": "SBINFT_PF_KIND",
      "outputs": [
        {
          "internalType": "bytes4",
          "name": "",
          "type": "bytes4"
        }
      ],
      "stateMutability": "view",
      "type": "function"
    }
  ],
  "bytecode": "0x61028661003a600b82828239805160001a60731461002d57634e487b7160e01b600052600060045260246000fd5b30600052607381538281f3fe73000000000000000000000000000000000000000030146080604052600436106100a85760003560e01c80636cf44a15116100705780636cf44a151461018d5780639a44fdd3146101b4578063a74f0b53146101db578063b169e80814610202578063f910255c1461022957600080fd5b8063150d685e146100ad57806318e77885146100f157806342e462191461011857806355920b711461013f578063567601ee14610166575b600080fd5b6100d47fc04dfd4ebc3f5453d8fca446e264a1eb17d4749c47f02275bc065089d6b11a1481565b6040516001600160e01b0319909116815260200160405180910390f35b6100d47f8ae85d849167ff996c04040c44924fd364217285e4cad818292c7ac37c0a345b81565b6100d47ffb2a81e439fcb0d270a5ea72f3da02a2e3046db927e15a0a83f8f148f49c7a0681565b6100d47ff5b45a70bd80d38f3cb0e32e43161b54c18580bfc60b41dc6b995dbcbf980aa281565b6100d47f9e80de37358aa46f5326d3757855b42cf1abb591bc5d140f3bbe347af2edc09c81565b6100d47f51e7b92b1ddeeba4d6bba7fb5f6491d2bb0884b56926018096b284831126e03881565b6100d47fd5a81f19989564e7de9f21d91845d08c0bf057aeb713b1b224ea07390180503381565b6100d47ffdae1ba7c826abdc4c99903c8056f82a1a04a615c94c895c32d24a82e8ecf7cd81565b6100d47f58edb4ecb5286cf3567882e35263b240c6a50a69b20e370d9bff27b56c1a1ce481565b6100d47f8bafe3343eb21af6e2b0eae5680f11d9479b79401b727fade98ec70da2e8ea5d8156fea2646970667358221220f096e496f4ca5e6f9478ad3d6d425c60c7193cf0a3b02ad194d3526e2e1bf72a64736f6c63430008110033",
  "linkReferences": {},
  "deployedLinkReferences": {}
}