{
  "_format": "hh-sol-artifact-1",
  "contractName": "Exchange",
  "sourceName": "contracts/sbinft/market/v1/exchange/Exchange.sol",
  "abi": [
    {
      "inputs": [],
      "stateMutability": "nonpayable",
      "type": "constructor"
    },
    {
      "anonymous": false,
      "inputs": [
        {
          "indexed": false,
          "internalType": "address",
          "name": "",
          "type": "address"
        }
      ],
      "name": "AdminAdded",
      "type": "event"
    },
    {
      "anonymous": false,
      "inputs": [
        {
          "indexed": false,
          "internalType": "address",
          "name": "previousAdmin",
          "type": "address"
        },
        {
          "indexed": false,
          "internalType": "address",
          "name": "newAdmin",
          "type": "address"
        }
      ],
      "name": "AdminChanged",
      "type": "event"
    },
    {
      "anonymous": false,
      "inputs": [
        {
          "indexed": false,
          "internalType": "address",
          "name": "",
          "type": "address"
        }
      ],
      "name": "AdminRemoved",
      "type": "event"
    },
    {
      "anonymous": false,
      "inputs": [
        {
          "indexed": true,
          "internalType": "address",
          "name": "beacon",
          "type": "address"
        }
      ],
      "name": "BeaconUpgraded",
      "type": "event"
    },
    {
      "anonymous": false,
      "inputs": [
        {
          "indexed": false,
          "internalType": "uint8",
          "name": "version",
          "type": "uint8"
        }
      ],
      "name": "Initialized",
      "type": "event"
    },
    {
      "anonymous": false,
      "inputs": [
        {
          "indexed": true,
          "internalType": "uint256",
          "name": "nounce",
          "type": "uint256"
        }
      ],
      "name": "OrderCancelled",
      "type": "event"
    },
    {
      "anonymous": false,
      "inputs": [
        {
          "indexed": false,
          "internalType": "address",
          "name": "account",
          "type": "address"
        }
      ],
      "name": "Paused",
      "type": "event"
    },
    {
      "anonymous": false,
      "inputs": [
        {
          "indexed": true,
          "internalType": "contract IPlatformRegistry",
          "name": "platformRegistry",
          "type": "address"
        }
      ],
      "name": "PlatformRegistryUpdated",
      "type": "event"
    },
    {
      "anonymous": false,
      "inputs": [
        {
          "indexed": true,
          "internalType": "contract IRoyaltyRegistry",
          "name": "royaltyRegistry",
          "type": "address"
        }
      ],
      "name": "RoyaltyRegistryUpdated",
      "type": "event"
    },
    {
      "anonymous": false,
      "inputs": [
        {
          "indexed": true,
          "internalType": "uint256",
          "name": "nounce",
          "type": "uint256"
        }
      ],
      "name": "Sale",
      "type": "event"
    },
    {
      "anonymous": false,
      "inputs": [
        {
          "indexed": true,
          "internalType": "contract ITransferProxy",
          "name": "transferProxy",
          "type": "address"
        }
      ],
      "name": "TransferProxyUpdated",
      "type": "event"
    },
    {
      "anonymous": false,
      "inputs": [
        {
          "indexed": false,
          "internalType": "address",
          "name": "account",
          "type": "address"
        }
      ],
      "name": "Unpaused",
      "type": "event"
    },
    {
      "anonymous": false,
      "inputs": [
        {
          "indexed": true,
          "internalType": "address",
          "name": "implementation",
          "type": "address"
        }
      ],
      "name": "Upgraded",
      "type": "event"
    },
    {
      "inputs": [
        {
          "internalType": "contract IPlatformRegistry",
          "name": "_platformRegistry",
          "type": "address"
        },
        {
          "internalType": "contract IRoyaltyRegistry",
          "name": "_royaltyManager",
          "type": "address"
        },
        {
          "internalType": "contract ITransferProxy",
          "name": "_transferProxy",
          "type": "address"
        }
      ],
      "name": "__Exchange_init",
      "outputs": [],
      "stateMutability": "nonpayable",
      "type": "function"
    },
    {
      "inputs": [
        {
          "internalType": "address[]",
          "name": "newAdmin",
          "type": "address[]"
        }
      ],
      "name": "addAdmin",
      "outputs": [],
      "stateMutability": "nonpayable",
      "type": "function"
    },
    {
      "inputs": [
        {
          "internalType": "address",
          "name": "newAdmin",
          "type": "address"
        }
      ],
      "name": "addAdmin",
      "outputs": [],
      "stateMutability": "nonpayable",
      "type": "function"
    },
    {
      "inputs": [
        {
          "components": [
            {
              "components": [
                {
                  "internalType": "bytes4",
                  "name": "originKind",
                  "type": "bytes4"
                },
                {
                  "internalType": "address",
                  "name": "token",
                  "type": "address"
                },
                {
                  "internalType": "uint256",
                  "name": "tokenId",
                  "type": "uint256"
                },
                {
                  "internalType": "uint16",
                  "name": "partnerFeeRate",
                  "type": "uint16"
                },
                {
                  "internalType": "uint8",
                  "name": "isSecondarySale",
                  "type": "uint8"
                }
              ],
              "internalType": "struct OrderDomain.Asset[]",
              "name": "assetList",
              "type": "tuple[]"
            },
            {
              "internalType": "address",
              "name": "currentOwner",
              "type": "address"
            },
            {
              "internalType": "address",
              "name": "paymentReceiver",
              "type": "address"
            },
            {
              "components": [
                {
                  "internalType": "bytes4",
                  "name": "paymentMode",
                  "type": "bytes4"
                },
                {
                  "internalType": "address",
                  "name": "paymentToken",
                  "type": "address"
                },
                {
                  "internalType": "uint256",
                  "name": "price",
                  "type": "uint256"
                }
              ],
              "internalType": "struct OrderDomain.Payment[]",
              "name": "acceptedPaymentMode",
              "type": "tuple[]"
            },
            {
              "internalType": "uint16",
              "name": "pfSaleFeeRate",
              "type": "uint16"
            },
            {
              "internalType": "uint256",
              "name": "start",
              "type": "uint256"
            },
            {
              "internalType": "uint256",
              "name": "end",
              "type": "uint256"
            },
            {
              "internalType": "uint256",
              "name": "nounce",
              "type": "uint256"
            }
          ],
          "internalType": "struct OrderDomain.SaleOrder",
          "name": "_saleOrder",
          "type": "tuple"
        },
        {
          "internalType": "bytes",
          "name": "_salerSign",
          "type": "bytes"
        },
        {
          "internalType": "bytes",
          "name": "_platformSign",
          "type": "bytes"
        }
      ],
      "name": "cancel",
      "outputs": [],
      "stateMutability": "nonpayable",
      "type": "function"
    },
    {
      "inputs": [
        {
          "components": [
            {
              "components": [
                {
                  "internalType": "bytes4",
                  "name": "originKind",
                  "type": "bytes4"
                },
                {
                  "internalType": "address",
                  "name": "token",
                  "type": "address"
                },
                {
                  "internalType": "uint256",
                  "name": "tokenId",
                  "type": "uint256"
                },
                {
                  "internalType": "uint16",
                  "name": "partnerFeeRate",
                  "type": "uint16"
                },
                {
                  "internalType": "uint8",
                  "name": "isSecondarySale",
                  "type": "uint8"
                }
              ],
              "internalType": "struct OrderDomain.Asset[]",
              "name": "assetList",
              "type": "tuple[]"
            },
            {
              "internalType": "address",
              "name": "currentOwner",
              "type": "address"
            },
            {
              "internalType": "address",
              "name": "paymentReceiver",
              "type": "address"
            },
            {
              "components": [
                {
                  "internalType": "bytes4",
                  "name": "paymentMode",
                  "type": "bytes4"
                },
                {
                  "internalType": "address",
                  "name": "paymentToken",
                  "type": "address"
                },
                {
                  "internalType": "uint256",
                  "name": "price",
                  "type": "uint256"
                }
              ],
              "internalType": "struct OrderDomain.Payment[]",
              "name": "acceptedPaymentMode",
              "type": "tuple[]"
            },
            {
              "internalType": "uint16",
              "name": "pfSaleFeeRate",
              "type": "uint16"
            },
            {
              "internalType": "uint256",
              "name": "start",
              "type": "uint256"
            },
            {
              "internalType": "uint256",
              "name": "end",
              "type": "uint256"
            },
            {
              "internalType": "uint256",
              "name": "nounce",
              "type": "uint256"
            }
          ],
          "internalType": "struct OrderDomain.SaleOrder",
          "name": "_saleOrder",
          "type": "tuple"
        },
        {
          "internalType": "bytes",
          "name": "_salerSign",
          "type": "bytes"
        },
        {
          "components": [
            {
              "internalType": "uint256",
              "name": "saleNounce",
              "type": "uint256"
            },
            {
              "internalType": "address payable",
              "name": "buyer",
              "type": "address"
            },
            {
              "internalType": "address payable",
              "name": "payer",
              "type": "address"
            },
            {
              "components": [
                {
                  "internalType": "bytes4",
                  "name": "paymentMode",
                  "type": "bytes4"
                },
                {
                  "internalType": "address",
                  "name": "paymentToken",
                  "type": "address"
                },
                {
                  "internalType": "uint256",
                  "name": "price",
                  "type": "uint256"
                }
              ],
              "internalType": "struct OrderDomain.Payment",
              "name": "paymentDetails",
              "type": "tuple"
            }
          ],
          "internalType": "struct OrderDomain.BuyOrder",
          "name": "_buyOrder",
          "type": "tuple"
        },
        {
          "internalType": "bytes",
          "name": "_buyerSign",
          "type": "bytes"
        },
        {
          "internalType": "bytes",
          "name": "_platformSign",
          "type": "bytes"
        }
      ],
      "name": "exchange",
      "outputs": [],
      "stateMutability": "payable",
      "type": "function"
    },
    {
      "inputs": [
        {
          "internalType": "address",
          "name": "checkAdmin",
          "type": "address"
        }
      ],
      "name": "isAdmin",
      "outputs": [
        {
          "internalType": "bool",
          "name": "",
          "type": "bool"
        }
      ],
      "stateMutability": "view",
      "type": "function"
    },
    {
      "inputs": [],
      "name": "pause",
      "outputs": [],
      "stateMutability": "nonpayable",
      "type": "function"
    },
    {
      "inputs": [],
      "name": "paused",
      "outputs": [
        {
          "internalType": "bool",
          "name": "",
          "type": "bool"
        }
      ],
      "stateMutability": "view",
      "type": "function"
    },
    {
      "inputs": [],
      "name": "platformRegistry",
      "outputs": [
        {
          "internalType": "contract IPlatformRegistry",
          "name": "",
          "type": "address"
        }
      ],
      "stateMutability": "view",
      "type": "function"
    },
    {
      "inputs": [],
      "name": "proxiableUUID",
      "outputs": [
        {
          "internalType": "bytes32",
          "name": "",
          "type": "bytes32"
        }
      ],
      "stateMutability": "view",
      "type": "function"
    },
    {
      "inputs": [
        {
          "internalType": "address",
          "name": "admin",
          "type": "address"
        }
      ],
      "name": "removeAdmin",
      "outputs": [],
      "stateMutability": "nonpayable",
      "type": "function"
    },
    {
      "inputs": [],
      "name": "royaltyRegistry",
      "outputs": [
        {
          "internalType": "contract IRoyaltyRegistry",
          "name": "",
          "type": "address"
        }
      ],
      "stateMutability": "view",
      "type": "function"
    },
    {
      "inputs": [
        {
          "internalType": "bytes4",
          "name": "_interfaceId",
          "type": "bytes4"
        }
      ],
      "name": "supportsInterface",
      "outputs": [
        {
          "internalType": "bool",
          "name": "",
          "type": "bool"
        }
      ],
      "stateMutability": "view",
      "type": "function"
    },
    {
      "inputs": [],
      "name": "transferProxy",
      "outputs": [
        {
          "internalType": "contract ITransferProxy",
          "name": "",
          "type": "address"
        }
      ],
      "stateMutability": "view",
      "type": "function"
    },
    {
      "inputs": [],
      "name": "unpause",
      "outputs": [],
      "stateMutability": "nonpayable",
      "type": "function"
    },
    {
      "inputs": [
        {
          "internalType": "contract IPlatformRegistry",
          "name": "_newPlatformRegistry",
          "type": "address"
        }
      ],
      "name": "updatePlatformRegistry",
      "outputs": [],
      "stateMutability": "nonpayable",
      "type": "function"
    },
    {
      "inputs": [
        {
          "internalType": "contract IRoyaltyRegistry",
          "name": "_newRoyaltyRegistry",
          "type": "address"
        }
      ],
      "name": "updateRoyaltyRegistry",
      "outputs": [],
      "stateMutability": "nonpayable",
      "type": "function"
    },
    {
      "inputs": [
        {
          "internalType": "contract ITransferProxy",
          "name": "_newTransferProxy",
          "type": "address"
        }
      ],
      "name": "updateTransferProxy",
      "outputs": [],
      "stateMutability": "nonpayable",
      "type": "function"
    },
    {
      "inputs": [
        {
          "internalType": "address",
          "name": "newImplementation",
          "type": "address"
        }
      ],
      "name": "upgradeTo",
      "outputs": [],
      "stateMutability": "nonpayable",
      "type": "function"
    },
    {
      "inputs": [
        {
          "internalType": "address",
          "name": "newImplementation",
          "type": "address"
        },
        {
          "internalType": "bytes",
          "name": "data",
          "type": "bytes"
        }
      ],
      "name": "upgradeToAndCall",
      "outputs": [],
      "stateMutability": "payable",
      "type": "function"
    },
    {
      "inputs": [
        {
          "internalType": "address payable",
          "name": "_receiver",
          "type": "address"
        },
        {
          "internalType": "address",
          "name": "_erc20Token",
          "type": "address"
        }
      ],
      "name": "withdrawTip",
      "outputs": [],
      "stateMutability": "nonpayable",
      "type": "function"
    }
  ],
  "bytecode": "0x60a0604052306080523480156200001557600080fd5b506200002062000026565b620000e8565b600054610100900460ff1615620000935760405162461bcd60e51b815260206004820152602760248201527f496e697469616c697a61626c653a20636f6e747261637420697320696e697469604482015266616c697a696e6760c81b606482015260840160405180910390fd5b60005460ff9081161015620000e6576000805460ff191660ff9081179091556040519081527f7f26b83ff96e1f2b6a682f133852f6798a09c465da95921460cefb38474024989060200160405180910390a15b565b6080516144f6620001206000396000818161069d015281816106dd0152818161094e0152818161098e0152610a1d01526144f66000f3fe60806040526004361061012a5760003560e01c806357b80dcc116100ab57806378da24091161006f57806378da24091461033b5780638456cb591461035b578063a11b071214610370578063c255f87814610391578063cc253193146103b2578063fb21a042146103d257600080fd5b806357b80dcc1461028a5780635c975abb146102aa57806365355150146102c25780636e667db3146102e2578063704802751461031b57600080fd5b80633d0950a8116100f25780633d0950a8146101ff5780633f4ba83a1461021f5780634c275cac146102345780634f1ef2861461025457806352d1902d1461026757600080fd5b806301ffc9a71461012f5780631785f53c1461016457806318cdeccc1461018657806324d7806c146101a65780633659cfe6146101df575b600080fd5b34801561013b57600080fd5b5061014f61014a366004613a5d565b6103e5565b60405190151581526020015b60405180910390f35b34801561017057600080fd5b5061018461017f366004613a8d565b61041c565b005b34801561019257600080fd5b506101846101a1366004613aaa565b6104e6565b3480156101b257600080fd5b5061014f6101c1366004613a8d565b6001600160a01b031660009081526067602052604090205460ff1690565b3480156101eb57600080fd5b506101846101fa366004613a8d565b610693565b34801561020b57600080fd5b5061018461021a366004613ae3565b61076f565b34801561022b57600080fd5b506101846107ea565b34801561024057600080fd5b5061018461024f366004613a8d565b610823565b610184610262366004613b9d565b610944565b34801561027357600080fd5b5061027c610a10565b60405190815260200161015b565b34801561029657600080fd5b506101846102a5366004613c9e565b610ac3565b3480156102b657600080fd5b5060cc5460ff1661014f565b3480156102ce57600080fd5b506101846102dd366004613a8d565b610b73565b3480156102ee57600080fd5b5061016354610303906001600160a01b031681565b6040516001600160a01b03909116815260200161015b565b34801561032757600080fd5b50610184610336366004613a8d565b610c94565b34801561034757600080fd5b50610184610356366004613d32565b610ccc565b34801561036757600080fd5b50610184610e67565b34801561037c57600080fd5b5061016454610303906001600160a01b031681565b34801561039d57600080fd5b5061016254610303906001600160a01b031681565b3480156103be57600080fd5b506101846103cd366004613a8d565b610e9e565b6101846103e0366004613d7d565b610fbf565b60006001600160e01b0319821663564cd6c760e11b148061041657506301ffc9a760e01b6001600160e01b03198316145b92915050565b3360009081526067602052604090205460ff166104545760405162461bcd60e51b815260040161044b90613e60565b60405180910390fd5b6001600160a01b03811660009081526067602052604090205460ff166104da5760405162461bcd60e51b815260206004820152603560248201527f41646d696e3a72656d6f766541646d696e20747279696e6720746f2072656d6f6044820152743b32903737b71032bc34b9ba34b7339020b236b4b760591b606482015260840161044b565b6104e381611521565b50565b3360009081526067602052604090205460ff166105155760405162461bcd60e51b815260040161044b90613e60565b6001600160a01b0382166105565760405162461bcd60e51b8152602060048201526008602482015267453a57543a49524160c01b604482015260640161044b565b6001600160a01b03811661059e576040516001600160a01b038316904780156108fc02916000818181858888f19350505050158015610599573d6000803e3d6000fd5b505050565b6001600160a01b038116600090815261016660205260408120905b815481101561066c5760008282815481106105d6576105d6613ea6565b60009182526020909120610163546002909202018054600182015460405163776062c360e01b81529294506001600160a01b039384169363776062c393610626938a939216918b91600401613ebc565b600060405180830381600087803b15801561064057600080fd5b505af1158015610654573d6000803e3d6000fd5b5050505050808061066490613efc565b9150506105b9565b506001600160a01b038216600090815261016660205260408120610599916139c2565b5050565b6001600160a01b037f00000000000000000000000000000000000000000000000000000000000000001630036106db5760405162461bcd60e51b815260040161044b90613f15565b7f00000000000000000000000000000000000000000000000000000000000000006001600160a01b031661072460008051602061447a833981519152546001600160a01b031690565b6001600160a01b03161461074a5760405162461bcd60e51b815260040161044b90613f61565b61075381611579565b604080516000808252602082019092526104e3918391906115a8565b3360009081526067602052604090205460ff1661079e5760405162461bcd60e51b815260040161044b90613e60565b60005b81811015610599576107d88383838181106107be576107be613ea6565b90506020020160208101906107d39190613a8d565b611713565b806107e281613efc565b9150506107a1565b3360009081526067602052604090205460ff166108195760405162461bcd60e51b815260040161044b90613e60565b6108216117d1565b565b3360009081526067602052604090205460ff166108525760405162461bcd60e51b815260040161044b90613e60565b6040516301ffc9a760e01b815263071d7d4b60e21b60048201526001600160a01b038216906301ffc9a790602401602060405180830381865afa15801561089d573d6000803e3d6000fd5b505050506040513d601f19601f820116820180604052508101906108c19190613fad565b6108f95760405162461bcd60e51b8152602060048201526009602482015268453a5554503a494e5360b81b604482015260640161044b565b61016380546001600160a01b0319166001600160a01b0383169081179091556040517fdf3b866248a7a3e982f0a93fde9cf30633ed3bb09365c16b08260ad033db920790600090a250565b6001600160a01b037f000000000000000000000000000000000000000000000000000000000000000016300361098c5760405162461bcd60e51b815260040161044b90613f15565b7f00000000000000000000000000000000000000000000000000000000000000006001600160a01b03166109d560008051602061447a833981519152546001600160a01b031690565b6001600160a01b0316146109fb5760405162461bcd60e51b815260040161044b90613f61565b610a0482611579565b61068f828260016115a8565b6000306001600160a01b037f00000000000000000000000000000000000000000000000000000000000000001614610ab05760405162461bcd60e51b815260206004820152603860248201527f555550535570677261646561626c653a206d757374206e6f742062652063616c60448201527f6c6564207468726f7567682064656c656761746563616c6c0000000000000000606482015260840161044b565b5060008051602061447a83398151915290565b6002609a5403610b155760405162461bcd60e51b815260206004820152601f60248201527f5265656e7472616e637947756172643a207265656e7472616e742063616c6c00604482015260640161044b565b6002609a55610b22611823565b610b2f8585858585611869565b610b3885611a59565b60405160e0860135907f61b9399f2f0f32ca39ce8d7be32caed5ec22fe07a6daba3a467ed479ec60658290600090a250506001609a55505050565b3360009081526067602052604090205460ff16610ba25760405162461bcd60e51b815260040161044b90613e60565b6040516301ffc9a760e01b81526302d7f8cb60e01b60048201526001600160a01b038216906301ffc9a790602401602060405180830381865afa158015610bed573d6000803e3d6000fd5b505050506040513d601f19601f82011682018060405250810190610c119190613fad565b610c495760405162461bcd60e51b8152602060048201526009602482015268453a5550523a494e5360b81b604482015260640161044b565b61016280546001600160a01b0319166001600160a01b0383169081179091556040517fa48d197b43b1826afcf98445392676fa169817dd3216002b6fd70e8601ef2b0190600090a250565b3360009081526067602052604090205460ff16610cc35760405162461bcd60e51b815260040161044b90613e60565b6104e381611713565b600054610100900460ff1615808015610cec5750600054600160ff909116105b80610d065750303b158015610d06575060005460ff166001145b610d695760405162461bcd60e51b815260206004820152602e60248201527f496e697469616c697a61626c653a20636f6e747261637420697320616c72656160448201526d191e481a5b9a5d1a585b1a5e995960921b606482015260840161044b565b6000805460ff191660011790558015610d8c576000805461ff0019166101001790555b610d94611a7d565b610d9c611aa4565b610de86040518060400160405280600f81526020016e5342494e46542045786368616e676560881b815250604051806040016040528060038152602001620322e360ec1b815250611adc565b610df0611b0d565b610df8611b3c565b610e00611a7d565b610e0984610b73565b610e1283610e9e565b610e1b82610823565b8015610e61576000805461ff0019169055604051600181527f7f26b83ff96e1f2b6a682f133852f6798a09c465da95921460cefb38474024989060200160405180910390a15b50505050565b3360009081526067602052604090205460ff16610e965760405162461bcd60e51b815260040161044b90613e60565b610821611b6b565b3360009081526067602052604090205460ff16610ecd5760405162461bcd60e51b815260040161044b90613e60565b6040516301ffc9a760e01b8152635a8c1c2960e01b60048201526001600160a01b038216906301ffc9a790602401602060405180830381865afa158015610f18573d6000803e3d6000fd5b505050506040513d601f19601f82011682018060405250810190610f3c9190613fad565b610f745760405162461bcd60e51b8152602060048201526009602482015268453a5552523a494e5360b81b604482015260640161044b565b61016480546001600160a01b0319166001600160a01b0383169081179091556040517f39753a6336ef533f6e1785dcab15abdacaf0467b09c6127c32053ad75bcefc6790600090a250565b610fc7611823565b6002609a54036110195760405162461bcd60e51b815260206004820152601f60248201527f5265656e7472616e637947756172643a207265656e7472616e742063616c6c00604482015260640161044b565b6002609a556110288886611ba8565b6110328886611da7565b61104288888888888888886124be565b60006110546080870160608801613a5d565b905061105f8161271e565b156114d25761106c612754565b60006110788a886127c0565b9050630251e45960e01b6001600160e01b03198316016110d257803410156110cd5760405162461bcd60e51b815260206004820152600860248201526708a748a749c8aa8960c31b604482015260640161044b565b611267565b631d45e89f60e21b6001600160e01b03198316016112675760006110fc60a0890160808a01613a8d565b905060006001600160a01b03821663dd62ed3e61111f60608c0160408d01613a8d565b6101635460405160e084901b6001600160e01b03191681526001600160a01b03928316600482015291166024820152604401602060405180830381865afa15801561116e573d6000803e3d6000fd5b505050506040513d601f19601f820116820180604052508101906111929190613fcf565b9050828110156111d15760405162461bcd60e51b815260206004820152600a6024820152690453a453a4e45524332360b41b604482015260640161044b565b60006111dd8483613fe8565b9050801561126357600060405180604001604052808c60400160208101906112059190613a8d565b6001600160a01b0390811682526020918201859052868116600090815261016683526040812080546001808201835591835291849020855160029093020180546001600160a01b031916929093169190911782559290910151910155505b5050505b6101645460408051630c0586bf60e11b815290516000926001600160a01b03169163180b0d7e916004808301926020929190829003018187875af11580156112b3573d6000803e3d6000fd5b505050506040513d601f19601f820116820180604052508101906112d7919061400b565b61ffff166112eb60a08d0160808e01614028565b6112f99061ffff1684614045565b6113039190614072565b905061138861016260009054906101000a90046001600160a01b03166001600160a01b031663707d18486040518163ffffffff1660e01b81526004016020604051808303816000875af115801561135e573d6000803e3d6000fd5b505050506040513d601f19601f820116820180604052508101906113829190614086565b8261287f565b60006113948c806140a3565b808060200260200160405190810160405280939291908181526020016000905b828210156113e0576113d160a083028601368190038101906140fc565b815260200190600101906113b4565b5050505050905060008151846113f69190614072565b905060008251846114079190614072565b905060008e604001602081019061141e9190613a8d565b905060005b84518110156114b957600085828151811061144057611440613ea6565b6020026020010151905060006114568287612924565b90506000816114658789613fe8565b61146f9190613fe8565b9050600061147d8483612aba565b608085015190915060ff166001036114a2576114a28661149d8385613fe8565b61287f565b5050505080806114b190613efc565b915050611423565b506114c38c612bdf565b6114cb612754565b5050505050505b6114dc8987612d47565b6114e589611a59565b6040518635907fc0a8d68d4d1f533ef6cdb7a49068cbe04356682803cb7983c4ba33ce99100efd90600090a250506001609a5550505050505050565b6001600160a01b038116600081815260676020908152604091829020805460ff1916905590519182527fa3b62bc36326052d97ea62d63c3d60308ed4c3ea8ac079dd8499f1e9c4f80c0f91015b60405180910390a150565b3360009081526067602052604090205460ff166104e35760405162461bcd60e51b815260040161044b90613e60565b7f4910fdfa16fed3260ed0e7147f7cc6da11a60208b5b9406d12a635614ffd91435460ff16156115db5761059983612e38565b826001600160a01b03166352d1902d6040518163ffffffff1660e01b8152600401602060405180830381865afa925050508015611635575060408051601f3d908101601f1916820190925261163291810190613fcf565b60015b6116985760405162461bcd60e51b815260206004820152602e60248201527f45524331393637557067726164653a206e657720696d706c656d656e7461746960448201526d6f6e206973206e6f74205555505360901b606482015260840161044b565b60008051602061447a83398151915281146117075760405162461bcd60e51b815260206004820152602960248201527f45524331393637557067726164653a20756e737570706f727465642070726f786044820152681a58589b195555525160ba1b606482015260840161044b565b50610599838383612ed4565b6001600160a01b03811661177d5760405162461bcd60e51b815260206004820152602b60248201527f41646d696e3a61646441646d696e206e657741646d696e20697320746865207a60448201526a65726f206164647265737360a81b606482015260840161044b565b6001600160a01b038116600081815260676020908152604091829020805460ff1916600117905590519182527f44d6d25963f097ad14f29f06854a01f575648a1ef82f30e562ccd3889717e339910161156e565b6117d9612ef9565b60cc805460ff191690557f5db9ee0a495bf2e6ff9c91a7834c1ba4fdd244a5e8aa4e537bd38aeae4b073aa335b6040516001600160a01b03909116815260200160405180910390a1565b60cc5460ff16156108215760405162461bcd60e51b815260206004820152601060248201526f14185d5cd8589b194e881c185d5cd95960821b604482015260640161044b565b600061187486612f42565b9050600061190186868080601f0160208091040260200160405190810160405280939291908181526020018383808284376000920191909152506118fb92508691506118c0905061303f565b6040805161190160f01b6020808301919091526022820193909352604280820194909452815180820390940184526062019052815191012090565b906130bf565b90506119136040880160208901613a8d565b6001600160a01b0316816001600160a01b03161461195f5760405162461bcd60e51b8152602060048201526009602482015268453a5653433a49535360b81b604482015260640161044b565b6119a784848080601f0160208091040260200160405190810160405280939291908181526020018383808284376000920191909152506118fb92508691506118c0905061303f565b61016254604051631353b4cb60e21b81526001600160a01b038084166004830152929350911690634d4ed32c90602401602060405180830381865afa1580156119f4573d6000803e3d6000fd5b505050506040513d601f19601f82011682018060405250810190611a189190613fad565b611a505760405162461bcd60e51b8152602060048201526009602482015268453a5653433a49505360b81b604482015260640161044b565b50505050505050565b60016101656000611a6984612f42565b815260208101919091526040016000205550565b600054610100900460ff166108215760405162461bcd60e51b815260040161044b90614186565b600054610100900460ff16611acb5760405162461bcd60e51b815260040161044b90614186565b611ad3611a7d565b61082133611713565b600054610100900460ff16611b035760405162461bcd60e51b815260040161044b90614186565b61068f82826130db565b600054610100900460ff16611b345760405162461bcd60e51b815260040161044b90614186565b61082161311c565b600054610100900460ff16611b635760405162461bcd60e51b815260040161044b90614186565b61082161314f565b611b73611823565b60cc805460ff191660011790557f62e78cea01bee320cd4e420270b5ea74000d11b0c9f74754ebdbfc544b05a2586118063390565b611bb18261317d565b15611bec5760405162461bcd60e51b815260206004820152600b60248201526a114e90d411914e94d3d31160aa1b604482015260640161044b565b6101645460408051630c0586bf60e11b815290516064926001600160a01b03169163180b0d7e91600480830192602092919082900301816000875af1158015611c39573d6000803e3d6000fd5b505050506040513d601f19601f82011682018060405250810190611c5d919061400b565b611c6791906141d1565b61ffff16611c7b60a0840160808501614028565b61ffff161015611cbb5760405162461bcd60e51b815260206004820152600b60248201526a229d21a823229d29a4a82360a91b604482015260640161044b565b6322ba176160e21b611cd36080830160608401613a5d565b6001600160e01b0319160361068f57610162546001600160a01b0316635247385c611d0460a0840160808501613a8d565b6040516001600160e01b031960e084901b1681526001600160a01b039091166004820152602401602060405180830381865afa158015611d48573d6000803e3d6000fd5b505050506040513d601f19601f82011682018060405250810190611d6c9190613fad565b61068f5760405162461bcd60e51b815260206004820152600c60248201526b453a435046453a4250544e5760a01b604482015260640161044b565b6000611db383806140a3565b905011611df05760405162461bcd60e51b815260206004820152600b60248201526a114e90d411914e94d2505360aa1b604482015260640161044b565b60005b611dfd83806140a3565b9050811015611f6457611e3e611e1384806140a3565b83818110611e2357611e23613ea6565b611e3992602060a0909202019081019150613a5d565b6131a6565b611e785760405162461bcd60e51b815260206004820152600b60248201526a453a435046453a5341494f60a81b604482015260640161044b565b6000611e8484806140a3565b83818110611e9457611e94613ea6565b905060a002016020016020810190611eac9190613a8d565b6001600160a01b031603611ef05760405162461bcd60e51b815260206004820152600b60248201526a114e90d411914e94d0525560aa1b604482015260640161044b565b611efa83806140a3565b82818110611f0a57611f0a613ea6565b905060a0020160400135600003611f525760405162461bcd60e51b815260206004820152600c60248201526b453a435046453a534149544960a01b604482015260640161044b565b80611f5c81613efc565b915050611df3565b6000611f766040850160208601613a8d565b6001600160a01b031603611fba5760405162461bcd60e51b815260206004820152600b60248201526a453a435046453a5349434f60a81b604482015260640161044b565b6000611fcc6060850160408601613a8d565b6001600160a01b0316036120105760405162461bcd60e51b815260206004820152600b60248201526a229d21a823229d29a4a82960a91b604482015260640161044b565b60008360a001351180156120285750428360a0013511155b6120615760405162461bcd60e51b815260206004820152600a602482015269453a435046453a53495360b01b604482015260640161044b565b60c083013515806120755750428360c00135115b6120ae5760405162461bcd60e51b815260206004820152600a602482015269453a435046453a53494560b01b604482015260640161044b565b8260e001356000036120ef5760405162461bcd60e51b815260206004820152600a602482015269229d21a823229d29a4a760b11b604482015260640161044b565b813560000361212d5760405162461bcd60e51b815260206004820152600a602482015269453a435046453a42495360b01b604482015260640161044b565b60e083013582351461216e5760405162461bcd60e51b815260206004820152600a602482015269229d21a823229d29a12760b11b604482015260640161044b565b60006121806040840160208501613a8d565b6001600160a01b0316036121c35760405162461bcd60e51b815260206004820152600a602482015269229d21a823229d2124a160b11b604482015260640161044b565b60006121d56060840160408501613a8d565b6001600160a01b0316036122185760405162461bcd60e51b815260206004820152600a6024820152690453a435046453a4249560b41b604482015260640161044b565b61223061222b6080840160608501613a5d565b6131dc565b61226a5760405162461bcd60e51b815260206004820152600b60248201526a453a435046453a4249504d60a81b604482015260640161044b565b60a08201356000036122ac5760405162461bcd60e51b815260206004820152600b60248201526a0453a435046453a424f49560ac1b604482015260640161044b565b6122bc6040830160208401613a8d565b6001600160a01b03166122d56040850160208601613a8d565b6001600160a01b03160361231a5760405162461bcd60e51b815260206004820152600c60248201526b453a435046453a434141425360a01b604482015260640161044b565b506000805b61232c60608501856141f2565b90508210156124835761236b61234560608601866141f2565b8481811061235557612355613ea6565b61222b9260206060909202019081019150613a5d565b6123a75760405162461bcd60e51b815260206004820152600d60248201526c453a435046453a5341504d504d60981b604482015260640161044b565b6123b460608501856141f2565b838181106123c4576123c4613ea6565b9050606002016040013560000361240d5760405162461bcd60e51b815260206004820152600d60248201526c0453a435046453a5341504d495609c1b604482015260640161044b565b61241d6080840160608501613a5d565b6001600160e01b03191661243460608601866141f2565b8481811061244457612444613ea6565b61245a9260206060909202019081019150613a5d565b6001600160e01b0319160361247157506001612483565b8161247b81613efc565b92505061231f565b80610e615760405162461bcd60e51b815260206004820152600b60248201526a453a435046453a504d4e4d60a81b604482015260640161044b565b600061251088888080601f0160208091040260200160405190810160405280939291908181526020018383808284376000920191909152506118fb925061250891508d9050612f42565b6118c061303f565b905061252260408a0160208b01613a8d565b6001600160a01b0316816001600160a01b03161461256e5760405162461bcd60e51b8152602060048201526009602482015268453a5653453a49535360b81b604482015260640161044b565b600061257987613248565b90506125c386868080601f0160208091040260200160405190810160405280939291908181526020018383808284376000920191909152506118fb92508591506118c0905061303f565b91506125d56040880160208901613a8d565b6001600160a01b0316826001600160a01b0316146126215760405162461bcd60e51b8152602060048201526009602482015268453a5653453a49425360b81b604482015260640161044b565b61266984848080601f0160208091040260200160405190810160405280939291908181526020018383808284376000920191909152506118fb92508591506118c0905061303f565b61016254604051631353b4cb60e21b81526001600160a01b038084166004830152929450911690634d4ed32c90602401602060405180830381865afa1580156126b6573d6000803e3d6000fd5b505050506040513d601f19601f820116820180604052508101906126da9190613fad565b6127125760405162461bcd60e51b8152602060048201526009602482015268453a5653453a49505360b81b604482015260640161044b565b50505050505050505050565b60006001600160e01b0319821663fdae1ba760e01b148061041657506001600160e01b031982166322ba176160e21b1492915050565b60005b610168548110156127b2576101676000610168838154811061277b5761277b613ea6565b60009182526020808320909101546001600160a01b03168352820192909252604001812055806127aa81613efc565b915050612757565b5061082161016860006139e3565b600080805b6127d260608601866141f2565b9050811015612877576127eb6080850160608601613a5d565b6001600160e01b03191661280260608701876141f2565b8381811061281257612812613ea6565b6128289260206060909202019081019150613a5d565b6001600160e01b031916036128655761284460608601866141f2565b8281811061285457612854613ea6565b905060600201604001359150612877565b8061286f81613efc565b9150506127c5565b509392505050565b801561068f576001600160a01b0382166000908152610167602052604081205490036128f25761016880546001810182556000919091527f8077777ae4769de06cbfd1c0b8b1f653b51ec156d91a9aca16a4102f19e03d9e0180546001600160a01b0319166001600160a01b0384161790555b6001600160a01b038216600090815261016760205260408120805483929061291b90849061423a565b90915550505050565b81516000908190612945906001600160e01b03191663163b6d3b60e21b1490565b15612ab35761016254602085015160405163342ce4cb60e11b81526001600160a01b0391821660048201526000929190911690636859c996906024016020604051808303816000875af11580156129a0573d6000803e3d6000fd5b505050506040513d601f19601f820116820180604052508101906129c49190614086565b90506001600160a01b038116612a0b5760405162461bcd60e51b815260206004820152600c60248201526b453a535046543a5046524e5360a01b604482015260640161044b565b61016460009054906101000a90046001600160a01b03166001600160a01b031663180b0d7e6040518163ffffffff1660e01b81526004016020604051808303816000875af1158015612a61573d6000803e3d6000fd5b505050506040513d601f19601f82011682018060405250810190612a85919061400b565b61ffff16856060015161ffff1685612a9d9190614045565b612aa79190614072565b9150612877818361287f565b9392505050565b61016454602083015160408085015160808601519151634287115760e01b81526001600160a01b03938416600482015260248101919091526044810185905260ff90911660648201526000928392606092839291909116906342871157906084016000604051808303816000875af1158015612b3a573d6000803e3d6000fd5b505050506040513d6000823e601f3d908101601f19168201604052612b6291908101906142db565b909250905060005b8251811015612bd4576000828281518110612b8757612b87613ea6565b60200260200101519050612bb4848381518110612ba657612ba6613ea6565b60200260200101518261287f565b612bbe818661423a565b9450508080612bcc90613efc565b915050612b6a565b509195945050505050565b6000612bf16080830160608401613a5d565b905060005b610168548110156105995760006101688281548110612c1757612c17613ea6565b60009182526020808320909101546001600160a01b0316808352610167909152604090912054909150630251e45960e01b6001600160e01b0319851601612c94576040516001600160a01b0383169082156108fc029083906000818181858888f19350505050158015612c8e573d6000803e3d6000fd5b50612d32565b631d45e89f60e21b6001600160e01b0319851601612d3257610163546001600160a01b031663776062c3612cce60a0880160808901613a8d565b612cde6060890160408a01613a8d565b85856040518563ffffffff1660e01b8152600401612cff9493929190613ebc565b600060405180830381600087803b158015612d1957600080fd5b505af1158015612d2d573d6000803e3d6000fd5b505050505b50508080612d3f90613efc565b915050612bf6565b60005b612d5483806140a3565b9050811015610599576000612d6984806140a3565b83818110612d7957612d79613ea6565b905060a00201803603810190612d8f91906140fc565b610163546020808301519293506001600160a01b039091169163f709b90691612dbe9060408901908901613a8d565b612dce6040880160208901613a8d565b85604001516040518563ffffffff1660e01b8152600401612df29493929190613ebc565b600060405180830381600087803b158015612e0c57600080fd5b505af1158015612e20573d6000803e3d6000fd5b50505050508080612e3090613efc565b915050612d4a565b6001600160a01b0381163b612ea55760405162461bcd60e51b815260206004820152602d60248201527f455243313936373a206e657720696d706c656d656e746174696f6e206973206e60448201526c1bdd08184818dbdb9d1c9858dd609a1b606482015260840161044b565b60008051602061447a83398151915280546001600160a01b0319166001600160a01b0392909216919091179055565b612edd836132ce565b600082511180612eea5750805b1561059957610e61838361330e565b60cc5460ff166108215760405162461bcd60e51b815260206004820152601460248201527314185d5cd8589b194e881b9bdd081c185d5cd95960621b604482015260640161044b565b60007f99327770af541e6a86677012d8541fbd0a2d6f03fdc52acfee9388534dd1e6cb612f77612f7284806140a3565b613402565b612f876040850160208601613a8d565b612f976060860160408701613a8d565b612fac612fa760608801886141f2565b6134d4565b612fbc60a0880160808901614028565b6040805160208101979097528601949094526001600160a01b0392831660608601529116608084015260a08381019190915261ffff90911660c0838101919091529084013560e08381019190915290840135610100830152830135610120820152610140015b604051602081830303815290604052805190602001209050919050565b60006130ba7f8b73c3c69bb8fe3d512ecc4cf759cc79239f7b179b0ffacaa9a75d522b39400f61306e60015490565b6002546040805160208101859052908101839052606081018290524660808201523060a082015260009060c0016040516020818303038152906040528051906020012090509392505050565b905090565b60008060006130ce8585613575565b91509150612877816135ba565b600054610100900460ff166131025760405162461bcd60e51b815260040161044b90614186565b815160209283012081519190920120600191909155600255565b600054610100900460ff166131435760405162461bcd60e51b815260040161044b90614186565b60cc805460ff19169055565b600054610100900460ff166131765760405162461bcd60e51b815260040161044b90614186565b6001609a55565b6000610165600061318d84612f42565b8152602001908152602001600020546001149050919050565b60006001600160e01b03198216639e80de3760e01b148061041657506001600160e01b0319821663163b6d3b60e21b1492915050565b60006001600160e01b0319821663fdae1ba760e01b148061320d57506001600160e01b031982166322ba176160e21b145b8061322857506001600160e01b03198216633ecaa07960e21b145b8061041657506001600160e01b0319821663d5a81f1960e01b1492915050565b60007ffae1abc53c4c58feb27958e6e5aa87e7f9a98ebb5dffd241db707d3d6f25a6dc823561327d6040850160208601613a8d565b61328d6060860160408701613a8d565b61329986606001613770565b6040805160208101969096528501939093526001600160a01b03918216606085015216608083015260a082015260c001613022565b6132d781612e38565b6040516001600160a01b038216907fbc7cd75a20ee27fd9adebab32041f755214dbc6bffa90cc0225b39da2e5c2d3b90600090a250565b60606001600160a01b0383163b6133765760405162461bcd60e51b815260206004820152602660248201527f416464726573733a2064656c65676174652063616c6c20746f206e6f6e2d636f6044820152651b9d1c9858dd60d21b606482015260840161044b565b600080846001600160a01b03168460405161339191906143c3565b600060405180830381855af49150503d80600081146133cc576040519150601f19603f3d011682016040523d82523d6000602084013e6133d1565b606091505b50915091506133f9828260405180606001604052806027815260200161449a602791396137ea565b95945050505050565b600080826001600160401b0381111561341d5761341d613b57565b604051908082528060200260200182016040528015613446578160200160208202803683370190505b50905060005b838110156134a35761347485858381811061346957613469613ea6565b905060a00201613823565b82828151811061348657613486613ea6565b60209081029190910101528061349b81613efc565b91505061344c565b50806040516020016134b591906143df565b6040516020818303038152906040528051906020012091505092915050565b600080826001600160401b038111156134ef576134ef613b57565b604051908082528060200260200182016040528015613518578160200160208202803683370190505b50905060005b838110156134a35761354685858381811061353b5761353b613ea6565b905060600201613770565b82828151811061355857613558613ea6565b60209081029190910101528061356d81613efc565b91505061351e565b60008082516041036135ab5760208301516040840151606085015160001a61359f878285856138d5565b945094505050506135b3565b506000905060025b9250929050565b60008160048111156135ce576135ce614415565b036135d65750565b60018160048111156135ea576135ea614415565b036136375760405162461bcd60e51b815260206004820152601860248201527f45434453413a20696e76616c6964207369676e61747572650000000000000000604482015260640161044b565b600281600481111561364b5761364b614415565b036136985760405162461bcd60e51b815260206004820152601f60248201527f45434453413a20696e76616c6964207369676e6174757265206c656e67746800604482015260640161044b565b60038160048111156136ac576136ac614415565b036137045760405162461bcd60e51b815260206004820152602260248201527f45434453413a20696e76616c6964207369676e6174757265202773272076616c604482015261756560f01b606482015260840161044b565b600481600481111561371857613718614415565b036104e35760405162461bcd60e51b815260206004820152602260248201527f45434453413a20696e76616c6964207369676e6174757265202776272076616c604482015261756560f01b606482015260840161044b565b60007f5b442961536b72a0442e9a53df012289ed70f5c860457d810d2c17836bd8bdce6137a06020840184613a5d565b6137b06040850160208601613a8d565b6040805160208101949094526001600160e01b0319909216838301526001600160a01b03166060830152830135608082015260a001613022565b606083156137f9575081612ab3565b8251156138095782518084602001fd5b8160405162461bcd60e51b815260040161044b919061442b565b60007fda89efe36e8d4174abec2b392e28fde5f06a39ea80761619c7690bf8660645246138536020840184613a5d565b6138636040850160208601613a8d565b60408501356138786080870160608801614028565b61388860a088016080890161445e565b6040805160208101979097526001600160e01b0319909516948601949094526001600160a01b039092166060850152608084015261ffff1660a083015260ff1660c082015260e001613022565b6000807f7fffffffffffffffffffffffffffffff5d576e7357a4501ddfe92f46681b20a083111561390c57506000905060036139b9565b8460ff16601b1415801561392457508460ff16601c14155b1561393557506000905060046139b9565b6040805160008082526020820180845289905260ff881692820192909252606081018690526080810185905260019060a0016020604051602081039080840390855afa158015613989573d6000803e3d6000fd5b5050604051601f1901519150506001600160a01b0381166139b2576000600192509250506139b9565b9150600090505b94509492505050565b50805460008255600202906000526020600020908101906104e39190613a01565b50805460008255906000526020600020908101906104e39190613a2b565b5b80821115613a275780546001600160a01b031916815560006001820155600201613a02565b5090565b5b80821115613a275760008155600101613a2c565b80356001600160e01b031981168114613a5857600080fd5b919050565b600060208284031215613a6f57600080fd5b612ab382613a40565b6001600160a01b03811681146104e357600080fd5b600060208284031215613a9f57600080fd5b8135612ab381613a78565b60008060408385031215613abd57600080fd5b8235613ac881613a78565b91506020830135613ad881613a78565b809150509250929050565b60008060208385031215613af657600080fd5b82356001600160401b0380821115613b0d57600080fd5b818501915085601f830112613b2157600080fd5b813581811115613b3057600080fd5b8660208260051b8501011115613b4557600080fd5b60209290920196919550909350505050565b634e487b7160e01b600052604160045260246000fd5b604051601f8201601f191681016001600160401b0381118282101715613b9557613b95613b57565b604052919050565b60008060408385031215613bb057600080fd5b8235613bbb81613a78565b91506020838101356001600160401b0380821115613bd857600080fd5b818601915086601f830112613bec57600080fd5b813581811115613bfe57613bfe613b57565b613c10601f8201601f19168501613b6d565b91508082528784828501011115613c2657600080fd5b80848401858401376000848284010152508093505050509250929050565b60006101008284031215613c5757600080fd5b50919050565b60008083601f840112613c6f57600080fd5b5081356001600160401b03811115613c8657600080fd5b6020830191508360208285010111156135b357600080fd5b600080600080600060608688031215613cb657600080fd5b85356001600160401b0380821115613ccd57600080fd5b613cd989838a01613c44565b96506020880135915080821115613cef57600080fd5b613cfb89838a01613c5d565b90965094506040880135915080821115613d1457600080fd5b50613d2188828901613c5d565b969995985093965092949392505050565b600080600060608486031215613d4757600080fd5b8335613d5281613a78565b92506020840135613d6281613a78565b91506040840135613d7281613a78565b809150509250925092565b600080600080600080600080888a03610140811215613d9b57600080fd5b89356001600160401b0380821115613db257600080fd5b613dbe8d838e01613c44565b9a5060208c0135915080821115613dd457600080fd5b613de08d838e01613c5d565b909a50985088915060c0603f1984011215613dfa57600080fd5b60408c0197506101008c0135925080831115613e1557600080fd5b613e218d848e01613c5d565b90975095506101208c0135925086915080831115613e3e57600080fd5b5050613e4c8b828c01613c5d565b999c989b5096995094979396929594505050565b60208082526026908201527f41646d696e3a6f6e6c7941646d696e2063616c6c6572206973206e6f7420616e6040820152651020b236b4b760d11b606082015260800190565b634e487b7160e01b600052603260045260246000fd5b6001600160a01b039485168152928416602084015292166040820152606081019190915260800190565b634e487b7160e01b600052601160045260246000fd5b600060018201613f0e57613f0e613ee6565b5060010190565b6020808252602c908201527f46756e6374696f6e206d7573742062652063616c6c6564207468726f7567682060408201526b19195b1959d85d1958d85b1b60a21b606082015260800190565b6020808252602c908201527f46756e6374696f6e206d7573742062652063616c6c6564207468726f7567682060408201526b6163746976652070726f787960a01b606082015260800190565b600060208284031215613fbf57600080fd5b81518015158114612ab357600080fd5b600060208284031215613fe157600080fd5b5051919050565b8181038181111561041657610416613ee6565b61ffff811681146104e357600080fd5b60006020828403121561401d57600080fd5b8151612ab381613ffb565b60006020828403121561403a57600080fd5b8135612ab381613ffb565b808202811582820484141761041657610416613ee6565b634e487b7160e01b600052601260045260246000fd5b6000826140815761408161405c565b500490565b60006020828403121561409857600080fd5b8151612ab381613a78565b6000808335601e198436030181126140ba57600080fd5b8301803591506001600160401b038211156140d457600080fd5b602001915060a0810236038213156135b357600080fd5b803560ff81168114613a5857600080fd5b600060a0828403121561410e57600080fd5b60405160a081018181106001600160401b038211171561413057614130613b57565b60405261413c83613a40565b8152602083013561414c81613a78565b602082015260408381013590820152606083013561416981613ffb565b606082015261417a608084016140eb565b60808201529392505050565b6020808252602b908201527f496e697469616c697a61626c653a20636f6e7472616374206973206e6f74206960408201526a6e697469616c697a696e6760a81b606082015260800190565b600061ffff808416806141e6576141e661405c565b92169190910492915050565b6000808335601e1984360301811261420957600080fd5b8301803591506001600160401b0382111561422357600080fd5b60200191506060810236038213156135b357600080fd5b8082018082111561041657610416613ee6565b60006001600160401b0382111561426657614266613b57565b5060051b60200190565b600082601f83011261428157600080fd5b815160206142966142918361424d565b613b6d565b82815260059290921b840181019181810190868411156142b557600080fd5b8286015b848110156142d057805183529183019183016142b9565b509695505050505050565b600080604083850312156142ee57600080fd5b82516001600160401b038082111561430557600080fd5b818501915085601f83011261431957600080fd5b815160206143296142918361424d565b82815260059290921b8401810191818101908984111561434857600080fd5b948201945b8386101561436f57855161436081613a78565b8252948201949082019061434d565b9188015191965090935050508082111561438857600080fd5b5061439585828601614270565b9150509250929050565b60005b838110156143ba5781810151838201526020016143a2565b50506000910152565b600082516143d581846020870161439f565b9190910192915050565b815160009082906020808601845b83811015614409578151855293820193908201906001016143ed565b50929695505050505050565b634e487b7160e01b600052602160045260246000fd5b602081526000825180602084015261444a81604085016020870161439f565b601f01601f19169190910160400192915050565b60006020828403121561447057600080fd5b612ab3826140eb56fe360894a13ba1a3210667c828492db98dca3e2076cc3735a920a3ca505d382bbc416464726573733a206c6f772d6c6576656c2064656c65676174652063616c6c206661696c6564a264697066735822122064f287fcd4e8fd874292333775adece8fb3f91f02ff724155456fa4f8332623a64736f6c63430008110033",
  "linkReferences": {},
  "deployedLinkReferences": {}
}