{
  "_format": "hh-sol-artifact-1",
  "contractName": "Exchange",
  "sourceName": "contracts/sbinft/market/v1/exchange/Exchange.sol",
  "abi": [
    {
      "inputs": [
        {
          "internalType": "address",
          "name": "trustedForwarder",
          "type": "address"
        }
      ],
      "stateMutability": "nonpayable",
      "type": "constructor"
    },
    {
      "anonymous": false,
      "inputs": [
        {
          "indexed": false,
          "internalType": "address",
          "name": "",
          "type": "address"
        }
      ],
      "name": "AdminAdded",
      "type": "event"
    },
    {
      "anonymous": false,
      "inputs": [
        {
          "indexed": false,
          "internalType": "address",
          "name": "previousAdmin",
          "type": "address"
        },
        {
          "indexed": false,
          "internalType": "address",
          "name": "newAdmin",
          "type": "address"
        }
      ],
      "name": "AdminChanged",
      "type": "event"
    },
    {
      "anonymous": false,
      "inputs": [
        {
          "indexed": false,
          "internalType": "address",
          "name": "",
          "type": "address"
        }
      ],
      "name": "AdminRemoved",
      "type": "event"
    },
    {
      "anonymous": false,
      "inputs": [
        {
          "indexed": true,
          "internalType": "address",
          "name": "beacon",
          "type": "address"
        }
      ],
      "name": "BeaconUpgraded",
      "type": "event"
    },
    {
      "anonymous": false,
      "inputs": [
        {
          "indexed": false,
          "internalType": "uint8",
          "name": "version",
          "type": "uint8"
        }
      ],
      "name": "Initialized",
      "type": "event"
    },
    {
      "anonymous": false,
      "inputs": [
        {
          "indexed": true,
          "internalType": "uint256",
          "name": "nonce",
          "type": "uint256"
        }
      ],
      "name": "OrderCancelled",
      "type": "event"
    },
    {
      "anonymous": false,
      "inputs": [
        {
          "indexed": false,
          "internalType": "address",
          "name": "account",
          "type": "address"
        }
      ],
      "name": "Paused",
      "type": "event"
    },
    {
      "anonymous": false,
      "inputs": [
        {
          "indexed": true,
          "internalType": "contract IPlatformRegistry",
          "name": "platformRegistry",
          "type": "address"
        }
      ],
      "name": "PlatformRegistryUpdated",
      "type": "event"
    },
    {
      "anonymous": false,
      "inputs": [
        {
          "indexed": true,
          "internalType": "contract IRoyaltyRegistry",
          "name": "royaltyRegistry",
          "type": "address"
        }
      ],
      "name": "RoyaltyRegistryUpdated",
      "type": "event"
    },
    {
      "anonymous": false,
      "inputs": [
        {
          "indexed": true,
          "internalType": "uint256",
          "name": "nonce",
          "type": "uint256"
        }
      ],
      "name": "Sale",
      "type": "event"
    },
    {
      "anonymous": false,
      "inputs": [
        {
          "indexed": true,
          "internalType": "contract ITransferProxy",
          "name": "transferProxy",
          "type": "address"
        }
      ],
      "name": "TransferProxyUpdated",
      "type": "event"
    },
    {
      "anonymous": false,
      "inputs": [
        {
          "indexed": false,
          "internalType": "address",
          "name": "account",
          "type": "address"
        }
      ],
      "name": "Unpaused",
      "type": "event"
    },
    {
      "anonymous": false,
      "inputs": [
        {
          "indexed": true,
          "internalType": "address",
          "name": "implementation",
          "type": "address"
        }
      ],
      "name": "Upgraded",
      "type": "event"
    },
    {
      "inputs": [
        {
          "internalType": "contract IPlatformRegistry",
          "name": "_platformRegistry",
          "type": "address"
        },
        {
          "internalType": "contract IRoyaltyRegistry",
          "name": "_royaltyManager",
          "type": "address"
        },
        {
          "internalType": "contract ITransferProxy",
          "name": "_transferProxy",
          "type": "address"
        }
      ],
      "name": "__Exchange_init",
      "outputs": [],
      "stateMutability": "nonpayable",
      "type": "function"
    },
    {
      "inputs": [
        {
          "internalType": "address[]",
          "name": "newAdmin",
          "type": "address[]"
        }
      ],
      "name": "addAdmin",
      "outputs": [],
      "stateMutability": "nonpayable",
      "type": "function"
    },
    {
      "inputs": [
        {
          "internalType": "address",
          "name": "newAdmin",
          "type": "address"
        }
      ],
      "name": "addAdmin",
      "outputs": [],
      "stateMutability": "nonpayable",
      "type": "function"
    },
    {
      "inputs": [
        {
          "components": [
            {
              "components": [
                {
                  "internalType": "bytes4",
                  "name": "originKind",
                  "type": "bytes4"
                },
                {
                  "internalType": "address",
                  "name": "token",
                  "type": "address"
                },
                {
                  "internalType": "uint256",
                  "name": "tokenId",
                  "type": "uint256"
                },
                {
                  "internalType": "uint16",
                  "name": "partnerFeeRate",
                  "type": "uint16"
                },
                {
                  "internalType": "uint8",
                  "name": "isSecondarySale",
                  "type": "uint8"
                }
              ],
              "internalType": "struct OrderDomain.Asset[]",
              "name": "assetList",
              "type": "tuple[]"
            },
            {
              "internalType": "address",
              "name": "currentOwner",
              "type": "address"
            },
            {
              "internalType": "address",
              "name": "paymentReceiver",
              "type": "address"
            },
            {
              "components": [
                {
                  "internalType": "bytes4",
                  "name": "paymentMode",
                  "type": "bytes4"
                },
                {
                  "internalType": "address",
                  "name": "paymentToken",
                  "type": "address"
                },
                {
                  "internalType": "uint256",
                  "name": "price",
                  "type": "uint256"
                }
              ],
              "internalType": "struct OrderDomain.Payment[]",
              "name": "acceptedPaymentMode",
              "type": "tuple[]"
            },
            {
              "internalType": "uint16",
              "name": "pfSaleFeeRate",
              "type": "uint16"
            },
            {
              "internalType": "uint256",
              "name": "start",
              "type": "uint256"
            },
            {
              "internalType": "uint256",
              "name": "end",
              "type": "uint256"
            },
            {
              "internalType": "uint256",
              "name": "nonce",
              "type": "uint256"
            }
          ],
          "internalType": "struct OrderDomain.SaleOrder",
          "name": "_saleOrder",
          "type": "tuple"
        },
        {
          "internalType": "bytes",
          "name": "_salerSign",
          "type": "bytes"
        },
        {
          "internalType": "bytes",
          "name": "_platformSign",
          "type": "bytes"
        }
      ],
      "name": "cancel",
      "outputs": [],
      "stateMutability": "nonpayable",
      "type": "function"
    },
    {
      "inputs": [
        {
          "components": [
            {
              "components": [
                {
                  "internalType": "bytes4",
                  "name": "originKind",
                  "type": "bytes4"
                },
                {
                  "internalType": "address",
                  "name": "token",
                  "type": "address"
                },
                {
                  "internalType": "uint256",
                  "name": "tokenId",
                  "type": "uint256"
                },
                {
                  "internalType": "uint16",
                  "name": "partnerFeeRate",
                  "type": "uint16"
                },
                {
                  "internalType": "uint8",
                  "name": "isSecondarySale",
                  "type": "uint8"
                }
              ],
              "internalType": "struct OrderDomain.Asset[]",
              "name": "assetList",
              "type": "tuple[]"
            },
            {
              "internalType": "address",
              "name": "currentOwner",
              "type": "address"
            },
            {
              "internalType": "address",
              "name": "paymentReceiver",
              "type": "address"
            },
            {
              "components": [
                {
                  "internalType": "bytes4",
                  "name": "paymentMode",
                  "type": "bytes4"
                },
                {
                  "internalType": "address",
                  "name": "paymentToken",
                  "type": "address"
                },
                {
                  "internalType": "uint256",
                  "name": "price",
                  "type": "uint256"
                }
              ],
              "internalType": "struct OrderDomain.Payment[]",
              "name": "acceptedPaymentMode",
              "type": "tuple[]"
            },
            {
              "internalType": "uint16",
              "name": "pfSaleFeeRate",
              "type": "uint16"
            },
            {
              "internalType": "uint256",
              "name": "start",
              "type": "uint256"
            },
            {
              "internalType": "uint256",
              "name": "end",
              "type": "uint256"
            },
            {
              "internalType": "uint256",
              "name": "nonce",
              "type": "uint256"
            }
          ],
          "internalType": "struct OrderDomain.SaleOrder",
          "name": "_saleOrder",
          "type": "tuple"
        },
        {
          "internalType": "bytes",
          "name": "_salerSign",
          "type": "bytes"
        },
        {
          "components": [
            {
              "internalType": "uint256",
              "name": "saleNonce",
              "type": "uint256"
            },
            {
              "internalType": "address payable",
              "name": "buyer",
              "type": "address"
            },
            {
              "internalType": "address payable",
              "name": "payer",
              "type": "address"
            },
            {
              "components": [
                {
                  "internalType": "bytes4",
                  "name": "paymentMode",
                  "type": "bytes4"
                },
                {
                  "internalType": "address",
                  "name": "paymentToken",
                  "type": "address"
                },
                {
                  "internalType": "uint256",
                  "name": "price",
                  "type": "uint256"
                }
              ],
              "internalType": "struct OrderDomain.Payment",
              "name": "paymentDetails",
              "type": "tuple"
            },
            {
              "internalType": "uint256",
              "name": "validUntil",
              "type": "uint256"
            }
          ],
          "internalType": "struct OrderDomain.BuyOrder",
          "name": "_buyOrder",
          "type": "tuple"
        },
        {
          "internalType": "bytes",
          "name": "_buyerSign",
          "type": "bytes"
        },
        {
          "internalType": "bytes",
          "name": "_platformSign",
          "type": "bytes"
        }
      ],
      "name": "exchange",
      "outputs": [],
      "stateMutability": "payable",
      "type": "function"
    },
    {
      "inputs": [
        {
          "internalType": "address",
          "name": "checkAdmin",
          "type": "address"
        }
      ],
      "name": "isAdmin",
      "outputs": [
        {
          "internalType": "bool",
          "name": "",
          "type": "bool"
        }
      ],
      "stateMutability": "view",
      "type": "function"
    },
    {
      "inputs": [
        {
          "internalType": "address",
          "name": "forwarder",
          "type": "address"
        }
      ],
      "name": "isTrustedForwarder",
      "outputs": [
        {
          "internalType": "bool",
          "name": "",
          "type": "bool"
        }
      ],
      "stateMutability": "view",
      "type": "function"
    },
    {
      "inputs": [],
      "name": "pause",
      "outputs": [],
      "stateMutability": "nonpayable",
      "type": "function"
    },
    {
      "inputs": [],
      "name": "paused",
      "outputs": [
        {
          "internalType": "bool",
          "name": "",
          "type": "bool"
        }
      ],
      "stateMutability": "view",
      "type": "function"
    },
    {
      "inputs": [],
      "name": "platformRegistry",
      "outputs": [
        {
          "internalType": "contract IPlatformRegistry",
          "name": "",
          "type": "address"
        }
      ],
      "stateMutability": "view",
      "type": "function"
    },
    {
      "inputs": [],
      "name": "proxiableUUID",
      "outputs": [
        {
          "internalType": "bytes32",
          "name": "",
          "type": "bytes32"
        }
      ],
      "stateMutability": "view",
      "type": "function"
    },
    {
      "inputs": [
        {
          "internalType": "address",
          "name": "admin",
          "type": "address"
        }
      ],
      "name": "removeAdmin",
      "outputs": [],
      "stateMutability": "nonpayable",
      "type": "function"
    },
    {
      "inputs": [],
      "name": "royaltyRegistry",
      "outputs": [
        {
          "internalType": "contract IRoyaltyRegistry",
          "name": "",
          "type": "address"
        }
      ],
      "stateMutability": "view",
      "type": "function"
    },
    {
      "inputs": [
        {
          "internalType": "bytes4",
          "name": "_interfaceId",
          "type": "bytes4"
        }
      ],
      "name": "supportsInterface",
      "outputs": [
        {
          "internalType": "bool",
          "name": "",
          "type": "bool"
        }
      ],
      "stateMutability": "view",
      "type": "function"
    },
    {
      "inputs": [],
      "name": "transferProxy",
      "outputs": [
        {
          "internalType": "contract ITransferProxy",
          "name": "",
          "type": "address"
        }
      ],
      "stateMutability": "view",
      "type": "function"
    },
    {
      "inputs": [],
      "name": "unpause",
      "outputs": [],
      "stateMutability": "nonpayable",
      "type": "function"
    },
    {
      "inputs": [
        {
          "internalType": "contract IPlatformRegistry",
          "name": "_newPlatformRegistry",
          "type": "address"
        }
      ],
      "name": "updatePlatformRegistry",
      "outputs": [],
      "stateMutability": "nonpayable",
      "type": "function"
    },
    {
      "inputs": [
        {
          "internalType": "contract IRoyaltyRegistry",
          "name": "_newRoyaltyRegistry",
          "type": "address"
        }
      ],
      "name": "updateRoyaltyRegistry",
      "outputs": [],
      "stateMutability": "nonpayable",
      "type": "function"
    },
    {
      "inputs": [
        {
          "internalType": "contract ITransferProxy",
          "name": "_newTransferProxy",
          "type": "address"
        }
      ],
      "name": "updateTransferProxy",
      "outputs": [],
      "stateMutability": "nonpayable",
      "type": "function"
    },
    {
      "inputs": [
        {
          "internalType": "address",
          "name": "newImplementation",
          "type": "address"
        }
      ],
      "name": "upgradeTo",
      "outputs": [],
      "stateMutability": "nonpayable",
      "type": "function"
    },
    {
      "inputs": [
        {
          "internalType": "address",
          "name": "newImplementation",
          "type": "address"
        },
        {
          "internalType": "bytes",
          "name": "data",
          "type": "bytes"
        }
      ],
      "name": "upgradeToAndCall",
      "outputs": [],
      "stateMutability": "payable",
      "type": "function"
    },
    {
      "inputs": [
        {
          "internalType": "address payable",
          "name": "_receiver",
          "type": "address"
        },
        {
          "internalType": "address",
          "name": "_erc20Token",
          "type": "address"
        }
      ],
      "name": "withdrawTip",
      "outputs": [],
      "stateMutability": "nonpayable",
      "type": "function"
    }
  ],
  "bytecode": "0x60c06040523060a0523480156200001557600080fd5b506040516200489e3803806200489e833981016040819052620000389162000118565b6001600160a01b0381166080526200004f62000056565b506200014a565b600054610100900460ff1615620000c35760405162461bcd60e51b815260206004820152602760248201527f496e697469616c697a61626c653a20636f6e747261637420697320696e697469604482015266616c697a696e6760c81b606482015260840160405180910390fd5b60005460ff908116101562000116576000805460ff191660ff9081179091556040519081527f7f26b83ff96e1f2b6a682f133852f6798a09c465da95921460cefb38474024989060200160405180910390a15b565b6000602082840312156200012b57600080fd5b81516001600160a01b03811681146200014357600080fd5b9392505050565b60805160a05161470b62000193600039600081816107210152818161076101528181610fa301528181610fe301526110720152600081816102c50152612ff7015261470b6000f3fe6080604052600436106101355760003560e01c8063572b6c05116100ab578063704802751161006f578063704802751461038657806378da2409146103a65780638456cb59146103c6578063a11b0712146103db578063c255f878146103fc578063cc2531931461041d57600080fd5b8063572b6c05146102a857806357b80dcc146102f55780635c975abb14610315578063653551501461032d5780636e667db31461034d57600080fd5b80633d0950a8116100fd5780633d0950a81461020a5780633f4ba83a1461022a5780634a7d34381461023f5780634c275cac146102525780634f1ef2861461027257806352d1902d1461028557600080fd5b806301ffc9a71461013a5780631785f53c1461016f57806318cdeccc1461019157806324d7806c146101b15780633659cfe6146101ea575b600080fd5b34801561014657600080fd5b5061015a610155366004613c61565b61043d565b60405190151581526020015b60405180910390f35b34801561017b57600080fd5b5061018f61018a366004613c91565b610474565b005b34801561019d57600080fd5b5061018f6101ac366004613cae565b610554565b3480156101bd57600080fd5b5061015a6101cc366004613c91565b6001600160a01b031660009081526099602052604090205460ff1690565b3480156101f657600080fd5b5061018f610205366004613c91565b610717565b34801561021657600080fd5b5061018f610225366004613ce7565b6107f3565b34801561023657600080fd5b5061018f610884565b61018f61024d366004613db5565b6108d3565b34801561025e57600080fd5b5061018f61026d366004613c91565b610e62565b61018f610280366004613ede565b610f99565b34801561029157600080fd5b5061029a611065565b604051908152602001610166565b3480156102b457600080fd5b5061015a6102c3366004613c91565b7f00000000000000000000000000000000000000000000000000000000000000006001600160a01b0390811691161490565b34801561030157600080fd5b5061018f610310366004613f85565b611118565b34801561032157600080fd5b5060fe5460ff1661015a565b34801561033957600080fd5b5061018f610348366004613c91565b6111c8565b34801561035957600080fd5b506101955461036e906001600160a01b031681565b6040516001600160a01b039091168152602001610166565b34801561039257600080fd5b5061018f6103a1366004613c91565b6112ff565b3480156103b257600080fd5b5061018f6103c1366004614019565b61134d565b3480156103d257600080fd5b5061018f6114e8565b3480156103e757600080fd5b506101965461036e906001600160a01b031681565b34801561040857600080fd5b506101945461036e906001600160a01b031681565b34801561042957600080fd5b5061018f610438366004613c91565b611535565b60006001600160e01b031982166307714e7d60e21b148061046e57506301ffc9a760e01b6001600160e01b03198316145b92915050565b6099600061048061166c565b6001600160a01b0316815260208101919091526040016000205460ff166104c25760405162461bcd60e51b81526004016104b990614064565b60405180910390fd5b6001600160a01b03811660009081526099602052604090205460ff166105485760405162461bcd60e51b815260206004820152603560248201527f41646d696e3a72656d6f766541646d696e20747279696e6720746f2072656d6f6044820152743b32903737b71032bc34b9ba34b7339020b236b4b760591b60648201526084016104b9565b6105518161167b565b50565b6099600061056061166c565b6001600160a01b0316815260208101919091526040016000205460ff166105995760405162461bcd60e51b81526004016104b990614064565b6001600160a01b0382166105da5760405162461bcd60e51b8152602060048201526008602482015267453a57543a49524160c01b60448201526064016104b9565b6001600160a01b038116610622576040516001600160a01b038316904780156108fc02916000818181858888f1935050505015801561061d573d6000803e3d6000fd5b505050565b6001600160a01b038116600090815261019860205260408120905b81548110156106f057600082828154811061065a5761065a6140aa565b60009182526020909120610195546002909202018054600182015460405163776062c360e01b81529294506001600160a01b039384169363776062c3936106aa938a939216918b916004016140c0565b600060405180830381600087803b1580156106c457600080fd5b505af11580156106d8573d6000803e3d6000fd5b505050505080806106e890614100565b91505061063d565b506001600160a01b03821660009081526101986020526040812061061d91613bc6565b5050565b6001600160a01b037f000000000000000000000000000000000000000000000000000000000000000016300361075f5760405162461bcd60e51b81526004016104b990614119565b7f00000000000000000000000000000000000000000000000000000000000000006001600160a01b03166107a860008051602061468f833981519152546001600160a01b031690565b6001600160a01b0316146107ce5760405162461bcd60e51b81526004016104b990614165565b6107d7816116d3565b6040805160008082526020820190925261055191839190611718565b609960006107ff61166c565b6001600160a01b0316815260208101919091526040016000205460ff166108385760405162461bcd60e51b81526004016104b990614064565b60005b8181101561061d57610872838383818110610858576108586140aa565b905060200201602081019061086d9190613c91565b611883565b8061087c81614100565b91505061083b565b6099600061089061166c565b6001600160a01b0316815260208101919091526040016000205460ff166108c95760405162461bcd60e51b81526004016104b990614064565b6108d1611941565b565b6108db611999565b600260cc540361092d5760405162461bcd60e51b815260206004820152601f60248201527f5265656e7472616e637947756172643a207265656e7472616e742063616c6c0060448201526064016104b9565b600260cc5561093c88866119df565b61094c8888888888888888612335565b600061095e6080870160608801613c61565b9050610969816125d6565b15610e135761097661260c565b60006109828a88612678565b9050630251e45960e01b6001600160e01b03198316016109dc57803410156109d75760405162461bcd60e51b8152602060048201526008602482015267114e914e9391539560c21b60448201526064016104b9565b610b72565b631d45e89f60e21b6001600160e01b0319831601610b72576000610a0660a0890160808a01613c91565b905060006001600160a01b03821663dd62ed3e610a2960608c0160408d01613c91565b6101955460405160e084901b6001600160e01b03191681526001600160a01b03928316600482015291166024820152604401602060405180830381865afa158015610a78573d6000803e3d6000fd5b505050506040513d601f19601f82011682018060405250810190610a9c91906141b1565b905082811015610adc5760405162461bcd60e51b815260206004820152600b60248201526a0453a453a4e4545524332360ac1b60448201526064016104b9565b6000610ae884836141ca565b90508015610b6e57600060405180604001604052808c6040016020810190610b109190613c91565b6001600160a01b0390811682526020918201859052868116600090815261019883526040812080546001808201835591835291849020855160029093020180546001600160a01b031916929093169190911782559290910151910155505b5050505b6101965460408051630c0586bf60e11b815290516000926001600160a01b03169163180b0d7e916004808301926020929190829003018187875af1158015610bbe573d6000803e3d6000fd5b505050506040513d601f19601f82011682018060405250810190610be291906141ed565b61ffff16610bf660a08d0160808e0161420a565b610c049061ffff1684614227565b610c0e9190614254565b9050610c9361019460009054906101000a90046001600160a01b03166001600160a01b031663707d18486040518163ffffffff1660e01b81526004016020604051808303816000875af1158015610c69573d6000803e3d6000fd5b505050506040513d601f19601f82011682018060405250810190610c8d9190614268565b82612737565b6000610c9f8c80614285565b808060200260200160405190810160405280939291908181526020016000905b82821015610ceb57610cdc60a083028601368190038101906142dc565b81526020019060010190610cbf565b505050505090506000815184610d019190614254565b90506000825184610d129190614254565b905060008e6040016020810190610d299190613c91565b905060005b8451811015610dfa576000858281518110610d4b57610d4b6140aa565b602002602001015190506000610d6182876127dc565b608083015190915060009060ff16600103610d7d575085610d95565b81610d8887896141ca565b610d9291906141ca565b90505b6000610da18483612972565b608085015190915060ff16600103610de35760008184610dc18a8c6141ca565b610dcb91906141ca565b610dd591906141ca565b9050610de18782612737565b505b505050508080610df290614100565b915050610d2e565b50610e048c612a99565b610e0c61260c565b5050505050505b610e1d8987612c01565b610e2689612cf2565b6040518635907fc0a8d68d4d1f533ef6cdb7a49068cbe04356682803cb7983c4ba33ce99100efd90600090a25050600160cc5550505050505050565b60996000610e6e61166c565b6001600160a01b0316815260208101919091526040016000205460ff16610ea75760405162461bcd60e51b81526004016104b990614064565b6040516301ffc9a760e01b815263071d7d4b60e21b60048201526001600160a01b038216906301ffc9a790602401602060405180830381865afa158015610ef2573d6000803e3d6000fd5b505050506040513d601f19601f82011682018060405250810190610f169190614368565b610f4e5760405162461bcd60e51b8152602060048201526009602482015268453a5554503a494e5360b81b60448201526064016104b9565b61019580546001600160a01b0319166001600160a01b0383169081179091556040517fdf3b866248a7a3e982f0a93fde9cf30633ed3bb09365c16b08260ad033db920790600090a250565b6001600160a01b037f0000000000000000000000000000000000000000000000000000000000000000163003610fe15760405162461bcd60e51b81526004016104b990614119565b7f00000000000000000000000000000000000000000000000000000000000000006001600160a01b031661102a60008051602061468f833981519152546001600160a01b031690565b6001600160a01b0316146110505760405162461bcd60e51b81526004016104b990614165565b611059826116d3565b61071382826001611718565b6000306001600160a01b037f000000000000000000000000000000000000000000000000000000000000000016146111055760405162461bcd60e51b815260206004820152603860248201527f555550535570677261646561626c653a206d757374206e6f742062652063616c60448201527f6c6564207468726f7567682064656c656761746563616c6c000000000000000060648201526084016104b9565b5060008051602061468f83398151915290565b600260cc540361116a5760405162461bcd60e51b815260206004820152601f60248201527f5265656e7472616e637947756172643a207265656e7472616e742063616c6c0060448201526064016104b9565b600260cc55611177611999565b6111848585858585612d16565b61118d85612cf2565b60405160e0860135907f61b9399f2f0f32ca39ce8d7be32caed5ec22fe07a6daba3a467ed479ec60658290600090a25050600160cc55505050565b609960006111d461166c565b6001600160a01b0316815260208101919091526040016000205460ff1661120d5760405162461bcd60e51b81526004016104b990614064565b6040516301ffc9a760e01b8152630bb454f960e11b60048201526001600160a01b038216906301ffc9a790602401602060405180830381865afa158015611258573d6000803e3d6000fd5b505050506040513d601f19601f8201168201806040525081019061127c9190614368565b6112b45760405162461bcd60e51b8152602060048201526009602482015268453a5550523a494e5360b81b60448201526064016104b9565b61019480546001600160a01b0319166001600160a01b0383169081179091556040517fa48d197b43b1826afcf98445392676fa169817dd3216002b6fd70e8601ef2b0190600090a250565b6099600061130b61166c565b6001600160a01b0316815260208101919091526040016000205460ff166113445760405162461bcd60e51b81526004016104b990614064565b61055181611883565b600054610100900460ff161580801561136d5750600054600160ff909116105b806113875750303b158015611387575060005460ff166001145b6113ea5760405162461bcd60e51b815260206004820152602e60248201527f496e697469616c697a61626c653a20636f6e747261637420697320616c72656160448201526d191e481a5b9a5d1a585b1a5e995960921b60648201526084016104b9565b6000805460ff19166001179055801561140d576000805461ff0019166101001790555b611415612ec5565b61141d612eec565b6114696040518060400160405280600f81526020016e5342494e46542045786368616e676560881b815250604051806040016040528060038152602001620312e360ec1b815250612f26565b611471612f57565b611479612f86565b611481612ec5565b61148a846111c8565b61149383611535565b61149c82610e62565b80156114e2576000805461ff0019169055604051600181527f7f26b83ff96e1f2b6a682f133852f6798a09c465da95921460cefb38474024989060200160405180910390a15b50505050565b609960006114f461166c565b6001600160a01b0316815260208101919091526040016000205460ff1661152d5760405162461bcd60e51b81526004016104b990614064565b6108d1612fb5565b6099600061154161166c565b6001600160a01b0316815260208101919091526040016000205460ff1661157a5760405162461bcd60e51b81526004016104b990614064565b6040516301ffc9a760e01b8152635a8c1c2960e01b60048201526001600160a01b038216906301ffc9a790602401602060405180830381865afa1580156115c5573d6000803e3d6000fd5b505050506040513d601f19601f820116820180604052508101906115e99190614368565b6116215760405162461bcd60e51b8152602060048201526009602482015268453a5552523a494e5360b81b60448201526064016104b9565b61019680546001600160a01b0319166001600160a01b0383169081179091556040517f39753a6336ef533f6e1785dcab15abdacaf0467b09c6127c32053ad75bcefc6790600090a250565b6000611676612ff3565b905090565b6001600160a01b038116600081815260996020908152604091829020805460ff1916905590519182527fa3b62bc36326052d97ea62d63c3d60308ed4c3ea8ac079dd8499f1e9c4f80c0f91015b60405180910390a150565b609960006116df61166c565b6001600160a01b0316815260208101919091526040016000205460ff166105515760405162461bcd60e51b81526004016104b990614064565b7f4910fdfa16fed3260ed0e7147f7cc6da11a60208b5b9406d12a635614ffd91435460ff161561174b5761061d83613037565b826001600160a01b03166352d1902d6040518163ffffffff1660e01b8152600401602060405180830381865afa9250505080156117a5575060408051601f3d908101601f191682019092526117a2918101906141b1565b60015b6118085760405162461bcd60e51b815260206004820152602e60248201527f45524331393637557067726164653a206e657720696d706c656d656e7461746960448201526d6f6e206973206e6f74205555505360901b60648201526084016104b9565b60008051602061468f83398151915281146118775760405162461bcd60e51b815260206004820152602960248201527f45524331393637557067726164653a20756e737570706f727465642070726f786044820152681a58589b195555525160ba1b60648201526084016104b9565b5061061d8383836130d3565b6001600160a01b0381166118ed5760405162461bcd60e51b815260206004820152602b60248201527f41646d696e3a61646441646d696e206e657741646d696e20697320746865207a60448201526a65726f206164647265737360a81b60648201526084016104b9565b6001600160a01b038116600081815260996020908152604091829020805460ff1916600117905590519182527f44d6d25963f097ad14f29f06854a01f575648a1ef82f30e562ccd3889717e33991016116c8565b6119496130f8565b60fe805460ff191690557f5db9ee0a495bf2e6ff9c91a7834c1ba4fdd244a5e8aa4e537bd38aeae4b073aa61197c61166c565b6040516001600160a01b03909116815260200160405180910390a1565b60fe5460ff16156108d15760405162461bcd60e51b815260206004820152601060248201526f14185d5cd8589b194e881c185d5cd95960821b60448201526064016104b9565b6119e882613141565b15611a235760405162461bcd60e51b815260206004820152600b60248201526a114e90d411914e94d3d31160aa1b60448201526064016104b9565b428160c001351015611a635760405162461bcd60e51b8152602060048201526009602482015268453a435046453a454f60b81b60448201526064016104b9565b6101965460408051630c0586bf60e11b815290516064926001600160a01b03169163180b0d7e91600480830192602092919082900301816000875af1158015611ab0573d6000803e3d6000fd5b505050506040513d601f19601f82011682018060405250810190611ad491906141ed565b611ade919061438a565b61ffff16611af260a084016080850161420a565b61ffff161015611b325760405162461bcd60e51b815260206004820152600b60248201526a229d21a823229d29a4a82360a91b60448201526064016104b9565b6322ba176160e21b611b4a6080830160608401613c61565b6001600160e01b03191603611c1e57610194546001600160a01b0316635247385c611b7b60a0840160808501613c91565b6040516001600160e01b031960e084901b1681526001600160a01b039091166004820152602401602060405180830381865afa158015611bbf573d6000803e3d6000fd5b505050506040513d601f19601f82011682018060405250810190611be39190614368565b611c1e5760405162461bcd60e51b815260206004820152600c60248201526b453a435046453a4250544e5760a01b60448201526064016104b9565b6000611c2a8380614285565b905011611c675760405162461bcd60e51b815260206004820152600b60248201526a114e90d411914e94d2505360aa1b60448201526064016104b9565b60005b611c748380614285565b9050811015611ddb57611cb5611c8a8480614285565b83818110611c9a57611c9a6140aa565b611cb092602060a0909202019081019150613c61565b61316a565b611cef5760405162461bcd60e51b815260206004820152600b60248201526a453a435046453a5341494f60a81b60448201526064016104b9565b6000611cfb8480614285565b83818110611d0b57611d0b6140aa565b905060a002016020016020810190611d239190613c91565b6001600160a01b031603611d675760405162461bcd60e51b815260206004820152600b60248201526a114e90d411914e94d0525560aa1b60448201526064016104b9565b611d718380614285565b82818110611d8157611d816140aa565b905060a0020160400135600003611dc95760405162461bcd60e51b815260206004820152600c60248201526b453a435046453a534149544960a01b60448201526064016104b9565b80611dd381614100565b915050611c6a565b6000611ded6040850160208601613c91565b6001600160a01b031603611e315760405162461bcd60e51b815260206004820152600b60248201526a453a435046453a5349434f60a81b60448201526064016104b9565b6000611e436060850160408601613c91565b6001600160a01b031603611e875760405162461bcd60e51b815260206004820152600b60248201526a229d21a823229d29a4a82960a91b60448201526064016104b9565b60008360a00135118015611e9f5750428360a0013511155b611ed85760405162461bcd60e51b815260206004820152600a602482015269453a435046453a53495360b01b60448201526064016104b9565b60c08301351580611eec5750428360c00135115b611f255760405162461bcd60e51b815260206004820152600a602482015269453a435046453a53494560b01b60448201526064016104b9565b8260e00135600003611f665760405162461bcd60e51b815260206004820152600a602482015269229d21a823229d29a4a760b11b60448201526064016104b9565b8135600003611fa45760405162461bcd60e51b815260206004820152600a602482015269453a435046453a42495360b01b60448201526064016104b9565b60e0830135823514611fe55760405162461bcd60e51b815260206004820152600a602482015269229d21a823229d29a12760b11b60448201526064016104b9565b6000611ff76040840160208501613c91565b6001600160a01b03160361203a5760405162461bcd60e51b815260206004820152600a602482015269229d21a823229d2124a160b11b60448201526064016104b9565b600061204c6060840160408501613c91565b6001600160a01b03160361208f5760405162461bcd60e51b815260206004820152600a6024820152690453a435046453a4249560b41b60448201526064016104b9565b6120a76120a26080840160608501613c61565b6131a0565b6120e15760405162461bcd60e51b815260206004820152600b60248201526a453a435046453a4249504d60a81b60448201526064016104b9565b60a08201356000036121235760405162461bcd60e51b815260206004820152600b60248201526a0453a435046453a424f49560ac1b60448201526064016104b9565b6121336040830160208401613c91565b6001600160a01b031661214c6040850160208601613c91565b6001600160a01b0316036121915760405162461bcd60e51b815260206004820152600c60248201526b453a435046453a434141425360a01b60448201526064016104b9565b506000805b6121a360608501856143ab565b90508210156122fa576121e26121bc60608601866143ab565b848181106121cc576121cc6140aa565b6120a29260206060909202019081019150613c61565b61221e5760405162461bcd60e51b815260206004820152600d60248201526c453a435046453a5341504d504d60981b60448201526064016104b9565b61222b60608501856143ab565b8381811061223b5761223b6140aa565b905060600201604001356000036122845760405162461bcd60e51b815260206004820152600d60248201526c0453a435046453a5341504d495609c1b60448201526064016104b9565b6122946080840160608501613c61565b6001600160e01b0319166122ab60608601866143ab565b848181106122bb576122bb6140aa565b6122d19260206060909202019081019150613c61565b6001600160e01b031916036122e8575060016122fa565b816122f281614100565b925050612196565b806114e25760405162461bcd60e51b815260206004820152600b60248201526a453a435046453a504d4e4d60a81b60448201526064016104b9565b60006123c888888080601f0160208091040260200160405190810160405280939291908181526020018383808284376000920191909152506123c2925061237f91508d905061320c565b612387613309565b6040805161190160f01b6020808301919091526022820193909352604280820194909452815180820390940184526062019052815191012090565b90613384565b90506123da60408a0160208b01613c91565b6001600160a01b0316816001600160a01b0316146124265760405162461bcd60e51b8152602060048201526009602482015268453a5653453a49535360b81b60448201526064016104b9565b6000612431876133a0565b905061247b86868080601f0160208091040260200160405190810160405280939291908181526020018383808284376000920191909152506123c292508591506123879050613309565b915061248d6040880160208901613c91565b6001600160a01b0316826001600160a01b0316146124d95760405162461bcd60e51b8152602060048201526009602482015268453a5653453a49425360b81b60448201526064016104b9565b61252184848080601f0160208091040260200160405190810160405280939291908181526020018383808284376000920191909152506123c292508591506123879050613309565b61019454604051631353b4cb60e21b81526001600160a01b038084166004830152929450911690634d4ed32c90602401602060405180830381865afa15801561256e573d6000803e3d6000fd5b505050506040513d601f19601f820116820180604052508101906125929190614368565b6125ca5760405162461bcd60e51b8152602060048201526009602482015268453a5653453a49505360b81b60448201526064016104b9565b50505050505050505050565b60006001600160e01b0319821663fdae1ba760e01b148061046e57506001600160e01b031982166322ba176160e21b1492915050565b60005b61019a5481101561266a57610199600061019a8381548110612633576126336140aa565b60009182526020808320909101546001600160a01b031683528201929092526040018120558061266281614100565b91505061260f565b506108d161019a6000613be7565b600080805b61268a60608601866143ab565b905081101561272f576126a36080850160608601613c61565b6001600160e01b0319166126ba60608701876143ab565b838181106126ca576126ca6140aa565b6126e09260206060909202019081019150613c61565b6001600160e01b0319160361271d576126fc60608601866143ab565b8281811061270c5761270c6140aa565b90506060020160400135915061272f565b8061272781614100565b91505061267d565b509392505050565b8015610713576001600160a01b0382166000908152610199602052604081205490036127aa5761019a80546001810182556000919091527fd994f4dad00f9ff89caab117647e768aa59b274f965a222ec6a1586aa6e26bcb0180546001600160a01b0319166001600160a01b0384161790555b6001600160a01b03821660009081526101996020526040812080548392906127d39084906143f3565b90915550505050565b815160009081906127fd906001600160e01b03191663163b6d3b60e21b1490565b1561296b5761019454602085015160405163342ce4cb60e11b81526001600160a01b0391821660048201526000929190911690636859c996906024016020604051808303816000875af1158015612858573d6000803e3d6000fd5b505050506040513d601f19601f8201168201806040525081019061287c9190614268565b90506001600160a01b0381166128c35760405162461bcd60e51b815260206004820152600c60248201526b453a535046543a5046524e5360a01b60448201526064016104b9565b61019660009054906101000a90046001600160a01b03166001600160a01b031663180b0d7e6040518163ffffffff1660e01b81526004016020604051808303816000875af1158015612919573d6000803e3d6000fd5b505050506040513d601f19601f8201168201806040525081019061293d91906141ed565b61ffff16856060015161ffff16856129559190614227565b61295f9190614254565b915061272f8183612737565b9392505050565b61019654602083015160408085015160808601519151634287115760e01b81526001600160a01b03938416600482015260248101919091526044810185905260ff909116606482015260009283926060928392859216906342871157906084016000604051808303816000875af11580156129f1573d6000803e3d6000fd5b505050506040513d6000823e601f3d908101601f19168201604052612a19919081019061449f565b9194509250905060005b8351811015612a8d576000838281518110612a4057612a406140aa565b60200260200101519050612a6d858381518110612a5f57612a5f6140aa565b602002602001015182612737565b612a7781876143f3565b9550508080612a8590614100565b915050612a23565b50929695505050505050565b6000612aab6080830160608401613c61565b905060005b61019a5481101561061d57600061019a8281548110612ad157612ad16140aa565b60009182526020808320909101546001600160a01b0316808352610199909152604090912054909150630251e45960e01b6001600160e01b0319851601612b4e576040516001600160a01b0383169082156108fc029083906000818181858888f19350505050158015612b48573d6000803e3d6000fd5b50612bec565b631d45e89f60e21b6001600160e01b0319851601612bec57610195546001600160a01b031663776062c3612b8860a0880160808901613c91565b612b986060890160408a01613c91565b85856040518563ffffffff1660e01b8152600401612bb994939291906140c0565b600060405180830381600087803b158015612bd357600080fd5b505af1158015612be7573d6000803e3d6000fd5b505050505b50508080612bf990614100565b915050612ab0565b60005b612c0e8380614285565b905081101561061d576000612c238480614285565b83818110612c3357612c336140aa565b905060a00201803603810190612c4991906142dc565b610195546020808301519293506001600160a01b039091169163f709b90691612c789060408901908901613c91565b612c886040880160208901613c91565b85604001516040518563ffffffff1660e01b8152600401612cac94939291906140c0565b600060405180830381600087803b158015612cc657600080fd5b505af1158015612cda573d6000803e3d6000fd5b50505050508080612cea90614100565b915050612c04565b60016101976000612d028461320c565b815260208101919091526040016000205550565b6000612d218661320c565b90506000612d6d86868080601f0160208091040260200160405190810160405280939291908181526020018383808284376000920191909152506123c292508691506123879050613309565b9050612d7f6040880160208901613c91565b6001600160a01b0316816001600160a01b031614612dcb5760405162461bcd60e51b8152602060048201526009602482015268453a5653433a49535360b81b60448201526064016104b9565b612e1384848080601f0160208091040260200160405190810160405280939291908181526020018383808284376000920191909152506123c292508691506123879050613309565b61019454604051631353b4cb60e21b81526001600160a01b038084166004830152929350911690634d4ed32c90602401602060405180830381865afa158015612e60573d6000803e3d6000fd5b505050506040513d601f19601f82011682018060405250810190612e849190614368565b612ebc5760405162461bcd60e51b8152602060048201526009602482015268453a5653433a49505360b81b60448201526064016104b9565b50505050505050565b600054610100900460ff166108d15760405162461bcd60e51b81526004016104b990614573565b600054610100900460ff16612f135760405162461bcd60e51b81526004016104b990614573565b612f1b612ec5565b6108d161086d61166c565b600054610100900460ff16612f4d5760405162461bcd60e51b81526004016104b990614573565b6107138282613430565b600054610100900460ff16612f7e5760405162461bcd60e51b81526004016104b990614573565b6108d1613471565b600054610100900460ff16612fad5760405162461bcd60e51b81526004016104b990614573565b6108d16134a4565b612fbd611999565b60fe805460ff191660011790557f62e78cea01bee320cd4e420270b5ea74000d11b0c9f74754ebdbfc544b05a25861197c61166c565b60007f00000000000000000000000000000000000000000000000000000000000000006001600160a01b03163303613032575060131936013560601c90565b503390565b6001600160a01b0381163b6130a45760405162461bcd60e51b815260206004820152602d60248201527f455243313936373a206e657720696d706c656d656e746174696f6e206973206e60448201526c1bdd08184818dbdb9d1c9858dd609a1b60648201526084016104b9565b60008051602061468f83398151915280546001600160a01b0319166001600160a01b0392909216919091179055565b6130dc836134d2565b6000825111806130e95750805b1561061d576114e28383613512565b60fe5460ff166108d15760405162461bcd60e51b815260206004820152601460248201527314185d5cd8589b194e881b9bdd081c185d5cd95960621b60448201526064016104b9565b600061019760006131518461320c565b8152602001908152602001600020546001149050919050565b60006001600160e01b03198216639e80de3760e01b148061046e57506001600160e01b0319821663163b6d3b60e21b1492915050565b60006001600160e01b0319821663fdae1ba760e01b14806131d157506001600160e01b031982166322ba176160e21b145b806131ec57506001600160e01b03198216633ecaa07960e21b145b8061046e57506001600160e01b0319821663d5a81f1960e01b1492915050565b60007f39b77601008263a7668e3e906fb7170db776f21b4b101c313e63194c888f361d61324161323c8480614285565b613606565b6132516040850160208601613c91565b6132616060860160408701613c91565b61327661327160608801886143ab565b6136d8565b61328660a088016080890161420a565b6040805160208101979097528601949094526001600160a01b0392831660608601529116608084015260a08381019190915261ffff90911660c0838101919091529084013560e08381019190915290840135610100830152830135610120820152610140015b604051602081830303815290604052805190602001209050919050565b60006116767f8b73c3c69bb8fe3d512ecc4cf759cc79239f7b179b0ffacaa9a75d522b39400f61333860015490565b6002546040805160208101859052908101839052606081018290524660808201523060a082015260009060c0016040516020818303038152906040528051906020012090509392505050565b60008060006133938585613779565b9150915061272f816137be565b60007f16533b1a2b574048998c15c61696aff2836a5106c01e21954538cf393cf8124a82356133d56040850160208601613c91565b6133e56060860160408701613c91565b6133f186606001613974565b6040805160208101969096528501939093526001600160a01b03918216606085015216608083015260a082015260c0808401359082015260e0016132ec565b600054610100900460ff166134575760405162461bcd60e51b81526004016104b990614573565b815160209283012081519190920120600191909155600255565b600054610100900460ff166134985760405162461bcd60e51b81526004016104b990614573565b60fe805460ff19169055565b600054610100900460ff166134cb5760405162461bcd60e51b81526004016104b990614573565b600160cc55565b6134db81613037565b6040516001600160a01b038216907fbc7cd75a20ee27fd9adebab32041f755214dbc6bffa90cc0225b39da2e5c2d3b90600090a250565b60606001600160a01b0383163b61357a5760405162461bcd60e51b815260206004820152602660248201527f416464726573733a2064656c65676174652063616c6c20746f206e6f6e2d636f6044820152651b9d1c9858dd60d21b60648201526084016104b9565b600080846001600160a01b03168460405161359591906145e2565b600060405180830381855af49150503d80600081146135d0576040519150601f19603f3d011682016040523d82523d6000602084013e6135d5565b606091505b50915091506135fd82826040518060600160405280602781526020016146af602791396139ee565b95945050505050565b600080826001600160401b0381111561362157613621613e98565b60405190808252806020026020018201604052801561364a578160200160208202803683370190505b50905060005b838110156136a75761367885858381811061366d5761366d6140aa565b905060a00201613a27565b82828151811061368a5761368a6140aa565b60209081029190910101528061369f81614100565b915050613650565b50806040516020016136b991906145fe565b6040516020818303038152906040528051906020012091505092915050565b600080826001600160401b038111156136f3576136f3613e98565b60405190808252806020026020018201604052801561371c578160200160208202803683370190505b50905060005b838110156136a75761374a85858381811061373f5761373f6140aa565b905060600201613974565b82828151811061375c5761375c6140aa565b60209081029190910101528061377181614100565b915050613722565b60008082516041036137af5760208301516040840151606085015160001a6137a387828585613ad9565b945094505050506137b7565b506000905060025b9250929050565b60008160048111156137d2576137d2614628565b036137da5750565b60018160048111156137ee576137ee614628565b0361383b5760405162461bcd60e51b815260206004820152601860248201527f45434453413a20696e76616c6964207369676e6174757265000000000000000060448201526064016104b9565b600281600481111561384f5761384f614628565b0361389c5760405162461bcd60e51b815260206004820152601f60248201527f45434453413a20696e76616c6964207369676e6174757265206c656e6774680060448201526064016104b9565b60038160048111156138b0576138b0614628565b036139085760405162461bcd60e51b815260206004820152602260248201527f45434453413a20696e76616c6964207369676e6174757265202773272076616c604482015261756560f01b60648201526084016104b9565b600481600481111561391c5761391c614628565b036105515760405162461bcd60e51b815260206004820152602260248201527f45434453413a20696e76616c6964207369676e6174757265202776272076616c604482015261756560f01b60648201526084016104b9565b60007f5b442961536b72a0442e9a53df012289ed70f5c860457d810d2c17836bd8bdce6139a46020840184613c61565b6139b46040850160208601613c91565b6040805160208101949094526001600160e01b0319909216838301526001600160a01b03166060830152830135608082015260a0016132ec565b606083156139fd57508161296b565b825115613a0d5782518084602001fd5b8160405162461bcd60e51b81526004016104b9919061463e565b60007fda89efe36e8d4174abec2b392e28fde5f06a39ea80761619c7690bf866064524613a576020840184613c61565b613a676040850160208601613c91565b6040850135613a7c608087016060880161420a565b613a8c60a0880160808901614671565b6040805160208101979097526001600160e01b0319909516948601949094526001600160a01b039092166060850152608084015261ffff1660a083015260ff1660c082015260e0016132ec565b6000807f7fffffffffffffffffffffffffffffff5d576e7357a4501ddfe92f46681b20a0831115613b105750600090506003613bbd565b8460ff16601b14158015613b2857508460ff16601c14155b15613b395750600090506004613bbd565b6040805160008082526020820180845289905260ff881692820192909252606081018690526080810185905260019060a0016020604051602081039080840390855afa158015613b8d573d6000803e3d6000fd5b5050604051601f1901519150506001600160a01b038116613bb657600060019250925050613bbd565b9150600090505b94509492505050565b50805460008255600202906000526020600020908101906105519190613c05565b50805460008255906000526020600020908101906105519190613c2f565b5b80821115613c2b5780546001600160a01b031916815560006001820155600201613c06565b5090565b5b80821115613c2b5760008155600101613c30565b80356001600160e01b031981168114613c5c57600080fd5b919050565b600060208284031215613c7357600080fd5b61296b82613c44565b6001600160a01b038116811461055157600080fd5b600060208284031215613ca357600080fd5b813561296b81613c7c565b60008060408385031215613cc157600080fd5b8235613ccc81613c7c565b91506020830135613cdc81613c7c565b809150509250929050565b60008060208385031215613cfa57600080fd5b82356001600160401b0380821115613d1157600080fd5b818501915085601f830112613d2557600080fd5b813581811115613d3457600080fd5b8660208260051b8501011115613d4957600080fd5b60209290920196919550909350505050565b60006101008284031215613d6e57600080fd5b50919050565b60008083601f840112613d8657600080fd5b5081356001600160401b03811115613d9d57600080fd5b6020830191508360208285010111156137b757600080fd5b600080600080600080600080888a03610160811215613dd357600080fd5b89356001600160401b0380821115613dea57600080fd5b613df68d838e01613d5b565b9a5060208c0135915080821115613e0c57600080fd5b613e188d838e01613d74565b909a50985088915060e0603f1984011215613e3257600080fd5b60408c0197506101208c0135925080831115613e4d57600080fd5b613e598d848e01613d74565b90975095506101408c0135925086915080831115613e7657600080fd5b5050613e848b828c01613d74565b999c989b5096995094979396929594505050565b634e487b7160e01b600052604160045260246000fd5b604051601f8201601f191681016001600160401b0381118282101715613ed657613ed6613e98565b604052919050565b60008060408385031215613ef157600080fd5b8235613efc81613c7c565b91506020838101356001600160401b0380821115613f1957600080fd5b818601915086601f830112613f2d57600080fd5b813581811115613f3f57613f3f613e98565b613f51601f8201601f19168501613eae565b91508082528784828501011115613f6757600080fd5b80848401858401376000848284010152508093505050509250929050565b600080600080600060608688031215613f9d57600080fd5b85356001600160401b0380821115613fb457600080fd5b613fc089838a01613d5b565b96506020880135915080821115613fd657600080fd5b613fe289838a01613d74565b90965094506040880135915080821115613ffb57600080fd5b5061400888828901613d74565b969995985093965092949392505050565b60008060006060848603121561402e57600080fd5b833561403981613c7c565b9250602084013561404981613c7c565b9150604084013561405981613c7c565b809150509250925092565b60208082526026908201527f41646d696e3a6f6e6c7941646d696e2063616c6c6572206973206e6f7420616e6040820152651020b236b4b760d11b606082015260800190565b634e487b7160e01b600052603260045260246000fd5b6001600160a01b039485168152928416602084015292166040820152606081019190915260800190565b634e487b7160e01b600052601160045260246000fd5b600060018201614112576141126140ea565b5060010190565b6020808252602c908201527f46756e6374696f6e206d7573742062652063616c6c6564207468726f7567682060408201526b19195b1959d85d1958d85b1b60a21b606082015260800190565b6020808252602c908201527f46756e6374696f6e206d7573742062652063616c6c6564207468726f7567682060408201526b6163746976652070726f787960a01b606082015260800190565b6000602082840312156141c357600080fd5b5051919050565b8181038181111561046e5761046e6140ea565b61ffff8116811461055157600080fd5b6000602082840312156141ff57600080fd5b815161296b816141dd565b60006020828403121561421c57600080fd5b813561296b816141dd565b808202811582820484141761046e5761046e6140ea565b634e487b7160e01b600052601260045260246000fd5b6000826142635761426361423e565b500490565b60006020828403121561427a57600080fd5b815161296b81613c7c565b6000808335601e1984360301811261429c57600080fd5b8301803591506001600160401b038211156142b657600080fd5b602001915060a0810236038213156137b757600080fd5b60ff8116811461055157600080fd5b600060a082840312156142ee57600080fd5b60405160a081018181106001600160401b038211171561431057614310613e98565b60405261431c83613c44565b8152602083013561432c81613c7c565b6020820152604083810135908201526060830135614349816141dd565b6060820152608083013561435c816142cd565b60808201529392505050565b60006020828403121561437a57600080fd5b8151801515811461296b57600080fd5b600061ffff8084168061439f5761439f61423e565b92169190910492915050565b6000808335601e198436030181126143c257600080fd5b8301803591506001600160401b038211156143dc57600080fd5b60200191506060810236038213156137b757600080fd5b8082018082111561046e5761046e6140ea565b60006001600160401b0382111561441f5761441f613e98565b5060051b60200190565b600082601f83011261443a57600080fd5b8151602061444f61444a83614406565b613eae565b82815260059290921b8401810191818101908684111561446e57600080fd5b8286015b848110156144895780518352918301918301614472565b509695505050505050565b8051613c5c816142cd565b6000806000606084860312156144b457600080fd5b83516001600160401b03808211156144cb57600080fd5b818601915086601f8301126144df57600080fd5b815160206144ef61444a83614406565b82815260059290921b8401810191818101908a84111561450e57600080fd5b948201945b8386101561453557855161452681613c7c565b82529482019490820190614513565b9189015191975090935050508082111561454e57600080fd5b5061455b86828701614429565b92505061456a60408501614494565b90509250925092565b6020808252602b908201527f496e697469616c697a61626c653a20636f6e7472616374206973206e6f74206960408201526a6e697469616c697a696e6760a81b606082015260800190565b60005b838110156145d95781810151838201526020016145c1565b50506000910152565b600082516145f48184602087016145be565b9190910192915050565b815160009082906020808601845b83811015612a8d5781518552938201939082019060010161460c565b634e487b7160e01b600052602160045260246000fd5b602081526000825180602084015261465d8160408501602087016145be565b601f01601f19169190910160400192915050565b60006020828403121561468357600080fd5b813561296b816142cd56fe360894a13ba1a3210667c828492db98dca3e2076cc3735a920a3ca505d382bbc416464726573733a206c6f772d6c6576656c2064656c65676174652063616c6c206661696c6564a2646970667358221220f6f6dce9846f6639b73e01edea290ddc9c0cf2ebd7289a297aaf0e033ad17e3064736f6c63430008110033",
  "linkReferences": {},
  "deployedLinkReferences": {}
}