{
  "_format": "hh-sol-artifact-1",
  "contractName": "Exchange",
  "sourceName": "contracts/sbinft/market/v1/exchange/Exchange.sol",
  "abi": [
    {
      "inputs": [
        {
          "internalType": "address",
          "name": "trustedForwarder",
          "type": "address"
        }
      ],
      "stateMutability": "nonpayable",
      "type": "constructor"
    },
    {
      "anonymous": false,
      "inputs": [
        {
          "indexed": false,
          "internalType": "address",
          "name": "",
          "type": "address"
        }
      ],
      "name": "AdminAdded",
      "type": "event"
    },
    {
      "anonymous": false,
      "inputs": [
        {
          "indexed": false,
          "internalType": "address",
          "name": "previousAdmin",
          "type": "address"
        },
        {
          "indexed": false,
          "internalType": "address",
          "name": "newAdmin",
          "type": "address"
        }
      ],
      "name": "AdminChanged",
      "type": "event"
    },
    {
      "anonymous": false,
      "inputs": [
        {
          "indexed": false,
          "internalType": "address",
          "name": "",
          "type": "address"
        }
      ],
      "name": "AdminRemoved",
      "type": "event"
    },
    {
      "anonymous": false,
      "inputs": [
        {
          "indexed": true,
          "internalType": "address",
          "name": "beacon",
          "type": "address"
        }
      ],
      "name": "BeaconUpgraded",
      "type": "event"
    },
    {
      "anonymous": false,
      "inputs": [
        {
          "indexed": false,
          "internalType": "uint8",
          "name": "version",
          "type": "uint8"
        }
      ],
      "name": "Initialized",
      "type": "event"
    },
    {
      "anonymous": false,
      "inputs": [
        {
          "indexed": true,
          "internalType": "uint256",
          "name": "nonce",
          "type": "uint256"
        }
      ],
      "name": "OrderCancelled",
      "type": "event"
    },
    {
      "anonymous": false,
      "inputs": [
        {
          "indexed": false,
          "internalType": "address",
          "name": "account",
          "type": "address"
        }
      ],
      "name": "Paused",
      "type": "event"
    },
    {
      "anonymous": false,
      "inputs": [
        {
          "indexed": true,
          "internalType": "contract IPlatformRegistry",
          "name": "platformRegistry",
          "type": "address"
        }
      ],
      "name": "PlatformRegistryUpdated",
      "type": "event"
    },
    {
      "anonymous": false,
      "inputs": [
        {
          "indexed": true,
          "internalType": "contract IRoyaltyRegistry",
          "name": "royaltyRegistry",
          "type": "address"
        }
      ],
      "name": "RoyaltyRegistryUpdated",
      "type": "event"
    },
    {
      "anonymous": false,
      "inputs": [
        {
          "indexed": true,
          "internalType": "uint256",
          "name": "nonce",
          "type": "uint256"
        }
      ],
      "name": "Sale",
      "type": "event"
    },
    {
      "anonymous": false,
      "inputs": [
        {
          "indexed": true,
          "internalType": "contract ITransferProxy",
          "name": "transferProxy",
          "type": "address"
        }
      ],
      "name": "TransferProxyUpdated",
      "type": "event"
    },
    {
      "anonymous": false,
      "inputs": [
        {
          "indexed": false,
          "internalType": "address",
          "name": "account",
          "type": "address"
        }
      ],
      "name": "Unpaused",
      "type": "event"
    },
    {
      "anonymous": false,
      "inputs": [
        {
          "indexed": true,
          "internalType": "address",
          "name": "implementation",
          "type": "address"
        }
      ],
      "name": "Upgraded",
      "type": "event"
    },
    {
      "inputs": [
        {
          "internalType": "contract IPlatformRegistry",
          "name": "_platformRegistry",
          "type": "address"
        },
        {
          "internalType": "contract IRoyaltyRegistry",
          "name": "_royaltyManager",
          "type": "address"
        },
        {
          "internalType": "contract ITransferProxy",
          "name": "_transferProxy",
          "type": "address"
        }
      ],
      "name": "__Exchange_init",
      "outputs": [],
      "stateMutability": "nonpayable",
      "type": "function"
    },
    {
      "inputs": [
        {
          "internalType": "address[]",
          "name": "newAdmin",
          "type": "address[]"
        }
      ],
      "name": "addAdmin",
      "outputs": [],
      "stateMutability": "nonpayable",
      "type": "function"
    },
    {
      "inputs": [
        {
          "internalType": "address",
          "name": "newAdmin",
          "type": "address"
        }
      ],
      "name": "addAdmin",
      "outputs": [],
      "stateMutability": "nonpayable",
      "type": "function"
    },
    {
      "inputs": [
        {
          "components": [
            {
              "components": [
                {
                  "internalType": "bytes4",
                  "name": "originKind",
                  "type": "bytes4"
                },
                {
                  "internalType": "address",
                  "name": "token",
                  "type": "address"
                },
                {
                  "internalType": "uint256",
                  "name": "tokenId",
                  "type": "uint256"
                },
                {
                  "internalType": "uint16",
                  "name": "partnerFeeRate",
                  "type": "uint16"
                },
                {
                  "internalType": "uint8",
                  "name": "isSecondarySale",
                  "type": "uint8"
                }
              ],
              "internalType": "struct OrderDomain.Asset[]",
              "name": "assetList",
              "type": "tuple[]"
            },
            {
              "internalType": "address",
              "name": "currentOwner",
              "type": "address"
            },
            {
              "internalType": "address",
              "name": "paymentReceiver",
              "type": "address"
            },
            {
              "components": [
                {
                  "internalType": "bytes4",
                  "name": "paymentMode",
                  "type": "bytes4"
                },
                {
                  "internalType": "address",
                  "name": "paymentToken",
                  "type": "address"
                },
                {
                  "internalType": "uint256",
                  "name": "price",
                  "type": "uint256"
                }
              ],
              "internalType": "struct OrderDomain.Payment[]",
              "name": "acceptedPaymentMode",
              "type": "tuple[]"
            },
            {
              "internalType": "uint16",
              "name": "pfSaleFeeRate",
              "type": "uint16"
            },
            {
              "internalType": "uint256",
              "name": "start",
              "type": "uint256"
            },
            {
              "internalType": "uint256",
              "name": "end",
              "type": "uint256"
            },
            {
              "internalType": "uint256",
              "name": "nonce",
              "type": "uint256"
            }
          ],
          "internalType": "struct OrderDomain.SaleOrder",
          "name": "_saleOrder",
          "type": "tuple"
        },
        {
          "internalType": "bytes",
          "name": "_salerSign",
          "type": "bytes"
        },
        {
          "internalType": "bytes",
          "name": "_platformSign",
          "type": "bytes"
        }
      ],
      "name": "cancel",
      "outputs": [],
      "stateMutability": "nonpayable",
      "type": "function"
    },
    {
      "inputs": [
        {
          "components": [
            {
              "components": [
                {
                  "internalType": "bytes4",
                  "name": "originKind",
                  "type": "bytes4"
                },
                {
                  "internalType": "address",
                  "name": "token",
                  "type": "address"
                },
                {
                  "internalType": "uint256",
                  "name": "tokenId",
                  "type": "uint256"
                },
                {
                  "internalType": "uint16",
                  "name": "partnerFeeRate",
                  "type": "uint16"
                },
                {
                  "internalType": "uint8",
                  "name": "isSecondarySale",
                  "type": "uint8"
                }
              ],
              "internalType": "struct OrderDomain.Asset[]",
              "name": "assetList",
              "type": "tuple[]"
            },
            {
              "internalType": "address",
              "name": "currentOwner",
              "type": "address"
            },
            {
              "internalType": "address",
              "name": "paymentReceiver",
              "type": "address"
            },
            {
              "components": [
                {
                  "internalType": "bytes4",
                  "name": "paymentMode",
                  "type": "bytes4"
                },
                {
                  "internalType": "address",
                  "name": "paymentToken",
                  "type": "address"
                },
                {
                  "internalType": "uint256",
                  "name": "price",
                  "type": "uint256"
                }
              ],
              "internalType": "struct OrderDomain.Payment[]",
              "name": "acceptedPaymentMode",
              "type": "tuple[]"
            },
            {
              "internalType": "uint16",
              "name": "pfSaleFeeRate",
              "type": "uint16"
            },
            {
              "internalType": "uint256",
              "name": "start",
              "type": "uint256"
            },
            {
              "internalType": "uint256",
              "name": "end",
              "type": "uint256"
            },
            {
              "internalType": "uint256",
              "name": "nonce",
              "type": "uint256"
            }
          ],
          "internalType": "struct OrderDomain.SaleOrder",
          "name": "_saleOrder",
          "type": "tuple"
        },
        {
          "internalType": "bytes",
          "name": "_salerSign",
          "type": "bytes"
        },
        {
          "components": [
            {
              "internalType": "uint256",
              "name": "saleNonce",
              "type": "uint256"
            },
            {
              "internalType": "address payable",
              "name": "buyer",
              "type": "address"
            },
            {
              "internalType": "address payable",
              "name": "payer",
              "type": "address"
            },
            {
              "components": [
                {
                  "internalType": "bytes4",
                  "name": "paymentMode",
                  "type": "bytes4"
                },
                {
                  "internalType": "address",
                  "name": "paymentToken",
                  "type": "address"
                },
                {
                  "internalType": "uint256",
                  "name": "price",
                  "type": "uint256"
                }
              ],
              "internalType": "struct OrderDomain.Payment",
              "name": "paymentDetails",
              "type": "tuple"
            }
          ],
          "internalType": "struct OrderDomain.BuyOrder",
          "name": "_buyOrder",
          "type": "tuple"
        },
        {
          "internalType": "bytes",
          "name": "_buyerSign",
          "type": "bytes"
        },
        {
          "internalType": "bytes",
          "name": "_platformSign",
          "type": "bytes"
        }
      ],
      "name": "exchange",
      "outputs": [],
      "stateMutability": "payable",
      "type": "function"
    },
    {
      "inputs": [
        {
          "internalType": "address",
          "name": "checkAdmin",
          "type": "address"
        }
      ],
      "name": "isAdmin",
      "outputs": [
        {
          "internalType": "bool",
          "name": "",
          "type": "bool"
        }
      ],
      "stateMutability": "view",
      "type": "function"
    },
    {
      "inputs": [
        {
          "internalType": "address",
          "name": "forwarder",
          "type": "address"
        }
      ],
      "name": "isTrustedForwarder",
      "outputs": [
        {
          "internalType": "bool",
          "name": "",
          "type": "bool"
        }
      ],
      "stateMutability": "view",
      "type": "function"
    },
    {
      "inputs": [],
      "name": "pause",
      "outputs": [],
      "stateMutability": "nonpayable",
      "type": "function"
    },
    {
      "inputs": [],
      "name": "paused",
      "outputs": [
        {
          "internalType": "bool",
          "name": "",
          "type": "bool"
        }
      ],
      "stateMutability": "view",
      "type": "function"
    },
    {
      "inputs": [],
      "name": "platformRegistry",
      "outputs": [
        {
          "internalType": "contract IPlatformRegistry",
          "name": "",
          "type": "address"
        }
      ],
      "stateMutability": "view",
      "type": "function"
    },
    {
      "inputs": [],
      "name": "proxiableUUID",
      "outputs": [
        {
          "internalType": "bytes32",
          "name": "",
          "type": "bytes32"
        }
      ],
      "stateMutability": "view",
      "type": "function"
    },
    {
      "inputs": [
        {
          "internalType": "address",
          "name": "admin",
          "type": "address"
        }
      ],
      "name": "removeAdmin",
      "outputs": [],
      "stateMutability": "nonpayable",
      "type": "function"
    },
    {
      "inputs": [],
      "name": "royaltyRegistry",
      "outputs": [
        {
          "internalType": "contract IRoyaltyRegistry",
          "name": "",
          "type": "address"
        }
      ],
      "stateMutability": "view",
      "type": "function"
    },
    {
      "inputs": [
        {
          "internalType": "bytes4",
          "name": "_interfaceId",
          "type": "bytes4"
        }
      ],
      "name": "supportsInterface",
      "outputs": [
        {
          "internalType": "bool",
          "name": "",
          "type": "bool"
        }
      ],
      "stateMutability": "view",
      "type": "function"
    },
    {
      "inputs": [],
      "name": "transferProxy",
      "outputs": [
        {
          "internalType": "contract ITransferProxy",
          "name": "",
          "type": "address"
        }
      ],
      "stateMutability": "view",
      "type": "function"
    },
    {
      "inputs": [],
      "name": "unpause",
      "outputs": [],
      "stateMutability": "nonpayable",
      "type": "function"
    },
    {
      "inputs": [
        {
          "internalType": "contract IPlatformRegistry",
          "name": "_newPlatformRegistry",
          "type": "address"
        }
      ],
      "name": "updatePlatformRegistry",
      "outputs": [],
      "stateMutability": "nonpayable",
      "type": "function"
    },
    {
      "inputs": [
        {
          "internalType": "contract IRoyaltyRegistry",
          "name": "_newRoyaltyRegistry",
          "type": "address"
        }
      ],
      "name": "updateRoyaltyRegistry",
      "outputs": [],
      "stateMutability": "nonpayable",
      "type": "function"
    },
    {
      "inputs": [
        {
          "internalType": "contract ITransferProxy",
          "name": "_newTransferProxy",
          "type": "address"
        }
      ],
      "name": "updateTransferProxy",
      "outputs": [],
      "stateMutability": "nonpayable",
      "type": "function"
    },
    {
      "inputs": [
        {
          "internalType": "address",
          "name": "newImplementation",
          "type": "address"
        }
      ],
      "name": "upgradeTo",
      "outputs": [],
      "stateMutability": "nonpayable",
      "type": "function"
    },
    {
      "inputs": [
        {
          "internalType": "address",
          "name": "newImplementation",
          "type": "address"
        },
        {
          "internalType": "bytes",
          "name": "data",
          "type": "bytes"
        }
      ],
      "name": "upgradeToAndCall",
      "outputs": [],
      "stateMutability": "payable",
      "type": "function"
    },
    {
      "inputs": [
        {
          "internalType": "address payable",
          "name": "_receiver",
          "type": "address"
        },
        {
          "internalType": "address",
          "name": "_erc20Token",
          "type": "address"
        }
      ],
      "name": "withdrawTip",
      "outputs": [],
      "stateMutability": "nonpayable",
      "type": "function"
    }
  ],
  "bytecode": "0x60c06040523060a0523480156200001557600080fd5b506040516200482738038062004827833981016040819052620000389162000118565b6001600160a01b0381166080526200004f62000056565b506200014a565b600054610100900460ff1615620000c35760405162461bcd60e51b815260206004820152602760248201527f496e697469616c697a61626c653a20636f6e747261637420697320696e697469604482015266616c697a696e6760c81b606482015260840160405180910390fd5b60005460ff908116101562000116576000805460ff191660ff9081179091556040519081527f7f26b83ff96e1f2b6a682f133852f6798a09c465da95921460cefb38474024989060200160405180910390a15b565b6000602082840312156200012b57600080fd5b81516001600160a01b03811681146200014357600080fd5b9392505050565b60805160a05161469462000193600039600081816107210152818161076101528181610a1401528181610a540152610ae30152600081816102b20152612f8a01526146946000f3fe6080604052600436106101355760003560e01c806357b80dcc116100ab57806378da24091161006f57806378da2409146103935780638456cb59146103b3578063a11b0712146103c8578063c255f878146103e9578063cc2531931461040a578063fb21a0421461042a57600080fd5b806357b80dcc146102e25780635c975abb14610302578063653551501461031a5780636e667db31461033a578063704802751461037357600080fd5b80633d0950a8116100fd5780633d0950a81461020a5780633f4ba83a1461022a5780634c275cac1461023f5780634f1ef2861461025f57806352d1902d14610272578063572b6c051461029557600080fd5b806301ffc9a71461013a5780631785f53c1461016f57806318cdeccc1461019157806324d7806c146101b15780633659cfe6146101ea575b600080fd5b34801561014657600080fd5b5061015a610155366004613bea565b61043d565b60405190151581526020015b60405180910390f35b34801561017b57600080fd5b5061018f61018a366004613c1a565b610474565b005b34801561019d57600080fd5b5061018f6101ac366004613c37565b610554565b3480156101bd57600080fd5b5061015a6101cc366004613c1a565b6001600160a01b031660009081526099602052604090205460ff1690565b3480156101f657600080fd5b5061018f610205366004613c1a565b610717565b34801561021657600080fd5b5061018f610225366004613c70565b6107f3565b34801561023657600080fd5b5061018f610884565b34801561024b57600080fd5b5061018f61025a366004613c1a565b6108d3565b61018f61026d366004613d2a565b610a0a565b34801561027e57600080fd5b50610287610ad6565b604051908152602001610166565b3480156102a157600080fd5b5061015a6102b0366004613c1a565b7f00000000000000000000000000000000000000000000000000000000000000006001600160a01b0390811691161490565b3480156102ee57600080fd5b5061018f6102fd366004613e2b565b610b89565b34801561030e57600080fd5b5060fe5460ff1661015a565b34801561032657600080fd5b5061018f610335366004613c1a565b610c39565b34801561034657600080fd5b506101955461035b906001600160a01b031681565b6040516001600160a01b039091168152602001610166565b34801561037f57600080fd5b5061018f61038e366004613c1a565b610d70565b34801561039f57600080fd5b5061018f6103ae366004613ebf565b610dbe565b3480156103bf57600080fd5b5061018f610f59565b3480156103d457600080fd5b506101965461035b906001600160a01b031681565b3480156103f557600080fd5b506101945461035b906001600160a01b031681565b34801561041657600080fd5b5061018f610425366004613c1a565b610fa6565b61018f610438366004613f0a565b6110dd565b60006001600160e01b0319821663564cd6c760e11b148061046e57506301ffc9a760e01b6001600160e01b03198316145b92915050565b6099600061048061163f565b6001600160a01b0316815260208101919091526040016000205460ff166104c25760405162461bcd60e51b81526004016104b990613fed565b60405180910390fd5b6001600160a01b03811660009081526099602052604090205460ff166105485760405162461bcd60e51b815260206004820152603560248201527f41646d696e3a72656d6f766541646d696e20747279696e6720746f2072656d6f6044820152743b32903737b71032bc34b9ba34b7339020b236b4b760591b60648201526084016104b9565b6105518161164e565b50565b6099600061056061163f565b6001600160a01b0316815260208101919091526040016000205460ff166105995760405162461bcd60e51b81526004016104b990613fed565b6001600160a01b0382166105da5760405162461bcd60e51b8152602060048201526008602482015267453a57543a49524160c01b60448201526064016104b9565b6001600160a01b038116610622576040516001600160a01b038316904780156108fc02916000818181858888f1935050505015801561061d573d6000803e3d6000fd5b505050565b6001600160a01b038116600090815261019860205260408120905b81548110156106f057600082828154811061065a5761065a614033565b60009182526020909120610195546002909202018054600182015460405163776062c360e01b81529294506001600160a01b039384169363776062c3936106aa938a939216918b91600401614049565b600060405180830381600087803b1580156106c457600080fd5b505af11580156106d8573d6000803e3d6000fd5b505050505080806106e890614089565b91505061063d565b506001600160a01b03821660009081526101986020526040812061061d91613b4f565b5050565b6001600160a01b037f000000000000000000000000000000000000000000000000000000000000000016300361075f5760405162461bcd60e51b81526004016104b9906140a2565b7f00000000000000000000000000000000000000000000000000000000000000006001600160a01b03166107a8600080516020614618833981519152546001600160a01b031690565b6001600160a01b0316146107ce5760405162461bcd60e51b81526004016104b9906140ee565b6107d7816116a6565b60408051600080825260208201909252610551918391906116eb565b609960006107ff61163f565b6001600160a01b0316815260208101919091526040016000205460ff166108385760405162461bcd60e51b81526004016104b990613fed565b60005b8181101561061d5761087283838381811061085857610858614033565b905060200201602081019061086d9190613c1a565b611856565b8061087c81614089565b91505061083b565b6099600061089061163f565b6001600160a01b0316815260208101919091526040016000205460ff166108c95760405162461bcd60e51b81526004016104b990613fed565b6108d1611914565b565b609960006108df61163f565b6001600160a01b0316815260208101919091526040016000205460ff166109185760405162461bcd60e51b81526004016104b990613fed565b6040516301ffc9a760e01b815263071d7d4b60e21b60048201526001600160a01b038216906301ffc9a790602401602060405180830381865afa158015610963573d6000803e3d6000fd5b505050506040513d601f19601f82011682018060405250810190610987919061413a565b6109bf5760405162461bcd60e51b8152602060048201526009602482015268453a5554503a494e5360b81b60448201526064016104b9565b61019580546001600160a01b0319166001600160a01b0383169081179091556040517fdf3b866248a7a3e982f0a93fde9cf30633ed3bb09365c16b08260ad033db920790600090a250565b6001600160a01b037f0000000000000000000000000000000000000000000000000000000000000000163003610a525760405162461bcd60e51b81526004016104b9906140a2565b7f00000000000000000000000000000000000000000000000000000000000000006001600160a01b0316610a9b600080516020614618833981519152546001600160a01b031690565b6001600160a01b031614610ac15760405162461bcd60e51b81526004016104b9906140ee565b610aca826116a6565b610713828260016116eb565b6000306001600160a01b037f00000000000000000000000000000000000000000000000000000000000000001614610b765760405162461bcd60e51b815260206004820152603860248201527f555550535570677261646561626c653a206d757374206e6f742062652063616c60448201527f6c6564207468726f7567682064656c656761746563616c6c000000000000000060648201526084016104b9565b5060008051602061461883398151915290565b600260cc5403610bdb5760405162461bcd60e51b815260206004820152601f60248201527f5265656e7472616e637947756172643a207265656e7472616e742063616c6c0060448201526064016104b9565b600260cc55610be861196c565b610bf585858585856119b2565b610bfe85611ba2565b60405160e0860135907f61b9399f2f0f32ca39ce8d7be32caed5ec22fe07a6daba3a467ed479ec60658290600090a25050600160cc55505050565b60996000610c4561163f565b6001600160a01b0316815260208101919091526040016000205460ff16610c7e5760405162461bcd60e51b81526004016104b990613fed565b6040516301ffc9a760e01b81526302d7f8cb60e01b60048201526001600160a01b038216906301ffc9a790602401602060405180830381865afa158015610cc9573d6000803e3d6000fd5b505050506040513d601f19601f82011682018060405250810190610ced919061413a565b610d255760405162461bcd60e51b8152602060048201526009602482015268453a5550523a494e5360b81b60448201526064016104b9565b61019480546001600160a01b0319166001600160a01b0383169081179091556040517fa48d197b43b1826afcf98445392676fa169817dd3216002b6fd70e8601ef2b0190600090a250565b60996000610d7c61163f565b6001600160a01b0316815260208101919091526040016000205460ff16610db55760405162461bcd60e51b81526004016104b990613fed565b61055181611856565b600054610100900460ff1615808015610dde5750600054600160ff909116105b80610df85750303b158015610df8575060005460ff166001145b610e5b5760405162461bcd60e51b815260206004820152602e60248201527f496e697469616c697a61626c653a20636f6e747261637420697320616c72656160448201526d191e481a5b9a5d1a585b1a5e995960921b60648201526084016104b9565b6000805460ff191660011790558015610e7e576000805461ff0019166101001790555b610e86611bc6565b610e8e611bed565b610eda6040518060400160405280600f81526020016e5342494e46542045786368616e676560881b815250604051806040016040528060038152602001620312e360ec1b815250611c27565b610ee2611c58565b610eea611c87565b610ef2611bc6565b610efb84610c39565b610f0483610fa6565b610f0d826108d3565b8015610f53576000805461ff0019169055604051600181527f7f26b83ff96e1f2b6a682f133852f6798a09c465da95921460cefb38474024989060200160405180910390a15b50505050565b60996000610f6561163f565b6001600160a01b0316815260208101919091526040016000205460ff16610f9e5760405162461bcd60e51b81526004016104b990613fed565b6108d1611cb6565b60996000610fb261163f565b6001600160a01b0316815260208101919091526040016000205460ff16610feb5760405162461bcd60e51b81526004016104b990613fed565b6040516301ffc9a760e01b8152635a8c1c2960e01b60048201526001600160a01b038216906301ffc9a790602401602060405180830381865afa158015611036573d6000803e3d6000fd5b505050506040513d601f19601f8201168201806040525081019061105a919061413a565b6110925760405162461bcd60e51b8152602060048201526009602482015268453a5552523a494e5360b81b60448201526064016104b9565b61019680546001600160a01b0319166001600160a01b0383169081179091556040517f39753a6336ef533f6e1785dcab15abdacaf0467b09c6127c32053ad75bcefc6790600090a250565b6110e561196c565b600260cc54036111375760405162461bcd60e51b815260206004820152601f60248201527f5265656e7472616e637947756172643a207265656e7472616e742063616c6c0060448201526064016104b9565b600260cc556111468886611cf4565b6111508886611ef3565b611160888888888888888861260a565b60006111726080870160608801613bea565b905061117d8161286a565b156115f05761118a6128a0565b60006111968a8861290c565b9050630251e45960e01b6001600160e01b03198316016111f057803410156111eb5760405162461bcd60e51b815260206004820152600860248201526708a748a749c8aa8960c31b60448201526064016104b9565b611385565b631d45e89f60e21b6001600160e01b031983160161138557600061121a60a0890160808a01613c1a565b905060006001600160a01b03821663dd62ed3e61123d60608c0160408d01613c1a565b6101955460405160e084901b6001600160e01b03191681526001600160a01b03928316600482015291166024820152604401602060405180830381865afa15801561128c573d6000803e3d6000fd5b505050506040513d601f19601f820116820180604052508101906112b0919061415c565b9050828110156112ef5760405162461bcd60e51b815260206004820152600a6024820152690453a453a4e45524332360b41b60448201526064016104b9565b60006112fb8483614175565b9050801561138157600060405180604001604052808c60400160208101906113239190613c1a565b6001600160a01b0390811682526020918201859052868116600090815261019883526040812080546001808201835591835291849020855160029093020180546001600160a01b031916929093169190911782559290910151910155505b5050505b6101965460408051630c0586bf60e11b815290516000926001600160a01b03169163180b0d7e916004808301926020929190829003018187875af11580156113d1573d6000803e3d6000fd5b505050506040513d601f19601f820116820180604052508101906113f59190614198565b61ffff1661140960a08d0160808e016141b5565b6114179061ffff16846141d2565b61142191906141ff565b90506114a661019460009054906101000a90046001600160a01b03166001600160a01b031663707d18486040518163ffffffff1660e01b81526004016020604051808303816000875af115801561147c573d6000803e3d6000fd5b505050506040513d601f19601f820116820180604052508101906114a09190614213565b826129cb565b60006114b28c80614230565b808060200260200160405190810160405280939291908181526020016000905b828210156114fe576114ef60a08302860136819003810190614287565b815260200190600101906114d2565b50505050509050600081518461151491906141ff565b9050600082518461152591906141ff565b905060008e604001602081019061153c9190613c1a565b905060005b84518110156115d757600085828151811061155e5761155e614033565b6020026020010151905060006115748287612a70565b90506000816115838789614175565b61158d9190614175565b9050600061159b8483612c06565b608085015190915060ff166001036115c0576115c0866115bb8385614175565b6129cb565b5050505080806115cf90614089565b915050611541565b506115e18c612d2d565b6115e96128a0565b5050505050505b6115fa8987612e95565b61160389611ba2565b6040518635907fc0a8d68d4d1f533ef6cdb7a49068cbe04356682803cb7983c4ba33ce99100efd90600090a25050600160cc5550505050505050565b6000611649612f86565b905090565b6001600160a01b038116600081815260996020908152604091829020805460ff1916905590519182527fa3b62bc36326052d97ea62d63c3d60308ed4c3ea8ac079dd8499f1e9c4f80c0f91015b60405180910390a150565b609960006116b261163f565b6001600160a01b0316815260208101919091526040016000205460ff166105515760405162461bcd60e51b81526004016104b990613fed565b7f4910fdfa16fed3260ed0e7147f7cc6da11a60208b5b9406d12a635614ffd91435460ff161561171e5761061d83612fca565b826001600160a01b03166352d1902d6040518163ffffffff1660e01b8152600401602060405180830381865afa925050508015611778575060408051601f3d908101601f191682019092526117759181019061415c565b60015b6117db5760405162461bcd60e51b815260206004820152602e60248201527f45524331393637557067726164653a206e657720696d706c656d656e7461746960448201526d6f6e206973206e6f74205555505360901b60648201526084016104b9565b600080516020614618833981519152811461184a5760405162461bcd60e51b815260206004820152602960248201527f45524331393637557067726164653a20756e737570706f727465642070726f786044820152681a58589b195555525160ba1b60648201526084016104b9565b5061061d838383613066565b6001600160a01b0381166118c05760405162461bcd60e51b815260206004820152602b60248201527f41646d696e3a61646441646d696e206e657741646d696e20697320746865207a60448201526a65726f206164647265737360a81b60648201526084016104b9565b6001600160a01b038116600081815260996020908152604091829020805460ff1916600117905590519182527f44d6d25963f097ad14f29f06854a01f575648a1ef82f30e562ccd3889717e339910161169b565b61191c61308b565b60fe805460ff191690557f5db9ee0a495bf2e6ff9c91a7834c1ba4fdd244a5e8aa4e537bd38aeae4b073aa61194f61163f565b6040516001600160a01b03909116815260200160405180910390a1565b60fe5460ff16156108d15760405162461bcd60e51b815260206004820152601060248201526f14185d5cd8589b194e881c185d5cd95960821b60448201526064016104b9565b60006119bd866130d4565b90506000611a4a86868080601f016020809104026020016040519081016040528093929190818152602001838380828437600092019190915250611a449250869150611a0990506131d1565b6040805161190160f01b6020808301919091526022820193909352604280820194909452815180820390940184526062019052815191012090565b9061324c565b9050611a5c6040880160208901613c1a565b6001600160a01b0316816001600160a01b031614611aa85760405162461bcd60e51b8152602060048201526009602482015268453a5653433a49535360b81b60448201526064016104b9565b611af084848080601f016020809104026020016040519081016040528093929190818152602001838380828437600092019190915250611a449250869150611a0990506131d1565b61019454604051631353b4cb60e21b81526001600160a01b038084166004830152929350911690634d4ed32c90602401602060405180830381865afa158015611b3d573d6000803e3d6000fd5b505050506040513d601f19601f82011682018060405250810190611b61919061413a565b611b995760405162461bcd60e51b8152602060048201526009602482015268453a5653433a49505360b81b60448201526064016104b9565b50505050505050565b60016101976000611bb2846130d4565b815260208101919091526040016000205550565b600054610100900460ff166108d15760405162461bcd60e51b81526004016104b990614313565b600054610100900460ff16611c145760405162461bcd60e51b81526004016104b990614313565b611c1c611bc6565b6108d161086d61163f565b600054610100900460ff16611c4e5760405162461bcd60e51b81526004016104b990614313565b6107138282613268565b600054610100900460ff16611c7f5760405162461bcd60e51b81526004016104b990614313565b6108d16132a9565b600054610100900460ff16611cae5760405162461bcd60e51b81526004016104b990614313565b6108d16132dc565b611cbe61196c565b60fe805460ff191660011790557f62e78cea01bee320cd4e420270b5ea74000d11b0c9f74754ebdbfc544b05a25861194f61163f565b611cfd8261330a565b15611d385760405162461bcd60e51b815260206004820152600b60248201526a114e90d411914e94d3d31160aa1b60448201526064016104b9565b6101965460408051630c0586bf60e11b815290516064926001600160a01b03169163180b0d7e91600480830192602092919082900301816000875af1158015611d85573d6000803e3d6000fd5b505050506040513d601f19601f82011682018060405250810190611da99190614198565b611db3919061435e565b61ffff16611dc760a08401608085016141b5565b61ffff161015611e075760405162461bcd60e51b815260206004820152600b60248201526a229d21a823229d29a4a82360a91b60448201526064016104b9565b6322ba176160e21b611e1f6080830160608401613bea565b6001600160e01b0319160361071357610194546001600160a01b0316635247385c611e5060a0840160808501613c1a565b6040516001600160e01b031960e084901b1681526001600160a01b039091166004820152602401602060405180830381865afa158015611e94573d6000803e3d6000fd5b505050506040513d601f19601f82011682018060405250810190611eb8919061413a565b6107135760405162461bcd60e51b815260206004820152600c60248201526b453a435046453a4250544e5760a01b60448201526064016104b9565b6000611eff8380614230565b905011611f3c5760405162461bcd60e51b815260206004820152600b60248201526a114e90d411914e94d2505360aa1b60448201526064016104b9565b60005b611f498380614230565b90508110156120b057611f8a611f5f8480614230565b83818110611f6f57611f6f614033565b611f8592602060a0909202019081019150613bea565b613333565b611fc45760405162461bcd60e51b815260206004820152600b60248201526a453a435046453a5341494f60a81b60448201526064016104b9565b6000611fd08480614230565b83818110611fe057611fe0614033565b905060a002016020016020810190611ff89190613c1a565b6001600160a01b03160361203c5760405162461bcd60e51b815260206004820152600b60248201526a114e90d411914e94d0525560aa1b60448201526064016104b9565b6120468380614230565b8281811061205657612056614033565b905060a002016040013560000361209e5760405162461bcd60e51b815260206004820152600c60248201526b453a435046453a534149544960a01b60448201526064016104b9565b806120a881614089565b915050611f3f565b60006120c26040850160208601613c1a565b6001600160a01b0316036121065760405162461bcd60e51b815260206004820152600b60248201526a453a435046453a5349434f60a81b60448201526064016104b9565b60006121186060850160408601613c1a565b6001600160a01b03160361215c5760405162461bcd60e51b815260206004820152600b60248201526a229d21a823229d29a4a82960a91b60448201526064016104b9565b60008360a001351180156121745750428360a0013511155b6121ad5760405162461bcd60e51b815260206004820152600a602482015269453a435046453a53495360b01b60448201526064016104b9565b60c083013515806121c15750428360c00135115b6121fa5760405162461bcd60e51b815260206004820152600a602482015269453a435046453a53494560b01b60448201526064016104b9565b8260e0013560000361223b5760405162461bcd60e51b815260206004820152600a602482015269229d21a823229d29a4a760b11b60448201526064016104b9565b81356000036122795760405162461bcd60e51b815260206004820152600a602482015269453a435046453a42495360b01b60448201526064016104b9565b60e08301358235146122ba5760405162461bcd60e51b815260206004820152600a602482015269229d21a823229d29a12760b11b60448201526064016104b9565b60006122cc6040840160208501613c1a565b6001600160a01b03160361230f5760405162461bcd60e51b815260206004820152600a602482015269229d21a823229d2124a160b11b60448201526064016104b9565b60006123216060840160408501613c1a565b6001600160a01b0316036123645760405162461bcd60e51b815260206004820152600a6024820152690453a435046453a4249560b41b60448201526064016104b9565b61237c6123776080840160608501613bea565b613369565b6123b65760405162461bcd60e51b815260206004820152600b60248201526a453a435046453a4249504d60a81b60448201526064016104b9565b60a08201356000036123f85760405162461bcd60e51b815260206004820152600b60248201526a0453a435046453a424f49560ac1b60448201526064016104b9565b6124086040830160208401613c1a565b6001600160a01b03166124216040850160208601613c1a565b6001600160a01b0316036124665760405162461bcd60e51b815260206004820152600c60248201526b453a435046453a434141425360a01b60448201526064016104b9565b506000805b612478606085018561437f565b90508210156125cf576124b7612491606086018661437f565b848181106124a1576124a1614033565b6123779260206060909202019081019150613bea565b6124f35760405162461bcd60e51b815260206004820152600d60248201526c453a435046453a5341504d504d60981b60448201526064016104b9565b612500606085018561437f565b8381811061251057612510614033565b905060600201604001356000036125595760405162461bcd60e51b815260206004820152600d60248201526c0453a435046453a5341504d495609c1b60448201526064016104b9565b6125696080840160608501613bea565b6001600160e01b031916612580606086018661437f565b8481811061259057612590614033565b6125a69260206060909202019081019150613bea565b6001600160e01b031916036125bd575060016125cf565b816125c781614089565b92505061246b565b80610f535760405162461bcd60e51b815260206004820152600b60248201526a453a435046453a504d4e4d60a81b60448201526064016104b9565b600061265c88888080601f016020809104026020016040519081016040528093929190818152602001838380828437600092019190915250611a44925061265491508d90506130d4565b611a096131d1565b905061266e60408a0160208b01613c1a565b6001600160a01b0316816001600160a01b0316146126ba5760405162461bcd60e51b8152602060048201526009602482015268453a5653453a49535360b81b60448201526064016104b9565b60006126c5876133d5565b905061270f86868080601f016020809104026020016040519081016040528093929190818152602001838380828437600092019190915250611a449250859150611a0990506131d1565b91506127216040880160208901613c1a565b6001600160a01b0316826001600160a01b03161461276d5760405162461bcd60e51b8152602060048201526009602482015268453a5653453a49425360b81b60448201526064016104b9565b6127b584848080601f016020809104026020016040519081016040528093929190818152602001838380828437600092019190915250611a449250859150611a0990506131d1565b61019454604051631353b4cb60e21b81526001600160a01b038084166004830152929450911690634d4ed32c90602401602060405180830381865afa158015612802573d6000803e3d6000fd5b505050506040513d601f19601f82011682018060405250810190612826919061413a565b61285e5760405162461bcd60e51b8152602060048201526009602482015268453a5653453a49505360b81b60448201526064016104b9565b50505050505050505050565b60006001600160e01b0319821663fdae1ba760e01b148061046e57506001600160e01b031982166322ba176160e21b1492915050565b60005b61019a548110156128fe57610199600061019a83815481106128c7576128c7614033565b60009182526020808320909101546001600160a01b03168352820192909252604001812055806128f681614089565b9150506128a3565b506108d161019a6000613b70565b600080805b61291e606086018661437f565b90508110156129c3576129376080850160608601613bea565b6001600160e01b03191661294e606087018761437f565b8381811061295e5761295e614033565b6129749260206060909202019081019150613bea565b6001600160e01b031916036129b157612990606086018661437f565b828181106129a0576129a0614033565b9050606002016040013591506129c3565b806129bb81614089565b915050612911565b509392505050565b8015610713576001600160a01b038216600090815261019960205260408120549003612a3e5761019a80546001810182556000919091527fd994f4dad00f9ff89caab117647e768aa59b274f965a222ec6a1586aa6e26bcb0180546001600160a01b0319166001600160a01b0384161790555b6001600160a01b0382166000908152610199602052604081208054839290612a679084906143c7565b90915550505050565b81516000908190612a91906001600160e01b03191663163b6d3b60e21b1490565b15612bff5761019454602085015160405163342ce4cb60e11b81526001600160a01b0391821660048201526000929190911690636859c996906024016020604051808303816000875af1158015612aec573d6000803e3d6000fd5b505050506040513d601f19601f82011682018060405250810190612b109190614213565b90506001600160a01b038116612b575760405162461bcd60e51b815260206004820152600c60248201526b453a535046543a5046524e5360a01b60448201526064016104b9565b61019660009054906101000a90046001600160a01b03166001600160a01b031663180b0d7e6040518163ffffffff1660e01b81526004016020604051808303816000875af1158015612bad573d6000803e3d6000fd5b505050506040513d601f19601f82011682018060405250810190612bd19190614198565b61ffff16856060015161ffff1685612be991906141d2565b612bf391906141ff565b91506129c381836129cb565b9392505050565b61019654602083015160408085015160808601519151634287115760e01b81526001600160a01b03938416600482015260248101919091526044810185905260ff909116606482015260009283926060928392859216906342871157906084016000604051808303816000875af1158015612c85573d6000803e3d6000fd5b505050506040513d6000823e601f3d908101601f19168201604052612cad9190810190614473565b9194509250905060005b8351811015612d21576000838281518110612cd457612cd4614033565b60200260200101519050612d01858381518110612cf357612cf3614033565b6020026020010151826129cb565b612d0b81876143c7565b9550508080612d1990614089565b915050612cb7565b50929695505050505050565b6000612d3f6080830160608401613bea565b905060005b61019a5481101561061d57600061019a8281548110612d6557612d65614033565b60009182526020808320909101546001600160a01b0316808352610199909152604090912054909150630251e45960e01b6001600160e01b0319851601612de2576040516001600160a01b0383169082156108fc029083906000818181858888f19350505050158015612ddc573d6000803e3d6000fd5b50612e80565b631d45e89f60e21b6001600160e01b0319851601612e8057610195546001600160a01b031663776062c3612e1c60a0880160808901613c1a565b612e2c6060890160408a01613c1a565b85856040518563ffffffff1660e01b8152600401612e4d9493929190614049565b600060405180830381600087803b158015612e6757600080fd5b505af1158015612e7b573d6000803e3d6000fd5b505050505b50508080612e8d90614089565b915050612d44565b60005b612ea28380614230565b905081101561061d576000612eb78480614230565b83818110612ec757612ec7614033565b905060a00201803603810190612edd9190614287565b610195546020808301519293506001600160a01b039091169163f709b90691612f0c9060408901908901613c1a565b612f1c6040880160208901613c1a565b85604001516040518563ffffffff1660e01b8152600401612f409493929190614049565b600060405180830381600087803b158015612f5a57600080fd5b505af1158015612f6e573d6000803e3d6000fd5b50505050508080612f7e90614089565b915050612e98565b60007f00000000000000000000000000000000000000000000000000000000000000006001600160a01b03163303612fc5575060131936013560601c90565b503390565b6001600160a01b0381163b6130375760405162461bcd60e51b815260206004820152602d60248201527f455243313936373a206e657720696d706c656d656e746174696f6e206973206e60448201526c1bdd08184818dbdb9d1c9858dd609a1b60648201526084016104b9565b60008051602061461883398151915280546001600160a01b0319166001600160a01b0392909216919091179055565b61306f8361345b565b60008251118061307c5750805b1561061d57610f53838361349b565b60fe5460ff166108d15760405162461bcd60e51b815260206004820152601460248201527314185d5cd8589b194e881b9bdd081c185d5cd95960621b60448201526064016104b9565b60007f39b77601008263a7668e3e906fb7170db776f21b4b101c313e63194c888f361d6131096131048480614230565b61358f565b6131196040850160208601613c1a565b6131296060860160408701613c1a565b61313e613139606088018861437f565b613661565b61314e60a08801608089016141b5565b6040805160208101979097528601949094526001600160a01b0392831660608601529116608084015260a08381019190915261ffff90911660c0838101919091529084013560e08381019190915290840135610100830152830135610120820152610140015b604051602081830303815290604052805190602001209050919050565b60006116497f8b73c3c69bb8fe3d512ecc4cf759cc79239f7b179b0ffacaa9a75d522b39400f61320060015490565b6002546040805160208101859052908101839052606081018290524660808201523060a082015260009060c0016040516020818303038152906040528051906020012090509392505050565b600080600061325b8585613702565b915091506129c381613747565b600054610100900460ff1661328f5760405162461bcd60e51b81526004016104b990614313565b815160209283012081519190920120600191909155600255565b600054610100900460ff166132d05760405162461bcd60e51b81526004016104b990614313565b60fe805460ff19169055565b600054610100900460ff166133035760405162461bcd60e51b81526004016104b990614313565b600160cc55565b6000610197600061331a846130d4565b8152602001908152602001600020546001149050919050565b60006001600160e01b03198216639e80de3760e01b148061046e57506001600160e01b0319821663163b6d3b60e21b1492915050565b60006001600160e01b0319821663fdae1ba760e01b148061339a57506001600160e01b031982166322ba176160e21b145b806133b557506001600160e01b03198216633ecaa07960e21b145b8061046e57506001600160e01b0319821663d5a81f1960e01b1492915050565b60007fea1e681592a9397bdeaaeeb3c69144c884a3c3883e1cb83446b87eaac9fe5b9d823561340a6040850160208601613c1a565b61341a6060860160408701613c1a565b613426866060016138fd565b6040805160208101969096528501939093526001600160a01b03918216606085015216608083015260a082015260c0016131b4565b61346481612fca565b6040516001600160a01b038216907fbc7cd75a20ee27fd9adebab32041f755214dbc6bffa90cc0225b39da2e5c2d3b90600090a250565b60606001600160a01b0383163b6135035760405162461bcd60e51b815260206004820152602660248201527f416464726573733a2064656c65676174652063616c6c20746f206e6f6e2d636f6044820152651b9d1c9858dd60d21b60648201526084016104b9565b600080846001600160a01b03168460405161351e919061456b565b600060405180830381855af49150503d8060008114613559576040519150601f19603f3d011682016040523d82523d6000602084013e61355e565b606091505b5091509150613586828260405180606001604052806027815260200161463860279139613977565b95945050505050565b600080826001600160401b038111156135aa576135aa613ce4565b6040519080825280602002602001820160405280156135d3578160200160208202803683370190505b50905060005b83811015613630576136018585838181106135f6576135f6614033565b905060a002016139b0565b82828151811061361357613613614033565b60209081029190910101528061362881614089565b9150506135d9565b50806040516020016136429190614587565b6040516020818303038152906040528051906020012091505092915050565b600080826001600160401b0381111561367c5761367c613ce4565b6040519080825280602002602001820160405280156136a5578160200160208202803683370190505b50905060005b83811015613630576136d38585838181106136c8576136c8614033565b9050606002016138fd565b8282815181106136e5576136e5614033565b6020908102919091010152806136fa81614089565b9150506136ab565b60008082516041036137385760208301516040840151606085015160001a61372c87828585613a62565b94509450505050613740565b506000905060025b9250929050565b600081600481111561375b5761375b6145b1565b036137635750565b6001816004811115613777576137776145b1565b036137c45760405162461bcd60e51b815260206004820152601860248201527f45434453413a20696e76616c6964207369676e6174757265000000000000000060448201526064016104b9565b60028160048111156137d8576137d86145b1565b036138255760405162461bcd60e51b815260206004820152601f60248201527f45434453413a20696e76616c6964207369676e6174757265206c656e6774680060448201526064016104b9565b6003816004811115613839576138396145b1565b036138915760405162461bcd60e51b815260206004820152602260248201527f45434453413a20696e76616c6964207369676e6174757265202773272076616c604482015261756560f01b60648201526084016104b9565b60048160048111156138a5576138a56145b1565b036105515760405162461bcd60e51b815260206004820152602260248201527f45434453413a20696e76616c6964207369676e6174757265202776272076616c604482015261756560f01b60648201526084016104b9565b60007f5b442961536b72a0442e9a53df012289ed70f5c860457d810d2c17836bd8bdce61392d6020840184613bea565b61393d6040850160208601613c1a565b6040805160208101949094526001600160e01b0319909216838301526001600160a01b03166060830152830135608082015260a0016131b4565b60608315613986575081612bff565b8251156139965782518084602001fd5b8160405162461bcd60e51b81526004016104b991906145c7565b60007fda89efe36e8d4174abec2b392e28fde5f06a39ea80761619c7690bf8660645246139e06020840184613bea565b6139f06040850160208601613c1a565b6040850135613a0560808701606088016141b5565b613a1560a08801608089016145fa565b6040805160208101979097526001600160e01b0319909516948601949094526001600160a01b039092166060850152608084015261ffff1660a083015260ff1660c082015260e0016131b4565b6000807f7fffffffffffffffffffffffffffffff5d576e7357a4501ddfe92f46681b20a0831115613a995750600090506003613b46565b8460ff16601b14158015613ab157508460ff16601c14155b15613ac25750600090506004613b46565b6040805160008082526020820180845289905260ff881692820192909252606081018690526080810185905260019060a0016020604051602081039080840390855afa158015613b16573d6000803e3d6000fd5b5050604051601f1901519150506001600160a01b038116613b3f57600060019250925050613b46565b9150600090505b94509492505050565b50805460008255600202906000526020600020908101906105519190613b8e565b50805460008255906000526020600020908101906105519190613bb8565b5b80821115613bb45780546001600160a01b031916815560006001820155600201613b8f565b5090565b5b80821115613bb45760008155600101613bb9565b80356001600160e01b031981168114613be557600080fd5b919050565b600060208284031215613bfc57600080fd5b612bff82613bcd565b6001600160a01b038116811461055157600080fd5b600060208284031215613c2c57600080fd5b8135612bff81613c05565b60008060408385031215613c4a57600080fd5b8235613c5581613c05565b91506020830135613c6581613c05565b809150509250929050565b60008060208385031215613c8357600080fd5b82356001600160401b0380821115613c9a57600080fd5b818501915085601f830112613cae57600080fd5b813581811115613cbd57600080fd5b8660208260051b8501011115613cd257600080fd5b60209290920196919550909350505050565b634e487b7160e01b600052604160045260246000fd5b604051601f8201601f191681016001600160401b0381118282101715613d2257613d22613ce4565b604052919050565b60008060408385031215613d3d57600080fd5b8235613d4881613c05565b91506020838101356001600160401b0380821115613d6557600080fd5b818601915086601f830112613d7957600080fd5b813581811115613d8b57613d8b613ce4565b613d9d601f8201601f19168501613cfa565b91508082528784828501011115613db357600080fd5b80848401858401376000848284010152508093505050509250929050565b60006101008284031215613de457600080fd5b50919050565b60008083601f840112613dfc57600080fd5b5081356001600160401b03811115613e1357600080fd5b60208301915083602082850101111561374057600080fd5b600080600080600060608688031215613e4357600080fd5b85356001600160401b0380821115613e5a57600080fd5b613e6689838a01613dd1565b96506020880135915080821115613e7c57600080fd5b613e8889838a01613dea565b90965094506040880135915080821115613ea157600080fd5b50613eae88828901613dea565b969995985093965092949392505050565b600080600060608486031215613ed457600080fd5b8335613edf81613c05565b92506020840135613eef81613c05565b91506040840135613eff81613c05565b809150509250925092565b600080600080600080600080888a03610140811215613f2857600080fd5b89356001600160401b0380821115613f3f57600080fd5b613f4b8d838e01613dd1565b9a5060208c0135915080821115613f6157600080fd5b613f6d8d838e01613dea565b909a50985088915060c0603f1984011215613f8757600080fd5b60408c0197506101008c0135925080831115613fa257600080fd5b613fae8d848e01613dea565b90975095506101208c0135925086915080831115613fcb57600080fd5b5050613fd98b828c01613dea565b999c989b5096995094979396929594505050565b60208082526026908201527f41646d696e3a6f6e6c7941646d696e2063616c6c6572206973206e6f7420616e6040820152651020b236b4b760d11b606082015260800190565b634e487b7160e01b600052603260045260246000fd5b6001600160a01b039485168152928416602084015292166040820152606081019190915260800190565b634e487b7160e01b600052601160045260246000fd5b60006001820161409b5761409b614073565b5060010190565b6020808252602c908201527f46756e6374696f6e206d7573742062652063616c6c6564207468726f7567682060408201526b19195b1959d85d1958d85b1b60a21b606082015260800190565b6020808252602c908201527f46756e6374696f6e206d7573742062652063616c6c6564207468726f7567682060408201526b6163746976652070726f787960a01b606082015260800190565b60006020828403121561414c57600080fd5b81518015158114612bff57600080fd5b60006020828403121561416e57600080fd5b5051919050565b8181038181111561046e5761046e614073565b61ffff8116811461055157600080fd5b6000602082840312156141aa57600080fd5b8151612bff81614188565b6000602082840312156141c757600080fd5b8135612bff81614188565b808202811582820484141761046e5761046e614073565b634e487b7160e01b600052601260045260246000fd5b60008261420e5761420e6141e9565b500490565b60006020828403121561422557600080fd5b8151612bff81613c05565b6000808335601e1984360301811261424757600080fd5b8301803591506001600160401b0382111561426157600080fd5b602001915060a08102360382131561374057600080fd5b60ff8116811461055157600080fd5b600060a0828403121561429957600080fd5b60405160a081018181106001600160401b03821117156142bb576142bb613ce4565b6040526142c783613bcd565b815260208301356142d781613c05565b60208201526040838101359082015260608301356142f481614188565b6060820152608083013561430781614278565b60808201529392505050565b6020808252602b908201527f496e697469616c697a61626c653a20636f6e7472616374206973206e6f74206960408201526a6e697469616c697a696e6760a81b606082015260800190565b600061ffff80841680614373576143736141e9565b92169190910492915050565b6000808335601e1984360301811261439657600080fd5b8301803591506001600160401b038211156143b057600080fd5b602001915060608102360382131561374057600080fd5b8082018082111561046e5761046e614073565b60006001600160401b038211156143f3576143f3613ce4565b5060051b60200190565b600082601f83011261440e57600080fd5b8151602061442361441e836143da565b613cfa565b82815260059290921b8401810191818101908684111561444257600080fd5b8286015b8481101561445d5780518352918301918301614446565b509695505050505050565b8051613be581614278565b60008060006060848603121561448857600080fd5b83516001600160401b038082111561449f57600080fd5b818601915086601f8301126144b357600080fd5b815160206144c361441e836143da565b82815260059290921b8401810191818101908a8411156144e257600080fd5b948201945b838610156145095785516144fa81613c05565b825294820194908201906144e7565b9189015191975090935050508082111561452257600080fd5b5061452f868287016143fd565b92505061453e60408501614468565b90509250925092565b60005b8381101561456257818101518382015260200161454a565b50506000910152565b6000825161457d818460208701614547565b9190910192915050565b815160009082906020808601845b83811015612d2157815185529382019390820190600101614595565b634e487b7160e01b600052602160045260246000fd5b60208152600082518060208401526145e6816040850160208701614547565b601f01601f19169190910160400192915050565b60006020828403121561460c57600080fd5b8135612bff8161427856fe360894a13ba1a3210667c828492db98dca3e2076cc3735a920a3ca505d382bbc416464726573733a206c6f772d6c6576656c2064656c65676174652063616c6c206661696c6564a264697066735822122064d83084a1a456811b04f267e901ba83740ed352490bee627fcb4774943dfcfa64736f6c63430008110033",
  "linkReferences": {},
  "deployedLinkReferences": {}
}