{
  "_format": "hh-sol-artifact-1",
  "contractName": "Auction",
  "sourceName": "contracts/sbinft/market/v1/auction/Auction.sol",
  "abi": [
    {
      "inputs": [],
      "stateMutability": "nonpayable",
      "type": "constructor"
    },
    {
      "anonymous": false,
      "inputs": [
        {
          "indexed": false,
          "internalType": "address",
          "name": "",
          "type": "address"
        }
      ],
      "name": "AdminAdded",
      "type": "event"
    },
    {
      "anonymous": false,
      "inputs": [
        {
          "indexed": false,
          "internalType": "address",
          "name": "previousAdmin",
          "type": "address"
        },
        {
          "indexed": false,
          "internalType": "address",
          "name": "newAdmin",
          "type": "address"
        }
      ],
      "name": "AdminChanged",
      "type": "event"
    },
    {
      "anonymous": false,
      "inputs": [
        {
          "indexed": false,
          "internalType": "address",
          "name": "",
          "type": "address"
        }
      ],
      "name": "AdminRemoved",
      "type": "event"
    },
    {
      "anonymous": false,
      "inputs": [
        {
          "indexed": true,
          "internalType": "address",
          "name": "bidderAddress",
          "type": "address"
        },
        {
          "indexed": true,
          "internalType": "address",
          "name": "assetAddress",
          "type": "address"
        },
        {
          "indexed": false,
          "internalType": "uint256",
          "name": "assetId",
          "type": "uint256"
        },
        {
          "indexed": true,
          "internalType": "uint256",
          "name": "auctionId",
          "type": "uint256"
        },
        {
          "indexed": false,
          "internalType": "uint256",
          "name": "currentPrice",
          "type": "uint256"
        }
      ],
      "name": "AuctionBid",
      "type": "event"
    },
    {
      "anonymous": false,
      "inputs": [
        {
          "indexed": true,
          "internalType": "address",
          "name": "creatorAddress",
          "type": "address"
        },
        {
          "indexed": true,
          "internalType": "address",
          "name": "assetAddress",
          "type": "address"
        },
        {
          "indexed": false,
          "internalType": "uint256",
          "name": "assetId",
          "type": "uint256"
        },
        {
          "indexed": true,
          "internalType": "uint256",
          "name": "auctionId",
          "type": "uint256"
        }
      ],
      "name": "AuctionCanceled",
      "type": "event"
    },
    {
      "anonymous": false,
      "inputs": [
        {
          "indexed": true,
          "internalType": "address",
          "name": "creatorAddress",
          "type": "address"
        },
        {
          "indexed": true,
          "internalType": "address",
          "name": "assetAddress",
          "type": "address"
        },
        {
          "indexed": false,
          "internalType": "uint256",
          "name": "assetId",
          "type": "uint256"
        },
        {
          "indexed": true,
          "internalType": "uint256",
          "name": "auctionId",
          "type": "uint256"
        },
        {
          "indexed": false,
          "internalType": "uint256",
          "name": "startPrice",
          "type": "uint256"
        },
        {
          "indexed": false,
          "internalType": "uint256",
          "name": "startTime",
          "type": "uint256"
        },
        {
          "indexed": false,
          "internalType": "uint256",
          "name": "endTime",
          "type": "uint256"
        }
      ],
      "name": "AuctionCreated",
      "type": "event"
    },
    {
      "anonymous": false,
      "inputs": [
        {
          "indexed": true,
          "internalType": "address",
          "name": "assetAddress",
          "type": "address"
        },
        {
          "indexed": true,
          "internalType": "uint256",
          "name": "assetId",
          "type": "uint256"
        }
      ],
      "name": "AuctionFinished",
      "type": "event"
    },
    {
      "anonymous": false,
      "inputs": [
        {
          "indexed": true,
          "internalType": "address",
          "name": "beacon",
          "type": "address"
        }
      ],
      "name": "BeaconUpgraded",
      "type": "event"
    },
    {
      "anonymous": false,
      "inputs": [
        {
          "indexed": false,
          "internalType": "uint8",
          "name": "version",
          "type": "uint8"
        }
      ],
      "name": "Initialized",
      "type": "event"
    },
    {
      "anonymous": false,
      "inputs": [
        {
          "indexed": false,
          "internalType": "address",
          "name": "account",
          "type": "address"
        }
      ],
      "name": "Paused",
      "type": "event"
    },
    {
      "anonymous": false,
      "inputs": [
        {
          "indexed": true,
          "internalType": "contract IPlatformRegistry",
          "name": "platformRegistry",
          "type": "address"
        }
      ],
      "name": "PlatformRegistryUpdated",
      "type": "event"
    },
    {
      "anonymous": false,
      "inputs": [
        {
          "indexed": true,
          "internalType": "contract IRoyaltyRegistry",
          "name": "royaltyRegistry",
          "type": "address"
        }
      ],
      "name": "RoyaltyRegistryUpdated",
      "type": "event"
    },
    {
      "anonymous": false,
      "inputs": [
        {
          "indexed": false,
          "internalType": "address",
          "name": "account",
          "type": "address"
        }
      ],
      "name": "Unpaused",
      "type": "event"
    },
    {
      "anonymous": false,
      "inputs": [
        {
          "indexed": true,
          "internalType": "address",
          "name": "implementation",
          "type": "address"
        }
      ],
      "name": "Upgraded",
      "type": "event"
    },
    {
      "inputs": [
        {
          "internalType": "contract IPlatformRegistry",
          "name": "_platformRegistry",
          "type": "address"
        },
        {
          "internalType": "contract IRoyaltyRegistry",
          "name": "_royaltyManager",
          "type": "address"
        }
      ],
      "name": "__Auction_init",
      "outputs": [],
      "stateMutability": "nonpayable",
      "type": "function"
    },
    {
      "inputs": [
        {
          "internalType": "address[]",
          "name": "newAdmin",
          "type": "address[]"
        }
      ],
      "name": "addAdmin",
      "outputs": [],
      "stateMutability": "nonpayable",
      "type": "function"
    },
    {
      "inputs": [
        {
          "internalType": "address",
          "name": "newAdmin",
          "type": "address"
        }
      ],
      "name": "addAdmin",
      "outputs": [],
      "stateMutability": "nonpayable",
      "type": "function"
    },
    {
      "inputs": [
        {
          "components": [
            {
              "internalType": "uint256",
              "name": "auctionId",
              "type": "uint256"
            },
            {
              "internalType": "address",
              "name": "bidder",
              "type": "address"
            },
            {
              "internalType": "address payable",
              "name": "refundTo",
              "type": "address"
            },
            {
              "internalType": "uint256",
              "name": "nonce",
              "type": "uint256"
            },
            {
              "internalType": "uint256",
              "name": "price",
              "type": "uint256"
            }
          ],
          "internalType": "struct AuctionDomain.Bid",
          "name": "_bid",
          "type": "tuple"
        },
        {
          "internalType": "bytes",
          "name": "_bidderSign",
          "type": "bytes"
        },
        {
          "internalType": "bytes",
          "name": "_platformSign",
          "type": "bytes"
        }
      ],
      "name": "bid",
      "outputs": [],
      "stateMutability": "payable",
      "type": "function"
    },
    {
      "inputs": [
        {
          "internalType": "uint256",
          "name": "_auctionId",
          "type": "uint256"
        }
      ],
      "name": "cancel",
      "outputs": [],
      "stateMutability": "nonpayable",
      "type": "function"
    },
    {
      "inputs": [
        {
          "components": [
            {
              "internalType": "uint256",
              "name": "auctionId",
              "type": "uint256"
            },
            {
              "internalType": "bytes4",
              "name": "pfKind",
              "type": "bytes4"
            },
            {
              "internalType": "address payable",
              "name": "creatorAddress",
              "type": "address"
            },
            {
              "components": [
                {
                  "internalType": "bytes4",
                  "name": "originKind",
                  "type": "bytes4"
                },
                {
                  "internalType": "address",
                  "name": "asset",
                  "type": "address"
                },
                {
                  "internalType": "uint256",
                  "name": "assetId",
                  "type": "uint256"
                },
                {
                  "internalType": "uint16",
                  "name": "partnerFeeRate",
                  "type": "uint16"
                },
                {
                  "internalType": "uint8",
                  "name": "isSecondarySale",
                  "type": "uint8"
                }
              ],
              "internalType": "struct AuctionDomain.Asset",
              "name": "asset",
              "type": "tuple"
            },
            {
              "components": [
                {
                  "internalType": "bytes4",
                  "name": "auctionKind",
                  "type": "bytes4"
                },
                {
                  "internalType": "bytes4",
                  "name": "bidMode",
                  "type": "bytes4"
                },
                {
                  "internalType": "address",
                  "name": "paymentToken",
                  "type": "address"
                }
              ],
              "internalType": "struct AuctionDomain.AuctionType",
              "name": "auctionType",
              "type": "tuple"
            },
            {
              "internalType": "uint256",
              "name": "startPrice",
              "type": "uint256"
            },
            {
              "internalType": "uint256",
              "name": "startTime",
              "type": "uint256"
            },
            {
              "internalType": "uint256",
              "name": "endTime",
              "type": "uint256"
            },
            {
              "internalType": "uint16",
              "name": "pfFeeRate",
              "type": "uint16"
            },
            {
              "internalType": "uint16",
              "name": "externalPfFeeRate",
              "type": "uint16"
            },
            {
              "internalType": "address",
              "name": "platformSigner",
              "type": "address"
            }
          ],
          "internalType": "struct AuctionDomain.Auction",
          "name": "_auction",
          "type": "tuple"
        },
        {
          "internalType": "bytes",
          "name": "_creatorSign",
          "type": "bytes"
        },
        {
          "internalType": "bytes",
          "name": "_platformSign",
          "type": "bytes"
        }
      ],
      "name": "createAuction",
      "outputs": [],
      "stateMutability": "nonpayable",
      "type": "function"
    },
    {
      "inputs": [
        {
          "components": [
            {
              "internalType": "uint256",
              "name": "auctionId",
              "type": "uint256"
            },
            {
              "internalType": "address",
              "name": "asset",
              "type": "address"
            },
            {
              "internalType": "uint256",
              "name": "assetId",
              "type": "uint256"
            },
            {
              "internalType": "address",
              "name": "winner",
              "type": "address"
            },
            {
              "internalType": "uint256",
              "name": "finalPrice",
              "type": "uint256"
            }
          ],
          "internalType": "struct AuctionDomain.AuctionResult",
          "name": "_result",
          "type": "tuple"
        },
        {
          "internalType": "bytes",
          "name": "_platformSign",
          "type": "bytes"
        }
      ],
      "name": "finishAuction",
      "outputs": [],
      "stateMutability": "nonpayable",
      "type": "function"
    },
    {
      "inputs": [
        {
          "internalType": "uint256",
          "name": "_auctinId",
          "type": "uint256"
        }
      ],
      "name": "getBidHistory",
      "outputs": [
        {
          "internalType": "address[]",
          "name": "",
          "type": "address[]"
        },
        {
          "internalType": "uint256[]",
          "name": "",
          "type": "uint256[]"
        }
      ],
      "stateMutability": "view",
      "type": "function"
    },
    {
      "inputs": [
        {
          "internalType": "address",
          "name": "checkAdmin",
          "type": "address"
        }
      ],
      "name": "isAdmin",
      "outputs": [
        {
          "internalType": "bool",
          "name": "",
          "type": "bool"
        }
      ],
      "stateMutability": "view",
      "type": "function"
    },
    {
      "inputs": [
        {
          "internalType": "address",
          "name": "",
          "type": "address"
        },
        {
          "internalType": "address",
          "name": "",
          "type": "address"
        },
        {
          "internalType": "uint256",
          "name": "",
          "type": "uint256"
        },
        {
          "internalType": "bytes",
          "name": "",
          "type": "bytes"
        }
      ],
      "name": "onERC721Received",
      "outputs": [
        {
          "internalType": "bytes4",
          "name": "",
          "type": "bytes4"
        }
      ],
      "stateMutability": "pure",
      "type": "function"
    },
    {
      "inputs": [],
      "name": "pause",
      "outputs": [],
      "stateMutability": "nonpayable",
      "type": "function"
    },
    {
      "inputs": [],
      "name": "paused",
      "outputs": [
        {
          "internalType": "bool",
          "name": "",
          "type": "bool"
        }
      ],
      "stateMutability": "view",
      "type": "function"
    },
    {
      "inputs": [],
      "name": "platformRegistry",
      "outputs": [
        {
          "internalType": "contract IPlatformRegistry",
          "name": "",
          "type": "address"
        }
      ],
      "stateMutability": "view",
      "type": "function"
    },
    {
      "inputs": [],
      "name": "proxiableUUID",
      "outputs": [
        {
          "internalType": "bytes32",
          "name": "",
          "type": "bytes32"
        }
      ],
      "stateMutability": "view",
      "type": "function"
    },
    {
      "inputs": [
        {
          "internalType": "address",
          "name": "admin",
          "type": "address"
        }
      ],
      "name": "removeAdmin",
      "outputs": [],
      "stateMutability": "nonpayable",
      "type": "function"
    },
    {
      "inputs": [],
      "name": "royaltyRegistry",
      "outputs": [
        {
          "internalType": "contract IRoyaltyRegistry",
          "name": "",
          "type": "address"
        }
      ],
      "stateMutability": "view",
      "type": "function"
    },
    {
      "inputs": [],
      "name": "unpause",
      "outputs": [],
      "stateMutability": "nonpayable",
      "type": "function"
    },
    {
      "inputs": [
        {
          "internalType": "contract IPlatformRegistry",
          "name": "_newPlatformRegistry",
          "type": "address"
        }
      ],
      "name": "updatePlatformRegistry",
      "outputs": [],
      "stateMutability": "nonpayable",
      "type": "function"
    },
    {
      "inputs": [
        {
          "internalType": "contract IRoyaltyRegistry",
          "name": "_newRoyaltyRegistry",
          "type": "address"
        }
      ],
      "name": "updateRoyaltyManager",
      "outputs": [],
      "stateMutability": "nonpayable",
      "type": "function"
    },
    {
      "inputs": [
        {
          "internalType": "address",
          "name": "newImplementation",
          "type": "address"
        }
      ],
      "name": "upgradeTo",
      "outputs": [],
      "stateMutability": "nonpayable",
      "type": "function"
    },
    {
      "inputs": [
        {
          "internalType": "address",
          "name": "newImplementation",
          "type": "address"
        },
        {
          "internalType": "bytes",
          "name": "data",
          "type": "bytes"
        }
      ],
      "name": "upgradeToAndCall",
      "outputs": [],
      "stateMutability": "payable",
      "type": "function"
    },
    {
      "inputs": [
        {
          "internalType": "address payable",
          "name": "_receiver",
          "type": "address"
        },
        {
          "internalType": "address",
          "name": "_erc20Token",
          "type": "address"
        }
      ],
      "name": "withdrawTip",
      "outputs": [],
      "stateMutability": "nonpayable",
      "type": "function"
    }
  ],
  "bytecode": "0x60a0604052306080523480156200001557600080fd5b506200002062000026565b620000e8565b600054610100900460ff1615620000935760405162461bcd60e51b815260206004820152602760248201527f496e697469616c697a61626c653a20636f6e747261637420697320696e697469604482015266616c697a696e6760c81b606482015260840160405180910390fd5b60005460ff9081161015620000e6576000805460ff191660ff9081179091556040519081527f7f26b83ff96e1f2b6a682f133852f6798a09c465da95921460cefb38474024989060200160405180910390a15b565b60805161481d62000120600039600081816106b4015281816106f401528181610a0a01528181610a4a0152610ad9015261481d6000f3fe6080604052600436106101355760003560e01c806365355150116100ab578063b36f08fe1161006f578063b36f08fe14610372578063c0738dce14610392578063c255f878146103c0578063c8f93509146103e0578063e1c0cafb14610400578063efe3ffe11461042057600080fd5b806365355150146102d257806370480275146102f25780638456cb591461031257806386a42d1914610327578063a11b07121461033a57600080fd5b80633d0950a8116100fd5780633d0950a81461022f5780633f4ba83a1461024f57806340e58ee5146102645780634f1ef2861461028457806352d1902d146102975780635c975abb146102ba57600080fd5b8063150b7a021461013a5780631785f53c1461018457806318cdeccc146101a657806324d7806c146101c65780633659cfe61461020f575b600080fd5b34801561014657600080fd5b50610166610155366004613a8e565b630a85bd0160e11b95945050505050565b6040516001600160e01b031990911681526020015b60405180910390f35b34801561019057600080fd5b506101a461019f366004613b01565b610440565b005b3480156101b257600080fd5b506101a46101c1366004613b1e565b61050a565b3480156101d257600080fd5b506101ff6101e1366004613b01565b6001600160a01b031660009081526033602052604090205460ff1690565b604051901515815260200161017b565b34801561021b57600080fd5b506101a461022a366004613b01565b6106aa565b34801561023b57600080fd5b506101a461024a366004613b57565b610786565b34801561025b57600080fd5b506101a4610806565b34801561027057600080fd5b506101a461027f366004613bcc565b61083f565b6101a4610292366004613c2c565b610a00565b3480156102a357600080fd5b506102ac610acc565b60405190815260200161017b565b3480156102c657600080fd5b5060685460ff166101ff565b3480156102de57600080fd5b506101a46102ed366004613b01565b610b7f565b3480156102fe57600080fd5b506101a461030d366004613b01565b610c9f565b34801561031e57600080fd5b506101a4610cd7565b6101a4610335366004613cec565b610d0e565b34801561034657600080fd5b5060ff5461035a906001600160a01b031681565b6040516001600160a01b03909116815260200161017b565b34801561037e57600080fd5b506101a461038d366004613d5d565b611311565b34801561039e57600080fd5b506103b26103ad366004613bcc565b6116f9565b60405161017b929190613db1565b3480156103cc57600080fd5b5060fe5461035a906001600160a01b031681565b3480156103ec57600080fd5b506101a46103fb366004613b01565b6117c9565b34801561040c57600080fd5b506101a461041b366004613b1e565b6118e9565b34801561042c57600080fd5b506101a461043b366004613e35565b611a68565b3360009081526033602052604090205460ff166104785760405162461bcd60e51b815260040161046f90613ea3565b60405180910390fd5b6001600160a01b03811660009081526033602052604090205460ff166104fe5760405162461bcd60e51b815260206004820152603560248201527f41646d696e3a72656d6f766541646d696e20747279696e6720746f2072656d6f6044820152743b32903737b71032bc34b9ba34b7339020b236b4b760591b606482015260840161046f565b61050781611c8a565b50565b3360009081526033602052604090205460ff166105395760405162461bcd60e51b815260040161046f90613ea3565b6001600160a01b03821661057a5760405162461bcd60e51b8152602060048201526008602482015267413a57543a49524160c01b604482015260640161046f565b6001600160a01b0381166105cb57610103546040516001600160a01b0384169180156108fc02916000818181858888f193505050501580156105c0573d6000803e3d6000fd5b506000610103555050565b6001600160a01b03818116600081815261010460205260409081902054905163a9059cbb60e01b81529285166004840152602483018190529163a9059cbb906044016020604051808303816000875af115801561062c573d6000803e3d6000fd5b505050506040513d601f19601f820116820180604052508101906106509190613ee9565b61068a5760405162461bcd60e51b815260206004820152600b60248201526a209d2b9d22a92199182ba360a91b604482015260640161046f565b506001600160a01b038116600090815261010460205260408120555b5050565b6001600160a01b037f00000000000000000000000000000000000000000000000000000000000000001630036106f25760405162461bcd60e51b815260040161046f90613f0b565b7f00000000000000000000000000000000000000000000000000000000000000006001600160a01b031661073b6000805160206147a1833981519152546001600160a01b031690565b6001600160a01b0316146107615760405162461bcd60e51b815260040161046f90613f57565b61076a81611ce2565b6040805160008082526020820190925261050791839190611d11565b3360009081526033602052604090205460ff166107b55760405162461bcd60e51b815260040161046f90613ea3565b60005b81811015610801576107ef8383838181106107d5576107d5613fa3565b90506020020160208101906107ea9190613b01565b611e7c565b806107f981613fcf565b9150506107b8565b505050565b3360009081526033602052604090205460ff166108355760405162461bcd60e51b815260040161046f90613ea3565b61083d611f3a565b565b610847611f8c565b60008181526101006020908152604080832061010190925290912080546001600160a01b0316156108a65760405162461bcd60e51b8152602060048201526009602482015268413a433a424d425a4160b81b604482015260640161046f565b60018201543390600160201b90046001600160a01b03168114806108e0575060098301546001600160a01b03828116600160201b90920416145b61091a5760405162461bcd60e51b815260206004820152600b60248201526a0413a433a434d4241434f560ac1b604482015260640161046f565b600183015460028401546003850154604051632142170760e11b81526001600160a01b03600160201b94859004811694909304909216916342842e0e916109679130918691600401613fe8565b600060405180830381600087803b15801561098157600080fd5b505af1158015610995573d6000803e3d6000fd5b5050855460028701546003880154604051908152919350600160201b90046001600160a01b0390811692508416907ffba51a0be6d9b27b783a43fe39837e485cec8ce599fb34585c519be55e36e12b9060200160405180910390a46109f985611fd2565b5050505050565b6001600160a01b037f0000000000000000000000000000000000000000000000000000000000000000163003610a485760405162461bcd60e51b815260040161046f90613f0b565b7f00000000000000000000000000000000000000000000000000000000000000006001600160a01b0316610a916000805160206147a1833981519152546001600160a01b031690565b6001600160a01b031614610ab75760405162461bcd60e51b815260040161046f90613f57565b610ac082611ce2565b6106a682826001611d11565b6000306001600160a01b037f00000000000000000000000000000000000000000000000000000000000000001614610b6c5760405162461bcd60e51b815260206004820152603860248201527f555550535570677261646561626c653a206d757374206e6f742062652063616c60448201527f6c6564207468726f7567682064656c656761746563616c6c0000000000000000606482015260840161046f565b506000805160206147a183398151915290565b3360009081526033602052604090205460ff16610bae5760405162461bcd60e51b815260040161046f90613ea3565b6040516301ffc9a760e01b81526302d7f8cb60e01b60048201526001600160a01b038216906301ffc9a790602401602060405180830381865afa158015610bf9573d6000803e3d6000fd5b505050506040513d601f19601f82011682018060405250810190610c1d9190613ee9565b610c555760405162461bcd60e51b8152602060048201526009602482015268413a5550523a494e5360b81b604482015260640161046f565b60fe80546001600160a01b0319166001600160a01b0383169081179091556040517fa48d197b43b1826afcf98445392676fa169817dd3216002b6fd70e8601ef2b0190600090a250565b3360009081526033602052604090205460ff16610cce5760405162461bcd60e51b815260040161046f90613ea3565b61050781611e7c565b3360009081526033602052604090205460ff16610d065760405162461bcd60e51b815260040161046f90613ea3565b61083d612098565b610d16611f8c565b8435600081815261010060209081526040808320610101909252909120610d3e8883836120d5565b610d6388888888888760090160049054906101000a90046001600160a01b0316612260565b60808801356000610d7a60408b0160208c01613b01565b600585015460018501546002860154929350600160201b820460e01b92600160401b9092046001600160a01b03908116929116906001600160e01b03198416630251e45960e01b01610e725785341015610e015760405162461bcd60e51b81526020600482015260086024820152670827484749c8aa8960c31b604482015260640161046f565b8015610e3f576040516001600160a01b0383169082156108fc029083906000818181858888f19350505050158015610e3d573d6000803e3d6000fd5b505b6000610e4b873461400c565b90508015610e6c57806101036000828254610e66919061401f565b90915550505b506110e6565b631d45e89f60e21b6001600160e01b03198516016110e657604051636eb1769f60e11b81526001600160a01b0386811660048301523060248301526000919085169063dd62ed3e90604401602060405180830381865afa158015610eda573d6000803e3d6000fd5b505050506040513d601f19601f82011682018060405250810190610efe9190614032565b905086811015610f3d5760405162461bcd60e51b815260206004820152600a6024820152690413a423a4e45524332360b41b604482015260640161046f565b6040516323b872dd60e01b81526001600160a01b038516906323b872dd90610f6d90899030908c90600401613fe8565b6020604051808303816000875af1158015610f8c573d6000803e3d6000fd5b505050506040513d601f19601f82011682018060405250810190610fb09190613ee9565b610feb5760405162461bcd60e51b815260206004820152600c60248201526b209d211d22a921991821262360a11b604482015260640161046f565b81156110a05760405163a9059cbb60e01b81526001600160a01b0384811660048301526024820184905285169063a9059cbb906044016020604051808303816000875af1158015611040573d6000803e3d6000fd5b505050506040513d601f19601f820116820180604052508101906110649190613ee9565b6110a05760405162461bcd60e51b815260206004820152600d60248201526c209d211d22a92199182621292360991b604482015260640161046f565b60006110ac888361400c565b905080156110e3576001600160a01b03851660009081526101046020526040812080548392906110dd90849061401f565b90915550505b50505b600588015460e01b6001600160e01b0319166351e7b92b60e01b14801561111d5750600888015461012c9061111b90426123f2565b105b156111395760088801546111339061012c612407565b60088901555b8d602001602081019061114c9190613b01565b8760000160006101000a8154816001600160a01b0302191690836001600160a01b031602179055508d60400160208101906111879190613b01565b6001880180546001600160a01b0319166001600160a01b039290921691821790556111e2578d60200160208101906111bf9190613b01565b6001880180546001600160a01b0319166001600160a01b03929092169190911790555b858760020181905550866003018e60200160208101906112029190613b01565b9080600181540180825580915050600190039060005260206000200160009091909190916101000a8154816001600160a01b0302191690836001600160a01b031602179055508660040186908060018154018082558091505060019003906000526020600020016000909190919091505587600001548860020160000160049054906101000a90046001600160a01b03166001600160a01b03168f60200160208101906112af9190613b01565b6001600160a01b03167f0cc67b0b44d7c01080e3a22d0e6f5b84ac675426399b6d13f68df58a7e228db88b600201600101548a6040516112f9929190918252602082015260400190565b60405180910390a45050505050505050505050505050565b611319611f8c565b823560008181526101006020908152604080832061010190925290912061134233838389612413565b600982015461136390600160201b90046001600160a01b03168787876125ab565b600582015461137b90600160201b900460e01b612653565b1561161f57611388612689565b600281015460fe5460408051630e0fa30960e31b815290516000926001600160a01b03169163707d1848916004808301926020929190829003018187875af11580156113d8573d6000803e3d6000fd5b505050506040513d601f19601f820116820180604052508101906113fc919061404b565b9050600060ff60009054906101000a90046001600160a01b03166001600160a01b031663180b0d7e6040518163ffffffff1660e01b81526004016020604051808303816000875af1158015611455573d6000803e3d6000fd5b505050506040513d601f19601f820116820180604052508101906114799190614078565b600986015461ffff91821691611490911685614095565b61149a91906140ac565b6001600160a01b038316600090815261010560205260408120805492935083929091906114c890849061401f565b909155505061010680546001810182556000919091526000805160206147818339815191520180546001600160a01b0319166001600160a01b03841617905561151185846126f5565b61151b908261401f565b9050600061152986856128ff565b9050600081611538848761400c565b611542919061400c565b600488015490915060016201000090910460ff16036115fc576115658786612a80565b61156f908261400c565b6001880154600160201b90046001600160a01b0316600090815261010560205260408120805492935083929091906115a890849061401f565b9091555050600187810154610106805492830181556000526000805160206147818339815191529091018054600160201b9092046001600160a01b03166001600160a01b0319909216919091179055611608565b6116068782612a80565b505b61161187612c28565b611619612689565b50505050505b61162f6040870160208801613b01565b6001600160a01b03166342842e0e3061164e60808a0160608b01613b01565b89604001356040518463ffffffff1660e01b815260040161167193929190613fe8565b600060405180830381600087803b15801561168b57600080fd5b505af115801561169f573d6000803e3d6000fd5b5050505060038201546002830154604051600160201b9091046001600160a01b0316907f8b1ad6c69d3d79a05f5b1ec0de825e9bf67c6c70b8c25babd159976cf9990dff90600090a36116f183611fd2565b505050505050565b6000818152610101602090815260409182902060038101805484518185028101850190955280855260609485946004850192849183018282801561176657602002820191906000526020600020905b81546001600160a01b03168152600190910190602001808311611748575b50505050509150808054806020026020016040519081016040528092919081815260200182805480156117b857602002820191906000526020600020905b8154815260200190600101908083116117a4575b505050505090509250925050915091565b3360009081526033602052604090205460ff166117f85760405162461bcd60e51b815260040161046f90613ea3565b6040516301ffc9a760e01b8152635a8c1c2960e01b60048201526001600160a01b038216906301ffc9a790602401602060405180830381865afa158015611843573d6000803e3d6000fd5b505050506040513d601f19601f820116820180604052508101906118679190613ee9565b61189f5760405162461bcd60e51b8152602060048201526009602482015268413a5552523a494e5360b81b604482015260640161046f565b60ff80546001600160a01b0319166001600160a01b0383169081179091556040517f39753a6336ef533f6e1785dcab15abdacaf0467b09c6127c32053ad75bcefc6790600090a250565b600054610100900460ff16158080156119095750600054600160ff909116105b806119235750303b158015611923575060005460ff166001145b6119865760405162461bcd60e51b815260206004820152602e60248201527f496e697469616c697a61626c653a20636f6e747261637420697320616c72656160448201526d191e481a5b9a5d1a585b1a5e995960921b606482015260840161046f565b6000805460ff1916600117905580156119a9576000805461ff0019166101001790555b6119b1612dc0565b6119fc6040518060400160405280600e81526020016d29a124a7232a1020bab1ba34b7b760911b815250604051806040016040528060038152602001620322e360ec1b815250612df8565b611a04612e29565b611a0c612e58565b611a1583610b7f565b611a1e826117c9565b8015610801576000805461ff0019169055604051600181527f7f26b83ff96e1f2b6a682f133852f6798a09c465da95921460cefb38474024989060200160405180910390a1505050565b611a70611f8c565b84356000818152610102602052604090205460ff161515600103611ac55760405162461bcd60e51b815260206004820152600c60248201526b413a43504641433a4149554f60a01b604482015260640161046f565b60fe54604051634958f52960e11b81526001600160a01b03909116906392b1ea5290611af59089906004016141cb565b600060405180830381600087803b158015611b0f57600080fd5b505af1158015611b23573d6000803e3d6000fd5b50505050611b348686868686612e7f565b611b4460a0870160808801613b01565b6001600160a01b03166342842e0e611b626060890160408a01613b01565b6040516001600160e01b031960e084901b168152611b8b9190309060a08c013590600401613fe8565b600060405180830381600087803b158015611ba557600080fd5b505af1158015611bb9573d6000803e3d6000fd5b505050600082815261010060205260409020879150611bd88282614402565b5050600081815261010260205260409020805460ff191660011790558535611c0660a0880160808901613b01565b6001600160a01b0316611c1f6060890160408a01613b01565b6040805160a08b013581526101608b013560208201526101808b0135818301526101a08b0135606082015290516001600160a01b0392909216917e7cee142cf8b065391e6035e358a9152f36c9fbc900151964de8baccb25e4d69181900360800190a4505050505050565b6001600160a01b038116600081815260336020908152604091829020805460ff1916905590519182527fa3b62bc36326052d97ea62d63c3d60308ed4c3ea8ac079dd8499f1e9c4f80c0f91015b60405180910390a150565b3360009081526033602052604090205460ff166105075760405162461bcd60e51b815260040161046f90613ea3565b7f4910fdfa16fed3260ed0e7147f7cc6da11a60208b5b9406d12a635614ffd91435460ff1615611d445761080183612fe1565b826001600160a01b03166352d1902d6040518163ffffffff1660e01b8152600401602060405180830381865afa925050508015611d9e575060408051601f3d908101601f19168201909252611d9b91810190614032565b60015b611e015760405162461bcd60e51b815260206004820152602e60248201527f45524331393637557067726164653a206e657720696d706c656d656e7461746960448201526d6f6e206973206e6f74205555505360901b606482015260840161046f565b6000805160206147a18339815191528114611e705760405162461bcd60e51b815260206004820152602960248201527f45524331393637557067726164653a20756e737570706f727465642070726f786044820152681a58589b195555525160ba1b606482015260840161046f565b5061080183838361307d565b6001600160a01b038116611ee65760405162461bcd60e51b815260206004820152602b60248201527f41646d696e3a61646441646d696e206e657741646d696e20697320746865207a60448201526a65726f206164647265737360a81b606482015260840161046f565b6001600160a01b038116600081815260336020908152604091829020805460ff1916600117905590519182527f44d6d25963f097ad14f29f06854a01f575648a1ef82f30e562ccd3889717e3399101611cd7565b611f426130a2565b6068805460ff191690557f5db9ee0a495bf2e6ff9c91a7834c1ba4fdd244a5e8aa4e537bd38aeae4b073aa335b6040516001600160a01b03909116815260200160405180910390a1565b60685460ff161561083d5760405162461bcd60e51b815260206004820152601060248201526f14185d5cd8589b194e881c185d5cd95960821b604482015260640161046f565b600081815261010060209081526040808320838155600180820180546001600160c01b03199081169091556002808401805483169055600380850188905560048501805462ffffff191690556005850180546001600160e01b03191690556006850188905560078501889055600885018890556009909401805490921690915561010190945291842080546001600160a01b031990811682559281018054909316909255918101839055919061208a908301826139f5565b6108016004830160006139f5565b6120a0611f8c565b6068805460ff191660011790557f62e78cea01bee320cd4e420270b5ea74000d11b0c9f74754ebdbfc544b05a258611f6f3390565b6120e56040840160208501613b01565b60018301546001600160a01b03918216600160201b9091049091160361213c5760405162461bcd60e51b815260206004820152600c60248201526b209d21a82320a11d21a1a72160a11b604482015260640161046f565b4282600701541061217e5760405162461bcd60e51b815260206004820152600c60248201526b413a43504641423a41494e5360a01b604482015260640161046f565b428260080154116121bf5760405162461bcd60e51b815260206004820152600b60248201526a209d21a82320a11d20a4a360a91b604482015260640161046f565b60038101546060840135146122045760405162461bcd60e51b815260206004820152600b60248201526a413a43504641423a424e4960a81b604482015260640161046f565b81600601548360800135118015612222575080600201548360800135115b6108015760405162461bcd60e51b815260206004820152600f60248201526e0413a43504641423a4250494c54435608c1b604482015260640161046f565b600061226b876130eb565b905061227d6040880160208901613b01565b6001600160a01b031661230f87878080601f01602080910402602001604051908101604052809392919081815260200183838082843760009201919091525061230992508691506122ce9050613199565b6040805161190160f01b6020808301919091526022820193909352604280820194909452815180820390940184526062019052815191012090565b906131d5565b6001600160a01b0316146123535760405162461bcd60e51b815260206004820152600b60248201526a413a56534641423a49425360a81b604482015260640161046f565b816001600160a01b03166123a585858080601f01602080910402602001604051908101604052809392919081815260200183838082843760009201919091525061230992508691506122ce9050613199565b6001600160a01b0316146123e95760405162461bcd60e51b815260206004820152600b60248201526a413a56534641423a49425360a81b604482015260640161046f565b50505050505050565b60006123fe828461400c565b90505b92915050565b60006123fe828461401f565b60018301546001600160a01b03858116600160201b90920416148061244e575060098301546001600160a01b03858116600160201b90920416145b61248c5760405162461bcd60e51b815260206004820152600f60248201526e0413a43504641463a454d4241434f5608c1b604482015260640161046f565b42836008015411156124cf5760405162461bcd60e51b815260206004820152600c60248201526b209d21a82320a31d20a6a12360a11b604482015260640161046f565b60058301546124e790600160201b900460e01b612653565b156125a55781546001600160a01b03166125345760405162461bcd60e51b815260206004820152600e60248201526d413a43504641463a424d424e5a4160901b604482015260640161046f565b6125446080820160608301613b01565b82546001600160a01b039081169116148015612567575080608001358260020154145b6125a55760405162461bcd60e51b815260206004820152600f60248201526e0413a43504641463a4649494f49465608c1b604482015260640161046f565b50505050565b60006125b6846131f9565b9050600061260284848080601f01602080910402602001604051908101604052809392919081815260200183838082843760009201919091525061230992508691506122ce9050613199565b9050856001600160a01b0316816001600160a01b0316146116f15760405162461bcd60e51b815260206004820152600b60248201526a413a56534641463a49505360a81b604482015260640161046f565b60006001600160e01b0319821663fdae1ba760e01b148061240157506001600160e01b031982166322ba176160e21b1492915050565b60005b610106548110156126e757610105600061010683815481106126b0576126b0613fa3565b60009182526020808320909101546001600160a01b03168352820192909252604001812055806126df81613fcf565b91505061268c565b5061083d61010660006139f5565b6001820154600090819061271c9060e01b6001600160e01b031916630f5b45a760e41b1490565b156123fe5760fe546009850154604051632888241b60e01b8152600160201b9091046001600160a01b0390811660048301526000921690632888241b906024016020604051808303816000875af115801561277b573d6000803e3d6000fd5b505050506040513d601f19601f8201168201806040525081019061279f919061404b565b90506001600160a01b0381166127e65760405162461bcd60e51b815260206004820152600c60248201526b413a535046543a5046524e5360a01b604482015260640161046f565b60ff60009054906101000a90046001600160a01b03166001600160a01b031663180b0d7e6040518163ffffffff1660e01b81526004016020604051808303816000875af115801561283b573d6000803e3d6000fd5b505050506040513d601f19601f8201168201806040525081019061285f9190614078565b600986015461ffff9182169161287c916201000090041686614095565b61288691906140ac565b6001600160a01b038216600090815261010560205260408120805492945084929091906128b490849061401f565b909155505061010680546001810182556000919091526000805160206147818339815191520180546001600160a01b0319166001600160a01b03929092169190911790559392505050565b600282015460009081906129269060e01b6001600160e01b03191663163b6d3b60e21b1490565b156123fe5760fe54600285015460405163342ce4cb60e11b8152600160201b9091046001600160a01b0390811660048301526000921690636859c996906024016020604051808303816000875af1158015612985573d6000803e3d6000fd5b505050506040513d601f19601f820116820180604052508101906129a9919061404b565b90506001600160a01b0381166129f05760405162461bcd60e51b815260206004820152600c60248201526b413a535046543a5046524e5360a01b604482015260640161046f565b60ff60009054906101000a90046001600160a01b03166001600160a01b031663180b0d7e6040518163ffffffff1660e01b81526004016020604051808303816000875af1158015612a45573d6000803e3d6000fd5b505050506040513d601f19601f82011682018060405250810190612a699190614078565b600486015461ffff9182169161287c911686614095565b60ff805460028401546003850154600480870154604051634287115760e01b8152600160201b9094046001600160a01b039081169285019290925260248401929092526044830186905262010000909104909316606482015260009283926060928392859216906342871157906084016000604051808303816000875af1158015612b0f573d6000803e3d6000fd5b505050506040513d6000823e601f3d908101601f19168201604052612b379190810190614580565b9194509250905060005b8351811015612c1c576000848281518110612b5e57612b5e613fa3565b602002602001015190506000848381518110612b7c57612b7c613fa3565b60200260200101519050806101056000846001600160a01b03166001600160a01b031681526020019081526020016000206000828254612bbc919061401f565b909155505061010680546001810182556000919091526000805160206147818339815191520180546001600160a01b0319166001600160a01b038416179055612c05818861401f565b965050508080612c1490613fcf565b915050612b41565b50929695505050505050565b6005810154600160201b900460e01b60005b610106548110156108015760006101068281548110612c5b57612c5b613fa3565b60009182526020808320909101546001600160a01b0316808352610105909152604090912054909150630251e45960e01b6001600160e01b0319851601612cd8576040516001600160a01b0383169082156108fc029083906000818181858888f19350505050158015612cd2573d6000803e3d6000fd5b50612dab565b631d45e89f60e21b6001600160e01b0319851601612dab57600585015460405163a9059cbb60e01b81526001600160a01b03848116600483015260248201849052600160401b9092049091169063a9059cbb906044016020604051808303816000875af1158015612d4d573d6000803e3d6000fd5b505050506040513d601f19601f82011682018060405250810190612d719190613ee9565b612dab5760405162461bcd60e51b815260206004820152600b60248201526a209d281d22a9219918282360a91b604482015260640161046f565b50508080612db890613fcf565b915050612c3a565b600054610100900460ff16612de75760405162461bcd60e51b815260040161046f90614655565b612def612e58565b61083d33611e7c565b600054610100900460ff16612e1f5760405162461bcd60e51b815260040161046f90614655565b6106a68282613285565b600054610100900460ff16612e505760405162461bcd60e51b815260040161046f90614655565b61083d6132c6565b600054610100900460ff1661083d5760405162461bcd60e51b815260040161046f90614655565b6000612e8a866132f9565b90506000612ed686868080601f01602080910402602001604051908101604052809392919081815260200183838082843760009201919091525061230992508691506122ce9050613199565b9050612ee86060880160408901613b01565b6001600160a01b0316816001600160a01b031614612f375760405162461bcd60e51b815260206004820152600c60248201526b413a56534641433a4941435360a01b604482015260640161046f565b612f7f84848080601f01602080910402602001604051908101604052809392919081815260200183838082843760009201919091525061230992508691506122ce9050613199565b9050612f9361022088016102008901613b01565b6001600160a01b0316816001600160a01b0316146123e95760405162461bcd60e51b815260206004820152600b60248201526a413a56534641433a49505360a81b604482015260640161046f565b6001600160a01b0381163b61304e5760405162461bcd60e51b815260206004820152602d60248201527f455243313936373a206e657720696d706c656d656e746174696f6e206973206e60448201526c1bdd08184818dbdb9d1c9858dd609a1b606482015260840161046f565b6000805160206147a183398151915280546001600160a01b0319166001600160a01b0392909216919091179055565b6130868361341b565b6000825111806130935750805b15610801576125a5838361345b565b60685460ff1661083d5760405162461bcd60e51b815260206004820152601460248201527314185d5cd8589b194e881b9bdd081c185d5cd95960621b604482015260640161046f565b60007f6b97d861fbc22db5a8168ec2258e8a33ce5bc062f76f7fa9aef2bf21dd3ebfc782356131206040850160208601613b01565b6131306060860160408701613b01565b8560600135866080013560405160200161317c9695949392919095865260208601949094526001600160a01b03928316604086015291166060840152608083015260a082015260c00190565b604051602081830303815290604052805190602001209050919050565b60006131d07f8b73c3c69bb8fe3d512ecc4cf759cc79239f7b179b0ffacaa9a75d522b39400f6131c860345490565b60355461354f565b905090565b60008060006131e48585613599565b915091506131f1816135de565b509392505050565b60007fed329eb48340e6d3906454838e67dfd0adb6df1633fe4cdd4f6fabba21d764a4823561322e6040850160208601613b01565b60408501356132436080870160608801613b01565b6040805160208101969096528501939093526001600160a01b039182166060850152608084810191909152911660a083015283013560c082015260e00161317c565b600054610100900460ff166132ac5760405162461bcd60e51b815260040161046f90614655565b815160209283012081519190920120603491909155603555565b600054610100900460ff166132ed5760405162461bcd60e51b815260040161046f90614655565b6068805460ff19169055565b60007f4dc30fce2a6b4a2eb96a5a48fca38fa23be2d81260d2f446e2a7dc039666630d823561332e60408501602086016146a0565b61333e6060860160408701613b01565b61334a86606001613794565b6133578761010001613846565b6101608801356101808901356101a08a013561337b6101e08c016101c08d016146bd565b61338d6102008d016101e08e016146bd565b61339f6102208e016102008f01613b01565b60408051602081019d909d528c019a909a526001600160e01b031990981660608b01526001600160a01b0396871660808b015260a08a019590955260c089019390935260e088019190915261010087015261012086015261ffff908116610140860152909116610160840152166101808201526101a00161317c565b61342481612fe1565b6040516001600160a01b038216907fbc7cd75a20ee27fd9adebab32041f755214dbc6bffa90cc0225b39da2e5c2d3b90600090a250565b60606001600160a01b0383163b6134c35760405162461bcd60e51b815260206004820152602660248201527f416464726573733a2064656c65676174652063616c6c20746f206e6f6e2d636f6044820152651b9d1c9858dd60d21b606482015260840161046f565b600080846001600160a01b0316846040516134de91906146fe565b600060405180830381855af49150503d8060008114613519576040519150601f19603f3d011682016040523d82523d6000602084013e61351e565b606091505b509150915061354682826040518060600160405280602781526020016147c1602791396138cf565b95945050505050565b6040805160208101859052908101839052606081018290524660808201523060a082015260009060c0016040516020818303038152906040528051906020012090505b9392505050565b60008082516041036135cf5760208301516040840151606085015160001a6135c387828585613908565b945094505050506135d7565b506000905060025b9250929050565b60008160048111156135f2576135f261471a565b036135fa5750565b600181600481111561360e5761360e61471a565b0361365b5760405162461bcd60e51b815260206004820152601860248201527f45434453413a20696e76616c6964207369676e61747572650000000000000000604482015260640161046f565b600281600481111561366f5761366f61471a565b036136bc5760405162461bcd60e51b815260206004820152601f60248201527f45434453413a20696e76616c6964207369676e6174757265206c656e67746800604482015260640161046f565b60038160048111156136d0576136d061471a565b036137285760405162461bcd60e51b815260206004820152602260248201527f45434453413a20696e76616c6964207369676e6174757265202773272076616c604482015261756560f01b606482015260840161046f565b600481600481111561373c5761373c61471a565b036105075760405162461bcd60e51b815260206004820152602260248201527f45434453413a20696e76616c6964207369676e6174757265202776272076616c604482015261756560f01b606482015260840161046f565b60007f5896f842d5a83ae87e0e2d017a049ce82d477a9df36852f8365c6ec0c9dcb2156137c460208401846146a0565b6137d46040850160208601613b01565b60408501356137e960808701606088016146bd565b6137f960a0880160808901614730565b6040805160208101979097526001600160e01b0319909516948601949094526001600160a01b039092166060850152608084015261ffff1660a083015260ff1660c082015260e00161317c565b60007fa47c24b088e6a556e9a187cb5af98078735d4167597431c0764b42ec65a4200161387660208401846146a0565b61388660408501602086016146a0565b6138966060860160408701613b01565b6040805160208101959095526001600160e01b031993841690850152911660608301526001600160a01b0316608082015260a00161317c565b606083156138de575081613592565b8251156138ee5782518084602001fd5b8160405162461bcd60e51b815260040161046f919061474d565b6000807f7fffffffffffffffffffffffffffffff5d576e7357a4501ddfe92f46681b20a083111561393f57506000905060036139ec565b8460ff16601b1415801561395757508460ff16601c14155b1561396857506000905060046139ec565b6040805160008082526020820180845289905260ff881692820192909252606081018690526080810185905260019060a0016020604051602081039080840390855afa1580156139bc573d6000803e3d6000fd5b5050604051601f1901519150506001600160a01b0381166139e5576000600192509250506139ec565b9150600090505b94509492505050565b508054600082559060005260206000209081019061050791905b80821115613a235760008155600101613a0f565b5090565b6001600160a01b038116811461050757600080fd5b8035613a4781613a27565b919050565b60008083601f840112613a5e57600080fd5b50813567ffffffffffffffff811115613a7657600080fd5b6020830191508360208285010111156135d757600080fd5b600080600080600060808688031215613aa657600080fd5b8535613ab181613a27565b94506020860135613ac181613a27565b935060408601359250606086013567ffffffffffffffff811115613ae457600080fd5b613af088828901613a4c565b969995985093965092949392505050565b600060208284031215613b1357600080fd5b81356123fe81613a27565b60008060408385031215613b3157600080fd5b8235613b3c81613a27565b91506020830135613b4c81613a27565b809150509250929050565b60008060208385031215613b6a57600080fd5b823567ffffffffffffffff80821115613b8257600080fd5b818501915085601f830112613b9657600080fd5b813581811115613ba557600080fd5b8660208260051b8501011115613bba57600080fd5b60209290920196919550909350505050565b600060208284031215613bde57600080fd5b5035919050565b634e487b7160e01b600052604160045260246000fd5b604051601f8201601f1916810167ffffffffffffffff81118282101715613c2457613c24613be5565b604052919050565b60008060408385031215613c3f57600080fd5b8235613c4a81613a27565b915060208381013567ffffffffffffffff80821115613c6857600080fd5b818601915086601f830112613c7c57600080fd5b813581811115613c8e57613c8e613be5565b613ca0601f8201601f19168501613bfb565b91508082528784828501011115613cb657600080fd5b80848401858401376000848284010152508093505050509250929050565b600060a08284031215613ce657600080fd5b50919050565b600080600080600060e08688031215613d0457600080fd5b613d0e8787613cd4565b945060a086013567ffffffffffffffff80821115613d2b57600080fd5b613d3789838a01613a4c565b909650945060c0880135915080821115613d5057600080fd5b50613af088828901613a4c565b600080600060c08486031215613d7257600080fd5b613d7c8585613cd4565b925060a084013567ffffffffffffffff811115613d9857600080fd5b613da486828701613a4c565b9497909650939450505050565b604080825283519082018190526000906020906060840190828701845b82811015613df35781516001600160a01b031684529284019290840190600101613dce565b5050508381038285015284518082528583019183019060005b81811015613e2857835183529284019291840191600101613e0c565b5090979650505050505050565b6000806000806000858703610260811215613e4f57600080fd5b61022080821215613e5f57600080fd5b879650860135905067ffffffffffffffff80821115613e7d57600080fd5b613e8989838a01613a4c565b9096509450610240880135915080821115613d5057600080fd5b60208082526026908201527f41646d696e3a6f6e6c7941646d696e2063616c6c6572206973206e6f7420616e6040820152651020b236b4b760d11b606082015260800190565b600060208284031215613efb57600080fd5b815180151581146123fe57600080fd5b6020808252602c908201527f46756e6374696f6e206d7573742062652063616c6c6564207468726f7567682060408201526b19195b1959d85d1958d85b1b60a21b606082015260800190565b6020808252602c908201527f46756e6374696f6e206d7573742062652063616c6c6564207468726f7567682060408201526b6163746976652070726f787960a01b606082015260800190565b634e487b7160e01b600052603260045260246000fd5b634e487b7160e01b600052601160045260246000fd5b600060018201613fe157613fe1613fb9565b5060010190565b6001600160a01b039384168152919092166020820152604081019190915260600190565b8181038181111561240157612401613fb9565b8082018082111561240157612401613fb9565b60006020828403121561404457600080fd5b5051919050565b60006020828403121561405d57600080fd5b81516123fe81613a27565b61ffff8116811461050757600080fd5b60006020828403121561408a57600080fd5b81516123fe81614068565b808202811582820484141761240157612401613fb9565b6000826140c957634e487b7160e01b600052601260045260246000fd5b500490565b6001600160e01b03198116811461050757600080fd5b8035613a47816140ce565b8035613a4781614068565b60ff8116811461050757600080fd5b8035614114816140ce565b6001600160e01b0319168252602081013561412e81613a27565b6001600160a01b0316602083015260408181013590830152606081013561415481614068565b61ffff166060830152608081013561416b816140fa565b60ff81166080840152505050565b8035614184816140ce565b6001600160e01b031990811683526020820135906141a1826140ce565b16602083015260408101356141b581613a27565b6001600160a01b03166040929092019190915250565b8135815261022081016141e0602084016140e4565b6001600160e01b03191660208301526141fb60408401613a3c565b6001600160a01b031660408301526142196060808401908501614109565b61010061422a818401828601614179565b50610160838101359083015261018080840135908301526101a080840135908301526101c061425a8185016140ef565b61ffff16908301526101e06142708482016140ef565b61ffff1690830152610200614286848201613a3c565b6001600160a01b0316920191909152919050565b60008135612401816140ce565b6000813561240181613a27565b8054640100000000600160c01b03191660209290921b640100000000600160c01b0316919091179055565b6000813561240181614068565b81356142f7816140ce565b815463ffffffff191660e082901c17825550602082013561431781613a27565b61432181836142b4565b506040820135600182015560028101606083013561433e81614068565b815461ffff191661ffff821617825550608083013561435c816140fa565b815462ff0000191660109190911b62ff0000161790555050565b8135614381816140ce565b815463ffffffff191660e082901c1782555060208201356143a1816140ce565b815467ffffffff000000008260c01c1691508167ffffffff0000000019821617835560408401356143d181613a27565b640100000000600160e01b03199190911690911760409190911b68010000000000000000600160e01b031617905550565b813581556001810161442d6144196020850161429a565b825463ffffffff191660e09190911c178255565b61444261443c604085016142a7565b826142b4565b5061445360608301600283016142ec565b614464610100830160058301614376565b610160820135600682015561018082013560078201556101a08201356008820155600981016144ac6144996101c085016142df565b825461ffff191661ffff91909116178255565b6144d66144bc6101e085016142df565b825463ffff0000191660109190911b63ffff000016178255565b61080161443c61020085016142a7565b600067ffffffffffffffff82111561450057614500613be5565b5060051b60200190565b600082601f83011261451b57600080fd5b8151602061453061452b836144e6565b613bfb565b82815260059290921b8401810191818101908684111561454f57600080fd5b8286015b8481101561456a5780518352918301918301614553565b509695505050505050565b8051613a47816140fa565b60008060006060848603121561459557600080fd5b835167ffffffffffffffff808211156145ad57600080fd5b818601915086601f8301126145c157600080fd5b815160206145d161452b836144e6565b82815260059290921b8401810191818101908a8411156145f057600080fd5b948201945b8386101561461757855161460881613a27565b825294820194908201906145f5565b9189015191975090935050508082111561463057600080fd5b5061463d8682870161450a565b92505061464c60408501614575565b90509250925092565b6020808252602b908201527f496e697469616c697a61626c653a20636f6e7472616374206973206e6f74206960408201526a6e697469616c697a696e6760a81b606082015260800190565b6000602082840312156146b257600080fd5b81356123fe816140ce565b6000602082840312156146cf57600080fd5b81356123fe81614068565b60005b838110156146f55781810151838201526020016146dd565b50506000910152565b600082516147108184602087016146da565b9190910192915050565b634e487b7160e01b600052602160045260246000fd5b60006020828403121561474257600080fd5b81356123fe816140fa565b602081526000825180602084015261476c8160408501602087016146da565b601f01601f1916919091016040019291505056fec9ef9fceea91e87b2c84ea400a44fde78842aae8aa24cd4b502ce5fb4d91e63b360894a13ba1a3210667c828492db98dca3e2076cc3735a920a3ca505d382bbc416464726573733a206c6f772d6c6576656c2064656c65676174652063616c6c206661696c6564a264697066735822122094dc52b91cc54d2cd37e353ecc015da6799cecb466325785e718db581b0a2e9764736f6c63430008110033",
  "linkReferences": {},
  "deployedLinkReferences": {}
}