{
  "_format": "hh-sol-artifact-1",
  "contractName": "Auction",
  "sourceName": "contracts/sbinft/market/v1/auction/Auction.sol",
  "abi": [
    {
      "inputs": [
        {
          "internalType": "address",
          "name": "trustedForwarder",
          "type": "address"
        }
      ],
      "stateMutability": "nonpayable",
      "type": "constructor"
    },
    {
      "anonymous": false,
      "inputs": [
        {
          "indexed": false,
          "internalType": "address",
          "name": "",
          "type": "address"
        }
      ],
      "name": "AdminAdded",
      "type": "event"
    },
    {
      "anonymous": false,
      "inputs": [
        {
          "indexed": false,
          "internalType": "address",
          "name": "previousAdmin",
          "type": "address"
        },
        {
          "indexed": false,
          "internalType": "address",
          "name": "newAdmin",
          "type": "address"
        }
      ],
      "name": "AdminChanged",
      "type": "event"
    },
    {
      "anonymous": false,
      "inputs": [
        {
          "indexed": false,
          "internalType": "address",
          "name": "",
          "type": "address"
        }
      ],
      "name": "AdminRemoved",
      "type": "event"
    },
    {
      "anonymous": false,
      "inputs": [
        {
          "indexed": true,
          "internalType": "address",
          "name": "bidderAddress",
          "type": "address"
        },
        {
          "indexed": true,
          "internalType": "address",
          "name": "assetAddress",
          "type": "address"
        },
        {
          "indexed": false,
          "internalType": "uint256",
          "name": "assetId",
          "type": "uint256"
        },
        {
          "indexed": true,
          "internalType": "uint256",
          "name": "auctionId",
          "type": "uint256"
        },
        {
          "indexed": false,
          "internalType": "uint256",
          "name": "currentPrice",
          "type": "uint256"
        }
      ],
      "name": "AuctionBid",
      "type": "event"
    },
    {
      "anonymous": false,
      "inputs": [
        {
          "indexed": true,
          "internalType": "address",
          "name": "creatorAddress",
          "type": "address"
        },
        {
          "indexed": true,
          "internalType": "address",
          "name": "assetAddress",
          "type": "address"
        },
        {
          "indexed": false,
          "internalType": "uint256",
          "name": "assetId",
          "type": "uint256"
        },
        {
          "indexed": true,
          "internalType": "uint256",
          "name": "auctionId",
          "type": "uint256"
        }
      ],
      "name": "AuctionCanceled",
      "type": "event"
    },
    {
      "anonymous": false,
      "inputs": [
        {
          "indexed": true,
          "internalType": "address",
          "name": "creatorAddress",
          "type": "address"
        },
        {
          "indexed": true,
          "internalType": "address",
          "name": "assetAddress",
          "type": "address"
        },
        {
          "indexed": false,
          "internalType": "uint256",
          "name": "assetId",
          "type": "uint256"
        },
        {
          "indexed": true,
          "internalType": "uint256",
          "name": "auctionId",
          "type": "uint256"
        },
        {
          "indexed": false,
          "internalType": "uint256",
          "name": "startPrice",
          "type": "uint256"
        },
        {
          "indexed": false,
          "internalType": "uint256",
          "name": "startTime",
          "type": "uint256"
        },
        {
          "indexed": false,
          "internalType": "uint256",
          "name": "endTime",
          "type": "uint256"
        }
      ],
      "name": "AuctionCreated",
      "type": "event"
    },
    {
      "anonymous": false,
      "inputs": [
        {
          "indexed": true,
          "internalType": "address",
          "name": "assetAddress",
          "type": "address"
        },
        {
          "indexed": true,
          "internalType": "uint256",
          "name": "assetId",
          "type": "uint256"
        }
      ],
      "name": "AuctionFinished",
      "type": "event"
    },
    {
      "anonymous": false,
      "inputs": [
        {
          "indexed": true,
          "internalType": "address",
          "name": "beacon",
          "type": "address"
        }
      ],
      "name": "BeaconUpgraded",
      "type": "event"
    },
    {
      "anonymous": false,
      "inputs": [
        {
          "indexed": false,
          "internalType": "uint8",
          "name": "version",
          "type": "uint8"
        }
      ],
      "name": "Initialized",
      "type": "event"
    },
    {
      "anonymous": false,
      "inputs": [
        {
          "indexed": false,
          "internalType": "address",
          "name": "account",
          "type": "address"
        }
      ],
      "name": "Paused",
      "type": "event"
    },
    {
      "anonymous": false,
      "inputs": [
        {
          "indexed": true,
          "internalType": "contract IPlatformRegistry",
          "name": "platformRegistry",
          "type": "address"
        }
      ],
      "name": "PlatformRegistryUpdated",
      "type": "event"
    },
    {
      "anonymous": false,
      "inputs": [
        {
          "indexed": true,
          "internalType": "contract IRoyaltyRegistry",
          "name": "royaltyRegistry",
          "type": "address"
        }
      ],
      "name": "RoyaltyRegistryUpdated",
      "type": "event"
    },
    {
      "anonymous": false,
      "inputs": [
        {
          "indexed": false,
          "internalType": "address",
          "name": "account",
          "type": "address"
        }
      ],
      "name": "Unpaused",
      "type": "event"
    },
    {
      "anonymous": false,
      "inputs": [
        {
          "indexed": true,
          "internalType": "address",
          "name": "implementation",
          "type": "address"
        }
      ],
      "name": "Upgraded",
      "type": "event"
    },
    {
      "inputs": [
        {
          "internalType": "contract IPlatformRegistry",
          "name": "_platformRegistry",
          "type": "address"
        },
        {
          "internalType": "contract IRoyaltyRegistry",
          "name": "_royaltyManager",
          "type": "address"
        }
      ],
      "name": "__Auction_init",
      "outputs": [],
      "stateMutability": "nonpayable",
      "type": "function"
    },
    {
      "inputs": [
        {
          "internalType": "address[]",
          "name": "newAdmin",
          "type": "address[]"
        }
      ],
      "name": "addAdmin",
      "outputs": [],
      "stateMutability": "nonpayable",
      "type": "function"
    },
    {
      "inputs": [
        {
          "internalType": "address",
          "name": "newAdmin",
          "type": "address"
        }
      ],
      "name": "addAdmin",
      "outputs": [],
      "stateMutability": "nonpayable",
      "type": "function"
    },
    {
      "inputs": [
        {
          "components": [
            {
              "internalType": "uint256",
              "name": "auctionId",
              "type": "uint256"
            },
            {
              "internalType": "address",
              "name": "bidder",
              "type": "address"
            },
            {
              "internalType": "address payable",
              "name": "refundTo",
              "type": "address"
            },
            {
              "internalType": "uint256",
              "name": "nonce",
              "type": "uint256"
            },
            {
              "internalType": "uint256",
              "name": "price",
              "type": "uint256"
            }
          ],
          "internalType": "struct AuctionDomain.Bid",
          "name": "_bid",
          "type": "tuple"
        },
        {
          "internalType": "bytes",
          "name": "_bidderSign",
          "type": "bytes"
        },
        {
          "internalType": "bytes",
          "name": "_platformSign",
          "type": "bytes"
        }
      ],
      "name": "bid",
      "outputs": [],
      "stateMutability": "payable",
      "type": "function"
    },
    {
      "inputs": [
        {
          "internalType": "uint256",
          "name": "_auctionId",
          "type": "uint256"
        }
      ],
      "name": "cancel",
      "outputs": [],
      "stateMutability": "nonpayable",
      "type": "function"
    },
    {
      "inputs": [
        {
          "components": [
            {
              "internalType": "uint256",
              "name": "auctionId",
              "type": "uint256"
            },
            {
              "internalType": "bytes4",
              "name": "pfKind",
              "type": "bytes4"
            },
            {
              "internalType": "address payable",
              "name": "creatorAddress",
              "type": "address"
            },
            {
              "components": [
                {
                  "internalType": "bytes4",
                  "name": "originKind",
                  "type": "bytes4"
                },
                {
                  "internalType": "address",
                  "name": "asset",
                  "type": "address"
                },
                {
                  "internalType": "uint256",
                  "name": "assetId",
                  "type": "uint256"
                },
                {
                  "internalType": "uint16",
                  "name": "partnerFeeRate",
                  "type": "uint16"
                },
                {
                  "internalType": "uint8",
                  "name": "isSecondarySale",
                  "type": "uint8"
                }
              ],
              "internalType": "struct AuctionDomain.Asset",
              "name": "asset",
              "type": "tuple"
            },
            {
              "components": [
                {
                  "internalType": "bytes4",
                  "name": "auctionKind",
                  "type": "bytes4"
                },
                {
                  "internalType": "bytes4",
                  "name": "bidMode",
                  "type": "bytes4"
                },
                {
                  "internalType": "address",
                  "name": "paymentToken",
                  "type": "address"
                }
              ],
              "internalType": "struct AuctionDomain.AuctionType",
              "name": "auctionType",
              "type": "tuple"
            },
            {
              "internalType": "uint256",
              "name": "startPrice",
              "type": "uint256"
            },
            {
              "internalType": "uint256",
              "name": "startTime",
              "type": "uint256"
            },
            {
              "internalType": "uint256",
              "name": "endTime",
              "type": "uint256"
            },
            {
              "internalType": "uint16",
              "name": "pfFeeRate",
              "type": "uint16"
            },
            {
              "internalType": "uint16",
              "name": "externalPfFeeRate",
              "type": "uint16"
            },
            {
              "internalType": "address",
              "name": "platformSigner",
              "type": "address"
            }
          ],
          "internalType": "struct AuctionDomain.Auction",
          "name": "_auction",
          "type": "tuple"
        },
        {
          "internalType": "bytes",
          "name": "_creatorSign",
          "type": "bytes"
        },
        {
          "internalType": "bytes",
          "name": "_platformSign",
          "type": "bytes"
        }
      ],
      "name": "createAuction",
      "outputs": [],
      "stateMutability": "nonpayable",
      "type": "function"
    },
    {
      "inputs": [
        {
          "components": [
            {
              "internalType": "uint256",
              "name": "auctionId",
              "type": "uint256"
            },
            {
              "internalType": "address",
              "name": "asset",
              "type": "address"
            },
            {
              "internalType": "uint256",
              "name": "assetId",
              "type": "uint256"
            },
            {
              "internalType": "address",
              "name": "winner",
              "type": "address"
            },
            {
              "internalType": "uint256",
              "name": "finalPrice",
              "type": "uint256"
            }
          ],
          "internalType": "struct AuctionDomain.AuctionResult",
          "name": "_result",
          "type": "tuple"
        },
        {
          "internalType": "bytes",
          "name": "_platformSign",
          "type": "bytes"
        }
      ],
      "name": "finishAuction",
      "outputs": [],
      "stateMutability": "nonpayable",
      "type": "function"
    },
    {
      "inputs": [
        {
          "internalType": "uint256",
          "name": "_auctinId",
          "type": "uint256"
        }
      ],
      "name": "getBidHistory",
      "outputs": [
        {
          "internalType": "address[]",
          "name": "",
          "type": "address[]"
        },
        {
          "internalType": "uint256[]",
          "name": "",
          "type": "uint256[]"
        }
      ],
      "stateMutability": "view",
      "type": "function"
    },
    {
      "inputs": [
        {
          "internalType": "address",
          "name": "checkAdmin",
          "type": "address"
        }
      ],
      "name": "isAdmin",
      "outputs": [
        {
          "internalType": "bool",
          "name": "",
          "type": "bool"
        }
      ],
      "stateMutability": "view",
      "type": "function"
    },
    {
      "inputs": [
        {
          "internalType": "address",
          "name": "forwarder",
          "type": "address"
        }
      ],
      "name": "isTrustedForwarder",
      "outputs": [
        {
          "internalType": "bool",
          "name": "",
          "type": "bool"
        }
      ],
      "stateMutability": "view",
      "type": "function"
    },
    {
      "inputs": [
        {
          "internalType": "address",
          "name": "",
          "type": "address"
        },
        {
          "internalType": "address",
          "name": "",
          "type": "address"
        },
        {
          "internalType": "uint256",
          "name": "",
          "type": "uint256"
        },
        {
          "internalType": "bytes",
          "name": "",
          "type": "bytes"
        }
      ],
      "name": "onERC721Received",
      "outputs": [
        {
          "internalType": "bytes4",
          "name": "",
          "type": "bytes4"
        }
      ],
      "stateMutability": "pure",
      "type": "function"
    },
    {
      "inputs": [],
      "name": "pause",
      "outputs": [],
      "stateMutability": "nonpayable",
      "type": "function"
    },
    {
      "inputs": [],
      "name": "paused",
      "outputs": [
        {
          "internalType": "bool",
          "name": "",
          "type": "bool"
        }
      ],
      "stateMutability": "view",
      "type": "function"
    },
    {
      "inputs": [],
      "name": "platformRegistry",
      "outputs": [
        {
          "internalType": "contract IPlatformRegistry",
          "name": "",
          "type": "address"
        }
      ],
      "stateMutability": "view",
      "type": "function"
    },
    {
      "inputs": [],
      "name": "proxiableUUID",
      "outputs": [
        {
          "internalType": "bytes32",
          "name": "",
          "type": "bytes32"
        }
      ],
      "stateMutability": "view",
      "type": "function"
    },
    {
      "inputs": [
        {
          "internalType": "address",
          "name": "admin",
          "type": "address"
        }
      ],
      "name": "removeAdmin",
      "outputs": [],
      "stateMutability": "nonpayable",
      "type": "function"
    },
    {
      "inputs": [],
      "name": "royaltyRegistry",
      "outputs": [
        {
          "internalType": "contract IRoyaltyRegistry",
          "name": "",
          "type": "address"
        }
      ],
      "stateMutability": "view",
      "type": "function"
    },
    {
      "inputs": [],
      "name": "unpause",
      "outputs": [],
      "stateMutability": "nonpayable",
      "type": "function"
    },
    {
      "inputs": [
        {
          "internalType": "contract IPlatformRegistry",
          "name": "_newPlatformRegistry",
          "type": "address"
        }
      ],
      "name": "updatePlatformRegistry",
      "outputs": [],
      "stateMutability": "nonpayable",
      "type": "function"
    },
    {
      "inputs": [
        {
          "internalType": "contract IRoyaltyRegistry",
          "name": "_newRoyaltyRegistry",
          "type": "address"
        }
      ],
      "name": "updateRoyaltyManager",
      "outputs": [],
      "stateMutability": "nonpayable",
      "type": "function"
    },
    {
      "inputs": [
        {
          "internalType": "address",
          "name": "newImplementation",
          "type": "address"
        }
      ],
      "name": "upgradeTo",
      "outputs": [],
      "stateMutability": "nonpayable",
      "type": "function"
    },
    {
      "inputs": [
        {
          "internalType": "address",
          "name": "newImplementation",
          "type": "address"
        },
        {
          "internalType": "bytes",
          "name": "data",
          "type": "bytes"
        }
      ],
      "name": "upgradeToAndCall",
      "outputs": [],
      "stateMutability": "payable",
      "type": "function"
    },
    {
      "inputs": [
        {
          "internalType": "address payable",
          "name": "_receiver",
          "type": "address"
        },
        {
          "internalType": "address",
          "name": "_erc20Token",
          "type": "address"
        }
      ],
      "name": "withdrawTip",
      "outputs": [],
      "stateMutability": "nonpayable",
      "type": "function"
    }
  ],
  "bytecode": "0x60c06040523060a0523480156200001557600080fd5b5060405162004b4638038062004b46833981016040819052620000389162000118565b6001600160a01b0381166080526200004f62000056565b506200014a565b600054610100900460ff1615620000c35760405162461bcd60e51b815260206004820152602760248201527f496e697469616c697a61626c653a20636f6e747261637420697320696e697469604482015266616c697a696e6760c81b606482015260840160405180910390fd5b60005460ff908116101562000116576000805460ff191660ff9081179091556040519081527f7f26b83ff96e1f2b6a682f133852f6798a09c465da95921460cefb38474024989060200160405180910390a15b565b6000602082840312156200012b57600080fd5b81516001600160a01b03811681146200014357600080fd5b9392505050565b60805160a0516149b3620001936000396000818161073a0152818161077a01528181610aca01528181610b0a0152610b990152600081816102e2015261313c01526149b36000f3fe6080604052600436106101405760003560e01c80635c975abb116100b6578063b36f08fe1161006f578063b36f08fe146103cb578063c0738dce146103eb578063c255f87814610419578063c8f935091461043a578063e1c0cafb1461045a578063efe3ffe11461047a57600080fd5b80635c975abb14610312578063653551501461032a578063704802751461034a5780638456cb591461036a57806386a42d191461037f578063a11b07121461039257600080fd5b80633d0950a8116101085780633d0950a81461023a5780633f4ba83a1461025a57806340e58ee51461026f5780634f1ef2861461028f57806352d1902d146102a2578063572b6c05146102c557600080fd5b8063150b7a02146101455780631785f53c1461018f57806318cdeccc146101b157806324d7806c146101d15780633659cfe61461021a575b600080fd5b34801561015157600080fd5b50610171610160366004613c24565b630a85bd0160e11b95945050505050565b6040516001600160e01b031990911681526020015b60405180910390f35b34801561019b57600080fd5b506101af6101aa366004613c97565b61049a565b005b3480156101bd57600080fd5b506101af6101cc366004613cb4565b61057a565b3480156101dd57600080fd5b5061020a6101ec366004613c97565b6001600160a01b031660009081526065602052604090205460ff1690565b6040519015158152602001610186565b34801561022657600080fd5b506101af610235366004613c97565b610730565b34801561024657600080fd5b506101af610255366004613ced565b61080c565b34801561026657600080fd5b506101af6108a2565b34801561027b57600080fd5b506101af61028a366004613d62565b6108f1565b6101af61029d366004613dc2565b610ac0565b3480156102ae57600080fd5b506102b7610b8c565b604051908152602001610186565b3480156102d157600080fd5b5061020a6102e0366004613c97565b7f00000000000000000000000000000000000000000000000000000000000000006001600160a01b0390811691161490565b34801561031e57600080fd5b50609a5460ff1661020a565b34801561033657600080fd5b506101af610345366004613c97565b610c3f565b34801561035657600080fd5b506101af610365366004613c97565b610d76565b34801561037657600080fd5b506101af610dc4565b6101af61038d366004613e82565b610e11565b34801561039e57600080fd5b50610131546103b3906001600160a01b031681565b6040516001600160a01b039091168152602001610186565b3480156103d757600080fd5b506101af6103e6366004613ef3565b611414565b3480156103f757600080fd5b5061040b610406366004613d62565b611805565b604051610186929190613f47565b34801561042557600080fd5b50610130546103b3906001600160a01b031681565b34801561044657600080fd5b506101af610455366004613c97565b6118d5565b34801561046657600080fd5b506101af610475366004613cb4565b611a0c565b34801561048657600080fd5b506101af610495366004613fcb565b611b8b565b606560006104a6611dae565b6001600160a01b0316815260208101919091526040016000205460ff166104e85760405162461bcd60e51b81526004016104df90614039565b60405180910390fd5b6001600160a01b03811660009081526065602052604090205460ff1661056e5760405162461bcd60e51b815260206004820152603560248201527f41646d696e3a72656d6f766541646d696e20747279696e6720746f2072656d6f6044820152743b32903737b71032bc34b9ba34b7339020b236b4b760591b60648201526084016104df565b61057781611dbd565b50565b60656000610586611dae565b6001600160a01b0316815260208101919091526040016000205460ff166105bf5760405162461bcd60e51b81526004016104df90614039565b6001600160a01b0382166106005760405162461bcd60e51b8152602060048201526008602482015267413a57543a49524160c01b60448201526064016104df565b6001600160a01b03811661065157610135546040516001600160a01b0384169180156108fc02916000818181858888f19350505050158015610646573d6000803e3d6000fd5b506000610135555050565b6001600160a01b03818116600081815261013660205260409081902054905163a9059cbb60e01b81529285166004840152602483018190529163a9059cbb906044016020604051808303816000875af11580156106b2573d6000803e3d6000fd5b505050506040513d601f19601f820116820180604052508101906106d6919061407f565b6107105760405162461bcd60e51b815260206004820152600b60248201526a209d2b9d22a92199182ba360a91b60448201526064016104df565b506001600160a01b038116600090815261013660205260408120555b5050565b6001600160a01b037f00000000000000000000000000000000000000000000000000000000000000001630036107785760405162461bcd60e51b81526004016104df906140a1565b7f00000000000000000000000000000000000000000000000000000000000000006001600160a01b03166107c1600080516020614937833981519152546001600160a01b031690565b6001600160a01b0316146107e75760405162461bcd60e51b81526004016104df906140ed565b6107f081611e15565b6040805160008082526020820190925261057791839190611e5a565b60656000610818611dae565b6001600160a01b0316815260208101919091526040016000205460ff166108515760405162461bcd60e51b81526004016104df90614039565b60005b8181101561089d5761088b83838381811061087157610871614139565b90506020020160208101906108869190613c97565b611fc5565b8061089581614165565b915050610854565b505050565b606560006108ae611dae565b6001600160a01b0316815260208101919091526040016000205460ff166108e75760405162461bcd60e51b81526004016104df90614039565b6108ef612083565b565b6108f96120db565b60008181526101326020908152604080832061013390925290912080546001600160a01b0316156109585760405162461bcd60e51b8152602060048201526009602482015268413a433a424d425a4160b81b60448201526064016104df565b6000610962611dae565b60018401549091506001600160a01b03808316600160201b9092041614806109a0575060098301546001600160a01b03828116600160201b90920416145b6109da5760405162461bcd60e51b815260206004820152600b60248201526a0413a433a434d4241434f560ac1b60448201526064016104df565b600183015460028401546003850154604051632142170760e11b81526001600160a01b03600160201b94859004811694909304909216916342842e0e91610a27913091869160040161417e565b600060405180830381600087803b158015610a4157600080fd5b505af1158015610a55573d6000803e3d6000fd5b5050855460028701546003880154604051908152919350600160201b90046001600160a01b0390811692508416907ffba51a0be6d9b27b783a43fe39837e485cec8ce599fb34585c519be55e36e12b9060200160405180910390a4610ab985612121565b5050505050565b6001600160a01b037f0000000000000000000000000000000000000000000000000000000000000000163003610b085760405162461bcd60e51b81526004016104df906140a1565b7f00000000000000000000000000000000000000000000000000000000000000006001600160a01b0316610b51600080516020614937833981519152546001600160a01b031690565b6001600160a01b031614610b775760405162461bcd60e51b81526004016104df906140ed565b610b8082611e15565b61072c82826001611e5a565b6000306001600160a01b037f00000000000000000000000000000000000000000000000000000000000000001614610c2c5760405162461bcd60e51b815260206004820152603860248201527f555550535570677261646561626c653a206d757374206e6f742062652063616c60448201527f6c6564207468726f7567682064656c656761746563616c6c000000000000000060648201526084016104df565b5060008051602061493783398151915290565b60656000610c4b611dae565b6001600160a01b0316815260208101919091526040016000205460ff16610c845760405162461bcd60e51b81526004016104df90614039565b6040516301ffc9a760e01b8152630bb454f960e11b60048201526001600160a01b038216906301ffc9a790602401602060405180830381865afa158015610ccf573d6000803e3d6000fd5b505050506040513d601f19601f82011682018060405250810190610cf3919061407f565b610d2b5760405162461bcd60e51b8152602060048201526009602482015268413a5550523a494e5360b81b60448201526064016104df565b61013080546001600160a01b0319166001600160a01b0383169081179091556040517fa48d197b43b1826afcf98445392676fa169817dd3216002b6fd70e8601ef2b0190600090a250565b60656000610d82611dae565b6001600160a01b0316815260208101919091526040016000205460ff16610dbb5760405162461bcd60e51b81526004016104df90614039565b61057781611fc5565b60656000610dd0611dae565b6001600160a01b0316815260208101919091526040016000205460ff16610e095760405162461bcd60e51b81526004016104df90614039565b6108ef6121e7565b610e196120db565b8435600081815261013260209081526040808320610133909252909120610e41888383612225565b610e6688888888888760090160049054906101000a90046001600160a01b03166123b0565b60808801356000610e7d60408b0160208c01613c97565b600585015460018501546002860154929350600160201b820460e01b92600160401b9092046001600160a01b03908116929116906001600160e01b03198416630251e45960e01b01610f755785341015610f045760405162461bcd60e51b81526020600482015260086024820152670827484749c8aa8960c31b60448201526064016104df565b8015610f42576040516001600160a01b0383169082156108fc029083906000818181858888f19350505050158015610f40573d6000803e3d6000fd5b505b6000610f4e87346141a2565b90508015610f6f57806101356000828254610f6991906141b5565b90915550505b506111e9565b631d45e89f60e21b6001600160e01b03198516016111e957604051636eb1769f60e11b81526001600160a01b0386811660048301523060248301526000919085169063dd62ed3e90604401602060405180830381865afa158015610fdd573d6000803e3d6000fd5b505050506040513d601f19601f8201168201806040525081019061100191906141c8565b9050868110156110405760405162461bcd60e51b815260206004820152600a6024820152690413a423a4e45524332360b41b60448201526064016104df565b6040516323b872dd60e01b81526001600160a01b038516906323b872dd9061107090899030908c9060040161417e565b6020604051808303816000875af115801561108f573d6000803e3d6000fd5b505050506040513d601f19601f820116820180604052508101906110b3919061407f565b6110ee5760405162461bcd60e51b815260206004820152600c60248201526b209d211d22a921991821262360a11b60448201526064016104df565b81156111a35760405163a9059cbb60e01b81526001600160a01b0384811660048301526024820184905285169063a9059cbb906044016020604051808303816000875af1158015611143573d6000803e3d6000fd5b505050506040513d601f19601f82011682018060405250810190611167919061407f565b6111a35760405162461bcd60e51b815260206004820152600d60248201526c209d211d22a92199182621292360991b60448201526064016104df565b60006111af88836141a2565b905080156111e6576001600160a01b03851660009081526101366020526040812080548392906111e09084906141b5565b90915550505b50505b600588015460e01b6001600160e01b0319166351e7b92b60e01b1480156112205750600888015461012c9061121e9042612542565b105b1561123c5760088801546112369061012c612557565b60088901555b8d602001602081019061124f9190613c97565b8760000160006101000a8154816001600160a01b0302191690836001600160a01b031602179055508d604001602081019061128a9190613c97565b6001880180546001600160a01b0319166001600160a01b039290921691821790556112e5578d60200160208101906112c29190613c97565b6001880180546001600160a01b0319166001600160a01b03929092169190911790555b858760020181905550866003018e60200160208101906113059190613c97565b9080600181540180825580915050600190039060005260206000200160009091909190916101000a8154816001600160a01b0302191690836001600160a01b031602179055508660040186908060018154018082558091505060019003906000526020600020016000909190919091505587600001548860020160000160049054906101000a90046001600160a01b03166001600160a01b03168f60200160208101906113b29190613c97565b6001600160a01b03167f0cc67b0b44d7c01080e3a22d0e6f5b84ac675426399b6d13f68df58a7e228db88b600201600101548a6040516113fc929190918252602082015260400190565b60405180910390a45050505050505050505050505050565b61141c6120db565b823560008181526101326020908152604080832061013390925290912061144c611444611dae565b838389612563565b600982015461146d90600160201b90046001600160a01b03168787876126fb565b600582015461148590600160201b900460e01b6127a3565b1561172b576114926127d9565b60028101546101305460408051630e0fa30960e31b815290516000926001600160a01b03169163707d1848916004808301926020929190829003018187875af11580156114e3573d6000803e3d6000fd5b505050506040513d601f19601f8201168201806040525081019061150791906141e1565b9050600061013160009054906101000a90046001600160a01b03166001600160a01b031663180b0d7e6040518163ffffffff1660e01b81526004016020604051808303816000875af1158015611561573d6000803e3d6000fd5b505050506040513d601f19601f82011682018060405250810190611585919061420e565b600986015461ffff9182169161159c91168561422b565b6115a69190614242565b6001600160a01b038316600090815261013760205260408120805492935083929091906115d49084906141b5565b909155505061013880546001810182556000919091526000805160206149178339815191520180546001600160a01b0319166001600160a01b03841617905561161d8584612845565b61162790826141b5565b905060006116358685612a51565b905060008161164484876141a2565b61164e91906141a2565b600488015490915060016201000090910460ff1603611708576116718786612bd4565b61167b90826141a2565b6001880154600160201b90046001600160a01b0316600090815261013760205260408120805492935083929091906116b49084906141b5565b9091555050600187810154610138805492830181556000526000805160206149178339815191529091018054600160201b9092046001600160a01b03166001600160a01b0319909216919091179055611714565b6117128782612bd4565b505b61171d87612d7d565b6117256127d9565b50505050505b61173b6040870160208801613c97565b6001600160a01b03166342842e0e3061175a60808a0160608b01613c97565b89604001356040518463ffffffff1660e01b815260040161177d9392919061417e565b600060405180830381600087803b15801561179757600080fd5b505af11580156117ab573d6000803e3d6000fd5b5050505060038201546002830154604051600160201b9091046001600160a01b0316907f8b1ad6c69d3d79a05f5b1ec0de825e9bf67c6c70b8c25babd159976cf9990dff90600090a36117fd83612121565b505050505050565b6000818152610133602090815260409182902060038101805484518185028101850190955280855260609485946004850192849183018282801561187257602002820191906000526020600020905b81546001600160a01b03168152600190910190602001808311611854575b50505050509150808054806020026020016040519081016040528092919081815260200182805480156118c457602002820191906000526020600020905b8154815260200190600101908083116118b0575b505050505090509250925050915091565b606560006118e1611dae565b6001600160a01b0316815260208101919091526040016000205460ff1661191a5760405162461bcd60e51b81526004016104df90614039565b6040516301ffc9a760e01b8152635a8c1c2960e01b60048201526001600160a01b038216906301ffc9a790602401602060405180830381865afa158015611965573d6000803e3d6000fd5b505050506040513d601f19601f82011682018060405250810190611989919061407f565b6119c15760405162461bcd60e51b8152602060048201526009602482015268413a5552523a494e5360b81b60448201526064016104df565b61013180546001600160a01b0319166001600160a01b0383169081179091556040517f39753a6336ef533f6e1785dcab15abdacaf0467b09c6127c32053ad75bcefc6790600090a250565b600054610100900460ff1615808015611a2c5750600054600160ff909116105b80611a465750303b158015611a46575060005460ff166001145b611aa95760405162461bcd60e51b815260206004820152602e60248201527f496e697469616c697a61626c653a20636f6e747261637420697320616c72656160448201526d191e481a5b9a5d1a585b1a5e995960921b60648201526084016104df565b6000805460ff191660011790558015611acc576000805461ff0019166101001790555b611ad4612f15565b611b1f6040518060400160405280600e81526020016d29a124a7232a1020bab1ba34b7b760911b815250604051806040016040528060038152602001620322e360ec1b815250612f4f565b611b27612f80565b611b2f612faf565b611b3883610c3f565b611b41826118d5565b801561089d576000805461ff0019169055604051600181527f7f26b83ff96e1f2b6a682f133852f6798a09c465da95921460cefb38474024989060200160405180910390a1505050565b611b936120db565b84356000818152610134602052604090205460ff161515600103611be85760405162461bcd60e51b815260206004820152600c60248201526b413a43504641433a4149554f60a01b60448201526064016104df565b61013054604051634958f52960e11b81526001600160a01b03909116906392b1ea5290611c19908990600401614361565b600060405180830381600087803b158015611c3357600080fd5b505af1158015611c47573d6000803e3d6000fd5b50505050611c588686868686612fd6565b611c6860a0870160808801613c97565b6001600160a01b03166342842e0e611c866060890160408a01613c97565b6040516001600160e01b031960e084901b168152611caf9190309060a08c01359060040161417e565b600060405180830381600087803b158015611cc957600080fd5b505af1158015611cdd573d6000803e3d6000fd5b505050600082815261013260205260409020879150611cfc8282614598565b5050600081815261013460205260409020805460ff191660011790558535611d2a60a0880160808901613c97565b6001600160a01b0316611d436060890160408a01613c97565b6040805160a08b013581526101608b013560208201526101808b0135818301526101a08b0135606082015290516001600160a01b0392909216917e7cee142cf8b065391e6035e358a9152f36c9fbc900151964de8baccb25e4d69181900360800190a4505050505050565b6000611db8613138565b905090565b6001600160a01b038116600081815260656020908152604091829020805460ff1916905590519182527fa3b62bc36326052d97ea62d63c3d60308ed4c3ea8ac079dd8499f1e9c4f80c0f91015b60405180910390a150565b60656000611e21611dae565b6001600160a01b0316815260208101919091526040016000205460ff166105775760405162461bcd60e51b81526004016104df90614039565b7f4910fdfa16fed3260ed0e7147f7cc6da11a60208b5b9406d12a635614ffd91435460ff1615611e8d5761089d8361317c565b826001600160a01b03166352d1902d6040518163ffffffff1660e01b8152600401602060405180830381865afa925050508015611ee7575060408051601f3d908101601f19168201909252611ee4918101906141c8565b60015b611f4a5760405162461bcd60e51b815260206004820152602e60248201527f45524331393637557067726164653a206e657720696d706c656d656e7461746960448201526d6f6e206973206e6f74205555505360901b60648201526084016104df565b6000805160206149378339815191528114611fb95760405162461bcd60e51b815260206004820152602960248201527f45524331393637557067726164653a20756e737570706f727465642070726f786044820152681a58589b195555525160ba1b60648201526084016104df565b5061089d838383613218565b6001600160a01b03811661202f5760405162461bcd60e51b815260206004820152602b60248201527f41646d696e3a61646441646d696e206e657741646d696e20697320746865207a60448201526a65726f206164647265737360a81b60648201526084016104df565b6001600160a01b038116600081815260656020908152604091829020805460ff1916600117905590519182527f44d6d25963f097ad14f29f06854a01f575648a1ef82f30e562ccd3889717e3399101611e0a565b61208b61323d565b609a805460ff191690557f5db9ee0a495bf2e6ff9c91a7834c1ba4fdd244a5e8aa4e537bd38aeae4b073aa6120be611dae565b6040516001600160a01b03909116815260200160405180910390a1565b609a5460ff16156108ef5760405162461bcd60e51b815260206004820152601060248201526f14185d5cd8589b194e881c185d5cd95960821b60448201526064016104df565b600081815261013260209081526040808320838155600180820180546001600160c01b03199081169091556002808401805483169055600380850188905560048501805462ffffff191690556005850180546001600160e01b03191690556006850188905560078501889055600885018890556009909401805490921690915561013390945291842080546001600160a01b03199081168255928101805490931690925591810183905591906121d990830182613b8b565b61089d600483016000613b8b565b6121ef6120db565b609a805460ff191660011790557f62e78cea01bee320cd4e420270b5ea74000d11b0c9f74754ebdbfc544b05a2586120be611dae565b6122356040840160208501613c97565b60018301546001600160a01b03918216600160201b9091049091160361228c5760405162461bcd60e51b815260206004820152600c60248201526b209d21a82320a11d21a1a72160a11b60448201526064016104df565b428260070154106122ce5760405162461bcd60e51b815260206004820152600c60248201526b413a43504641423a41494e5360a01b60448201526064016104df565b4282600801541161230f5760405162461bcd60e51b815260206004820152600b60248201526a209d21a82320a11d20a4a360a91b60448201526064016104df565b60038101546060840135146123545760405162461bcd60e51b815260206004820152600b60248201526a413a43504641423a424e4960a81b60448201526064016104df565b81600601548360800135118015612372575080600201548360800135115b61089d5760405162461bcd60e51b815260206004820152600f60248201526e0413a43504641423a4250494c54435608c1b60448201526064016104df565b60006123bb87613286565b90506123cd6040880160208901613c97565b6001600160a01b031661245f87878080601f016020809104026020016040519081016040528093929190818152602001838380828437600092019190915250612459925086915061241e9050613334565b6040805161190160f01b6020808301919091526022820193909352604280820194909452815180820390940184526062019052815191012090565b9061336b565b6001600160a01b0316146124a35760405162461bcd60e51b815260206004820152600b60248201526a413a56534641423a49425360a81b60448201526064016104df565b816001600160a01b03166124f585858080601f016020809104026020016040519081016040528093929190818152602001838380828437600092019190915250612459925086915061241e9050613334565b6001600160a01b0316146125395760405162461bcd60e51b815260206004820152600b60248201526a413a56534641423a49425360a81b60448201526064016104df565b50505050505050565b600061254e82846141a2565b90505b92915050565b600061254e82846141b5565b60018301546001600160a01b03858116600160201b90920416148061259e575060098301546001600160a01b03858116600160201b90920416145b6125dc5760405162461bcd60e51b815260206004820152600f60248201526e0413a43504641463a454d4241434f5608c1b60448201526064016104df565b428360080154111561261f5760405162461bcd60e51b815260206004820152600c60248201526b209d21a82320a31d20a6a12360a11b60448201526064016104df565b600583015461263790600160201b900460e01b6127a3565b156126f55781546001600160a01b03166126845760405162461bcd60e51b815260206004820152600e60248201526d413a43504641463a424d424e5a4160901b60448201526064016104df565b6126946080820160608301613c97565b82546001600160a01b0390811691161480156126b7575080608001358260020154145b6126f55760405162461bcd60e51b815260206004820152600f60248201526e0413a43504641463a4649494f49465608c1b60448201526064016104df565b50505050565b60006127068461338f565b9050600061275284848080601f016020809104026020016040519081016040528093929190818152602001838380828437600092019190915250612459925086915061241e9050613334565b9050856001600160a01b0316816001600160a01b0316146117fd5760405162461bcd60e51b815260206004820152600b60248201526a413a56534641463a49505360a81b60448201526064016104df565b60006001600160e01b0319821663fdae1ba760e01b148061255157506001600160e01b031982166322ba176160e21b1492915050565b60005b61013854811015612837576101376000610138838154811061280057612800614139565b60009182526020808320909101546001600160a01b031683528201929092526040018120558061282f81614165565b9150506127dc565b506108ef6101386000613b8b565b6001820154600090819061286c9060e01b6001600160e01b031916630f5b45a760e41b1490565b1561254e57610130546009850154604051632888241b60e01b8152600160201b9091046001600160a01b0390811660048301526000921690632888241b906024016020604051808303816000875af11580156128cc573d6000803e3d6000fd5b505050506040513d601f19601f820116820180604052508101906128f091906141e1565b90506001600160a01b0381166129375760405162461bcd60e51b815260206004820152600c60248201526b413a535046543a5046524e5360a01b60448201526064016104df565b61013160009054906101000a90046001600160a01b03166001600160a01b031663180b0d7e6040518163ffffffff1660e01b81526004016020604051808303816000875af115801561298d573d6000803e3d6000fd5b505050506040513d601f19601f820116820180604052508101906129b1919061420e565b600986015461ffff918216916129ce91620100009004168661422b565b6129d89190614242565b6001600160a01b03821660009081526101376020526040812080549294508492909190612a069084906141b5565b909155505061013880546001810182556000919091526000805160206149178339815191520180546001600160a01b0319166001600160a01b03929092169190911790559392505050565b60028201546000908190612a789060e01b6001600160e01b03191663163b6d3b60e21b1490565b1561254e5761013054600285015460405163342ce4cb60e11b8152600160201b9091046001600160a01b0390811660048301526000921690636859c996906024016020604051808303816000875af1158015612ad8573d6000803e3d6000fd5b505050506040513d601f19601f82011682018060405250810190612afc91906141e1565b90506001600160a01b038116612b435760405162461bcd60e51b815260206004820152600c60248201526b413a535046543a5046524e5360a01b60448201526064016104df565b61013160009054906101000a90046001600160a01b03166001600160a01b031663180b0d7e6040518163ffffffff1660e01b81526004016020604051808303816000875af1158015612b99573d6000803e3d6000fd5b505050506040513d601f19601f82011682018060405250810190612bbd919061420e565b600486015461ffff918216916129ce91168661422b565b6101315460028301546003840154600480860154604051634287115760e01b8152600160201b9094046001600160a01b03908116928501929092526024840192909252604483018590526201000090910460ff1660648301526000928392606092839285929116906342871157906084016000604051808303816000875af1158015612c64573d6000803e3d6000fd5b505050506040513d6000823e601f3d908101601f19168201604052612c8c9190810190614716565b9194509250905060005b8351811015612d71576000848281518110612cb357612cb3614139565b602002602001015190506000848381518110612cd157612cd1614139565b60200260200101519050806101376000846001600160a01b03166001600160a01b031681526020019081526020016000206000828254612d1191906141b5565b909155505061013880546001810182556000919091526000805160206149178339815191520180546001600160a01b0319166001600160a01b038416179055612d5a81886141b5565b965050508080612d6990614165565b915050612c96565b50929695505050505050565b6005810154600160201b900460e01b60005b6101385481101561089d5760006101388281548110612db057612db0614139565b60009182526020808320909101546001600160a01b0316808352610137909152604090912054909150630251e45960e01b6001600160e01b0319851601612e2d576040516001600160a01b0383169082156108fc029083906000818181858888f19350505050158015612e27573d6000803e3d6000fd5b50612f00565b631d45e89f60e21b6001600160e01b0319851601612f0057600585015460405163a9059cbb60e01b81526001600160a01b03848116600483015260248201849052600160401b9092049091169063a9059cbb906044016020604051808303816000875af1158015612ea2573d6000803e3d6000fd5b505050506040513d601f19601f82011682018060405250810190612ec6919061407f565b612f005760405162461bcd60e51b815260206004820152600b60248201526a209d281d22a9219918282360a91b60448201526064016104df565b50508080612f0d90614165565b915050612d8f565b600054610100900460ff16612f3c5760405162461bcd60e51b81526004016104df906147eb565b612f44612faf565b6108ef610886611dae565b600054610100900460ff16612f765760405162461bcd60e51b81526004016104df906147eb565b61072c828261341b565b600054610100900460ff16612fa75760405162461bcd60e51b81526004016104df906147eb565b6108ef61345c565b600054610100900460ff166108ef5760405162461bcd60e51b81526004016104df906147eb565b6000612fe18661348f565b9050600061302d86868080601f016020809104026020016040519081016040528093929190818152602001838380828437600092019190915250612459925086915061241e9050613334565b905061303f6060880160408901613c97565b6001600160a01b0316816001600160a01b03161461308e5760405162461bcd60e51b815260206004820152600c60248201526b413a56534641433a4941435360a01b60448201526064016104df565b6130d684848080601f016020809104026020016040519081016040528093929190818152602001838380828437600092019190915250612459925086915061241e9050613334565b90506130ea61022088016102008901613c97565b6001600160a01b0316816001600160a01b0316146125395760405162461bcd60e51b815260206004820152600b60248201526a413a56534641433a49505360a81b60448201526064016104df565b60007f00000000000000000000000000000000000000000000000000000000000000006001600160a01b03163303613177575060131936013560601c90565b503390565b6001600160a01b0381163b6131e95760405162461bcd60e51b815260206004820152602d60248201527f455243313936373a206e657720696d706c656d656e746174696f6e206973206e60448201526c1bdd08184818dbdb9d1c9858dd609a1b60648201526084016104df565b60008051602061493783398151915280546001600160a01b0319166001600160a01b0392909216919091179055565b613221836135b1565b60008251118061322e5750805b1561089d576126f583836135f1565b609a5460ff166108ef5760405162461bcd60e51b815260206004820152601460248201527314185d5cd8589b194e881b9bdd081c185d5cd95960621b60448201526064016104df565b60007f6b97d861fbc22db5a8168ec2258e8a33ce5bc062f76f7fa9aef2bf21dd3ebfc782356132bb6040850160208601613c97565b6132cb6060860160408701613c97565b856060013586608001356040516020016133179695949392919095865260208601949094526001600160a01b03928316604086015291166060840152608083015260a082015260c00190565b604051602081830303815290604052805190602001209050919050565b6000611db87f8b73c3c69bb8fe3d512ecc4cf759cc79239f7b179b0ffacaa9a75d522b39400f61336360665490565b6067546136e5565b600080600061337a858561372f565b9150915061338781613774565b509392505050565b60007fed329eb48340e6d3906454838e67dfd0adb6df1633fe4cdd4f6fabba21d764a482356133c46040850160208601613c97565b60408501356133d96080870160608801613c97565b6040805160208101969096528501939093526001600160a01b039182166060850152608084810191909152911660a083015283013560c082015260e001613317565b600054610100900460ff166134425760405162461bcd60e51b81526004016104df906147eb565b815160209283012081519190920120606691909155606755565b600054610100900460ff166134835760405162461bcd60e51b81526004016104df906147eb565b609a805460ff19169055565b60007f4dc30fce2a6b4a2eb96a5a48fca38fa23be2d81260d2f446e2a7dc039666630d82356134c46040850160208601614836565b6134d46060860160408701613c97565b6134e08660600161392a565b6134ed87610100016139dc565b6101608801356101808901356101a08a01356135116101e08c016101c08d01614853565b6135236102008d016101e08e01614853565b6135356102208e016102008f01613c97565b60408051602081019d909d528c019a909a526001600160e01b031990981660608b01526001600160a01b0396871660808b015260a08a019590955260c089019390935260e088019190915261010087015261012086015261ffff908116610140860152909116610160840152166101808201526101a001613317565b6135ba8161317c565b6040516001600160a01b038216907fbc7cd75a20ee27fd9adebab32041f755214dbc6bffa90cc0225b39da2e5c2d3b90600090a250565b60606001600160a01b0383163b6136595760405162461bcd60e51b815260206004820152602660248201527f416464726573733a2064656c65676174652063616c6c20746f206e6f6e2d636f6044820152651b9d1c9858dd60d21b60648201526084016104df565b600080846001600160a01b0316846040516136749190614894565b600060405180830381855af49150503d80600081146136af576040519150601f19603f3d011682016040523d82523d6000602084013e6136b4565b606091505b50915091506136dc828260405180606001604052806027815260200161495760279139613a65565b95945050505050565b6040805160208101859052908101839052606081018290524660808201523060a082015260009060c0016040516020818303038152906040528051906020012090505b9392505050565b60008082516041036137655760208301516040840151606085015160001a61375987828585613a9e565b9450945050505061376d565b506000905060025b9250929050565b6000816004811115613788576137886148b0565b036137905750565b60018160048111156137a4576137a46148b0565b036137f15760405162461bcd60e51b815260206004820152601860248201527f45434453413a20696e76616c6964207369676e6174757265000000000000000060448201526064016104df565b6002816004811115613805576138056148b0565b036138525760405162461bcd60e51b815260206004820152601f60248201527f45434453413a20696e76616c6964207369676e6174757265206c656e6774680060448201526064016104df565b6003816004811115613866576138666148b0565b036138be5760405162461bcd60e51b815260206004820152602260248201527f45434453413a20696e76616c6964207369676e6174757265202773272076616c604482015261756560f01b60648201526084016104df565b60048160048111156138d2576138d26148b0565b036105775760405162461bcd60e51b815260206004820152602260248201527f45434453413a20696e76616c6964207369676e6174757265202776272076616c604482015261756560f01b60648201526084016104df565b60007f5896f842d5a83ae87e0e2d017a049ce82d477a9df36852f8365c6ec0c9dcb21561395a6020840184614836565b61396a6040850160208601613c97565b604085013561397f6080870160608801614853565b61398f60a08801608089016148c6565b6040805160208101979097526001600160e01b0319909516948601949094526001600160a01b039092166060850152608084015261ffff1660a083015260ff1660c082015260e001613317565b60007fa47c24b088e6a556e9a187cb5af98078735d4167597431c0764b42ec65a42001613a0c6020840184614836565b613a1c6040850160208601614836565b613a2c6060860160408701613c97565b6040805160208101959095526001600160e01b031993841690850152911660608301526001600160a01b0316608082015260a001613317565b60608315613a74575081613728565b825115613a845782518084602001fd5b8160405162461bcd60e51b81526004016104df91906148e3565b6000807f7fffffffffffffffffffffffffffffff5d576e7357a4501ddfe92f46681b20a0831115613ad55750600090506003613b82565b8460ff16601b14158015613aed57508460ff16601c14155b15613afe5750600090506004613b82565b6040805160008082526020820180845289905260ff881692820192909252606081018690526080810185905260019060a0016020604051602081039080840390855afa158015613b52573d6000803e3d6000fd5b5050604051601f1901519150506001600160a01b038116613b7b57600060019250925050613b82565b9150600090505b94509492505050565b508054600082559060005260206000209081019061057791905b80821115613bb95760008155600101613ba5565b5090565b6001600160a01b038116811461057757600080fd5b8035613bdd81613bbd565b919050565b60008083601f840112613bf457600080fd5b50813567ffffffffffffffff811115613c0c57600080fd5b60208301915083602082850101111561376d57600080fd5b600080600080600060808688031215613c3c57600080fd5b8535613c4781613bbd565b94506020860135613c5781613bbd565b935060408601359250606086013567ffffffffffffffff811115613c7a57600080fd5b613c8688828901613be2565b969995985093965092949392505050565b600060208284031215613ca957600080fd5b813561254e81613bbd565b60008060408385031215613cc757600080fd5b8235613cd281613bbd565b91506020830135613ce281613bbd565b809150509250929050565b60008060208385031215613d0057600080fd5b823567ffffffffffffffff80821115613d1857600080fd5b818501915085601f830112613d2c57600080fd5b813581811115613d3b57600080fd5b8660208260051b8501011115613d5057600080fd5b60209290920196919550909350505050565b600060208284031215613d7457600080fd5b5035919050565b634e487b7160e01b600052604160045260246000fd5b604051601f8201601f1916810167ffffffffffffffff81118282101715613dba57613dba613d7b565b604052919050565b60008060408385031215613dd557600080fd5b8235613de081613bbd565b915060208381013567ffffffffffffffff80821115613dfe57600080fd5b818601915086601f830112613e1257600080fd5b813581811115613e2457613e24613d7b565b613e36601f8201601f19168501613d91565b91508082528784828501011115613e4c57600080fd5b80848401858401376000848284010152508093505050509250929050565b600060a08284031215613e7c57600080fd5b50919050565b600080600080600060e08688031215613e9a57600080fd5b613ea48787613e6a565b945060a086013567ffffffffffffffff80821115613ec157600080fd5b613ecd89838a01613be2565b909650945060c0880135915080821115613ee657600080fd5b50613c8688828901613be2565b600080600060c08486031215613f0857600080fd5b613f128585613e6a565b925060a084013567ffffffffffffffff811115613f2e57600080fd5b613f3a86828701613be2565b9497909650939450505050565b604080825283519082018190526000906020906060840190828701845b82811015613f895781516001600160a01b031684529284019290840190600101613f64565b5050508381038285015284518082528583019183019060005b81811015613fbe57835183529284019291840191600101613fa2565b5090979650505050505050565b6000806000806000858703610260811215613fe557600080fd5b61022080821215613ff557600080fd5b879650860135905067ffffffffffffffff8082111561401357600080fd5b61401f89838a01613be2565b9096509450610240880135915080821115613ee657600080fd5b60208082526026908201527f41646d696e3a6f6e6c7941646d696e2063616c6c6572206973206e6f7420616e6040820152651020b236b4b760d11b606082015260800190565b60006020828403121561409157600080fd5b8151801515811461254e57600080fd5b6020808252602c908201527f46756e6374696f6e206d7573742062652063616c6c6564207468726f7567682060408201526b19195b1959d85d1958d85b1b60a21b606082015260800190565b6020808252602c908201527f46756e6374696f6e206d7573742062652063616c6c6564207468726f7567682060408201526b6163746976652070726f787960a01b606082015260800190565b634e487b7160e01b600052603260045260246000fd5b634e487b7160e01b600052601160045260246000fd5b6000600182016141775761417761414f565b5060010190565b6001600160a01b039384168152919092166020820152604081019190915260600190565b818103818111156125515761255161414f565b808201808211156125515761255161414f565b6000602082840312156141da57600080fd5b5051919050565b6000602082840312156141f357600080fd5b815161254e81613bbd565b61ffff8116811461057757600080fd5b60006020828403121561422057600080fd5b815161254e816141fe565b80820281158282048414176125515761255161414f565b60008261425f57634e487b7160e01b600052601260045260246000fd5b500490565b6001600160e01b03198116811461057757600080fd5b8035613bdd81614264565b8035613bdd816141fe565b60ff8116811461057757600080fd5b80356142aa81614264565b6001600160e01b031916825260208101356142c481613bbd565b6001600160a01b031660208301526040818101359083015260608101356142ea816141fe565b61ffff166060830152608081013561430181614290565b60ff81166080840152505050565b803561431a81614264565b6001600160e01b0319908116835260208201359061433782614264565b166020830152604081013561434b81613bbd565b6001600160a01b03166040929092019190915250565b8135815261022081016143766020840161427a565b6001600160e01b031916602083015261439160408401613bd2565b6001600160a01b031660408301526143af606080840190850161429f565b6101006143c081840182860161430f565b50610160838101359083015261018080840135908301526101a080840135908301526101c06143f0818501614285565b61ffff16908301526101e0614406848201614285565b61ffff169083015261020061441c848201613bd2565b6001600160a01b0316920191909152919050565b6000813561255181614264565b6000813561255181613bbd565b8054640100000000600160c01b03191660209290921b640100000000600160c01b0316919091179055565b60008135612551816141fe565b813561448d81614264565b815463ffffffff191660e082901c1782555060208201356144ad81613bbd565b6144b7818361444a565b50604082013560018201556002810160608301356144d4816141fe565b815461ffff191661ffff82161782555060808301356144f281614290565b815462ff0000191660109190911b62ff0000161790555050565b813561451781614264565b815463ffffffff191660e082901c17825550602082013561453781614264565b815467ffffffff000000008260c01c1691508167ffffffff00000000198216178355604084013561456781613bbd565b640100000000600160e01b03199190911690911760409190911b68010000000000000000600160e01b031617905550565b81358155600181016145c36145af60208501614430565b825463ffffffff191660e09190911c178255565b6145d86145d26040850161443d565b8261444a565b506145e96060830160028301614482565b6145fa61010083016005830161450c565b610160820135600682015561018082013560078201556101a082013560088201556009810161464261462f6101c08501614475565b825461ffff191661ffff91909116178255565b61466c6146526101e08501614475565b825463ffff0000191660109190911b63ffff000016178255565b61089d6145d2610200850161443d565b600067ffffffffffffffff82111561469657614696613d7b565b5060051b60200190565b600082601f8301126146b157600080fd5b815160206146c66146c18361467c565b613d91565b82815260059290921b840181019181810190868411156146e557600080fd5b8286015b8481101561470057805183529183019183016146e9565b509695505050505050565b8051613bdd81614290565b60008060006060848603121561472b57600080fd5b835167ffffffffffffffff8082111561474357600080fd5b818601915086601f83011261475757600080fd5b815160206147676146c18361467c565b82815260059290921b8401810191818101908a84111561478657600080fd5b948201945b838610156147ad57855161479e81613bbd565b8252948201949082019061478b565b918901519197509093505050808211156147c657600080fd5b506147d3868287016146a0565b9250506147e26040850161470b565b90509250925092565b6020808252602b908201527f496e697469616c697a61626c653a20636f6e7472616374206973206e6f74206960408201526a6e697469616c697a696e6760a81b606082015260800190565b60006020828403121561484857600080fd5b813561254e81614264565b60006020828403121561486557600080fd5b813561254e816141fe565b60005b8381101561488b578181015183820152602001614873565b50506000910152565b600082516148a6818460208701614870565b9190910192915050565b634e487b7160e01b600052602160045260246000fd5b6000602082840312156148d857600080fd5b813561254e81614290565b6020815260008251806020840152614902816040850160208701614870565b601f01601f1916919091016040019291505056fef79a63dcec80ed75c82f36161f17b9c2f407860160383a7be0a0ee7962c527ae360894a13ba1a3210667c828492db98dca3e2076cc3735a920a3ca505d382bbc416464726573733a206c6f772d6c6576656c2064656c65676174652063616c6c206661696c6564a2646970667358221220d67a97937f4872f0d09fa7015f3d1153dfa2ad22f564a68470d5ef997ab4afe164736f6c63430008110033",
  "linkReferences": {},
  "deployedLinkReferences": {}
}