{
  "_format": "hh-sol-artifact-1",
  "contractName": "NanakusaNFT",
  "sourceName": "contracts/sbinft/token/erc721/nanakusa/factory/NanakusaNFT.sol",
  "abi": [
    {
      "inputs": [
        {
          "internalType": "string",
          "name": "name_",
          "type": "string"
        },
        {
          "internalType": "string",
          "name": "symbol_",
          "type": "string"
        },
        {
          "internalType": "address[]",
          "name": "operatorList",
          "type": "address[]"
        },
        {
          "internalType": "address",
          "name": "trustedForwarder",
          "type": "address"
        }
      ],
      "stateMutability": "nonpayable",
      "type": "constructor"
    },
    {
      "anonymous": false,
      "inputs": [
        {
          "indexed": true,
          "internalType": "address",
          "name": "owner",
          "type": "address"
        },
        {
          "indexed": true,
          "internalType": "address",
          "name": "approved",
          "type": "address"
        },
        {
          "indexed": true,
          "internalType": "uint256",
          "name": "tokenId",
          "type": "uint256"
        }
      ],
      "name": "Approval",
      "type": "event"
    },
    {
      "anonymous": false,
      "inputs": [
        {
          "indexed": true,
          "internalType": "address",
          "name": "owner",
          "type": "address"
        },
        {
          "indexed": true,
          "internalType": "address",
          "name": "operator",
          "type": "address"
        },
        {
          "indexed": false,
          "internalType": "bool",
          "name": "approved",
          "type": "bool"
        }
      ],
      "name": "ApprovalForAll",
      "type": "event"
    },
    {
      "anonymous": false,
      "inputs": [
        {
          "indexed": true,
          "internalType": "address",
          "name": "previousOwner",
          "type": "address"
        },
        {
          "indexed": true,
          "internalType": "address",
          "name": "newOwner",
          "type": "address"
        }
      ],
      "name": "OwnershipTransferred",
      "type": "event"
    },
    {
      "anonymous": false,
      "inputs": [
        {
          "indexed": false,
          "internalType": "address",
          "name": "account",
          "type": "address"
        }
      ],
      "name": "Paused",
      "type": "event"
    },
    {
      "anonymous": false,
      "inputs": [
        {
          "indexed": false,
          "internalType": "address",
          "name": "operator",
          "type": "address"
        }
      ],
      "name": "PreApprovedOperatorAdded",
      "type": "event"
    },
    {
      "anonymous": false,
      "inputs": [
        {
          "indexed": false,
          "internalType": "address",
          "name": "operator",
          "type": "address"
        }
      ],
      "name": "PreApprovedOperatorRemoved",
      "type": "event"
    },
    {
      "anonymous": false,
      "inputs": [
        {
          "indexed": true,
          "internalType": "address",
          "name": "from",
          "type": "address"
        },
        {
          "indexed": true,
          "internalType": "address",
          "name": "to",
          "type": "address"
        },
        {
          "indexed": true,
          "internalType": "uint256",
          "name": "tokenId",
          "type": "uint256"
        }
      ],
      "name": "Transfer",
      "type": "event"
    },
    {
      "anonymous": false,
      "inputs": [
        {
          "indexed": false,
          "internalType": "address",
          "name": "account",
          "type": "address"
        }
      ],
      "name": "Unpaused",
      "type": "event"
    },
    {
      "inputs": [
        {
          "internalType": "address[]",
          "name": "operatorList",
          "type": "address[]"
        }
      ],
      "name": "addPreApprovedOperator",
      "outputs": [],
      "stateMutability": "nonpayable",
      "type": "function"
    },
    {
      "inputs": [
        {
          "internalType": "address",
          "name": "to",
          "type": "address"
        },
        {
          "internalType": "uint256",
          "name": "tokenId",
          "type": "uint256"
        }
      ],
      "name": "approve",
      "outputs": [],
      "stateMutability": "nonpayable",
      "type": "function"
    },
    {
      "inputs": [
        {
          "internalType": "address",
          "name": "owner",
          "type": "address"
        }
      ],
      "name": "balanceOf",
      "outputs": [
        {
          "internalType": "uint256",
          "name": "",
          "type": "uint256"
        }
      ],
      "stateMutability": "view",
      "type": "function"
    },
    {
      "inputs": [
        {
          "internalType": "uint256",
          "name": "tokenId",
          "type": "uint256"
        }
      ],
      "name": "burn",
      "outputs": [],
      "stateMutability": "nonpayable",
      "type": "function"
    },
    {
      "inputs": [],
      "name": "deleteDefaultRoyalty",
      "outputs": [],
      "stateMutability": "nonpayable",
      "type": "function"
    },
    {
      "inputs": [
        {
          "internalType": "uint256",
          "name": "tokenId",
          "type": "uint256"
        }
      ],
      "name": "getApproved",
      "outputs": [
        {
          "internalType": "address",
          "name": "",
          "type": "address"
        }
      ],
      "stateMutability": "view",
      "type": "function"
    },
    {
      "inputs": [],
      "name": "getLastMintedTokenId",
      "outputs": [
        {
          "internalType": "uint256",
          "name": "",
          "type": "uint256"
        }
      ],
      "stateMutability": "view",
      "type": "function"
    },
    {
      "inputs": [
        {
          "internalType": "address",
          "name": "owner_",
          "type": "address"
        },
        {
          "internalType": "address",
          "name": "operator",
          "type": "address"
        }
      ],
      "name": "isApprovedForAll",
      "outputs": [
        {
          "internalType": "bool",
          "name": "",
          "type": "bool"
        }
      ],
      "stateMutability": "view",
      "type": "function"
    },
    {
      "inputs": [
        {
          "internalType": "address",
          "name": "operator",
          "type": "address"
        }
      ],
      "name": "isPreApprovedOperator",
      "outputs": [
        {
          "internalType": "bool",
          "name": "",
          "type": "bool"
        }
      ],
      "stateMutability": "view",
      "type": "function"
    },
    {
      "inputs": [
        {
          "internalType": "address",
          "name": "forwarder",
          "type": "address"
        }
      ],
      "name": "isTrustedForwarder",
      "outputs": [
        {
          "internalType": "bool",
          "name": "",
          "type": "bool"
        }
      ],
      "stateMutability": "view",
      "type": "function"
    },
    {
      "inputs": [
        {
          "components": [
            {
              "internalType": "address",
              "name": "creator",
              "type": "address"
            },
            {
              "internalType": "uint256",
              "name": "nftId",
              "type": "uint256"
            },
            {
              "internalType": "string",
              "name": "tokenURI",
              "type": "string"
            }
          ],
          "internalType": "struct INanakusa.MintData",
          "name": "mintData",
          "type": "tuple"
        },
        {
          "internalType": "address",
          "name": "transferTo",
          "type": "address"
        },
        {
          "internalType": "bytes",
          "name": "mintSign",
          "type": "bytes"
        }
      ],
      "name": "lazyMintAndTransfer",
      "outputs": [],
      "stateMutability": "nonpayable",
      "type": "function"
    },
    {
      "inputs": [
        {
          "components": [
            {
              "internalType": "address",
              "name": "creator",
              "type": "address"
            },
            {
              "internalType": "uint256",
              "name": "nftId",
              "type": "uint256"
            },
            {
              "internalType": "string",
              "name": "tokenURI",
              "type": "string"
            }
          ],
          "internalType": "struct INanakusa.MintData",
          "name": "mintData",
          "type": "tuple"
        },
        {
          "internalType": "bytes",
          "name": "mintSign",
          "type": "bytes"
        }
      ],
      "name": "mintToken",
      "outputs": [],
      "stateMutability": "nonpayable",
      "type": "function"
    },
    {
      "inputs": [],
      "name": "name",
      "outputs": [
        {
          "internalType": "string",
          "name": "",
          "type": "string"
        }
      ],
      "stateMutability": "view",
      "type": "function"
    },
    {
      "inputs": [],
      "name": "owner",
      "outputs": [
        {
          "internalType": "address",
          "name": "",
          "type": "address"
        }
      ],
      "stateMutability": "view",
      "type": "function"
    },
    {
      "inputs": [
        {
          "internalType": "uint256",
          "name": "tokenId",
          "type": "uint256"
        }
      ],
      "name": "ownerOf",
      "outputs": [
        {
          "internalType": "address",
          "name": "",
          "type": "address"
        }
      ],
      "stateMutability": "view",
      "type": "function"
    },
    {
      "inputs": [],
      "name": "pause",
      "outputs": [],
      "stateMutability": "nonpayable",
      "type": "function"
    },
    {
      "inputs": [],
      "name": "paused",
      "outputs": [
        {
          "internalType": "bool",
          "name": "",
          "type": "bool"
        }
      ],
      "stateMutability": "view",
      "type": "function"
    },
    {
      "inputs": [
        {
          "internalType": "address[]",
          "name": "operatorList",
          "type": "address[]"
        }
      ],
      "name": "removePreApprovedOperator",
      "outputs": [],
      "stateMutability": "nonpayable",
      "type": "function"
    },
    {
      "inputs": [],
      "name": "renounceOwnership",
      "outputs": [],
      "stateMutability": "nonpayable",
      "type": "function"
    },
    {
      "inputs": [
        {
          "internalType": "uint256",
          "name": "tokenId",
          "type": "uint256"
        }
      ],
      "name": "resetTokenRoyalty",
      "outputs": [],
      "stateMutability": "nonpayable",
      "type": "function"
    },
    {
      "inputs": [
        {
          "internalType": "uint256",
          "name": "_tokenId",
          "type": "uint256"
        },
        {
          "internalType": "uint256",
          "name": "_salePrice",
          "type": "uint256"
        }
      ],
      "name": "royaltyInfo",
      "outputs": [
        {
          "internalType": "address",
          "name": "",
          "type": "address"
        },
        {
          "internalType": "uint256",
          "name": "",
          "type": "uint256"
        }
      ],
      "stateMutability": "view",
      "type": "function"
    },
    {
      "inputs": [
        {
          "internalType": "address",
          "name": "from",
          "type": "address"
        },
        {
          "internalType": "address",
          "name": "to",
          "type": "address"
        },
        {
          "internalType": "uint256",
          "name": "tokenId",
          "type": "uint256"
        }
      ],
      "name": "safeTransferFrom",
      "outputs": [],
      "stateMutability": "nonpayable",
      "type": "function"
    },
    {
      "inputs": [
        {
          "internalType": "address",
          "name": "from",
          "type": "address"
        },
        {
          "internalType": "address",
          "name": "to",
          "type": "address"
        },
        {
          "internalType": "uint256",
          "name": "tokenId",
          "type": "uint256"
        },
        {
          "internalType": "bytes",
          "name": "data",
          "type": "bytes"
        }
      ],
      "name": "safeTransferFrom",
      "outputs": [],
      "stateMutability": "nonpayable",
      "type": "function"
    },
    {
      "inputs": [
        {
          "internalType": "address",
          "name": "operator",
          "type": "address"
        },
        {
          "internalType": "bool",
          "name": "approved",
          "type": "bool"
        }
      ],
      "name": "setApprovalForAll",
      "outputs": [],
      "stateMutability": "nonpayable",
      "type": "function"
    },
    {
      "inputs": [
        {
          "internalType": "address",
          "name": "receiver",
          "type": "address"
        },
        {
          "internalType": "uint96",
          "name": "feeNumerator",
          "type": "uint96"
        }
      ],
      "name": "setDefaultRoyalty",
      "outputs": [],
      "stateMutability": "nonpayable",
      "type": "function"
    },
    {
      "inputs": [
        {
          "internalType": "uint256",
          "name": "tokenId",
          "type": "uint256"
        },
        {
          "internalType": "address",
          "name": "receiver",
          "type": "address"
        },
        {
          "internalType": "uint96",
          "name": "feeNumerator",
          "type": "uint96"
        }
      ],
      "name": "setTokenRoyalty",
      "outputs": [],
      "stateMutability": "nonpayable",
      "type": "function"
    },
    {
      "inputs": [
        {
          "internalType": "bytes4",
          "name": "interfaceId",
          "type": "bytes4"
        }
      ],
      "name": "supportsInterface",
      "outputs": [
        {
          "internalType": "bool",
          "name": "",
          "type": "bool"
        }
      ],
      "stateMutability": "view",
      "type": "function"
    },
    {
      "inputs": [],
      "name": "symbol",
      "outputs": [
        {
          "internalType": "string",
          "name": "",
          "type": "string"
        }
      ],
      "stateMutability": "view",
      "type": "function"
    },
    {
      "inputs": [
        {
          "internalType": "uint256",
          "name": "tokenId",
          "type": "uint256"
        }
      ],
      "name": "tokenURI",
      "outputs": [
        {
          "internalType": "string",
          "name": "",
          "type": "string"
        }
      ],
      "stateMutability": "view",
      "type": "function"
    },
    {
      "inputs": [
        {
          "internalType": "address",
          "name": "from",
          "type": "address"
        },
        {
          "internalType": "address",
          "name": "to",
          "type": "address"
        },
        {
          "internalType": "uint256",
          "name": "tokenId",
          "type": "uint256"
        }
      ],
      "name": "transferFrom",
      "outputs": [],
      "stateMutability": "nonpayable",
      "type": "function"
    },
    {
      "inputs": [
        {
          "internalType": "address",
          "name": "newOwner",
          "type": "address"
        }
      ],
      "name": "transferOwnership",
      "outputs": [],
      "stateMutability": "nonpayable",
      "type": "function"
    },
    {
      "inputs": [],
      "name": "unpause",
      "outputs": [],
      "stateMutability": "nonpayable",
      "type": "function"
    }
  ],
  "bytecode": "0x6101606040523480156200001257600080fd5b5060405162003663380380620036638339810160408190526200003591620004b9565b604080518082018252601a81527f5342494e4654204e616e616b75736120466163746f79204e46540000000000006020808301918252835180850190945260038452620312e360ec1b9084019081526001600160a01b038516608052825190912083519091206101008290526101208190524660c052879387939290917f8b73c3c69bb8fe3d512ecc4cf759cc79239f7b179b0ffacaa9a75d522b39400f620001238184846040805160208101859052908101839052606081018290524660808201523060a082015260009060c0016040516020818303038152906040528051906020012090509392505050565b60a0523060e0526101405250600292506200014391508490508262000661565b50600362000152828262000661565b50506009805460ff1916905550620001736200016d62000188565b620001a4565b6200017e82620001fe565b505050506200076b565b60006200019f6200030260201b62000ea21760201c565b905090565b600980546001600160a01b03838116610100818102610100600160a81b031985161790945560405193909204169182907f8be0079c531659141344cd1fd0a4f28419497f9722a3daafe3b4186f6b6457e090600090a35050565b620002086200033a565b60005b8151811015620002fe5760008282815181106200022c576200022c6200072d565b6020026020010151905060006001600160a01b0316816001600160a01b0316141580156200026457506000816001600160a01b03163b115b80156200028a57506001600160a01b0381166000908152600a602052604090205460ff16155b15620002e8576001600160a01b0381166000818152600a6020908152604091829020805460ff1916600117905590519182527fc8dfb5ab9ab6cf753862beaaf785f23636e0eab79a3542f13d4073588583f73d910160405180910390a15b5080620002f58162000743565b9150506200020b565b5050565b6080516000906001600160a01b0316330362000325575060131936013560601c90565b6200019f620003c260201b62000eeb1760201c565b6200034462000188565b6001600160a01b03166200036560095461010090046001600160a01b031690565b6001600160a01b031614620003c05760405162461bcd60e51b815260206004820181905260248201527f4f776e61626c653a2063616c6c6572206973206e6f7420746865206f776e6572604482015260640160405180910390fd5b565b3390565b634e487b7160e01b600052604160045260246000fd5b604051601f8201601f191681016001600160401b0381118282101715620004075762000407620003c6565b604052919050565b600082601f8301126200042157600080fd5b81516001600160401b038111156200043d576200043d620003c6565b602062000453601f8301601f19168201620003dc565b82815285828487010111156200046857600080fd5b60005b83811015620004885785810183015182820184015282016200046b565b506000928101909101919091529392505050565b80516001600160a01b0381168114620004b457600080fd5b919050565b60008060008060808587031215620004d057600080fd5b84516001600160401b0380821115620004e857600080fd5b620004f6888389016200040f565b95506020915081870151818111156200050e57600080fd5b6200051c89828a016200040f565b9550506040870151818111156200053257600080fd5b8701601f810189136200054457600080fd5b805182811115620005595762000559620003c6565b8060051b92506200056c848401620003dc565b818152928201840192848101908b8511156200058757600080fd5b928501925b84841015620005b057620005a0846200049c565b825292850192908501906200058c565b809750505050505050620005c7606086016200049c565b905092959194509250565b600181811c90821680620005e757607f821691505b6020821081036200060857634e487b7160e01b600052602260045260246000fd5b50919050565b601f8211156200065c57600081815260208120601f850160051c81016020861015620006375750805b601f850160051c820191505b81811015620006585782815560010162000643565b5050505b505050565b81516001600160401b038111156200067d576200067d620003c6565b62000695816200068e8454620005d2565b846200060e565b602080601f831160018114620006cd5760008415620006b45750858301515b600019600386901b1c1916600185901b17855562000658565b600085815260208120601f198616915b82811015620006fe57888601518255948401946001909101908401620006dd565b50858210156200071d5787850151600019600388901b60f8161c191681555b5050505050600190811b01905550565b634e487b7160e01b600052603260045260246000fd5b6000600182016200076457634e487b7160e01b600052601160045260246000fd5b5060010190565b60805160a05160c05160e051610100516101205161014051612e96620007cd6000396000611b7001526000611bbf01526000611b9a01526000611af301526000611b1d01526000611b4701526000818161031b0152610ea60152612e966000f3fe608060405234801561001057600080fd5b50600436106101f05760003560e01c806367db2d921161010f578063a22cb465116100a2578063cad8359111610071578063cad8359114610466578063e79c245514610479578063e985e9c51461048c578063f2fde38b1461049f57600080fd5b8063a22cb46514610425578063aa1b103f14610438578063b88d4fde14610440578063c87b56dd1461045357600080fd5b80638456cb59116100de5780638456cb59146103ec5780638a616bc0146103f45780638da5cb5b1461040757806395d89b411461041d57600080fd5b806367db2d921461038f57806370a08231146103bb578063715018a6146103dc5780637974e46a146103e457600080fd5b80633f4ba83a116101875780635944c753116101565780635944c7531461034b5780635c975abb1461035e5780635e73ea34146103695780636352211e1461037c57600080fd5b80633f4ba83a146102dd57806342842e0e146102e557806342966c68146102f8578063572b6c051461030b57600080fd5b8063095ea7b3116101c3578063095ea7b31461027257806323b872dd146102855780632a55205a146102985780632bb65084146102ca57600080fd5b806301ffc9a7146101f557806304634d8d1461021d57806306fdde0314610232578063081812fc14610247575b600080fd5b61020861020336600461254c565b6104b2565b60405190151581526020015b60405180910390f35b61023061022b36600461259c565b6104c3565b005b61023a6104d9565b604051610214919061261f565b61025a610255366004612632565b61056b565b6040516001600160a01b039091168152602001610214565b61023061028036600461264b565b610592565b610230610293366004612675565b6106be565b6102ab6102a63660046126b1565b6106f6565b604080516001600160a01b039093168352602083019190915201610214565b6102306102d836600461272d565b6107a4565b6102306108c5565b6102306102f3366004612675565b6108d7565b610230610306366004612632565b6108f2565b6102086103193660046127a4565b7f00000000000000000000000000000000000000000000000000000000000000006001600160a01b0390811691161490565b6102306103593660046127bf565b610925565b60095460ff16610208565b6102306103773660046127fb565b6109b6565b61025a61038a366004612632565b6109f7565b61020861039d3660046127a4565b6001600160a01b03166000908152600a602052604090205460ff1690565b6103ce6103c93660046127a4565b610a57565b604051908152602001610214565b610230610add565b600b546103ce565b610230610aef565b610230610402366004612632565b610aff565b60095461010090046001600160a01b031661025a565b61023a610ba8565b610230610433366004612864565b610bb7565b610230610bc9565b61023061044e3660046128e7565b610bda565b61023a610461366004612632565b610c19565b6102306104743660046129a7565b610c24565b6102306104873660046129a7565b610ce5565b61020861049a366004612a54565b610dd9565b6102306104ad3660046127a4565b610e2c565b60006104bd82610eef565b92915050565b6104cb610efa565b6104d58282610f79565b5050565b6060600280546104e890612a7e565b80601f016020809104026020016040519081016040528092919081815260200182805461051490612a7e565b80156105615780601f1061053657610100808354040283529160200191610561565b820191906000526020600020905b81548152906001019060200180831161054457829003601f168201915b5050505050905090565b600061057682611033565b506000908152600660205260409020546001600160a01b031690565b600061059d826109f7565b9050806001600160a01b0316836001600160a01b03160361060f5760405162461bcd60e51b815260206004820152602160248201527f4552433732313a20617070726f76616c20746f2063757272656e74206f776e656044820152603960f91b60648201526084015b60405180910390fd5b806001600160a01b0316610621611092565b6001600160a01b0316148061063d575061063d8161049a611092565b6106af5760405162461bcd60e51b815260206004820152603e60248201527f4552433732313a20617070726f76652063616c6c6572206973206e6f7420746f60448201527f6b656e206f776e6572206e6f7220617070726f76656420666f7220616c6c00006064820152608401610606565b6106b9838361109c565b505050565b6106cf6106c9611092565b8261110a565b6106eb5760405162461bcd60e51b815260040161060690612ab2565b6106b9838383611169565b60008281526001602090815260408083208151808301909252546001600160a01b038116808352600160a01b9091046001600160601b031692820192909252829161076b5750604080518082019091526000546001600160a01b0381168252600160a01b90046001600160601b031660208201525b60208101516000906127109061078a906001600160601b031687612b16565b6107949190612b43565b91519350909150505b9250929050565b6107ac611310565b6001600160a01b0383166108205760405162461bcd60e51b815260206004820152603560248201527f4e616e616b7573614e46543a6c617a794d696e74416e645472616e73666572206044820152741d1c985b9cd9995c951bc81a5cc81a5b9d985b1a59605a1b6064820152608401610606565b61082b848383611356565b602084018035906108469061084090876127a4565b82611575565b610891816108576040880188612b57565b8080601f01602080910402602001604051908101604052809392919081815260200183838082843760009201919091525061158f92505050565b6108bc6108a160208701876127a4565b85876020013560405180602001604052806000815250611622565b600b5550505050565b6108cd610efa565b6108d5611655565b565b6106b983838360405180602001604052806000815250610bda565b6108fd6106c9611092565b6109195760405162461bcd60e51b815260040161060690612ab2565b610922816116ad565b50565b61092d611092565b6001600160a01b031661093f846109f7565b6001600160a01b0316146109ab5760405162461bcd60e51b815260206004820152602d60248201527f4e616e616b7573614e46543a206f6e6c79206f776e65722063616e207365742060448201526c546f6b656e20526f79616c747960981b6064820152608401610606565b6106b98383836116be565b6109be611310565b6109c9838383611356565b602083018035906109de9061084090866127a4565b6109ef816108576040870187612b57565b600b55505050565b6000818152600460205260408120546001600160a01b0316806104bd5760405162461bcd60e51b8152602060048201526018602482015277115490cdcc8c4e881a5b9d985b1a59081d1bdad95b88125160421b6044820152606401610606565b60006001600160a01b038216610ac15760405162461bcd60e51b815260206004820152602960248201527f4552433732313a2061646472657373207a65726f206973206e6f7420612076616044820152683634b21037bbb732b960b91b6064820152608401610606565b506001600160a01b031660009081526005602052604090205490565b610ae5610efa565b6108d56000611789565b610af7610efa565b6108d56117e3565b610b07611092565b6001600160a01b0316610b19826109f7565b6001600160a01b031614610b97576040805162461bcd60e51b81526020600482015260248101919091527f4e616e616b7573614e46543a7265736574546f6b656e526f79616c7479206f6e60448201527f6c79206f776e65722063616e20726573657420546f6b656e20526f79616c74796064820152608401610606565b600090815260016020526040812055565b6060600380546104e890612a7e565b6104d5610bc2611092565b8383611821565b610bd1610efa565b6108d560008055565b610beb610be5611092565b8361110a565b610c075760405162461bcd60e51b815260040161060690612ab2565b610c1384848484611622565b50505050565b60606104bd826118ef565b610c2c610efa565b60005b81518110156104d5576000828281518110610c4c57610c4c612b9e565b60200260200101519050610c78816001600160a01b03166000908152600a602052604090205460ff1690565b15610cd2576001600160a01b0381166000818152600a6020908152604091829020805460ff1916905590519182527ff8f9e1bebee7b0c58697594ecda657e7f23175d236f37eb4407d7a9eaa13bdaa910160405180910390a15b5080610cdd81612bb4565b915050610c2f565b610ced610efa565b60005b81518110156104d5576000828281518110610d0d57610d0d612b9e565b6020026020010151905060006001600160a01b0316816001600160a01b031614158015610d4457506000816001600160a01b03163b115b8015610d6957506001600160a01b0381166000908152600a602052604090205460ff16155b15610dc6576001600160a01b0381166000818152600a6020908152604091829020805460ff1916600117905590519182527fc8dfb5ab9ab6cf753862beaaf785f23636e0eab79a3542f13d4073588583f73d910160405180910390a15b5080610dd181612bb4565b915050610cf0565b6001600160a01b0381166000908152600a602052604081205460ff1680610e2557506001600160a01b0380841660009081526007602090815260408083209386168352929052205460ff165b9392505050565b610e34610efa565b6001600160a01b038116610e995760405162461bcd60e51b815260206004820152602660248201527f4f776e61626c653a206e6577206f776e657220697320746865207a65726f206160448201526564647265737360d01b6064820152608401610606565b61092281611789565b60007f00000000000000000000000000000000000000000000000000000000000000006001600160a01b03163303610ee1575060131936013560601c90565b503390565b905090565b3390565b60006104bd826119f7565b610f02611092565b6001600160a01b0316610f236009546001600160a01b036101009091041690565b6001600160a01b0316146108d55760405162461bcd60e51b815260206004820181905260248201527f4f776e61626c653a2063616c6c6572206973206e6f7420746865206f776e65726044820152606401610606565b6127106001600160601b0382161115610fa45760405162461bcd60e51b815260040161060690612bcd565b6001600160a01b038216610ffa5760405162461bcd60e51b815260206004820152601960248201527f455243323938313a20696e76616c6964207265636569766572000000000000006044820152606401610606565b604080518082019091526001600160a01b039092168083526001600160601b039091166020909201829052600160a01b90910217600055565b6000818152600460205260409020546001600160a01b03166109225760405162461bcd60e51b8152602060048201526018602482015277115490cdcc8c4e881a5b9d985b1a59081d1bdad95b88125160421b6044820152606401610606565b6000610ee6610ea2565b600081815260066020526040902080546001600160a01b0319166001600160a01b03841690811790915581906110d1826109f7565b6001600160a01b03167f8c5be1e5ebec7d5bd14f71427d1e84f3dd0314c0f7b2291e5b200ac8c7c3b92560405160405180910390a45050565b600080611116836109f7565b9050806001600160a01b0316846001600160a01b0316148061113d575061113d8185610dd9565b806111615750836001600160a01b03166111568461056b565b6001600160a01b0316145b949350505050565b826001600160a01b031661117c826109f7565b6001600160a01b0316146111e05760405162461bcd60e51b815260206004820152602560248201527f4552433732313a207472616e736665722066726f6d20696e636f72726563742060448201526437bbb732b960d91b6064820152608401610606565b6001600160a01b0382166112425760405162461bcd60e51b8152602060048201526024808201527f4552433732313a207472616e7366657220746f20746865207a65726f206164646044820152637265737360e01b6064820152608401610606565b61124d838383611a37565b61125860008261109c565b6001600160a01b0383166000908152600560205260408120805460019290611281908490612c17565b90915550506001600160a01b03821660009081526005602052604081208054600192906112af908490612c2a565b909155505060008181526004602052604080822080546001600160a01b0319166001600160a01b0386811691821790925591518493918716917fddf252ad1be2c89b69c2b068fc378daa952ba7f163c4a11628f55a4df523b3ef91a4505050565b60095460ff16156108d55760405162461bcd60e51b815260206004820152601060248201526f14185d5cd8589b194e881c185d5cd95960821b6044820152606401610606565b60008360200135116113d05760405162461bcd60e51b815260206004820152603960248201527f4e616e616b7573614e46543a6d696e74206d696e74446174612e6e667449642060448201527f6d7573742062652067726561746572207468616e207a65726f000000000000006064820152608401610606565b60006113df6040850185612b57565b9050116114445760405162461bcd60e51b815260206004820152602d60248201527f4e616e616b7573614e46543a6d696e74206d696e74446174612e746f6b656e5560448201526c1492481a5cc81a5b9d985b1a59609a1b6064820152608401610606565b60095461010090046001600160a01b03168061145e611092565b6001600160a01b031614610c135760006114ff84848080601f0160208091040260200160405190810160405280939291908181526020018383808284376000920191909152506114f992506114b69150899050611a42565b6114be611ae6565b6040805161190160f01b6020808301919091526022820193909352604280820194909452815180820390940184526062019052815191012090565b90611c0d565b9050816001600160a01b0316816001600160a01b03161461156e5760405162461bcd60e51b8152602060048201526024808201527f4e616e616b7573614e46543a6d696e74206e6f74207369676e6564206279204f6044820152633bb732b960e11b6064820152608401610606565b5050505050565b6104d5828260405180602001604052806000815250611c31565b6000828152600460205260409020546001600160a01b031661160a5760405162461bcd60e51b815260206004820152602e60248201527f45524337323155524953746f726167653a2055524920736574206f66206e6f6e60448201526d32bc34b9ba32b73a103a37b5b2b760911b6064820152608401610606565b60008281526008602052604090206106b98282612c8b565b61162d848484611169565b61163984848484611c64565b610c135760405162461bcd60e51b815260040161060690612d4b565b61165d611d6c565b6009805460ff191690557f5db9ee0a495bf2e6ff9c91a7834c1ba4fdd244a5e8aa4e537bd38aeae4b073aa611690611092565b6040516001600160a01b03909116815260200160405180910390a1565b6116b5611310565b61092281611db5565b6127106001600160601b03821611156116e95760405162461bcd60e51b815260040161060690612bcd565b6001600160a01b03821661173f5760405162461bcd60e51b815260206004820152601b60248201527f455243323938313a20496e76616c696420706172616d657465727300000000006044820152606401610606565b6040805180820182526001600160a01b0393841681526001600160601b0392831660208083019182526000968752600190529190942093519051909116600160a01b029116179055565b600980546001600160a01b03838116610100818102610100600160a81b031985161790945560405193909204169182907f8be0079c531659141344cd1fd0a4f28419497f9722a3daafe3b4186f6b6457e090600090a35050565b6117eb611310565b6009805460ff191660011790557f62e78cea01bee320cd4e420270b5ea74000d11b0c9f74754ebdbfc544b05a258611690611092565b816001600160a01b0316836001600160a01b0316036118825760405162461bcd60e51b815260206004820152601960248201527f4552433732313a20617070726f766520746f2063616c6c6572000000000000006044820152606401610606565b6001600160a01b03838116600081815260076020908152604080832094871680845294825291829020805460ff191686151590811790915591519182527f17307eab39ab6107e8899845ad3d59bd9653f200f220920489ca2b5937696c31910160405180910390a3505050565b60606118fa82611033565b6000828152600860205260408120805461191390612a7e565b80601f016020809104026020016040519081016040528092919081815260200182805461193f90612a7e565b801561198c5780601f106119615761010080835404028352916020019161198c565b820191906000526020600020905b81548152906001019060200180831161196f57829003601f168201915b5050505050905060006119aa60408051602081019091526000815290565b905080516000036119bc575092915050565b8151156119ee5780826040516020016119d6929190612d9d565b60405160208183030381529060405292505050919050565b61116184611dbe565b60006001600160e01b031982166380ac58cd60e01b1480611a2857506001600160e01b03198216635b5e139f60e01b145b806104bd57506104bd82611e31565b6106b9838383611e66565b60007fef794e6d6869d49dbff445812bf818a6333bfc231f266b4c115072185760f4fe611a7260208401846127a4565b6020840135611a846040860186612b57565b604051611a92929190612dcc565b604051908190038120611ac9949392916020019384526001600160a01b039290921660208401526040830152606082015260800190565b604051602081830303815290604052805190602001209050919050565b6000306001600160a01b037f000000000000000000000000000000000000000000000000000000000000000016148015611b3f57507f000000000000000000000000000000000000000000000000000000000000000046145b15611b6957507f000000000000000000000000000000000000000000000000000000000000000090565b50604080517f00000000000000000000000000000000000000000000000000000000000000006020808301919091527f0000000000000000000000000000000000000000000000000000000000000000828401527f000000000000000000000000000000000000000000000000000000000000000060608301524660808301523060a0808401919091528351808403909101815260c0909201909252805191012090565b6000806000611c1c8585611ecd565b91509150611c2981611f0f565b509392505050565b611c3b83836120c5565b611c486000848484611c64565b6106b95760405162461bcd60e51b815260040161060690612d4b565b60006001600160a01b0384163b15611d6157836001600160a01b031663150b7a02611c8d611092565b8786866040518563ffffffff1660e01b8152600401611caf9493929190612ddc565b6020604051808303816000875af1925050508015611cea575060408051601f3d908101601f19168201909252611ce791810190612e19565b60015b611d47573d808015611d18576040519150601f19603f3d011682016040523d82523d6000602084013e611d1d565b606091505b508051600003611d3f5760405162461bcd60e51b815260040161060690612d4b565b805181602001fd5b6001600160e01b031916630a85bd0160e11b149050611161565b506001949350505050565b60095460ff166108d55760405162461bcd60e51b815260206004820152601460248201527314185d5cd8589b194e881b9bdd081c185d5cd95960621b6044820152606401610606565b610b9781612213565b6060611dc982611033565b6000611de060408051602081019091526000815290565b90506000815111611e005760405180602001604052806000815250610e25565b80611e0a84612253565b604051602001611e1b929190612d9d565b6040516020818303038152906040529392505050565b60006001600160e01b0319821663152a902d60e11b14806104bd57506301ffc9a760e01b6001600160e01b03198316146104bd565b60095460ff16156106b95760405162461bcd60e51b815260206004820152602b60248201527f4552433732315061757361626c653a20746f6b656e207472616e73666572207760448201526a1a1a5b19481c185d5cd95960aa1b6064820152608401610606565b6000808251604103611f035760208301516040840151606085015160001a611ef787828585612354565b9450945050505061079d565b5060009050600261079d565b6000816004811115611f2357611f23612e36565b03611f2b5750565b6001816004811115611f3f57611f3f612e36565b03611f8c5760405162461bcd60e51b815260206004820152601860248201527f45434453413a20696e76616c6964207369676e617475726500000000000000006044820152606401610606565b6002816004811115611fa057611fa0612e36565b03611fed5760405162461bcd60e51b815260206004820152601f60248201527f45434453413a20696e76616c6964207369676e6174757265206c656e677468006044820152606401610606565b600381600481111561200157612001612e36565b036120595760405162461bcd60e51b815260206004820152602260248201527f45434453413a20696e76616c6964207369676e6174757265202773272076616c604482015261756560f01b6064820152608401610606565b600481600481111561206d5761206d612e36565b036109225760405162461bcd60e51b815260206004820152602260248201527f45434453413a20696e76616c6964207369676e6174757265202776272076616c604482015261756560f01b6064820152608401610606565b6001600160a01b03821661211b5760405162461bcd60e51b815260206004820181905260248201527f4552433732313a206d696e7420746f20746865207a65726f20616464726573736044820152606401610606565b6000818152600460205260409020546001600160a01b0316156121805760405162461bcd60e51b815260206004820152601c60248201527f4552433732313a20746f6b656e20616c7265616479206d696e746564000000006044820152606401610606565b61218c60008383611a37565b6001600160a01b03821660009081526005602052604081208054600192906121b5908490612c2a565b909155505060008181526004602052604080822080546001600160a01b0319166001600160a01b03861690811790915590518392907fddf252ad1be2c89b69c2b068fc378daa952ba7f163c4a11628f55a4df523b3ef908290a45050565b61221c81612441565b6000818152600860205260409020805461223590612a7e565b159050610922576000818152600860205260408120610922916124e8565b60608160000361227a5750506040805180820190915260018152600360fc1b602082015290565b8160005b81156122a4578061228e81612bb4565b915061229d9050600a83612b43565b915061227e565b60008167ffffffffffffffff8111156122bf576122bf6128a0565b6040519080825280601f01601f1916602001820160405280156122e9576020820181803683370190505b5090505b8415611161576122fe600183612c17565b915061230b600a86612e4c565b612316906030612c2a565b60f81b81838151811061232b5761232b612b9e565b60200101906001600160f81b031916908160001a90535061234d600a86612b43565b94506122ed565b6000807f7fffffffffffffffffffffffffffffff5d576e7357a4501ddfe92f46681b20a083111561238b5750600090506003612438565b8460ff16601b141580156123a357508460ff16601c14155b156123b45750600090506004612438565b6040805160008082526020820180845289905260ff881692820192909252606081018690526080810185905260019060a0016020604051602081039080840390855afa158015612408573d6000803e3d6000fd5b5050604051601f1901519150506001600160a01b03811661243157600060019250925050612438565b9150600090505b94509492505050565b600061244c826109f7565b905061245a81600084611a37565b61246560008361109c565b6001600160a01b038116600090815260056020526040812080546001929061248e908490612c17565b909155505060008281526004602052604080822080546001600160a01b0319169055518391906001600160a01b038416907fddf252ad1be2c89b69c2b068fc378daa952ba7f163c4a11628f55a4df523b3ef908390a45050565b5080546124f490612a7e565b6000825580601f10612504575050565b601f01602090049060005260206000209081019061092291905b80821115612532576000815560010161251e565b5090565b6001600160e01b03198116811461092257600080fd5b60006020828403121561255e57600080fd5b8135610e2581612536565b80356001600160a01b038116811461258057600080fd5b919050565b80356001600160601b038116811461258057600080fd5b600080604083850312156125af57600080fd5b6125b883612569565b91506125c660208401612585565b90509250929050565b60005b838110156125ea5781810151838201526020016125d2565b50506000910152565b6000815180845261260b8160208601602086016125cf565b601f01601f19169290920160200192915050565b602081526000610e2560208301846125f3565b60006020828403121561264457600080fd5b5035919050565b6000806040838503121561265e57600080fd5b61266783612569565b946020939093013593505050565b60008060006060848603121561268a57600080fd5b61269384612569565b92506126a160208501612569565b9150604084013590509250925092565b600080604083850312156126c457600080fd5b50508035926020909101359150565b6000606082840312156126e557600080fd5b50919050565b60008083601f8401126126fd57600080fd5b50813567ffffffffffffffff81111561271557600080fd5b60208301915083602082850101111561079d57600080fd5b6000806000806060858703121561274357600080fd5b843567ffffffffffffffff8082111561275b57600080fd5b612767888389016126d3565b955061277560208801612569565b9450604087013591508082111561278b57600080fd5b50612798878288016126eb565b95989497509550505050565b6000602082840312156127b657600080fd5b610e2582612569565b6000806000606084860312156127d457600080fd5b833592506127e460208501612569565b91506127f260408501612585565b90509250925092565b60008060006040848603121561281057600080fd5b833567ffffffffffffffff8082111561282857600080fd5b612834878388016126d3565b9450602086013591508082111561284a57600080fd5b50612857868287016126eb565b9497909650939450505050565b6000806040838503121561287757600080fd5b61288083612569565b91506020830135801515811461289557600080fd5b809150509250929050565b634e487b7160e01b600052604160045260246000fd5b604051601f8201601f1916810167ffffffffffffffff811182821017156128df576128df6128a0565b604052919050565b600080600080608085870312156128fd57600080fd5b61290685612569565b93506020612915818701612569565b935060408601359250606086013567ffffffffffffffff8082111561293957600080fd5b818801915088601f83011261294d57600080fd5b81358181111561295f5761295f6128a0565b612971601f8201601f191685016128b6565b9150808252898482850101111561298757600080fd5b808484018584013760008482840101525080935050505092959194509250565b600060208083850312156129ba57600080fd5b823567ffffffffffffffff808211156129d257600080fd5b818501915085601f8301126129e657600080fd5b8135818111156129f8576129f86128a0565b8060051b9150612a098483016128b6565b8181529183018401918481019088841115612a2357600080fd5b938501935b83851015612a4857612a3985612569565b82529385019390850190612a28565b98975050505050505050565b60008060408385031215612a6757600080fd5b612a7083612569565b91506125c660208401612569565b600181811c90821680612a9257607f821691505b6020821081036126e557634e487b7160e01b600052602260045260246000fd5b6020808252602e908201527f4552433732313a2063616c6c6572206973206e6f7420746f6b656e206f776e6560408201526d1c881b9bdc88185c1c1c9bdd995960921b606082015260800190565b634e487b7160e01b600052601160045260246000fd5b80820281158282048414176104bd576104bd612b00565b634e487b7160e01b600052601260045260246000fd5b600082612b5257612b52612b2d565b500490565b6000808335601e19843603018112612b6e57600080fd5b83018035915067ffffffffffffffff821115612b8957600080fd5b60200191503681900382131561079d57600080fd5b634e487b7160e01b600052603260045260246000fd5b600060018201612bc657612bc6612b00565b5060010190565b6020808252602a908201527f455243323938313a20726f79616c7479206665652077696c6c206578636565646040820152692073616c65507269636560b01b606082015260800190565b818103818111156104bd576104bd612b00565b808201808211156104bd576104bd612b00565b601f8211156106b957600081815260208120601f850160051c81016020861015612c645750805b601f850160051c820191505b81811015612c8357828155600101612c70565b505050505050565b815167ffffffffffffffff811115612ca557612ca56128a0565b612cb981612cb38454612a7e565b84612c3d565b602080601f831160018114612cee5760008415612cd65750858301515b600019600386901b1c1916600185901b178555612c83565b600085815260208120601f198616915b82811015612d1d57888601518255948401946001909101908401612cfe565b5085821015612d3b5787850151600019600388901b60f8161c191681555b5050505050600190811b01905550565b60208082526032908201527f4552433732313a207472616e7366657220746f206e6f6e20455243373231526560408201527131b2b4bb32b91034b6b83632b6b2b73a32b960711b606082015260800190565b60008351612daf8184602088016125cf565b835190830190612dc38183602088016125cf565b01949350505050565b8183823760009101908152919050565b6001600160a01b0385811682528416602082015260408101839052608060608201819052600090612e0f908301846125f3565b9695505050505050565b600060208284031215612e2b57600080fd5b8151610e2581612536565b634e487b7160e01b600052602160045260246000fd5b600082612e5b57612e5b612b2d565b50069056fea2646970667358221220464ffb3f1e2d4abd8690df09b095b8c9559062f742a714d6f8e237e02ae33ee664736f6c63430008110033",
  "linkReferences": {},
  "deployedLinkReferences": {}
}