{
  "_format": "hh-sol-artifact-1",
  "contractName": "ExchangeV4",
  "sourceName": "contracts/sbinft/market/v4/exchange/ExchangeV4.sol",
  "abi": [
    {
      "inputs": [
        {
          "internalType": "address",
          "name": "trustedForwarder",
          "type": "address"
        }
      ],
      "stateMutability": "nonpayable",
      "type": "constructor"
    },
    {
      "anonymous": false,
      "inputs": [
        {
          "indexed": false,
          "internalType": "address",
          "name": "",
          "type": "address"
        }
      ],
      "name": "AdminAdded",
      "type": "event"
    },
    {
      "anonymous": false,
      "inputs": [
        {
          "indexed": false,
          "internalType": "address",
          "name": "previousAdmin",
          "type": "address"
        },
        {
          "indexed": false,
          "internalType": "address",
          "name": "newAdmin",
          "type": "address"
        }
      ],
      "name": "AdminChanged",
      "type": "event"
    },
    {
      "anonymous": false,
      "inputs": [
        {
          "indexed": false,
          "internalType": "address",
          "name": "",
          "type": "address"
        }
      ],
      "name": "AdminRemoved",
      "type": "event"
    },
    {
      "anonymous": false,
      "inputs": [
        {
          "indexed": true,
          "internalType": "address",
          "name": "beacon",
          "type": "address"
        }
      ],
      "name": "BeaconUpgraded",
      "type": "event"
    },
    {
      "anonymous": false,
      "inputs": [
        {
          "indexed": false,
          "internalType": "uint8",
          "name": "version",
          "type": "uint8"
        }
      ],
      "name": "Initialized",
      "type": "event"
    },
    {
      "anonymous": false,
      "inputs": [
        {
          "indexed": false,
          "internalType": "address",
          "name": "account",
          "type": "address"
        }
      ],
      "name": "Paused",
      "type": "event"
    },
    {
      "anonymous": false,
      "inputs": [
        {
          "indexed": true,
          "internalType": "contract IPlatformRegistry",
          "name": "platformRegistry",
          "type": "address"
        }
      ],
      "name": "PlatformRegistryUpdated",
      "type": "event"
    },
    {
      "anonymous": false,
      "inputs": [
        {
          "indexed": true,
          "internalType": "contract IRoyaltyRegistry",
          "name": "royaltyRegistry",
          "type": "address"
        }
      ],
      "name": "RoyaltyRegistryUpdated",
      "type": "event"
    },
    {
      "anonymous": false,
      "inputs": [
        {
          "indexed": true,
          "internalType": "uint256",
          "name": "nonce",
          "type": "uint256"
        },
        {
          "indexed": true,
          "internalType": "address",
          "name": "token",
          "type": "address"
        },
        {
          "indexed": true,
          "internalType": "uint256",
          "name": "tokenId",
          "type": "uint256"
        },
        {
          "indexed": false,
          "internalType": "uint256",
          "name": "value",
          "type": "uint256"
        }
      ],
      "name": "SaleSingle",
      "type": "event"
    },
    {
      "anonymous": false,
      "inputs": [
        {
          "indexed": true,
          "internalType": "contract ITransferProxy",
          "name": "transferProxy",
          "type": "address"
        }
      ],
      "name": "TransferProxyUpdated",
      "type": "event"
    },
    {
      "anonymous": false,
      "inputs": [
        {
          "indexed": false,
          "internalType": "address",
          "name": "account",
          "type": "address"
        }
      ],
      "name": "Unpaused",
      "type": "event"
    },
    {
      "anonymous": false,
      "inputs": [
        {
          "indexed": true,
          "internalType": "address",
          "name": "implementation",
          "type": "address"
        }
      ],
      "name": "Upgraded",
      "type": "event"
    },
    {
      "inputs": [
        {
          "internalType": "address[]",
          "name": "newAdmin",
          "type": "address[]"
        }
      ],
      "name": "addAdmin",
      "outputs": [],
      "stateMutability": "nonpayable",
      "type": "function"
    },
    {
      "inputs": [
        {
          "internalType": "address",
          "name": "newAdmin",
          "type": "address"
        }
      ],
      "name": "addAdmin",
      "outputs": [],
      "stateMutability": "nonpayable",
      "type": "function"
    },
    {
      "inputs": [
        {
          "components": [
            {
              "components": [
                {
                  "internalType": "bytes4",
                  "name": "originKind",
                  "type": "bytes4"
                },
                {
                  "internalType": "address",
                  "name": "token",
                  "type": "address"
                },
                {
                  "internalType": "uint256",
                  "name": "tokenId",
                  "type": "uint256"
                },
                {
                  "internalType": "uint256",
                  "name": "value",
                  "type": "uint256"
                },
                {
                  "internalType": "uint16",
                  "name": "partnerFeeRate",
                  "type": "uint16"
                },
                {
                  "internalType": "address payable",
                  "name": "partnerFeeReceiver",
                  "type": "address"
                },
                {
                  "internalType": "uint8",
                  "name": "isSecondarySale",
                  "type": "uint8"
                },
                {
                  "internalType": "address[]",
                  "name": "royaltyReceivers",
                  "type": "address[]"
                },
                {
                  "internalType": "uint16[]",
                  "name": "royaltyDistributionRate",
                  "type": "uint16[]"
                },
                {
                  "internalType": "uint16",
                  "name": "secondaryOnwardsRoyaltyPercentage",
                  "type": "uint16"
                }
              ],
              "internalType": "struct OrderDomainV4.Asset[]",
              "name": "assetList",
              "type": "tuple[]"
            },
            {
              "internalType": "address",
              "name": "currentOwner",
              "type": "address"
            },
            {
              "internalType": "address",
              "name": "paymentReceiver",
              "type": "address"
            },
            {
              "components": [
                {
                  "internalType": "bytes4",
                  "name": "paymentMode",
                  "type": "bytes4"
                },
                {
                  "internalType": "address",
                  "name": "paymentToken",
                  "type": "address"
                },
                {
                  "internalType": "uint256",
                  "name": "price",
                  "type": "uint256"
                }
              ],
              "internalType": "struct OrderDomainV4.Payment[]",
              "name": "acceptedPaymentMode",
              "type": "tuple[]"
            },
            {
              "internalType": "uint16",
              "name": "pfSaleFeeRate",
              "type": "uint16"
            },
            {
              "internalType": "uint16",
              "name": "pfSaleFeeRateSecondary",
              "type": "uint16"
            },
            {
              "internalType": "uint256",
              "name": "start",
              "type": "uint256"
            },
            {
              "internalType": "uint256",
              "name": "end",
              "type": "uint256"
            },
            {
              "internalType": "uint256",
              "name": "nonce",
              "type": "uint256"
            },
            {
              "internalType": "uint8",
              "name": "version",
              "type": "uint8"
            }
          ],
          "internalType": "struct OrderDomainV4.SaleOrder",
          "name": "_saleOrder",
          "type": "tuple"
        },
        {
          "internalType": "bytes",
          "name": "_salerSign",
          "type": "bytes"
        },
        {
          "components": [
            {
              "internalType": "uint256",
              "name": "saleNonce",
              "type": "uint256"
            },
            {
              "internalType": "address payable",
              "name": "buyer",
              "type": "address"
            },
            {
              "internalType": "address payable",
              "name": "payer",
              "type": "address"
            },
            {
              "internalType": "uint256",
              "name": "firstAssetBuyValue",
              "type": "uint256"
            },
            {
              "components": [
                {
                  "internalType": "bytes4",
                  "name": "paymentMode",
                  "type": "bytes4"
                },
                {
                  "internalType": "address",
                  "name": "paymentToken",
                  "type": "address"
                },
                {
                  "internalType": "uint256",
                  "name": "price",
                  "type": "uint256"
                }
              ],
              "internalType": "struct OrderDomainV4.Payment",
              "name": "paymentDetails",
              "type": "tuple"
            },
            {
              "internalType": "uint256",
              "name": "validUntil",
              "type": "uint256"
            },
            {
              "internalType": "uint8",
              "name": "version",
              "type": "uint8"
            }
          ],
          "internalType": "struct OrderDomainV4.BuyOrder",
          "name": "_buyOrder",
          "type": "tuple"
        },
        {
          "internalType": "bytes",
          "name": "_platformSign",
          "type": "bytes"
        }
      ],
      "name": "exchange",
      "outputs": [],
      "stateMutability": "payable",
      "type": "function"
    },
    {
      "inputs": [
        {
          "components": [
            {
              "components": [
                {
                  "internalType": "bytes4",
                  "name": "originKind",
                  "type": "bytes4"
                },
                {
                  "internalType": "address",
                  "name": "token",
                  "type": "address"
                },
                {
                  "internalType": "uint256",
                  "name": "tokenId",
                  "type": "uint256"
                },
                {
                  "internalType": "uint256",
                  "name": "value",
                  "type": "uint256"
                },
                {
                  "internalType": "uint16",
                  "name": "partnerFeeRate",
                  "type": "uint16"
                },
                {
                  "internalType": "address payable",
                  "name": "partnerFeeReceiver",
                  "type": "address"
                },
                {
                  "internalType": "uint8",
                  "name": "isSecondarySale",
                  "type": "uint8"
                },
                {
                  "internalType": "address[]",
                  "name": "royaltyReceivers",
                  "type": "address[]"
                },
                {
                  "internalType": "uint16[]",
                  "name": "royaltyDistributionRate",
                  "type": "uint16[]"
                },
                {
                  "internalType": "uint16",
                  "name": "secondaryOnwardsRoyaltyPercentage",
                  "type": "uint16"
                }
              ],
              "internalType": "struct OrderDomainV4.Asset[]",
              "name": "assetList",
              "type": "tuple[]"
            },
            {
              "internalType": "address",
              "name": "currentOwner",
              "type": "address"
            },
            {
              "internalType": "address",
              "name": "paymentReceiver",
              "type": "address"
            },
            {
              "components": [
                {
                  "internalType": "bytes4",
                  "name": "paymentMode",
                  "type": "bytes4"
                },
                {
                  "internalType": "address",
                  "name": "paymentToken",
                  "type": "address"
                },
                {
                  "internalType": "uint256",
                  "name": "price",
                  "type": "uint256"
                }
              ],
              "internalType": "struct OrderDomainV4.Payment[]",
              "name": "acceptedPaymentMode",
              "type": "tuple[]"
            },
            {
              "internalType": "uint16",
              "name": "pfSaleFeeRate",
              "type": "uint16"
            },
            {
              "internalType": "uint16",
              "name": "pfSaleFeeRateSecondary",
              "type": "uint16"
            },
            {
              "internalType": "uint256",
              "name": "start",
              "type": "uint256"
            },
            {
              "internalType": "uint256",
              "name": "end",
              "type": "uint256"
            },
            {
              "internalType": "uint256",
              "name": "nonce",
              "type": "uint256"
            },
            {
              "internalType": "uint8",
              "name": "version",
              "type": "uint8"
            }
          ],
          "internalType": "struct OrderDomainV4.SaleOrder[]",
          "name": "_saleOrderList",
          "type": "tuple[]"
        },
        {
          "internalType": "bytes[]",
          "name": "_salerSignList",
          "type": "bytes[]"
        },
        {
          "components": [
            {
              "internalType": "uint256[]",
              "name": "saleNonceList",
              "type": "uint256[]"
            },
            {
              "internalType": "address payable",
              "name": "buyer",
              "type": "address"
            },
            {
              "internalType": "address payable",
              "name": "payer",
              "type": "address"
            },
            {
              "internalType": "uint256[]",
              "name": "firstAssetBuyValueList",
              "type": "uint256[]"
            },
            {
              "components": [
                {
                  "internalType": "bytes4",
                  "name": "paymentMode",
                  "type": "bytes4"
                },
                {
                  "internalType": "address",
                  "name": "paymentToken",
                  "type": "address"
                },
                {
                  "internalType": "uint256",
                  "name": "price",
                  "type": "uint256"
                }
              ],
              "internalType": "struct OrderDomainV4.Payment",
              "name": "paymentDetails",
              "type": "tuple"
            },
            {
              "internalType": "uint256",
              "name": "validUntil",
              "type": "uint256"
            },
            {
              "internalType": "uint8",
              "name": "version",
              "type": "uint8"
            }
          ],
          "internalType": "struct OrderDomainV4.BuyOrderBatch",
          "name": "_buyOrderBatch",
          "type": "tuple"
        },
        {
          "internalType": "bytes",
          "name": "_platformSign",
          "type": "bytes"
        }
      ],
      "name": "exchangeAll",
      "outputs": [],
      "stateMutability": "payable",
      "type": "function"
    },
    {
      "inputs": [
        {
          "internalType": "bytes32",
          "name": "_saleKey",
          "type": "bytes32"
        }
      ],
      "name": "getSoldCountByKey",
      "outputs": [
        {
          "internalType": "uint256",
          "name": "",
          "type": "uint256"
        }
      ],
      "stateMutability": "view",
      "type": "function"
    },
    {
      "inputs": [
        {
          "internalType": "uint256",
          "name": "_nonce",
          "type": "uint256"
        },
        {
          "internalType": "address",
          "name": "_token",
          "type": "address"
        },
        {
          "internalType": "uint256",
          "name": "_tokenId",
          "type": "uint256"
        }
      ],
      "name": "getSoldCountByNonce",
      "outputs": [
        {
          "internalType": "uint256",
          "name": "",
          "type": "uint256"
        }
      ],
      "stateMutability": "view",
      "type": "function"
    },
    {
      "inputs": [
        {
          "internalType": "address",
          "name": "checkAdmin",
          "type": "address"
        }
      ],
      "name": "isAdmin",
      "outputs": [
        {
          "internalType": "bool",
          "name": "",
          "type": "bool"
        }
      ],
      "stateMutability": "view",
      "type": "function"
    },
    {
      "inputs": [
        {
          "internalType": "address",
          "name": "forwarder",
          "type": "address"
        }
      ],
      "name": "isTrustedForwarder",
      "outputs": [
        {
          "internalType": "bool",
          "name": "",
          "type": "bool"
        }
      ],
      "stateMutability": "view",
      "type": "function"
    },
    {
      "inputs": [],
      "name": "pause",
      "outputs": [],
      "stateMutability": "nonpayable",
      "type": "function"
    },
    {
      "inputs": [],
      "name": "paused",
      "outputs": [
        {
          "internalType": "bool",
          "name": "",
          "type": "bool"
        }
      ],
      "stateMutability": "view",
      "type": "function"
    },
    {
      "inputs": [],
      "name": "platformRegistry",
      "outputs": [
        {
          "internalType": "contract IPlatformRegistry",
          "name": "",
          "type": "address"
        }
      ],
      "stateMutability": "view",
      "type": "function"
    },
    {
      "inputs": [],
      "name": "proxiableUUID",
      "outputs": [
        {
          "internalType": "bytes32",
          "name": "",
          "type": "bytes32"
        }
      ],
      "stateMutability": "view",
      "type": "function"
    },
    {
      "inputs": [
        {
          "internalType": "address",
          "name": "admin",
          "type": "address"
        }
      ],
      "name": "removeAdmin",
      "outputs": [],
      "stateMutability": "nonpayable",
      "type": "function"
    },
    {
      "inputs": [],
      "name": "royaltyRegistry",
      "outputs": [
        {
          "internalType": "contract IRoyaltyRegistry",
          "name": "",
          "type": "address"
        }
      ],
      "stateMutability": "view",
      "type": "function"
    },
    {
      "inputs": [
        {
          "internalType": "bytes4",
          "name": "_interfaceId",
          "type": "bytes4"
        }
      ],
      "name": "supportsInterface",
      "outputs": [
        {
          "internalType": "bool",
          "name": "",
          "type": "bool"
        }
      ],
      "stateMutability": "view",
      "type": "function"
    },
    {
      "inputs": [],
      "name": "transferProxy",
      "outputs": [
        {
          "internalType": "contract ITransferProxy",
          "name": "",
          "type": "address"
        }
      ],
      "stateMutability": "view",
      "type": "function"
    },
    {
      "inputs": [],
      "name": "unpause",
      "outputs": [],
      "stateMutability": "nonpayable",
      "type": "function"
    },
    {
      "inputs": [
        {
          "internalType": "contract IPlatformRegistry",
          "name": "_newPlatformRegistry",
          "type": "address"
        }
      ],
      "name": "updatePlatformRegistry",
      "outputs": [],
      "stateMutability": "nonpayable",
      "type": "function"
    },
    {
      "inputs": [
        {
          "internalType": "contract IRoyaltyRegistry",
          "name": "_newRoyaltyRegistry",
          "type": "address"
        }
      ],
      "name": "updateRoyaltyRegistry",
      "outputs": [],
      "stateMutability": "nonpayable",
      "type": "function"
    },
    {
      "inputs": [
        {
          "internalType": "contract ITransferProxy",
          "name": "_newTransferProxy",
          "type": "address"
        }
      ],
      "name": "updateTransferProxy",
      "outputs": [],
      "stateMutability": "nonpayable",
      "type": "function"
    },
    {
      "inputs": [
        {
          "internalType": "address",
          "name": "newImplementation",
          "type": "address"
        }
      ],
      "name": "upgradeTo",
      "outputs": [],
      "stateMutability": "nonpayable",
      "type": "function"
    },
    {
      "inputs": [
        {
          "internalType": "address",
          "name": "newImplementation",
          "type": "address"
        },
        {
          "internalType": "bytes",
          "name": "data",
          "type": "bytes"
        }
      ],
      "name": "upgradeToAndCall",
      "outputs": [],
      "stateMutability": "payable",
      "type": "function"
    },
    {
      "inputs": [],
      "name": "version",
      "outputs": [
        {
          "internalType": "uint8",
          "name": "",
          "type": "uint8"
        }
      ],
      "stateMutability": "pure",
      "type": "function"
    },
    {
      "inputs": [
        {
          "internalType": "address payable",
          "name": "_receiver",
          "type": "address"
        },
        {
          "internalType": "address",
          "name": "_erc20Token",
          "type": "address"
        }
      ],
      "name": "withdrawTip",
      "outputs": [],
      "stateMutability": "nonpayable",
      "type": "function"
    }
  ],
  "bytecode": "0x60c06040523060a0523480156200001557600080fd5b506040516200604c3803806200604c833981016040819052620000389162000118565b6001600160a01b0381166080526200004f62000056565b506200014a565b600054610100900460ff1615620000c35760405162461bcd60e51b815260206004820152602760248201527f496e697469616c697a61626c653a20636f6e747261637420697320696e697469604482015266616c697a696e6760c81b606482015260840160405180910390fd5b60005460ff908116101562000116576000805460ff191660ff9081179091556040519081527f7f26b83ff96e1f2b6a682f133852f6798a09c465da95921460cefb38474024989060200160405180910390a15b565b6000602082840312156200012b57600080fd5b81516001600160a01b03811681146200014357600080fd5b9392505050565b60805160a051615eb96200019360003960008181610774015281816107b401528181610a5001528181610a9001526119a00152600081816103250152613f8e0152615eb96000f3fe60806040526004361061014b5760003560e01c806354fd4d50116100b6578063704802751161006f57806370480275146103d95780638456cb59146103f9578063a11b07121461040e578063c255f8781461042f578063cc25319314610450578063cf1d53cf1461047057600080fd5b806354fd4d50146102ec578063572b6c05146103085780635c975abb14610355578063653551501461036d578063658c09a81461038d5780636e667db3146103a057600080fd5b80633d0950a8116101085780633d0950a81461025c5780633f4ba83a1461027c5780634c275cac146102915780634f1ef286146102b157806351d2d5b7146102c457806352d1902d146102d757600080fd5b806301ffc9a71461015057806313263340146101855780631785f53c146101c157806318cdeccc146101e357806324d7806c146102035780633659cfe61461023c575b600080fd5b34801561015c57600080fd5b5061017061016b366004614ed2565b610490565b60405190151581526020015b60405180910390f35b34801561019157600080fd5b506101b36101a0366004614eed565b6000908152610197602052604090205490565b60405190815260200161017c565b3480156101cd57600080fd5b506101e16101dc366004614f26565b6104c7565b005b3480156101ef57600080fd5b506101e16101fe366004614f43565b6105a7565b34801561020f57600080fd5b5061017061021e366004614f26565b6001600160a01b031660009081526099602052604090205460ff1690565b34801561024857600080fd5b506101e1610257366004614f26565b61076a565b34801561026857600080fd5b506101e1610277366004614fc0565b610846565b34801561028857600080fd5b506101e16108d7565b34801561029d57600080fd5b506101e16102ac366004614f26565b610926565b6101e16102bf366004615092565b610a46565b6101e16102d2366004615193565b610b12565b3480156102e357600080fd5b506101b3611993565b3480156102f857600080fd5b506040516003815260200161017c565b34801561031457600080fd5b50610170610323366004614f26565b7f00000000000000000000000000000000000000000000000000000000000000006001600160a01b0390811691161490565b34801561036157600080fd5b5060fe5460ff16610170565b34801561037957600080fd5b506101e1610388366004614f26565b611a46565b6101e161039b366004615251565b611b66565b3480156103ac57600080fd5b50610195546103c1906001600160a01b031681565b6040516001600160a01b03909116815260200161017c565b3480156103e557600080fd5b506101e16103f4366004614f26565b6127c2565b34801561040557600080fd5b506101e1612810565b34801561041a57600080fd5b50610196546103c1906001600160a01b031681565b34801561043b57600080fd5b50610194546103c1906001600160a01b031681565b34801561045c57600080fd5b506101e161046b366004614f26565b61285d565b34801561047c57600080fd5b506101b361048b366004615304565b61297d565b60006001600160e01b031982166360a3914f60e01b14806104c157506301ffc9a760e01b6001600160e01b03198316145b92915050565b609960006104d36129e2565b6001600160a01b0316815260208101919091526040016000205460ff166105155760405162461bcd60e51b815260040161050c9061533c565b60405180910390fd5b6001600160a01b03811660009081526099602052604090205460ff1661059b5760405162461bcd60e51b815260206004820152603560248201527f41646d696e3a72656d6f766541646d696e20747279696e6720746f2072656d6f6044820152743b32903737b71032bc34b9ba34b7339020b236b4b760591b606482015260840161050c565b6105a4816129f1565b50565b609960006105b36129e2565b6001600160a01b0316815260208101919091526040016000205460ff166105ec5760405162461bcd60e51b815260040161050c9061533c565b6001600160a01b03821661062d5760405162461bcd60e51b8152602060048201526008602482015267455f57545f49524160c01b604482015260640161050c565b6001600160a01b038116610675576040516001600160a01b038316904780156108fc02916000818181858888f19350505050158015610670573d6000803e3d6000fd5b505050565b6001600160a01b038116600090815261019860205260408120905b81548110156107435760008282815481106106ad576106ad615382565b60009182526020909120610195546002909202018054600182015460405163776062c360e01b81529294506001600160a01b039384169363776062c3936106fd938a939216918b91600401615398565b600060405180830381600087803b15801561071757600080fd5b505af115801561072b573d6000803e3d6000fd5b5050505050808061073b906153d8565b915050610690565b506001600160a01b03821660009081526101986020526040812061067091614e3c565b5050565b6001600160a01b037f00000000000000000000000000000000000000000000000000000000000000001630036107b25760405162461bcd60e51b815260040161050c906153f1565b7f00000000000000000000000000000000000000000000000000000000000000006001600160a01b03166107fb600080516020615e3d833981519152546001600160a01b031690565b6001600160a01b0316146108215760405162461bcd60e51b815260040161050c9061543d565b61082a81612a49565b604080516000808252602082019092526105a491839190612a8e565b609960006108526129e2565b6001600160a01b0316815260208101919091526040016000205460ff1661088b5760405162461bcd60e51b815260040161050c9061533c565b60005b81811015610670576108c58383838181106108ab576108ab615382565b90506020020160208101906108c09190614f26565b612bf9565b806108cf816153d8565b91505061088e565b609960006108e36129e2565b6001600160a01b0316815260208101919091526040016000205460ff1661091c5760405162461bcd60e51b815260040161050c9061533c565b610924612cb7565b565b609960006109326129e2565b6001600160a01b0316815260208101919091526040016000205460ff1661096b5760405162461bcd60e51b815260040161050c9061533c565b6040516301ffc9a760e01b81526001600160a01b038216906301ffc9a79061099e9063071d7d4b60e21b90600401615489565b602060405180830381865afa1580156109bb573d6000803e3d6000fd5b505050506040513d601f19601f820116820180604052508101906109df919061549e565b6109fb5760405162461bcd60e51b815260040161050c906154c0565b61019580546001600160a01b0319166001600160a01b0383169081179091556040517fdf3b866248a7a3e982f0a93fde9cf30633ed3bb09365c16b08260ad033db920790600090a250565b6001600160a01b037f0000000000000000000000000000000000000000000000000000000000000000163003610a8e5760405162461bcd60e51b815260040161050c906153f1565b7f00000000000000000000000000000000000000000000000000000000000000006001600160a01b0316610ad7600080516020615e3d833981519152546001600160a01b031690565b6001600160a01b031614610afd5760405162461bcd60e51b815260040161050c9061543d565b610b0682612a49565b61076682826001612a8e565b610b1a612d0f565b600260cc5403610b6c5760405162461bcd60e51b815260206004820152601f60248201527f5265656e7472616e637947756172643a207265656e7472616e742063616c6c00604482015260640161050c565b600260cc558584148015610b8d5750610b8860608401846154df565b871490505b610bc55760405162461bcd60e51b8152602060048201526009602482015268455f45415f534f4c4d60b81b604482015260640161050c565b428360e001351015610c055760405162461bcd60e51b8152602060048201526009602482015268455f435046455f454f60b81b604482015260640161050c565b6322ba176160e21b610c1d60a0850160808601614ed2565b6001600160e01b03191603610cf157610194546001600160a01b0316635247385c610c4e60c0860160a08701614f26565b6040516001600160e01b031960e084901b1681526001600160a01b039091166004820152602401602060405180830381865afa158015610c92573d6000803e3d6000fd5b505050506040513d601f19601f82011682018060405250810190610cb6919061549e565b610cf15760405162461bcd60e51b815260206004820152600c60248201526b455f435046455f4250544e5760a01b604482015260640161050c565b6000610d036040850160208601614f26565b6001600160a01b031603610d465760405162461bcd60e51b815260206004820152600a60248201526922afa1a82322afa124a160b11b604482015260640161050c565b6000610d586060850160408601614f26565b6001600160a01b031603610d9b5760405162461bcd60e51b815260206004820152600a6024820152690455f435046455f4249560b41b604482015260640161050c565b60c0830135600003610ddd5760405162461bcd60e51b815260206004820152600b60248201526a0455f435046455f424f49560ac1b604482015260640161050c565b61019454604080516020601f85018190048102820181019092528381526001600160a01b0390921691634d4ed32c91610e8391908690869081908401838280828437600092019190915250610e7d9250610e3a9150899050612d55565b610e42612e88565b6040805161190160f01b6020808301919091526022820193909352604280820194909452815180820390940184526062019052815191012090565b90612f03565b6040516001600160e01b031960e084901b1681526001600160a01b039091166004820152602401602060405180830381865afa158015610ec7573d6000803e3d6000fd5b505050506040513d601f19601f82011682018060405250810190610eeb919061549e565b610f245760405162461bcd60e51b815260206004820152600a602482015269455f435046455f49505360b01b604482015260640161050c565b610f2c612f27565b6000805b87811015611737576000610f808a8a84818110610f4f57610f4f615382565b9050602002810190610f619190615528565b610f7160a0890160808a01614ed2565b6001600160e01b031916612f93565b905060008a8a84818110610f9657610f96615382565b9050602002810190610fa89190615528565b610fb190615888565b905060008160000151600081518110610fcc57610fcc615382565b6020026020010151905087610100016020810190610fea9190615961565b60ff1682610120015160ff16146110305760405162461bcd60e51b815260206004820152600a602482015269455f435046455f564d4d60b01b604482015260640161050c565b6110406040890160208a01614f26565b6001600160a01b031682602001516001600160a01b0316036110935760405162461bcd60e51b815260206004820152600c60248201526b455f435046455f434141425360a01b604482015260640161050c565b6110a060608901896154df565b858181106110b0576110b0615382565b905060200201356000036110f257600083815261019760205260409020546001036110ed5760405162461bcd60e51b815260040161050c9061597e565b61115b565b61110a8261010001518260200151836040015161297d565b816060015161111991906159a3565b61112660608a018a6154df565b8681811061113657611136615382565b90506020020135111561115b5760405162461bcd60e51b815260040161050c9061597e565b61019460009054906101000a90046001600160a01b03166001600160a01b031663f815d6cf6040518163ffffffff1660e01b81526004016020604051808303816000875af11580156111b1573d6000803e3d6000fd5b505050506040513d601f19601f820116820180604052508101906111d591906159b6565b61ffff16826080015161ffff1610156112005760405162461bcd60e51b815260040161050c906159d3565b600182610120015160ff16106112b55761019460009054906101000a90046001600160a01b03166001600160a01b031663f815d6cf6040518163ffffffff1660e01b81526004016020604051808303816000875af1158015611266573d6000803e3d6000fd5b505050506040513d601f19601f8201168201806040525081019061128a91906159b6565b61ffff168260a0015161ffff1610156112b55760405162461bcd60e51b815260040161050c906159d3565b6112bf88806154df565b858181106112cf576112cf615382565b90506020020135826101000151146113165760405162461bcd60e51b815260206004820152600a60248201526922afa1a82322afa9a12760b11b604482015260640161050c565b81602001516001600160a01b031661138e8b8b8781811061133957611339615382565b905060200281019061134b91906159fb565b8080601f016020809104026020016040519081016040528093929190818152602001838380828437600092019190915250610e7d9250889150610e429050612e88565b6001600160a01b0316146113d15760405162461bcd60e51b815260206004820152600a602482015269455f435046455f49535360b01b604482015260640161050c565b6113e96113e460a08a0160808b01614ed2565b6135e2565b156116cc5760006114508d8d8781811061140557611405615382565b90506020028101906114179190615528565b61142760a08c0160808d01614ed2565b61143460608d018d6154df565b8981811061144457611444615382565b90506020020135613618565b905061145c8187615a41565b9550600083608001519050600184610120015160ff1610158015611487575060c083015160ff166001145b15611493575060a08301515b60006127106114a661ffff841685615a54565b6114b09190615a6b565b905061153561019460009054906101000a90046001600160a01b03166001600160a01b031663707d18486040518163ffffffff1660e01b81526004016020604051808303816000875af115801561150b573d6000803e3d6000fd5b505050506040513d601f19601f8201168201806040525081019061152f9190615a8d565b82613717565b600061154485600001516137bc565b801561155857506000856080015161ffff16115b156116595760a08501516001600160a01b0381166115e85761019454602087015160405163342ce4cb60e11b81526001600160a01b039182166004820152911690636859c996906024016020604051808303816000875af11580156115c1573d6000803e3d6000fd5b505050506040513d601f19601f820116820180604052508101906115e59190615a8d565b90505b6001600160a01b03811661162a5760405162461bcd60e51b8152602060048201526009602482015268455f455f5046524e5360b81b604482015260640161050c565b6080860151612710906116419061ffff1687615a54565b61164b9190615a6b565b91506116578183613717565b505b60c085015160009060ff1660010361167257508361168a565b8161167d84876159a3565b61168791906159a3565b90505b6116c687604001516116a288848b61012001516137d2565b846116ad878a6159a3565b6116b791906159a3565b6116c191906159a3565b613717565b50505050505b6117218160200151826040015184602001518b60200160208101906116f19190614f26565b6116fe60608e018e6154df565b8a81811061170e5761170e615382565b9050602002013588886101000151613a23565b505050808061172f906153d8565b915050610f30565b5063fdae1ba760e01b61175060a0860160808701614ed2565b6001600160e01b0319160361179f578034101561179a5760405162461bcd60e51b81526020600482015260086024820152671157d157d391539560c21b604482015260640161050c565b611944565b6322ba176160e21b6117b760a0860160808701614ed2565b6001600160e01b031916036119445760006117d860c0860160a08701614f26565b905060006001600160a01b03821663dd62ed3e6117fb6060890160408a01614f26565b6101955460405160e084901b6001600160e01b03191681526001600160a01b03928316600482015291166024820152604401602060405180830381865afa15801561184a573d6000803e3d6000fd5b505050506040513d601f19601f8201168201806040525081019061186e9190615aaa565b9050828110156118ae5760405162461bcd60e51b815260206004820152600b60248201526a0455f455f4e4545524332360ac1b604482015260640161050c565b60006118ba84836159a3565b9050801561194057600060405180604001604052808960400160208101906118e29190614f26565b6001600160a01b0390811682526020918201859052868116600090815261019883526040812080546001808201835591835291849020855160029093020180546001600160a01b031916929093169190911782559290910151910155505b5050505b61197c61195760a0860160808701614ed2565b61196760c0870160a08801614f26565b6119776060880160408901614f26565b613c9b565b611984612f27565b5050600160cc55505050505050565b6000306001600160a01b037f00000000000000000000000000000000000000000000000000000000000000001614611a335760405162461bcd60e51b815260206004820152603860248201527f555550535570677261646561626c653a206d757374206e6f742062652063616c60448201527f6c6564207468726f7567682064656c656761746563616c6c0000000000000000606482015260840161050c565b50600080516020615e3d83398151915290565b60996000611a526129e2565b6001600160a01b0316815260208101919091526040016000205460ff16611a8b5760405162461bcd60e51b815260040161050c9061533c565b6040516301ffc9a760e01b81526001600160a01b038216906301ffc9a790611abe9063042eca1d60e51b90600401615489565b602060405180830381865afa158015611adb573d6000803e3d6000fd5b505050506040513d601f19601f82011682018060405250810190611aff919061549e565b611b1b5760405162461bcd60e51b815260040161050c906154c0565b61019480546001600160a01b0319166001600160a01b0383169081179091556040517fa48d197b43b1826afcf98445392676fa169817dd3216002b6fd70e8601ef2b0190600090a250565b611b6e612d0f565b600260cc5403611bc05760405162461bcd60e51b815260206004820152601f60248201527f5265656e7472616e637947756172643a207265656e7472616e742063616c6c00604482015260640161050c565b600260cc556000611bd961014088016101208901615961565b90506000611bf188610f7160a0880160808901614ed2565b90506000611bff89806154df565b6000818110611c1057611c10615382565b9050602002810190611c229190615528565b611c2b90615ac3565b9050611c3f61012087016101008801615961565b60ff168360ff1614611c805760405162461bcd60e51b815260206004820152600a602482015269455f435046455f564d4d60b01b604482015260640161050c565b8560600135600003611cc05760008281526101976020526040902054600103611cbb5760405162461bcd60e51b815260040161050c9061597e565b611d0a565b611cd88961010001358260200151836040015161297d565b8160600151611ce791906159a3565b86606001351115611d0a5760405162461bcd60e51b815260040161050c9061597e565b428660e001351015611d4a5760405162461bcd60e51b8152602060048201526009602482015268455f435046455f454f60b81b604482015260640161050c565b61019460009054906101000a90046001600160a01b03166001600160a01b031663f815d6cf6040518163ffffffff1660e01b81526004016020604051808303816000875af1158015611da0573d6000803e3d6000fd5b505050506040513d601f19601f82011682018060405250810190611dc491906159b6565b61ffff16611dd860a08b0160808c01615acf565b61ffff161015611dfa5760405162461bcd60e51b815260040161050c906159d3565b60018360ff1610611eb55761019460009054906101000a90046001600160a01b03166001600160a01b031663f815d6cf6040518163ffffffff1660e01b81526004016020604051808303816000875af1158015611e5b573d6000803e3d6000fd5b505050506040513d601f19601f82011682018060405250810190611e7f91906159b6565b61ffff16611e9360c08b0160a08c01615acf565b61ffff161015611eb55760405162461bcd60e51b815260040161050c906159d3565b6322ba176160e21b611ecd60a0880160808901614ed2565b6001600160e01b03191603611fa157610194546001600160a01b0316635247385c611efe60c0890160a08a01614f26565b6040516001600160e01b031960e084901b1681526001600160a01b039091166004820152602401602060405180830381865afa158015611f42573d6000803e3d6000fd5b505050506040513d601f19601f82011682018060405250810190611f66919061549e565b611fa15760405162461bcd60e51b815260206004820152600c60248201526b455f435046455f4250544e5760a01b604482015260640161050c565b610100890135863514611fe35760405162461bcd60e51b815260206004820152600a60248201526922afa1a82322afa9a12760b11b604482015260640161050c565b6000611ff56060880160408901614f26565b6001600160a01b0316036120385760405162461bcd60e51b815260206004820152600a6024820152690455f435046455f4249560b41b604482015260640161050c565b60c086013560000361207a5760405162461bcd60e51b815260206004820152600b60248201526a0455f435046455f424f49560ac1b604482015260640161050c565b61208a6040870160208801614f26565b6001600160a01b03166120a360408b0160208c01614f26565b6001600160a01b0316036120e85760405162461bcd60e51b815260206004820152600c60248201526b455f435046455f434141425360a01b604482015260640161050c565b6120f860408a0160208b01614f26565b6001600160a01b031661214989898080601f016020809104026020016040519081016040528093929190818152602001838380828437600092019190915250610e7d9250879150610e429050612e88565b6001600160a01b03161461218c5760405162461bcd60e51b815260206004820152600a602482015269455f435046455f49535360b01b604482015260640161050c565b61019454604080516020601f88018190048102820181019092528681526001600160a01b0390921691634d4ed32c916121e991908990899081908401838280828437600092019190915250610e7d9250610e3a91508c9050613dd9565b6040516001600160e01b031960e084901b1681526001600160a01b039091166004820152602401602060405180830381865afa15801561222d573d6000803e3d6000fd5b505050506040513d601f19601f82011682018060405250810190612251919061549e565b61228a5760405162461bcd60e51b815260206004820152600a602482015269455f435046455f49505360b01b604482015260640161050c565b61229d6113e460a0880160808901614ed2565b15612771576122aa612f27565b60006122ca8a6122c060a08a0160808b01614ed2565b8960600135613618565b905063fdae1ba760e01b6122e460a0890160808a01614ed2565b6001600160e01b03191603612333578034101561232e5760405162461bcd60e51b81526020600482015260086024820152671157d157d391539560c21b604482015260640161050c565b6124d8565b6322ba176160e21b61234b60a0890160808a01614ed2565b6001600160e01b031916036124d857600061236c60c0890160a08a01614f26565b905060006001600160a01b03821663dd62ed3e61238f60608c0160408d01614f26565b6101955460405160e084901b6001600160e01b03191681526001600160a01b03928316600482015291166024820152604401602060405180830381865afa1580156123de573d6000803e3d6000fd5b505050506040513d601f19601f820116820180604052508101906124029190615aaa565b9050828110156124425760405162461bcd60e51b815260206004820152600b60248201526a0455f455f4e4545524332360ac1b604482015260640161050c565b600061244e84836159a3565b905080156124d457600060405180604001604052808c60400160208101906124769190614f26565b6001600160a01b0390811682526020918201859052868116600090815261019883526040812080546001808201835591835291849020855160029093020180546001600160a01b031916929093169190911782559290910151910155505b5050505b60006124ea60608c0160408d01614f26565b905060006124fe60a08d0160808e01615acf565b905060018660ff161015801561251b575060c084015160ff166001145b156125335761253060c08d0160a08e01615acf565b90505b600061271061254661ffff841686615a54565b6125509190615a6b565b90506125ab61019460009054906101000a90046001600160a01b03166001600160a01b031663707d18486040518163ffffffff1660e01b81526004016020604051808303816000875af115801561150b573d6000803e3d6000fd5b60006125ba86600001516137bc565b80156125ce57506000866080015161ffff16115b156126cf5760a08601516001600160a01b03811661265e5761019454602088015160405163342ce4cb60e11b81526001600160a01b039182166004820152911690636859c996906024016020604051808303816000875af1158015612637573d6000803e3d6000fd5b505050506040513d601f19601f8201168201806040525081019061265b9190615a8d565b90505b6001600160a01b0381166126a05760405162461bcd60e51b8152602060048201526009602482015268455f455f5046524e5360b81b604482015260640161050c565b6080870151612710906126b79061ffff1688615a54565b6126c19190615a6b565b91506126cd8183613717565b505b60c086015160009060ff166001036126e8575084612700565b816126f384886159a3565b6126fd91906159a3565b90505b600061270d88838c6137d2565b905061271f8682856116ad888c6159a3565b6127618d60800160000160208101906127389190614ed2565b8e608001602001602081019061274e9190614f26565b8f60400160208101906119779190614f26565b612769612f27565b505050505050505b6127b2816020015182604001518b60200160208101906127919190614f26565b6127a160408b0160208c01614f26565b8a60600135878f6101000135613a23565b5050600160cc5550505050505050565b609960006127ce6129e2565b6001600160a01b0316815260208101919091526040016000205460ff166128075760405162461bcd60e51b815260040161050c9061533c565b6105a481612bf9565b6099600061281c6129e2565b6001600160a01b0316815260208101919091526040016000205460ff166128555760405162461bcd60e51b815260040161050c9061533c565b610924613f4c565b609960006128696129e2565b6001600160a01b0316815260208101919091526040016000205460ff166128a25760405162461bcd60e51b815260040161050c9061533c565b6040516301ffc9a760e01b81526001600160a01b038216906301ffc9a7906128d590635a8c1c2960e01b90600401615489565b602060405180830381865afa1580156128f2573d6000803e3d6000fd5b505050506040513d601f19601f82011682018060405250810190612916919061549e565b6129325760405162461bcd60e51b815260040161050c906154c0565b61019680546001600160a01b0319166001600160a01b0383169081179091556040517f39753a6336ef533f6e1785dcab15abdacaf0467b09c6127c32053ad75bcefc6790600090a250565b600061019760008585856040516020016129b3939291909283526001600160a01b03919091166020830152604082015260600190565b6040516020818303038152906040528051906020012081526020019081526020016000205490505b9392505050565b60006129ec613f8a565b905090565b6001600160a01b038116600081815260996020908152604091829020805460ff1916905590519182527fa3b62bc36326052d97ea62d63c3d60308ed4c3ea8ac079dd8499f1e9c4f80c0f91015b60405180910390a150565b60996000612a556129e2565b6001600160a01b0316815260208101919091526040016000205460ff166105a45760405162461bcd60e51b815260040161050c9061533c565b7f4910fdfa16fed3260ed0e7147f7cc6da11a60208b5b9406d12a635614ffd91435460ff1615612ac15761067083613fce565b826001600160a01b03166352d1902d6040518163ffffffff1660e01b8152600401602060405180830381865afa925050508015612b1b575060408051601f3d908101601f19168201909252612b1891810190615aaa565b60015b612b7e5760405162461bcd60e51b815260206004820152602e60248201527f45524331393637557067726164653a206e657720696d706c656d656e7461746960448201526d6f6e206973206e6f74205555505360901b606482015260840161050c565b600080516020615e3d8339815191528114612bed5760405162461bcd60e51b815260206004820152602960248201527f45524331393637557067726164653a20756e737570706f727465642070726f786044820152681a58589b195555525160ba1b606482015260840161050c565b5061067083838361406a565b6001600160a01b038116612c635760405162461bcd60e51b815260206004820152602b60248201527f41646d696e3a61646441646d696e206e657741646d696e20697320746865207a60448201526a65726f206164647265737360a81b606482015260840161050c565b6001600160a01b038116600081815260996020908152604091829020805460ff1916600117905590519182527f44d6d25963f097ad14f29f06854a01f575648a1ef82f30e562ccd3889717e3399101612a3e565b612cbf61408f565b60fe805460ff191690557f5db9ee0a495bf2e6ff9c91a7834c1ba4fdd244a5e8aa4e537bd38aeae4b073aa612cf26129e2565b6040516001600160a01b03909116815260200160405180910390a1565b60fe5460ff16156109245760405162461bcd60e51b815260206004820152601060248201526f14185d5cd8589b194e881c185d5cd95960821b604482015260640161050c565b60007f1360cf8d0756f83b2bb71de5b69a1a23f9b8925d78f62b1efeaee73e0eb6da66612d8283806154df565b604051602001612d93929190615aec565b60405160208183030381529060405280519060200120836020016020810190612dbc9190614f26565b612dcc6060860160408701614f26565b612dd960608701876154df565b604051602001612dea929190615aec565b60405160208183030381529060405280519060200120612e0c876080016140d8565b60e0880135612e236101208a016101008b01615961565b6040805160208101999099528801969096526001600160a01b03948516606088015293909216608086015260a085015260c084015260e083015260ff16610100820152610120015b604051602081830303815290604052805190602001209050919050565b60006129ec7f8b73c3c69bb8fe3d512ecc4cf759cc79239f7b179b0ffacaa9a75d522b39400f612eb760015490565b6002546040805160208101859052908101839052606081018290524660808201523060a082015260009060c0016040516020818303038152906040528051906020012090509392505050565b6000806000612f128585614152565b91509150612f1f81614197565b509392505050565b60005b61019a54811015612f8557610199600061019a8381548110612f4e57612f4e615382565b60009182526020808320909101546001600160a01b0316835282019290925260400181205580612f7d816153d8565b915050612f2a565b5061092461019a6000614e5d565b600080612fa861014085016101208601615961565b9050612fb484806154df565b9050600114612ff45760405162461bcd60e51b815260206004820152600c60248201526b1157d0d4119157d254d3d05360a21b604482015260640161050c565b600061300085806154df565b600081811061301157613011615382565b90506020028101906130239190615528565b61302c90615ac3565b60208101519091506001600160a01b03166130775760405162461bcd60e51b815260206004820152600b60248201526a1157d0d4119157d4d0525560aa1b604482015260640161050c565b80516130829061434d565b6130bc5760405162461bcd60e51b815260206004820152600b60248201526a455f435046455f5341494f60a81b604482015260640161050c565b6060810151156131075760018260ff1610156131075760405162461bcd60e51b815260206004820152600a602482015269455f435046455f564e4360b01b604482015260640161050c565b60006131196040870160208801614f26565b6001600160a01b03160361315d5760405162461bcd60e51b815260206004820152600b60248201526a455f435046455f5349434f60a81b604482015260640161050c565b600061316f6060870160408801614f26565b6001600160a01b0316036131b35760405162461bcd60e51b815260206004820152600b60248201526a22afa1a82322afa9a4a82960a91b604482015260640161050c565b60008560c001351180156131cb5750428560c0013511155b6132045760405162461bcd60e51b815260206004820152600a602482015269455f435046455f53495360b01b604482015260640161050c565b60e085013515806132185750428560e00135115b6132515760405162461bcd60e51b815260206004820152600a602482015269455f435046455f53494560b01b604482015260640161050c565b8461010001356000036132935760405162461bcd60e51b815260206004820152600a60248201526922afa1a82322afa9a4a760b11b604482015260640161050c565b60e0810151511561343457806101000151518160e0015151146132e45760405162461bcd60e51b81526020600482015260096024820152681157d5949257d2549160ba1b604482015260640161050c565b6000805b8260e001515181101561339e57826101000151818151811061330c5761330c615382565b60200260200101518261331f9190615b15565b915060006001600160a01b03168360e00151828151811061334257613342615382565b60200260200101516001600160a01b03160361338c5760405162461bcd60e51b8152602060048201526009602482015268455f5652495f49524160b81b604482015260640161050c565b80613396816153d8565b9150506132e8565b5061ffff8116612710146133e35760405162461bcd60e51b815260206004820152600c60248201526b0455f5652495f52504e3130360a41b604482015260640161050c565b61271061ffff1682610120015161ffff1611156134325760405162461bcd60e51b815260206004820152600d60248201526c0455f5652495f534f504731303609c1b604482015260640161050c565b505b6000805b6134456060880188615b37565b90508110156135935761348961345e6060890189615b37565b8381811061346e5761346e615382565b6134849260206060909202019081019150614ed2565b614383565b6134c55760405162461bcd60e51b815260206004820152600d60248201526c455f435046455f5341504d504d60981b604482015260640161050c565b6134d26060880188615b37565b828181106134e2576134e2615382565b9050606002016040013560000361352b5760405162461bcd60e51b815260206004820152600d60248201526c0455f435046455f5341504d495609c1b604482015260640161050c565b6001600160c01b031986166135436060890189615b37565b8381811061355357613553615382565b6135699260206060909202019081019150614ed2565b6001600160e01b031916036135815760019150613593565b8061358b816153d8565b915050613438565b50806135cf5760405162461bcd60e51b815260206004820152600b60248201526a455f435046455f504d4e4d60a81b604482015260640161050c565b6135d8866143ef565b9695505050505050565b60006001600160e01b0319821663fdae1ba760e01b14806104c157506001600160e01b031982166322ba176160e21b1492915050565b600080805b61362a6060870187615b37565b90508110156136c0576001600160e01b0319851661364b6060880188615b37565b8381811061365b5761365b615382565b6136719260206060909202019081019150614ed2565b6001600160e01b031916036136ae5761368d6060870187615b37565b8281811061369d5761369d615382565b9050606002016040013591506136c0565b806136b8816153d8565b91505061361d565b50821561370f576136d185806154df565b60008181106136e2576136e2615382565b90506020028101906136f49190615528565b606001356137028483615a54565b61370c9190615a6b565b90505b949350505050565b8015610766576001600160a01b03821660009081526101996020526040812054900361378a5761019a80546001810182556000919091527fd994f4dad00f9ff89caab117647e768aa59b274f965a222ec6a1586aa6e26bcb0180546001600160a01b0319166001600160a01b0384161790555b6001600160a01b03821660009081526101996020526040812080548392906137b3908490615a41565b90915550505050565b6001600160e01b03191663163b6d3b60e21b1490565b61019654602084015160408086015160c08701519151634287115760e01b81526001600160a01b03938416600482015260248101919091526044810186905260ff909116606482015260009283926060928392859216906342871157906084016000604051808303816000875af1158015613851573d6000803e3d6000fd5b505050506040513d6000823e601f3d908101601f191682016040526138799190810190615be5565b91945092509050600260ff87161080159061389357508251155b80156138a4575060008860e0015151115b156139a95760e088015160c0890151909350879060ff166001036138e757610120890151612710906138da9061ffff168a615a54565b6138e49190615a6b565b90505b83516001600160401b0381111561390057613900615001565b604051908082528060200260200182016040528015613929578160200160208202803683370190505b50925060005b84518110156139a65761271061ffff168a6101000151828151811061395657613956615382565b602002602001015161ffff168361396d9190615a54565b6139779190615a6b565b84828151811061398957613989615382565b60209081029190910101528061399e816153d8565b91505061392f565b50505b60005b8351811015613a165760008382815181106139c9576139c9615382565b602002602001015190506139f68583815181106139e8576139e8615382565b602002602001015182613717565b613a008187615a41565b9550508080613a0e906153d8565b9150506139ac565b5092979650505050505050565b6040516301ffc9a760e01b81526001600160a01b038816906301ffc9a790613a56906380ac58cd60e01b90600401615489565b602060405180830381865afa158015613a73573d6000803e3d6000fd5b505050506040513d601f19601f82011682018060405250810190613a97919061549e565b15613b155761019554604051637b84dc8360e11b81526001600160a01b039091169063f709b90690613ad3908a90899089908c90600401615398565b600060405180830381600087803b158015613aed57600080fd5b505af1158015613b01573d6000803e3d6000fd5b50505050613b1082600161466b565b613c4d565b6040516301ffc9a760e01b81526001600160a01b038816906301ffc9a790613b4890636cdb3d1360e11b90600401615489565b602060405180830381865afa158015613b65573d6000803e3d6000fd5b505050506040513d601f19601f82011682018060405250810190613b89919061549e565b15613c1d57610195546040805180820182526002815261060f60f31b60208201529051639c1c2ee960e01b81526001600160a01b0390921691639c1c2ee991613bdf918b918a918a918d918b9190600401615d09565b600060405180830381600087803b158015613bf957600080fd5b505af1158015613c0d573d6000803e3d6000fd5b50505050613b108188888661468a565b60405162461bcd60e51b81526020600482015260056024820152641157d5505560da1b604482015260640161050c565b85876001600160a01b0316827f052aa775128ed1cbbd47b4948be31a03a0e96f23361fbabd94fde8e24aedfb0386604051613c8a91815260200190565b60405180910390a450505050505050565b60005b61019a54811015613dd357600061019a8281548110613cbf57613cbf615382565b60009182526020808320909101546001600160a01b0316808352610199909152604090912054909150630251e45960e01b6001600160e01b0319871601613d3c576040516001600160a01b0383169082156108fc029083906000818181858888f19350505050158015613d36573d6000803e3d6000fd5b50613dbe565b631d45e89f60e21b6001600160e01b0319871601613dbe576101955460405163776062c360e01b81526001600160a01b039091169063776062c390613d8b908890889087908790600401615398565b600060405180830381600087803b158015613da557600080fd5b505af1158015613db9573d6000803e3d6000fd5b505050505b50508080613dcb906153d8565b915050613c9e565b50505050565b6000613ded61012083016101008401615961565b60ff16600003613e84577f16533b1a2b574048998c15c61696aff2836a5106c01e21954538cf393cf8124a8235613e2a6040850160208601614f26565b613e3a6060860160408701614f26565b613e46866080016140d8565b6040805160208101969096528501939093526001600160a01b03918216606085015216608083015260a082015260e08084013560c083015201612e6b565b613e9661012083016101008401615961565b60ff1660011480613ebb5750613eb461012083016101008401615961565b60ff166002145b15613f14577f02e75952f6dbd570765759927f425880efe915c78b4351b9f010366a3a15f8e08235613ef36040850160208601614f26565b613f036060860160408701614f26565b8560600135612e0c876080016140d8565b60405162461bcd60e51b815260206004820152600860248201526722afa7a219afa4ab60c11b604482015260640161050c565b919050565b613f54612d0f565b60fe805460ff191660011790557f62e78cea01bee320cd4e420270b5ea74000d11b0c9f74754ebdbfc544b05a258612cf26129e2565b60007f00000000000000000000000000000000000000000000000000000000000000006001600160a01b03163303613fc9575060131936013560601c90565b503390565b6001600160a01b0381163b61403b5760405162461bcd60e51b815260206004820152602d60248201527f455243313936373a206e657720696d706c656d656e746174696f6e206973206e60448201526c1bdd08184818dbdb9d1c9858dd609a1b606482015260840161050c565b600080516020615e3d83398151915280546001600160a01b0319166001600160a01b0392909216919091179055565b614073836146fd565b6000825111806140805750805b1561067057613dd3838361473d565b60fe5460ff166109245760405162461bcd60e51b815260206004820152601460248201527314185d5cd8589b194e881b9bdd081c185d5cd95960621b604482015260640161050c565b60007f5b442961536b72a0442e9a53df012289ed70f5c860457d810d2c17836bd8bdce6141086020840184614ed2565b6141186040850160208601614f26565b6040805160208101949094526001600160e01b0319909216838301526001600160a01b03166060830152830135608082015260a001612e6b565b60008082516041036141885760208301516040840151606085015160001a61417c87828585614831565b94509450505050614190565b506000905060025b9250929050565b60008160048111156141ab576141ab615d57565b036141b35750565b60018160048111156141c7576141c7615d57565b036142145760405162461bcd60e51b815260206004820152601860248201527f45434453413a20696e76616c6964207369676e61747572650000000000000000604482015260640161050c565b600281600481111561422857614228615d57565b036142755760405162461bcd60e51b815260206004820152601f60248201527f45434453413a20696e76616c6964207369676e6174757265206c656e67746800604482015260640161050c565b600381600481111561428957614289615d57565b036142e15760405162461bcd60e51b815260206004820152602260248201527f45434453413a20696e76616c6964207369676e6174757265202773272076616c604482015261756560f01b606482015260840161050c565b60048160048111156142f5576142f5615d57565b036105a45760405162461bcd60e51b815260206004820152602260248201527f45434453413a20696e76616c6964207369676e6174757265202776272076616c604482015261756560f01b606482015260840161050c565b60006001600160e01b03198216639e80de3760e01b14806104c157506001600160e01b0319821663163b6d3b60e21b1492915050565b60006001600160e01b0319821663fdae1ba760e01b14806143b457506001600160e01b031982166322ba176160e21b145b806143cf57506001600160e01b03198216633ecaa07960e21b145b806104c157506001600160e01b0319821663d5a81f1960e01b1492915050565b600061440361014083016101208401615961565b60ff166000036144fd577f39b77601008263a7668e3e906fb7170db776f21b4b101c313e63194c888f361d61445261443b84806154df565b61444d61014087016101208801615961565b61491e565b6144626040850160208601614f26565b6144726060860160408701614f26565b6144876144826060880188615b37565b6149fe565b61449760a0880160808901615acf565b6040805160208101979097528601949094526001600160a01b0392831660608601529116608084015260a083015261ffff1660c08281019190915283013560e0828101919091528301356101008281019190915283013561012082015261014001612e6b565b61450f61014083016101208401615961565b60ff16600103614621577fd7db0db2ef492c99933d7c642ebe5da2a1b81a50be6ba5b0752806cad27c3cc161454761443b84806154df565b6145576040850160208601614f26565b6145676060860160408701614f26565b6145776144826060880188615b37565b61458760a0880160808901615acf565b61459760c0890160a08a01615acf565b60c089013560e08a01356101008b01356145b96101408d016101208e01615961565b60408051602081019c909c528b01999099526001600160a01b0397881660608b015296909516608089015260a088019390935261ffff91821660c08801521660e086015261010085015261012084015261014083015260ff1661016082015261018001612e6b565b61463361014083016101208401615961565b60ff16600203613f14577f9f4eecad4a60dff4b37449aceb09bdac950063fc93d795c35ece8212883dffe261454761443b84806154df565b60008281526101976020526040812080548392906137b3908490615a41565b8061019760008686866040516020016146bf939291909283526001600160a01b03919091166020830152604082015260600190565b60405160208183030381529060405280519060200120815260200190815260200160002060008282546146f29190615a41565b909155505050505050565b61470681613fce565b6040516001600160a01b038216907fbc7cd75a20ee27fd9adebab32041f755214dbc6bffa90cc0225b39da2e5c2d3b90600090a250565b60606001600160a01b0383163b6147a55760405162461bcd60e51b815260206004820152602660248201527f416464726573733a2064656c65676174652063616c6c20746f206e6f6e2d636f6044820152651b9d1c9858dd60d21b606482015260840161050c565b600080846001600160a01b0316846040516147c09190615d6d565b600060405180830381855af49150503d80600081146147fb576040519150601f19603f3d011682016040523d82523d6000602084013e614800565b606091505b50915091506148288282604051806060016040528060278152602001615e5d60279139614ad0565b95945050505050565b6000807f7fffffffffffffffffffffffffffffff5d576e7357a4501ddfe92f46681b20a08311156148685750600090506003614915565b8460ff16601b1415801561488057508460ff16601c14155b156148915750600090506004614915565b6040805160008082526020820180845289905260ff881692820192909252606081018690526080810185905260019060a0016020604051602081039080840390855afa1580156148e5573d6000803e3d6000fd5b5050604051601f1901519150506001600160a01b03811661490e57600060019250925050614915565b9150600090505b94509492505050565b600080836001600160401b0381111561493957614939615001565b604051908082528060200260200182016040528015614962578160200160208202803683370190505b50905060005b848110156149cc5761499d86868381811061498557614985615382565b90506020028101906149979190615528565b85614b09565b8282815181106149af576149af615382565b6020908102919091010152806149c4816153d8565b915050614968565b50806040516020016149de9190615d7f565b604051602081830303815290604052805190602001209150509392505050565b600080826001600160401b03811115614a1957614a19615001565b604051908082528060200260200182016040528015614a42578160200160208202803683370190505b50905060005b83811015614a9f57614a70858583818110614a6557614a65615382565b9050606002016140d8565b828281518110614a8257614a82615382565b602090810291909101015280614a97816153d8565b915050614a48565b5080604051602001614ab19190615d7f565b6040516020818303038152906040528051906020012091505092915050565b60608315614adf5750816129db565b825115614aef5782518084602001fd5b8160405162461bcd60e51b815260040161050c9190615db5565b60008160ff16600003614bdf577fda89efe36e8d4174abec2b392e28fde5f06a39ea80761619c7690bf866064524614b446020850185614ed2565b614b546040860160208701614f26565b6040860135614b6960a0880160808901615acf565b614b7960e0890160c08a01615961565b6040805160208101979097526001600160e01b0319909516948601949094526001600160a01b039092166060850152608084015261ffff1660a083015260ff1660c082015260e0015b6040516020818303038152906040528051906020012090506104c1565b8160ff16600103614cc2577f711444f222b4586ccfaca2037481d3fab181017c88fc21fb2f78909a6953ba06614c186020850185614ed2565b614c286040860160208701614f26565b60408601356060870135614c4260a0890160808a01615acf565b614c5260c08a0160a08b01614f26565b614c6260e08b0160c08c01615961565b6040805160208101999099526001600160e01b0319909716968801969096526001600160a01b039485166060880152608087019390935260a086019190915261ffff1660c08501521660e083015260ff1661010082015261012001614bc2565b8160ff16600203613f14577fbd60107b487bdfeb3ec8fcbfe07542913ceca85dc095c07f5cb6b97d028573cd614cfb6020850185614ed2565b614d0b6040860160208701614f26565b60408601356060870135614d2560a0890160808a01615acf565b614d3560c08a0160a08b01614f26565b614d4560e08b0160c08c01615961565b614d5260e08c018c6154df565b604051602001614d63929190615dc8565b60408051601f198184030181529190528051602090910120614d896101008d018d6154df565b604051602001614d9a929190615e0a565b60408051601f198184030181529190528051602090910120614dc46101408e016101208f01615acf565b60408051602081019c909c526001600160e01b0319909a16998b01999099526001600160a01b0397881660608b015260808a019690965260a089019490945261ffff92831660c0890152941660e087015260ff9093166101008601526101208501526101408401521661016082015261018001614bc2565b50805460008255600202906000526020600020908101906105a49190614e7b565b50805460008255906000526020600020908101906105a49190614ea5565b5b80821115614ea15780546001600160a01b031916815560006001820155600201614e7c565b5090565b5b80821115614ea15760008155600101614ea6565b80356001600160e01b031981168114613f4757600080fd5b600060208284031215614ee457600080fd5b6129db82614eba565b600060208284031215614eff57600080fd5b5035919050565b6001600160a01b03811681146105a457600080fd5b8035613f4781614f06565b600060208284031215614f3857600080fd5b81356129db81614f06565b60008060408385031215614f5657600080fd5b8235614f6181614f06565b91506020830135614f7181614f06565b809150509250929050565b60008083601f840112614f8e57600080fd5b5081356001600160401b03811115614fa557600080fd5b6020830191508360208260051b850101111561419057600080fd5b60008060208385031215614fd357600080fd5b82356001600160401b03811115614fe957600080fd5b614ff585828601614f7c565b90969095509350505050565b634e487b7160e01b600052604160045260246000fd5b60405161014081016001600160401b038111828210171561503a5761503a615001565b60405290565b604051606081016001600160401b038111828210171561503a5761503a615001565b604051601f8201601f191681016001600160401b038111828210171561508a5761508a615001565b604052919050565b600080604083850312156150a557600080fd5b82356150b081614f06565b91506020838101356001600160401b03808211156150cd57600080fd5b818601915086601f8301126150e157600080fd5b8135818111156150f3576150f3615001565b615105601f8201601f19168501615062565b9150808252878482850101111561511b57600080fd5b80848401858401376000848284010152508093505050509250929050565b6000610120828403121561514c57600080fd5b50919050565b60008083601f84011261516457600080fd5b5081356001600160401b0381111561517b57600080fd5b60208301915083602082850101111561419057600080fd5b60008060008060008060006080888a0312156151ae57600080fd5b87356001600160401b03808211156151c557600080fd5b6151d18b838c01614f7c565b909950975060208a01359150808211156151ea57600080fd5b6151f68b838c01614f7c565b909750955060408a013591508082111561520f57600080fd5b61521b8b838c01615139565b945060608a013591508082111561523157600080fd5b5061523e8a828b01615152565b989b979a50959850939692959293505050565b600080600080600080610180878903121561526b57600080fd5b86356001600160401b038082111561528257600080fd5b90880190610140828b03121561529757600080fd5b909650602088013590808211156152ad57600080fd5b6152b98a838b01615152565b90975095508591506152ce8a60408b01615139565b94506101608901359150808211156152e557600080fd5b506152f289828a01615152565b979a9699509497509295939492505050565b60008060006060848603121561531957600080fd5b83359250602084013561532b81614f06565b929592945050506040919091013590565b60208082526026908201527f41646d696e3a6f6e6c7941646d696e2063616c6c6572206973206e6f7420616e6040820152651020b236b4b760d11b606082015260800190565b634e487b7160e01b600052603260045260246000fd5b6001600160a01b039485168152928416602084015292166040820152606081019190915260800190565b634e487b7160e01b600052601160045260246000fd5b6000600182016153ea576153ea6153c2565b5060010190565b6020808252602c908201527f46756e6374696f6e206d7573742062652063616c6c6564207468726f7567682060408201526b19195b1959d85d1958d85b1b60a21b606082015260800190565b6020808252602c908201527f46756e6374696f6e206d7573742062652063616c6c6564207468726f7567682060408201526b6163746976652070726f787960a01b606082015260800190565b6001600160e01b031991909116815260200190565b6000602082840312156154b057600080fd5b815180151581146129db57600080fd5b602080825260059082015264455f494e5360d81b604082015260600190565b6000808335601e198436030181126154f657600080fd5b8301803591506001600160401b0382111561551057600080fd5b6020019150600581901b360382131561419057600080fd5b6000823561013e1983360301811261553f57600080fd5b9190910192915050565b60006001600160401b0382111561556257615562615001565b5060051b60200190565b61ffff811681146105a457600080fd5b8035613f478161556c565b60ff811681146105a457600080fd5b8035613f4781615587565b600082601f8301126155b257600080fd5b813560206155c76155c283615549565b615062565b82815260059290921b840181019181810190868411156155e657600080fd5b8286015b8481101561560a5780356155fd81614f06565b83529183019183016155ea565b509695505050505050565b600082601f83011261562657600080fd5b813560206156366155c283615549565b82815260059290921b8401810191818101908684111561565557600080fd5b8286015b8481101561560a57803561566c8161556c565b8352918301918301615659565b6000610140828403121561568c57600080fd5b615694615017565b905061569f82614eba565b81526156ad60208301614f1b565b602082015260408201356040820152606082013560608201526156d26080830161557c565b60808201526156e360a08301614f1b565b60a08201526156f460c08301615596565b60c082015260e08201356001600160401b038082111561571357600080fd5b61571f858386016155a1565b60e08401526101009150818401358181111561573a57600080fd5b61574686828701615615565b8385015250505061012061575b81840161557c565b9082015292915050565b600082601f83011261577657600080fd5b813560206157866155c283615549565b82815260059290921b840181019181810190868411156157a557600080fd5b8286015b8481101561560a5780356001600160401b038111156157c85760008081fd5b6157d68986838b0101615679565b8452509183019183016157a9565b600082601f8301126157f557600080fd5b813560206158056155c283615549565b8281526060928302850182019282820191908785111561582457600080fd5b8387015b8581101561587b5781818a0312156158405760008081fd5b615848615040565b61585182614eba565b81528582013561586081614f06565b81870152604082810135908201528452928401928101615828565b5090979650505050505050565b6000610140823603121561589b57600080fd5b6158a3615017565b82356001600160401b03808211156158ba57600080fd5b6158c636838701615765565b83526158d460208601614f1b565b60208401526158e560408601614f1b565b604084015260608501359150808211156158fe57600080fd5b5061590b368286016157e4565b60608301525061591d6080840161557c565b608082015261592e60a0840161557c565b60a082015260c083013560c082015260e083013560e082015261010080840135818301525061012061575b818501615596565b60006020828403121561597357600080fd5b81356129db81615587565b6020808252600b908201526a1157d0d4119157d4d3d31160aa1b604082015260600190565b818103818111156104c1576104c16153c2565b6000602082840312156159c857600080fd5b81516129db8161556c565b6020808252600e908201526d1157d0d4119157d4d4119315131360921b604082015260600190565b6000808335601e19843603018112615a1257600080fd5b8301803591506001600160401b03821115615a2c57600080fd5b60200191503681900382131561419057600080fd5b808201808211156104c1576104c16153c2565b80820281158282048414176104c1576104c16153c2565b600082615a8857634e487b7160e01b600052601260045260246000fd5b500490565b600060208284031215615a9f57600080fd5b81516129db81614f06565b600060208284031215615abc57600080fd5b5051919050565b60006104c13683615679565b600060208284031215615ae157600080fd5b81356129db8161556c565b60006001600160fb1b03831115615b0257600080fd5b8260051b80858437919091019392505050565b61ffff818116838216019080821115615b3057615b306153c2565b5092915050565b6000808335601e19843603018112615b4e57600080fd5b8301803591506001600160401b03821115615b6857600080fd5b602001915060608102360382131561419057600080fd5b600082601f830112615b9057600080fd5b81516020615ba06155c283615549565b82815260059290921b84018101918181019086841115615bbf57600080fd5b8286015b8481101561560a5780518352918301918301615bc3565b8051613f4781615587565b600080600060608486031215615bfa57600080fd5b83516001600160401b0380821115615c1157600080fd5b818601915086601f830112615c2557600080fd5b81516020615c356155c283615549565b82815260059290921b8401810191818101908a841115615c5457600080fd5b948201945b83861015615c7b578551615c6c81614f06565b82529482019490820190615c59565b91890151919750909350505080821115615c9457600080fd5b50615ca186828701615b7f565b925050615cb060408501615bda565b90509250925092565b60005b83811015615cd4578181015183820152602001615cbc565b50506000910152565b60008151808452615cf5816020860160208601615cb9565b601f01601f19169290920160200192915050565b6001600160a01b038781168252868116602083015285166040820152606081018490526080810183905260c060a08201819052600090615d4b90830184615cdd565b98975050505050505050565b634e487b7160e01b600052602160045260246000fd5b6000825161553f818460208701615cb9565b815160009082906020808601845b83811015615da957815185529382019390820190600101615d8d565b50929695505050505050565b6020815260006129db6020830184615cdd565b60008184825b85811015615dff578135615de181614f06565b6001600160a01b031683526020928301929190910190600101615dce565b509095945050505050565b60008184825b85811015615dff578135615e238161556c565b61ffff1683526020928301929190910190600101615e1056fe360894a13ba1a3210667c828492db98dca3e2076cc3735a920a3ca505d382bbc416464726573733a206c6f772d6c6576656c2064656c65676174652063616c6c206661696c6564a26469706673582212205a1f6ae3f7080e96bf87661c1db2b8f7f07ba9005e8b98b23d52cbc0493e9d2064736f6c63430008130033",
  "linkReferences": {},
  "deployedLinkReferences": {}
}