{
  "_format": "hh-sol-artifact-1",
  "contractName": "SBINFTForwarder",
  "sourceName": "contracts/sbinft/meta-tx/v1/SBINFTForwarder.sol",
  "abi": [
    {
      "anonymous": false,
      "inputs": [
        {
          "indexed": false,
          "internalType": "address",
          "name": "previousAdmin",
          "type": "address"
        },
        {
          "indexed": false,
          "internalType": "address",
          "name": "newAdmin",
          "type": "address"
        }
      ],
      "name": "AdminChanged",
      "type": "event"
    },
    {
      "anonymous": false,
      "inputs": [
        {
          "indexed": true,
          "internalType": "address",
          "name": "beacon",
          "type": "address"
        }
      ],
      "name": "BeaconUpgraded",
      "type": "event"
    },
    {
      "anonymous": false,
      "inputs": [
        {
          "indexed": false,
          "internalType": "uint8",
          "name": "version",
          "type": "uint8"
        }
      ],
      "name": "Initialized",
      "type": "event"
    },
    {
      "anonymous": false,
      "inputs": [
        {
          "indexed": true,
          "internalType": "address",
          "name": "previousOwner",
          "type": "address"
        },
        {
          "indexed": true,
          "internalType": "address",
          "name": "newOwner",
          "type": "address"
        }
      ],
      "name": "OwnershipTransferred",
      "type": "event"
    },
    {
      "anonymous": false,
      "inputs": [
        {
          "indexed": true,
          "internalType": "address",
          "name": "implementation",
          "type": "address"
        }
      ],
      "name": "Upgraded",
      "type": "event"
    },
    {
      "inputs": [],
      "name": "__SBINFTForwarder_init",
      "outputs": [],
      "stateMutability": "nonpayable",
      "type": "function"
    },
    {
      "inputs": [
        {
          "components": [
            {
              "internalType": "address",
              "name": "from",
              "type": "address"
            },
            {
              "internalType": "address",
              "name": "to",
              "type": "address"
            },
            {
              "internalType": "uint256",
              "name": "value",
              "type": "uint256"
            },
            {
              "internalType": "uint256",
              "name": "gas",
              "type": "uint256"
            },
            {
              "internalType": "uint256",
              "name": "nonce",
              "type": "uint256"
            },
            {
              "internalType": "bytes",
              "name": "data",
              "type": "bytes"
            }
          ],
          "internalType": "struct SBINFTForwarder.ForwardRequest",
          "name": "req",
          "type": "tuple"
        },
        {
          "internalType": "bytes",
          "name": "signature",
          "type": "bytes"
        }
      ],
      "name": "execute",
      "outputs": [
        {
          "internalType": "bool",
          "name": "",
          "type": "bool"
        },
        {
          "internalType": "bytes",
          "name": "",
          "type": "bytes"
        }
      ],
      "stateMutability": "payable",
      "type": "function"
    },
    {
      "inputs": [],
      "name": "owner",
      "outputs": [
        {
          "internalType": "address",
          "name": "",
          "type": "address"
        }
      ],
      "stateMutability": "view",
      "type": "function"
    },
    {
      "inputs": [],
      "name": "proxiableUUID",
      "outputs": [
        {
          "internalType": "bytes32",
          "name": "",
          "type": "bytes32"
        }
      ],
      "stateMutability": "view",
      "type": "function"
    },
    {
      "inputs": [],
      "name": "renounceOwnership",
      "outputs": [],
      "stateMutability": "nonpayable",
      "type": "function"
    },
    {
      "inputs": [
        {
          "internalType": "address",
          "name": "newOwner",
          "type": "address"
        }
      ],
      "name": "transferOwnership",
      "outputs": [],
      "stateMutability": "nonpayable",
      "type": "function"
    },
    {
      "inputs": [
        {
          "internalType": "address",
          "name": "newImplementation",
          "type": "address"
        }
      ],
      "name": "upgradeTo",
      "outputs": [],
      "stateMutability": "nonpayable",
      "type": "function"
    },
    {
      "inputs": [
        {
          "internalType": "address",
          "name": "newImplementation",
          "type": "address"
        },
        {
          "internalType": "bytes",
          "name": "data",
          "type": "bytes"
        }
      ],
      "name": "upgradeToAndCall",
      "outputs": [],
      "stateMutability": "payable",
      "type": "function"
    },
    {
      "inputs": [
        {
          "components": [
            {
              "internalType": "address",
              "name": "from",
              "type": "address"
            },
            {
              "internalType": "address",
              "name": "to",
              "type": "address"
            },
            {
              "internalType": "uint256",
              "name": "value",
              "type": "uint256"
            },
            {
              "internalType": "uint256",
              "name": "gas",
              "type": "uint256"
            },
            {
              "internalType": "uint256",
              "name": "nonce",
              "type": "uint256"
            },
            {
              "internalType": "bytes",
              "name": "data",
              "type": "bytes"
            }
          ],
          "internalType": "struct SBINFTForwarder.ForwardRequest",
          "name": "req",
          "type": "tuple"
        },
        {
          "internalType": "bytes",
          "name": "signature",
          "type": "bytes"
        }
      ],
      "name": "verify",
      "outputs": [
        {
          "internalType": "bool",
          "name": "",
          "type": "bool"
        }
      ],
      "stateMutability": "view",
      "type": "function"
    }
  ],
  "bytecode": "0x60a06040523060805234801561001457600080fd5b5060805161170b61004c6000396000818161032301528181610363015281816106190152818161065901526106ec015261170b6000f3fe6080604052600436106100865760003560e01c806352d1902d1161005957806352d1902d146100ff578063715018a6146101225780638da5cb5b14610137578063bf5d3bdb1461015f578063f2fde38b1461018f57600080fd5b806301618f851461008b5780633659cfe6146100a257806347153f82146100c25780634f1ef286146100ec575b600080fd5b34801561009757600080fd5b506100a06101af565b005b3480156100ae57600080fd5b506100a06100bd3660046112a9565b610319565b6100d56100d03660046112c4565b6103f5565b6040516100e39291906113b3565b60405180910390f35b6100a06100fa3660046113ec565b61060f565b34801561010b57600080fd5b506101146106df565b6040519081526020016100e3565b34801561012e57600080fd5b506100a0610792565b34801561014357600080fd5b506067546040516001600160a01b0390911681526020016100e3565b34801561016b57600080fd5b5061017f61017a3660046112c4565b6107a6565b60405190151581526020016100e3565b34801561019b57600080fd5b506100a06101aa3660046112a9565b6108e7565b600054610100900460ff16158080156101cf5750600054600160ff909116105b806101e95750303b1580156101e9575060005460ff166001145b6102515760405162461bcd60e51b815260206004820152602e60248201527f496e697469616c697a61626c653a20636f6e747261637420697320616c72656160448201526d191e481a5b9a5d1a585b1a5e995960921b60648201526084015b60405180910390fd5b6000805460ff191660011790558015610274576000805461ff0019166101001790555b61027c61095d565b6102c86040518060400160405280600f81526020016e29a124a7232a2337b93bb0b93232b960891b815250604051806040016040528060038152602001620312e360ec1b81525061098c565b6102d06109bd565b8015610316576000805461ff0019169055604051600181527f7f26b83ff96e1f2b6a682f133852f6798a09c465da95921460cefb38474024989060200160405180910390a15b50565b6001600160a01b037f00000000000000000000000000000000000000000000000000000000000000001630036103615760405162461bcd60e51b8152600401610248906114ae565b7f00000000000000000000000000000000000000000000000000000000000000006001600160a01b03166103aa60008051602061168f833981519152546001600160a01b031690565b6001600160a01b0316146103d05760405162461bcd60e51b8152600401610248906114fa565b6103d9816109e4565b60408051600080825260208201909252610316918391906109ec565b600060606104048585856107a6565b61046a5760405162461bcd60e51b815260206004820152603160248201527f5342494e4654466f727761726465723a207369676e617475726520646f6573206044820152701b9bdd081b585d18da081c995c5d595cdd607a1b6064820152608401610248565b84604001353410156104ca5760405162461bcd60e51b8152602060048201526024808201527f5342494e4654466f727761726465723a206e6f7420656e6f75676820455448206044820152631cd95b9d60e21b6064820152608401610248565b6000806104dd60408801602089016112a9565b6001600160a01b0316606088013560408901356104fd60a08b018b611546565b61050a60208d018d6112a9565b60405160200161051c9392919061158d565b60408051601f1981840301815290829052610536916115b3565b600060405180830381858888f193505050503d8060008114610574576040519150601f19603f3d011682016040523d82523d6000602084013e610579565b606091505b5090925090508115156000036105ec578051156105995780518082602001fd5b60405162461bcd60e51b815260206004820152602260248201527f5342494e4654466f727761726465723a206661696c656420746f206578656375604482015261746560f01b6064820152608401610248565b6105fb603f60608901356115cf565b5a1161060357fe5b90969095509350505050565b6001600160a01b037f00000000000000000000000000000000000000000000000000000000000000001630036106575760405162461bcd60e51b8152600401610248906114ae565b7f00000000000000000000000000000000000000000000000000000000000000006001600160a01b03166106a060008051602061168f833981519152546001600160a01b031690565b6001600160a01b0316146106c65760405162461bcd60e51b8152600401610248906114fa565b6106cf826109e4565b6106db828260016109ec565b5050565b6000306001600160a01b037f0000000000000000000000000000000000000000000000000000000000000000161461077f5760405162461bcd60e51b815260206004820152603860248201527f555550535570677261646561626c653a206d757374206e6f742062652063616c60448201527f6c6564207468726f7567682064656c656761746563616c6c00000000000000006064820152608401610248565b5060008051602061168f83398151915290565b61079a610b5c565b6107a46000610bb6565b565b6000806108b984848080601f0160208091040260200160405190810160405280939291908181526020018383808284376000920191909152506108b392507fdd8f4b70b0f4393e889bd39128a30628a78b61816a9eb8199759e7a349657e489150610816905060208a018a6112a9565b61082660408b0160208c016112a9565b60408b013560608c013560808d013561084260a08f018f611546565b6040516108509291906115f1565b6040805191829003822060208301989098526001600160a01b0396871690820152949093166060850152608084019190915260a083015260c082015260e08101919091526101000160405160208183030381529060405280519060200120610c08565b90610c5c565b90506108c860208601866112a9565b6001600160a01b0316816001600160a01b0316149150505b9392505050565b6108ef610b5c565b6001600160a01b0381166109545760405162461bcd60e51b815260206004820152602660248201527f4f776e61626c653a206e6577206f776e657220697320746865207a65726f206160448201526564647265737360d01b6064820152608401610248565b61031681610bb6565b600054610100900460ff166109845760405162461bcd60e51b815260040161024890611601565b6107a4610c80565b600054610100900460ff166109b35760405162461bcd60e51b815260040161024890611601565b6106db8282610cb0565b600054610100900460ff166107a45760405162461bcd60e51b815260040161024890611601565b610316610b5c565b7f4910fdfa16fed3260ed0e7147f7cc6da11a60208b5b9406d12a635614ffd91435460ff1615610a2457610a1f83610cf1565b505050565b826001600160a01b03166352d1902d6040518163ffffffff1660e01b8152600401602060405180830381865afa925050508015610a7e575060408051601f3d908101601f19168201909252610a7b9181019061164c565b60015b610ae15760405162461bcd60e51b815260206004820152602e60248201527f45524331393637557067726164653a206e657720696d706c656d656e7461746960448201526d6f6e206973206e6f74205555505360901b6064820152608401610248565b60008051602061168f8339815191528114610b505760405162461bcd60e51b815260206004820152602960248201527f45524331393637557067726164653a20756e737570706f727465642070726f786044820152681a58589b195555525160ba1b6064820152608401610248565b50610a1f838383610d8d565b6067546001600160a01b031633146107a45760405162461bcd60e51b815260206004820181905260248201527f4f776e61626c653a2063616c6c6572206973206e6f7420746865206f776e65726044820152606401610248565b606780546001600160a01b038381166001600160a01b0319831681179093556040519116919082907f8be0079c531659141344cd1fd0a4f28419497f9722a3daafe3b4186f6b6457e090600090a35050565b6000610c56610c15610db8565b8360405161190160f01b6020820152602281018390526042810182905260009060620160405160208183030381529060405280519060200120905092915050565b92915050565b6000806000610c6b8585610e38565b91509150610c7881610e7d565b509392505050565b600054610100900460ff16610ca75760405162461bcd60e51b815260040161024890611601565b6107a433610bb6565b600054610100900460ff16610cd75760405162461bcd60e51b815260040161024890611601565b815160209283012081519190920120600191909155600255565b6001600160a01b0381163b610d5e5760405162461bcd60e51b815260206004820152602d60248201527f455243313936373a206e657720696d706c656d656e746174696f6e206973206e60448201526c1bdd08184818dbdb9d1c9858dd609a1b6064820152608401610248565b60008051602061168f83398151915280546001600160a01b0319166001600160a01b0392909216919091179055565b610d9683611033565b600082511180610da35750805b15610a1f57610db28383611073565b50505050565b6000610e337f8b73c3c69bb8fe3d512ecc4cf759cc79239f7b179b0ffacaa9a75d522b39400f610de760015490565b6002546040805160208101859052908101839052606081018290524660808201523060a082015260009060c0016040516020818303038152906040528051906020012090509392505050565b905090565b6000808251604103610e6e5760208301516040840151606085015160001a610e6287828585611167565b94509450505050610e76565b506000905060025b9250929050565b6000816004811115610e9157610e91611665565b03610e995750565b6001816004811115610ead57610ead611665565b03610efa5760405162461bcd60e51b815260206004820152601860248201527f45434453413a20696e76616c6964207369676e617475726500000000000000006044820152606401610248565b6002816004811115610f0e57610f0e611665565b03610f5b5760405162461bcd60e51b815260206004820152601f60248201527f45434453413a20696e76616c6964207369676e6174757265206c656e677468006044820152606401610248565b6003816004811115610f6f57610f6f611665565b03610fc75760405162461bcd60e51b815260206004820152602260248201527f45434453413a20696e76616c6964207369676e6174757265202773272076616c604482015261756560f01b6064820152608401610248565b6004816004811115610fdb57610fdb611665565b036103165760405162461bcd60e51b815260206004820152602260248201527f45434453413a20696e76616c6964207369676e6174757265202776272076616c604482015261756560f01b6064820152608401610248565b61103c81610cf1565b6040516001600160a01b038216907fbc7cd75a20ee27fd9adebab32041f755214dbc6bffa90cc0225b39da2e5c2d3b90600090a250565b60606001600160a01b0383163b6110db5760405162461bcd60e51b815260206004820152602660248201527f416464726573733a2064656c65676174652063616c6c20746f206e6f6e2d636f6044820152651b9d1c9858dd60d21b6064820152608401610248565b600080846001600160a01b0316846040516110f691906115b3565b600060405180830381855af49150503d8060008114611131576040519150601f19603f3d011682016040523d82523d6000602084013e611136565b606091505b509150915061115e82826040518060600160405280602781526020016116af60279139611254565b95945050505050565b6000807f7fffffffffffffffffffffffffffffff5d576e7357a4501ddfe92f46681b20a083111561119e575060009050600361124b565b8460ff16601b141580156111b657508460ff16601c14155b156111c7575060009050600461124b565b6040805160008082526020820180845289905260ff881692820192909252606081018690526080810185905260019060a0016020604051602081039080840390855afa15801561121b573d6000803e3d6000fd5b5050604051601f1901519150506001600160a01b0381166112445760006001925092505061124b565b9150600090505b94509492505050565b606083156112635750816108e0565b8251156112735782518084602001fd5b8160405162461bcd60e51b8152600401610248919061167b565b80356001600160a01b03811681146112a457600080fd5b919050565b6000602082840312156112bb57600080fd5b6108e08261128d565b6000806000604084860312156112d957600080fd5b833567ffffffffffffffff808211156112f157600080fd5b9085019060c0828803121561130557600080fd5b9093506020850135908082111561131b57600080fd5b818601915086601f83011261132f57600080fd5b81358181111561133e57600080fd5b87602082850101111561135057600080fd5b6020830194508093505050509250925092565b60005b8381101561137e578181015183820152602001611366565b50506000910152565b6000815180845261139f816020860160208601611363565b601f01601f19169290920160200192915050565b82151581526040602082015260006113ce6040830184611387565b949350505050565b634e487b7160e01b600052604160045260246000fd5b600080604083850312156113ff57600080fd5b6114088361128d565b9150602083013567ffffffffffffffff8082111561142557600080fd5b818501915085601f83011261143957600080fd5b81358181111561144b5761144b6113d6565b604051601f8201601f19908116603f01168101908382118183101715611473576114736113d6565b8160405282815288602084870101111561148c57600080fd5b8260208601602083013760006020848301015280955050505050509250929050565b6020808252602c908201527f46756e6374696f6e206d7573742062652063616c6c6564207468726f7567682060408201526b19195b1959d85d1958d85b1b60a21b606082015260800190565b6020808252602c908201527f46756e6374696f6e206d7573742062652063616c6c6564207468726f7567682060408201526b6163746976652070726f787960a01b606082015260800190565b6000808335601e1984360301811261155d57600080fd5b83018035915067ffffffffffffffff82111561157857600080fd5b602001915036819003821315610e7657600080fd5b8284823760609190911b6bffffffffffffffffffffffff19169101908152601401919050565b600082516115c5818460208701611363565b9190910192915050565b6000826115ec57634e487b7160e01b600052601260045260246000fd5b500490565b8183823760009101908152919050565b6020808252602b908201527f496e697469616c697a61626c653a20636f6e7472616374206973206e6f74206960408201526a6e697469616c697a696e6760a81b606082015260800190565b60006020828403121561165e57600080fd5b5051919050565b634e487b7160e01b600052602160045260246000fd5b6020815260006108e0602083018461138756fe360894a13ba1a3210667c828492db98dca3e2076cc3735a920a3ca505d382bbc416464726573733a206c6f772d6c6576656c2064656c65676174652063616c6c206661696c6564a2646970667358221220fbc7fc78f141d7be07eb0993bd99a6d22db27a00b07094cf44bc332cb761f46a64736f6c63430008110033",
  "linkReferences": {},
  "deployedLinkReferences": {}
}