{
  "_format": "hh-sol-artifact-1",
  "contractName": "NanakusaNFT",
  "sourceName": "contracts/sbinft/token/erc721/nanakusa/NanakusaNFT.sol",
  "abi": [
    {
      "inputs": [
        {
          "internalType": "string",
          "name": "name_",
          "type": "string"
        },
        {
          "internalType": "string",
          "name": "symbol_",
          "type": "string"
        },
        {
          "internalType": "address[]",
          "name": "operatorList",
          "type": "address[]"
        },
        {
          "internalType": "address",
          "name": "trustedForwarder",
          "type": "address"
        }
      ],
      "stateMutability": "nonpayable",
      "type": "constructor"
    },
    {
      "anonymous": false,
      "inputs": [
        {
          "indexed": true,
          "internalType": "address",
          "name": "owner",
          "type": "address"
        },
        {
          "indexed": true,
          "internalType": "address",
          "name": "approved",
          "type": "address"
        },
        {
          "indexed": true,
          "internalType": "uint256",
          "name": "tokenId",
          "type": "uint256"
        }
      ],
      "name": "Approval",
      "type": "event"
    },
    {
      "anonymous": false,
      "inputs": [
        {
          "indexed": true,
          "internalType": "address",
          "name": "owner",
          "type": "address"
        },
        {
          "indexed": true,
          "internalType": "address",
          "name": "operator",
          "type": "address"
        },
        {
          "indexed": false,
          "internalType": "bool",
          "name": "approved",
          "type": "bool"
        }
      ],
      "name": "ApprovalForAll",
      "type": "event"
    },
    {
      "anonymous": false,
      "inputs": [
        {
          "indexed": true,
          "internalType": "address",
          "name": "previousOwner",
          "type": "address"
        },
        {
          "indexed": true,
          "internalType": "address",
          "name": "newOwner",
          "type": "address"
        }
      ],
      "name": "OwnershipTransferred",
      "type": "event"
    },
    {
      "anonymous": false,
      "inputs": [
        {
          "indexed": false,
          "internalType": "address",
          "name": "account",
          "type": "address"
        }
      ],
      "name": "Paused",
      "type": "event"
    },
    {
      "anonymous": false,
      "inputs": [
        {
          "indexed": false,
          "internalType": "address",
          "name": "operator",
          "type": "address"
        }
      ],
      "name": "PreApprovedOperatorAdded",
      "type": "event"
    },
    {
      "anonymous": false,
      "inputs": [
        {
          "indexed": false,
          "internalType": "address",
          "name": "operator",
          "type": "address"
        }
      ],
      "name": "PreApprovedOperatorRemoved",
      "type": "event"
    },
    {
      "anonymous": false,
      "inputs": [
        {
          "indexed": true,
          "internalType": "address",
          "name": "from",
          "type": "address"
        },
        {
          "indexed": true,
          "internalType": "address",
          "name": "to",
          "type": "address"
        },
        {
          "indexed": true,
          "internalType": "uint256",
          "name": "tokenId",
          "type": "uint256"
        }
      ],
      "name": "Transfer",
      "type": "event"
    },
    {
      "anonymous": false,
      "inputs": [
        {
          "indexed": false,
          "internalType": "address",
          "name": "account",
          "type": "address"
        }
      ],
      "name": "Unpaused",
      "type": "event"
    },
    {
      "inputs": [
        {
          "internalType": "address[]",
          "name": "operatorList",
          "type": "address[]"
        }
      ],
      "name": "addPreApprovedOperator",
      "outputs": [],
      "stateMutability": "nonpayable",
      "type": "function"
    },
    {
      "inputs": [
        {
          "internalType": "address",
          "name": "to",
          "type": "address"
        },
        {
          "internalType": "uint256",
          "name": "tokenId",
          "type": "uint256"
        }
      ],
      "name": "approve",
      "outputs": [],
      "stateMutability": "nonpayable",
      "type": "function"
    },
    {
      "inputs": [
        {
          "internalType": "address",
          "name": "owner",
          "type": "address"
        }
      ],
      "name": "balanceOf",
      "outputs": [
        {
          "internalType": "uint256",
          "name": "",
          "type": "uint256"
        }
      ],
      "stateMutability": "view",
      "type": "function"
    },
    {
      "inputs": [
        {
          "internalType": "uint256",
          "name": "tokenId",
          "type": "uint256"
        }
      ],
      "name": "burn",
      "outputs": [],
      "stateMutability": "nonpayable",
      "type": "function"
    },
    {
      "inputs": [],
      "name": "deleteDefaultRoyalty",
      "outputs": [],
      "stateMutability": "nonpayable",
      "type": "function"
    },
    {
      "inputs": [
        {
          "internalType": "uint256",
          "name": "tokenId",
          "type": "uint256"
        }
      ],
      "name": "getApproved",
      "outputs": [
        {
          "internalType": "address",
          "name": "",
          "type": "address"
        }
      ],
      "stateMutability": "view",
      "type": "function"
    },
    {
      "inputs": [],
      "name": "getLastMintedTokenId",
      "outputs": [
        {
          "internalType": "uint256",
          "name": "",
          "type": "uint256"
        }
      ],
      "stateMutability": "view",
      "type": "function"
    },
    {
      "inputs": [
        {
          "internalType": "address",
          "name": "owner_",
          "type": "address"
        },
        {
          "internalType": "address",
          "name": "operator",
          "type": "address"
        }
      ],
      "name": "isApprovedForAll",
      "outputs": [
        {
          "internalType": "bool",
          "name": "",
          "type": "bool"
        }
      ],
      "stateMutability": "view",
      "type": "function"
    },
    {
      "inputs": [
        {
          "internalType": "address",
          "name": "operator",
          "type": "address"
        }
      ],
      "name": "isPreApprovedOperator",
      "outputs": [
        {
          "internalType": "bool",
          "name": "",
          "type": "bool"
        }
      ],
      "stateMutability": "view",
      "type": "function"
    },
    {
      "inputs": [
        {
          "internalType": "address",
          "name": "forwarder",
          "type": "address"
        }
      ],
      "name": "isTrustedForwarder",
      "outputs": [
        {
          "internalType": "bool",
          "name": "",
          "type": "bool"
        }
      ],
      "stateMutability": "view",
      "type": "function"
    },
    {
      "inputs": [
        {
          "components": [
            {
              "internalType": "address",
              "name": "creator",
              "type": "address"
            },
            {
              "internalType": "uint256",
              "name": "nftId",
              "type": "uint256"
            },
            {
              "internalType": "string",
              "name": "tokenURI",
              "type": "string"
            }
          ],
          "internalType": "struct NanakusaNFT.MintData",
          "name": "mintData",
          "type": "tuple"
        },
        {
          "internalType": "address",
          "name": "transferTo",
          "type": "address"
        },
        {
          "internalType": "bytes",
          "name": "mintSign",
          "type": "bytes"
        }
      ],
      "name": "lazyMintAndTransfer",
      "outputs": [],
      "stateMutability": "nonpayable",
      "type": "function"
    },
    {
      "inputs": [
        {
          "components": [
            {
              "internalType": "address",
              "name": "creator",
              "type": "address"
            },
            {
              "internalType": "uint256",
              "name": "nftId",
              "type": "uint256"
            },
            {
              "internalType": "string",
              "name": "tokenURI",
              "type": "string"
            }
          ],
          "internalType": "struct NanakusaNFT.MintData",
          "name": "mintData",
          "type": "tuple"
        },
        {
          "internalType": "bytes",
          "name": "mintSign",
          "type": "bytes"
        }
      ],
      "name": "mintToken",
      "outputs": [],
      "stateMutability": "nonpayable",
      "type": "function"
    },
    {
      "inputs": [],
      "name": "name",
      "outputs": [
        {
          "internalType": "string",
          "name": "",
          "type": "string"
        }
      ],
      "stateMutability": "view",
      "type": "function"
    },
    {
      "inputs": [],
      "name": "owner",
      "outputs": [
        {
          "internalType": "address",
          "name": "",
          "type": "address"
        }
      ],
      "stateMutability": "view",
      "type": "function"
    },
    {
      "inputs": [
        {
          "internalType": "uint256",
          "name": "tokenId",
          "type": "uint256"
        }
      ],
      "name": "ownerOf",
      "outputs": [
        {
          "internalType": "address",
          "name": "",
          "type": "address"
        }
      ],
      "stateMutability": "view",
      "type": "function"
    },
    {
      "inputs": [],
      "name": "paused",
      "outputs": [
        {
          "internalType": "bool",
          "name": "",
          "type": "bool"
        }
      ],
      "stateMutability": "view",
      "type": "function"
    },
    {
      "inputs": [
        {
          "internalType": "address[]",
          "name": "operatorList",
          "type": "address[]"
        }
      ],
      "name": "removePreApprovedOperator",
      "outputs": [],
      "stateMutability": "nonpayable",
      "type": "function"
    },
    {
      "inputs": [],
      "name": "renounceOwnership",
      "outputs": [],
      "stateMutability": "nonpayable",
      "type": "function"
    },
    {
      "inputs": [
        {
          "internalType": "uint256",
          "name": "tokenId",
          "type": "uint256"
        }
      ],
      "name": "resetTokenRoyalty",
      "outputs": [],
      "stateMutability": "nonpayable",
      "type": "function"
    },
    {
      "inputs": [
        {
          "internalType": "uint256",
          "name": "_tokenId",
          "type": "uint256"
        },
        {
          "internalType": "uint256",
          "name": "_salePrice",
          "type": "uint256"
        }
      ],
      "name": "royaltyInfo",
      "outputs": [
        {
          "internalType": "address",
          "name": "",
          "type": "address"
        },
        {
          "internalType": "uint256",
          "name": "",
          "type": "uint256"
        }
      ],
      "stateMutability": "view",
      "type": "function"
    },
    {
      "inputs": [
        {
          "internalType": "address",
          "name": "from",
          "type": "address"
        },
        {
          "internalType": "address",
          "name": "to",
          "type": "address"
        },
        {
          "internalType": "uint256",
          "name": "tokenId",
          "type": "uint256"
        }
      ],
      "name": "safeTransferFrom",
      "outputs": [],
      "stateMutability": "nonpayable",
      "type": "function"
    },
    {
      "inputs": [
        {
          "internalType": "address",
          "name": "from",
          "type": "address"
        },
        {
          "internalType": "address",
          "name": "to",
          "type": "address"
        },
        {
          "internalType": "uint256",
          "name": "tokenId",
          "type": "uint256"
        },
        {
          "internalType": "bytes",
          "name": "data",
          "type": "bytes"
        }
      ],
      "name": "safeTransferFrom",
      "outputs": [],
      "stateMutability": "nonpayable",
      "type": "function"
    },
    {
      "inputs": [
        {
          "internalType": "address",
          "name": "operator",
          "type": "address"
        },
        {
          "internalType": "bool",
          "name": "approved",
          "type": "bool"
        }
      ],
      "name": "setApprovalForAll",
      "outputs": [],
      "stateMutability": "nonpayable",
      "type": "function"
    },
    {
      "inputs": [
        {
          "internalType": "address",
          "name": "receiver",
          "type": "address"
        },
        {
          "internalType": "uint96",
          "name": "feeNumerator",
          "type": "uint96"
        }
      ],
      "name": "setDefaultRoyalty",
      "outputs": [],
      "stateMutability": "nonpayable",
      "type": "function"
    },
    {
      "inputs": [
        {
          "internalType": "uint256",
          "name": "tokenId",
          "type": "uint256"
        },
        {
          "internalType": "address",
          "name": "receiver",
          "type": "address"
        },
        {
          "internalType": "uint96",
          "name": "feeNumerator",
          "type": "uint96"
        }
      ],
      "name": "setTokenRoyalty",
      "outputs": [],
      "stateMutability": "nonpayable",
      "type": "function"
    },
    {
      "inputs": [
        {
          "internalType": "bytes4",
          "name": "interfaceId",
          "type": "bytes4"
        }
      ],
      "name": "supportsInterface",
      "outputs": [
        {
          "internalType": "bool",
          "name": "",
          "type": "bool"
        }
      ],
      "stateMutability": "view",
      "type": "function"
    },
    {
      "inputs": [],
      "name": "symbol",
      "outputs": [
        {
          "internalType": "string",
          "name": "",
          "type": "string"
        }
      ],
      "stateMutability": "view",
      "type": "function"
    },
    {
      "inputs": [
        {
          "internalType": "uint256",
          "name": "tokenId",
          "type": "uint256"
        }
      ],
      "name": "tokenURI",
      "outputs": [
        {
          "internalType": "string",
          "name": "",
          "type": "string"
        }
      ],
      "stateMutability": "view",
      "type": "function"
    },
    {
      "inputs": [
        {
          "internalType": "address",
          "name": "from",
          "type": "address"
        },
        {
          "internalType": "address",
          "name": "to",
          "type": "address"
        },
        {
          "internalType": "uint256",
          "name": "tokenId",
          "type": "uint256"
        }
      ],
      "name": "transferFrom",
      "outputs": [],
      "stateMutability": "nonpayable",
      "type": "function"
    },
    {
      "inputs": [
        {
          "internalType": "address",
          "name": "newOwner",
          "type": "address"
        }
      ],
      "name": "transferOwnership",
      "outputs": [],
      "stateMutability": "nonpayable",
      "type": "function"
    }
  ],
  "bytecode": "0x6101606040523480156200001257600080fd5b5060405162003590380380620035908339810160408190526200003591620004b9565b604080518082018252601381527f5342494e4654204e616e616b757361204e4654000000000000000000000000006020808301918252835180850190945260038452620312e360ec1b9084019081526001600160a01b038516608052825190912083519091206101008290526101208190524660c052879387939290917f8b73c3c69bb8fe3d512ecc4cf759cc79239f7b179b0ffacaa9a75d522b39400f620001238184846040805160208101859052908101839052606081018290524660808201523060a082015260009060c0016040516020818303038152906040528051906020012090509392505050565b60a0523060e0526101405250600292506200014391508490508262000661565b50600362000152828262000661565b50506009805460ff1916905550620001736200016d62000188565b620001a4565b6200017e82620001fe565b505050506200076b565b60006200019f6200030260201b6200111b1760201c565b905090565b600980546001600160a01b03838116610100818102610100600160a81b031985161790945560405193909204169182907f8be0079c531659141344cd1fd0a4f28419497f9722a3daafe3b4186f6b6457e090600090a35050565b620002086200033a565b60005b8151811015620002fe5760008282815181106200022c576200022c6200072d565b6020026020010151905060006001600160a01b0316816001600160a01b0316141580156200026457506000816001600160a01b03163b115b80156200028a57506001600160a01b0381166000908152600a602052604090205460ff16155b15620002e8576001600160a01b0381166000818152600a6020908152604091829020805460ff1916600117905590519182527fc8dfb5ab9ab6cf753862beaaf785f23636e0eab79a3542f13d4073588583f73d910160405180910390a15b5080620002f58162000743565b9150506200020b565b5050565b6080516000906001600160a01b0316330362000325575060131936013560601c90565b6200019f620003c260201b620011641760201c565b6200034462000188565b6001600160a01b03166200036560095461010090046001600160a01b031690565b6001600160a01b031614620003c05760405162461bcd60e51b815260206004820181905260248201527f4f776e61626c653a2063616c6c6572206973206e6f7420746865206f776e6572604482015260640160405180910390fd5b565b3390565b634e487b7160e01b600052604160045260246000fd5b604051601f8201601f191681016001600160401b0381118282101715620004075762000407620003c6565b604052919050565b600082601f8301126200042157600080fd5b81516001600160401b038111156200043d576200043d620003c6565b602062000453601f8301601f19168201620003dc565b82815285828487010111156200046857600080fd5b60005b83811015620004885785810183015182820184015282016200046b565b506000928101909101919091529392505050565b80516001600160a01b0381168114620004b457600080fd5b919050565b60008060008060808587031215620004d057600080fd5b84516001600160401b0380821115620004e857600080fd5b620004f6888389016200040f565b95506020915081870151818111156200050e57600080fd5b6200051c89828a016200040f565b9550506040870151818111156200053257600080fd5b8701601f810189136200054457600080fd5b805182811115620005595762000559620003c6565b8060051b92506200056c848401620003dc565b818152928201840192848101908b8511156200058757600080fd5b928501925b84841015620005b057620005a0846200049c565b825292850192908501906200058c565b809750505050505050620005c7606086016200049c565b905092959194509250565b600181811c90821680620005e757607f821691505b6020821081036200060857634e487b7160e01b600052602260045260246000fd5b50919050565b601f8211156200065c57600081815260208120601f850160051c81016020861015620006375750805b601f850160051c820191505b81811015620006585782815560010162000643565b5050505b505050565b81516001600160401b038111156200067d576200067d620003c6565b62000695816200068e8454620005d2565b846200060e565b602080601f831160018114620006cd5760008415620006b45750858301515b600019600386901b1c1916600185901b17855562000658565b600085815260208120601f198616915b82811015620006fe57888601518255948401946001909101908401620006dd565b50858210156200071d5787850151600019600388901b60f8161c191681555b5050505050600190811b01905550565b634e487b7160e01b600052603260045260246000fd5b6000600182016200076457634e487b7160e01b600052601160045260246000fd5b5060010190565b60805160a05160c05160e051610100516101205161014051612dc3620007cd60003960006116b701526000611706015260006116e10152600061163a015260006116640152600061168e0152600081816102fd015261111f0152612dc36000f3fe608060405234801561001057600080fd5b50600436106101da5760003560e01c806367db2d9211610104578063a22cb465116100a2578063cad8359111610071578063cad8359114610440578063e79c245514610453578063e985e9c514610466578063f2fde38b1461047957600080fd5b8063a22cb465146103ff578063aa1b103f14610412578063b88d4fde1461041a578063c87b56dd1461042d57600080fd5b80637974e46a116100de5780637974e46a146103c65780638a616bc0146103ce5780638da5cb5b146103e157806395d89b41146103f757600080fd5b806367db2d921461037157806370a082311461039d578063715018a6146103be57600080fd5b80632bb650841161017c5780635944c7531161014b5780635944c7531461032d5780635c975abb146103405780635e73ea341461034b5780636352211e1461035e57600080fd5b80632bb65084146102b457806342842e0e146102c757806342966c68146102da578063572b6c05146102ed57600080fd5b8063081812fc116101b8578063081812fc14610231578063095ea7b31461025c57806323b872dd1461026f5780632a55205a1461028257600080fd5b806301ffc9a7146101df57806304634d8d1461020757806306fdde031461021c575b600080fd5b6101f26101ed366004612479565b61048c565b60405190151581526020015b60405180910390f35b61021a6102153660046124c9565b61049d565b005b6102246104b3565b6040516101fe919061254c565b61024461023f36600461255f565b610545565b6040516001600160a01b0390911681526020016101fe565b61021a61026a366004612578565b61056c565b61021a61027d3660046125a2565b610698565b6102956102903660046125de565b6106d0565b604080516001600160a01b0390931683526020830191909152016101fe565b61021a6102c236600461265a565b61077e565b61021a6102d53660046125a2565b610a3a565b61021a6102e836600461255f565b610a55565b6101f26102fb3660046126d1565b7f00000000000000000000000000000000000000000000000000000000000000006001600160a01b0390811691161490565b61021a61033b3660046126ec565b610a88565b60095460ff166101f2565b61021a610359366004612728565b610b19565b61024461036c36600461255f565b610c8e565b6101f261037f3660046126d1565b6001600160a01b03166000908152600a602052604090205460ff1690565b6103b06103ab3660046126d1565b610cee565b6040519081526020016101fe565b61021a610d74565b600b546103b0565b61021a6103dc36600461255f565b610d88565b60095461010090046001600160a01b0316610244565b610224610e21565b61021a61040d366004612791565b610e30565b61021a610e42565b61021a610428366004612814565b610e53565b61022461043b36600461255f565b610e92565b61021a61044e3660046128d4565b610e9d565b61021a6104613660046128d4565b610f5e565b6101f2610474366004612981565b611052565b61021a6104873660046126d1565b6110a5565b600061049782611168565b92915050565b6104a5611173565b6104af82826111f2565b5050565b6060600280546104c2906129ab565b80601f01602080910402602001604051908101604052809291908181526020018280546104ee906129ab565b801561053b5780601f106105105761010080835404028352916020019161053b565b820191906000526020600020905b81548152906001019060200180831161051e57829003601f168201915b5050505050905090565b6000610550826112ac565b506000908152600660205260409020546001600160a01b031690565b600061057782610c8e565b9050806001600160a01b0316836001600160a01b0316036105e95760405162461bcd60e51b815260206004820152602160248201527f4552433732313a20617070726f76616c20746f2063757272656e74206f776e656044820152603960f91b60648201526084015b60405180910390fd5b806001600160a01b03166105fb61130b565b6001600160a01b0316148061061757506106178161047461130b565b6106895760405162461bcd60e51b815260206004820152603e60248201527f4552433732313a20617070726f76652063616c6c6572206973206e6f7420746f60448201527f6b656e206f776e6572206e6f7220617070726f76656420666f7220616c6c000060648201526084016105e0565b6106938383611315565b505050565b6106a96106a361130b565b82611383565b6106c55760405162461bcd60e51b81526004016105e0906129df565b6106938383836113e2565b60008281526001602090815260408083208151808301909252546001600160a01b038116808352600160a01b9091046001600160601b03169282019290925282916107455750604080518082019091526000546001600160a01b0381168252600160a01b90046001600160601b031660208201525b602081015160009061271090610764906001600160601b031687612a43565b61076e9190612a70565b91519350909150505b9250929050565b6001600160a01b0383166107f25760405162461bcd60e51b815260206004820152603560248201527f4e616e616b7573614e46543a6c617a794d696e74416e645472616e73666572206044820152741d1c985b9cd9995c951bc81a5cc81a5b9d985b1a59605a1b60648201526084016105e0565b6107ff6040850185612a84565b90506000036108765760405162461bcd60e51b815260206004820152603c60248201527f4e616e616b7573614e46543a6c617a794d696e74416e645472616e736665722060448201527f6d696e74446174612e746f6b656e55524920697320696e76616c69640000000060648201526084016105e0565b600061090983838080601f01602080910402602001604051908101604052809392919081815260200183838082843760009201919091525061090392506108c09150899050611589565b6108c861162d565b6040805161190160f01b6020808301919091526022820193909352604280820194909452815180820390940184526062019052815191012090565b90611754565b9050806001600160a01b031661092d6009546001600160a01b036101009091041690565b6001600160a01b03161461099f5760405162461bcd60e51b815260206004820152603360248201527f4e616e616b7573614e46543a6c617a794d696e74416e645472616e73666572206044820152723737ba1039b4b3b732b210313c9027bbb732b960691b60648201526084016105e0565b602085018035906109ba906109b490886126d1565b82611778565b610a05816109cb6040890189612a84565b8080601f01602080910402602001604051908101604052809392919081815260200183838082843760009201919091525061179292505050565b610a30610a1560208801886126d1565b86886020013560405180602001604052806000815250611825565b600b555050505050565b61069383838360405180602001604052806000815250610e53565b610a606106a361130b565b610a7c5760405162461bcd60e51b81526004016105e0906129df565b610a8581611858565b50565b610a9061130b565b6001600160a01b0316610aa284610c8e565b6001600160a01b031614610b0e5760405162461bcd60e51b815260206004820152602d60248201527f4e616e616b7573614e46543a206f6e6c79206f776e65722063616e207365742060448201526c546f6b656e20526f79616c747960981b60648201526084016105e0565b610693838383611861565b6000610b286040850185612a84565b905011610b895760405162461bcd60e51b815260206004820152602960248201527f4e616e616b7573614e46543a206d696e74446174612e746f6b656e55524920696044820152681cc81a5b9d985b1a5960ba1b60648201526084016105e0565b6000610bd383838080601f01602080910402602001604051908101604052809392919081815260200183838082843760009201919091525061090392506108c09150889050611589565b9050806001600160a01b0316610bf76009546001600160a01b036101009091041690565b6001600160a01b031614610c5f5760405162461bcd60e51b815260206004820152602960248201527f4e616e616b7573614e46543a6d696e74546f6b656e206e6f74207369676e656460448201526810313c9027bbb732b960b91b60648201526084016105e0565b60208401803590610c74906109b490876126d1565b610c85816109cb6040880188612a84565b600b5550505050565b6000818152600460205260408120546001600160a01b0316806104975760405162461bcd60e51b8152602060048201526018602482015277115490cdcc8c4e881a5b9d985b1a59081d1bdad95b88125160421b60448201526064016105e0565b60006001600160a01b038216610d585760405162461bcd60e51b815260206004820152602960248201527f4552433732313a2061646472657373207a65726f206973206e6f7420612076616044820152683634b21037bbb732b960b91b60648201526084016105e0565b506001600160a01b031660009081526005602052604090205490565b610d7c611173565b610d86600061192c565b565b610d9061130b565b6001600160a01b0316610da282610c8e565b6001600160a01b031614610e105760405162461bcd60e51b815260206004820152602f60248201527f4e616e616b7573614e46543a206f6e6c79206f776e65722063616e207265736560448201526e7420546f6b656e20526f79616c747960881b60648201526084016105e0565b600090815260016020526040812055565b6060600380546104c2906129ab565b6104af610e3b61130b565b8383611986565b610e4a611173565b610d8660008055565b610e64610e5e61130b565b83611383565b610e805760405162461bcd60e51b81526004016105e0906129df565b610e8c84848484611825565b50505050565b606061049782611a54565b610ea5611173565b60005b81518110156104af576000828281518110610ec557610ec5612acb565b60200260200101519050610ef1816001600160a01b03166000908152600a602052604090205460ff1690565b15610f4b576001600160a01b0381166000818152600a6020908152604091829020805460ff1916905590519182527ff8f9e1bebee7b0c58697594ecda657e7f23175d236f37eb4407d7a9eaa13bdaa910160405180910390a15b5080610f5681612ae1565b915050610ea8565b610f66611173565b60005b81518110156104af576000828281518110610f8657610f86612acb565b6020026020010151905060006001600160a01b0316816001600160a01b031614158015610fbd57506000816001600160a01b03163b115b8015610fe257506001600160a01b0381166000908152600a602052604090205460ff16155b1561103f576001600160a01b0381166000818152600a6020908152604091829020805460ff1916600117905590519182527fc8dfb5ab9ab6cf753862beaaf785f23636e0eab79a3542f13d4073588583f73d910160405180910390a15b508061104a81612ae1565b915050610f69565b6001600160a01b0381166000908152600a602052604081205460ff168061109e57506001600160a01b0380841660009081526007602090815260408083209386168352929052205460ff165b9392505050565b6110ad611173565b6001600160a01b0381166111125760405162461bcd60e51b815260206004820152602660248201527f4f776e61626c653a206e6577206f776e657220697320746865207a65726f206160448201526564647265737360d01b60648201526084016105e0565b610a858161192c565b60007f00000000000000000000000000000000000000000000000000000000000000006001600160a01b0316330361115a575060131936013560601c90565b503390565b905090565b3390565b600061049782611b5c565b61117b61130b565b6001600160a01b031661119c6009546001600160a01b036101009091041690565b6001600160a01b031614610d865760405162461bcd60e51b815260206004820181905260248201527f4f776e61626c653a2063616c6c6572206973206e6f7420746865206f776e657260448201526064016105e0565b6127106001600160601b038216111561121d5760405162461bcd60e51b81526004016105e090612afa565b6001600160a01b0382166112735760405162461bcd60e51b815260206004820152601960248201527f455243323938313a20696e76616c69642072656365697665720000000000000060448201526064016105e0565b604080518082019091526001600160a01b039092168083526001600160601b039091166020909201829052600160a01b90910217600055565b6000818152600460205260409020546001600160a01b0316610a855760405162461bcd60e51b8152602060048201526018602482015277115490cdcc8c4e881a5b9d985b1a59081d1bdad95b88125160421b60448201526064016105e0565b600061115f61111b565b600081815260066020526040902080546001600160a01b0319166001600160a01b038416908117909155819061134a82610c8e565b6001600160a01b03167f8c5be1e5ebec7d5bd14f71427d1e84f3dd0314c0f7b2291e5b200ac8c7c3b92560405160405180910390a45050565b60008061138f83610c8e565b9050806001600160a01b0316846001600160a01b031614806113b657506113b68185611052565b806113da5750836001600160a01b03166113cf84610545565b6001600160a01b0316145b949350505050565b826001600160a01b03166113f582610c8e565b6001600160a01b0316146114595760405162461bcd60e51b815260206004820152602560248201527f4552433732313a207472616e736665722066726f6d20696e636f72726563742060448201526437bbb732b960d91b60648201526084016105e0565b6001600160a01b0382166114bb5760405162461bcd60e51b8152602060048201526024808201527f4552433732313a207472616e7366657220746f20746865207a65726f206164646044820152637265737360e01b60648201526084016105e0565b6114c6838383611b9c565b6114d1600082611315565b6001600160a01b03831660009081526005602052604081208054600192906114fa908490612b44565b90915550506001600160a01b0382166000908152600560205260408120805460019290611528908490612b57565b909155505060008181526004602052604080822080546001600160a01b0319166001600160a01b0386811691821790925591518493918716917fddf252ad1be2c89b69c2b068fc378daa952ba7f163c4a11628f55a4df523b3ef91a4505050565b60007fef794e6d6869d49dbff445812bf818a6333bfc231f266b4c115072185760f4fe6115b960208401846126d1565b60208401356115cb6040860186612a84565b6040516115d9929190612b6a565b604051908190038120611610949392916020019384526001600160a01b039290921660208401526040830152606082015260800190565b604051602081830303815290604052805190602001209050919050565b6000306001600160a01b037f00000000000000000000000000000000000000000000000000000000000000001614801561168657507f000000000000000000000000000000000000000000000000000000000000000046145b156116b057507f000000000000000000000000000000000000000000000000000000000000000090565b50604080517f00000000000000000000000000000000000000000000000000000000000000006020808301919091527f0000000000000000000000000000000000000000000000000000000000000000828401527f000000000000000000000000000000000000000000000000000000000000000060608301524660808301523060a0808401919091528351808403909101815260c0909201909252805191012090565b60008060006117638585611ba7565b9150915061177081611be9565b509392505050565b6104af828260405180602001604052806000815250611d9f565b6000828152600460205260409020546001600160a01b031661180d5760405162461bcd60e51b815260206004820152602e60248201527f45524337323155524953746f726167653a2055524920736574206f66206e6f6e60448201526d32bc34b9ba32b73a103a37b5b2b760911b60648201526084016105e0565b60008281526008602052604090206106938282612bc8565b6118308484846113e2565b61183c84848484611dd2565b610e8c5760405162461bcd60e51b81526004016105e090612c88565b610a8581611eda565b6127106001600160601b038216111561188c5760405162461bcd60e51b81526004016105e090612afa565b6001600160a01b0382166118e25760405162461bcd60e51b815260206004820152601b60248201527f455243323938313a20496e76616c696420706172616d6574657273000000000060448201526064016105e0565b6040805180820182526001600160a01b0393841681526001600160601b0392831660208083019182526000968752600190529190942093519051909116600160a01b029116179055565b600980546001600160a01b03838116610100818102610100600160a81b031985161790945560405193909204169182907f8be0079c531659141344cd1fd0a4f28419497f9722a3daafe3b4186f6b6457e090600090a35050565b816001600160a01b0316836001600160a01b0316036119e75760405162461bcd60e51b815260206004820152601960248201527f4552433732313a20617070726f766520746f2063616c6c65720000000000000060448201526064016105e0565b6001600160a01b03838116600081815260076020908152604080832094871680845294825291829020805460ff191686151590811790915591519182527f17307eab39ab6107e8899845ad3d59bd9653f200f220920489ca2b5937696c31910160405180910390a3505050565b6060611a5f826112ac565b60008281526008602052604081208054611a78906129ab565b80601f0160208091040260200160405190810160405280929190818152602001828054611aa4906129ab565b8015611af15780601f10611ac657610100808354040283529160200191611af1565b820191906000526020600020905b815481529060010190602001808311611ad457829003601f168201915b505050505090506000611b0f60408051602081019091526000815290565b90508051600003611b21575092915050565b815115611b53578082604051602001611b3b929190612cda565b60405160208183030381529060405292505050919050565b6113da84611ee3565b60006001600160e01b031982166380ac58cd60e01b1480611b8d57506001600160e01b03198216635b5e139f60e01b145b80610497575061049782611f56565b610693838383611f8b565b6000808251604103611bdd5760208301516040840151606085015160001a611bd187828585611ff2565b94509450505050610777565b50600090506002610777565b6000816004811115611bfd57611bfd612d09565b03611c055750565b6001816004811115611c1957611c19612d09565b03611c665760405162461bcd60e51b815260206004820152601860248201527f45434453413a20696e76616c6964207369676e6174757265000000000000000060448201526064016105e0565b6002816004811115611c7a57611c7a612d09565b03611cc75760405162461bcd60e51b815260206004820152601f60248201527f45434453413a20696e76616c6964207369676e6174757265206c656e6774680060448201526064016105e0565b6003816004811115611cdb57611cdb612d09565b03611d335760405162461bcd60e51b815260206004820152602260248201527f45434453413a20696e76616c6964207369676e6174757265202773272076616c604482015261756560f01b60648201526084016105e0565b6004816004811115611d4757611d47612d09565b03610a855760405162461bcd60e51b815260206004820152602260248201527f45434453413a20696e76616c6964207369676e6174757265202776272076616c604482015261756560f01b60648201526084016105e0565b611da983836120df565b611db66000848484611dd2565b6106935760405162461bcd60e51b81526004016105e090612c88565b60006001600160a01b0384163b15611ecf57836001600160a01b031663150b7a02611dfb61130b565b8786866040518563ffffffff1660e01b8152600401611e1d9493929190612d1f565b6020604051808303816000875af1925050508015611e58575060408051601f3d908101601f19168201909252611e5591810190612d5c565b60015b611eb5573d808015611e86576040519150601f19603f3d011682016040523d82523d6000602084013e611e8b565b606091505b508051600003611ead5760405162461bcd60e51b81526004016105e090612c88565b805181602001fd5b6001600160e01b031916630a85bd0160e11b1490506113da565b506001949350505050565b610e108161222d565b6060611eee826112ac565b6000611f0560408051602081019091526000815290565b90506000815111611f25576040518060200160405280600081525061109e565b80611f2f8461226d565b604051602001611f40929190612cda565b6040516020818303038152906040529392505050565b60006001600160e01b0319821663152a902d60e11b148061049757506301ffc9a760e01b6001600160e01b0319831614610497565b60095460ff16156106935760405162461bcd60e51b815260206004820152602b60248201527f4552433732315061757361626c653a20746f6b656e207472616e73666572207760448201526a1a1a5b19481c185d5cd95960aa1b60648201526084016105e0565b6000807f7fffffffffffffffffffffffffffffff5d576e7357a4501ddfe92f46681b20a083111561202957506000905060036120d6565b8460ff16601b1415801561204157508460ff16601c14155b1561205257506000905060046120d6565b6040805160008082526020820180845289905260ff881692820192909252606081018690526080810185905260019060a0016020604051602081039080840390855afa1580156120a6573d6000803e3d6000fd5b5050604051601f1901519150506001600160a01b0381166120cf576000600192509250506120d6565b9150600090505b94509492505050565b6001600160a01b0382166121355760405162461bcd60e51b815260206004820181905260248201527f4552433732313a206d696e7420746f20746865207a65726f206164647265737360448201526064016105e0565b6000818152600460205260409020546001600160a01b03161561219a5760405162461bcd60e51b815260206004820152601c60248201527f4552433732313a20746f6b656e20616c7265616479206d696e7465640000000060448201526064016105e0565b6121a660008383611b9c565b6001600160a01b03821660009081526005602052604081208054600192906121cf908490612b57565b909155505060008181526004602052604080822080546001600160a01b0319166001600160a01b03861690811790915590518392907fddf252ad1be2c89b69c2b068fc378daa952ba7f163c4a11628f55a4df523b3ef908290a45050565b6122368161236e565b6000818152600860205260409020805461224f906129ab565b159050610a85576000818152600860205260408120610a8591612415565b6060816000036122945750506040805180820190915260018152600360fc1b602082015290565b8160005b81156122be57806122a881612ae1565b91506122b79050600a83612a70565b9150612298565b60008167ffffffffffffffff8111156122d9576122d96127cd565b6040519080825280601f01601f191660200182016040528015612303576020820181803683370190505b5090505b84156113da57612318600183612b44565b9150612325600a86612d79565b612330906030612b57565b60f81b81838151811061234557612345612acb565b60200101906001600160f81b031916908160001a905350612367600a86612a70565b9450612307565b600061237982610c8e565b905061238781600084611b9c565b612392600083611315565b6001600160a01b03811660009081526005602052604081208054600192906123bb908490612b44565b909155505060008281526004602052604080822080546001600160a01b0319169055518391906001600160a01b038416907fddf252ad1be2c89b69c2b068fc378daa952ba7f163c4a11628f55a4df523b3ef908390a45050565b508054612421906129ab565b6000825580601f10612431575050565b601f016020900490600052602060002090810190610a8591905b8082111561245f576000815560010161244b565b5090565b6001600160e01b031981168114610a8557600080fd5b60006020828403121561248b57600080fd5b813561109e81612463565b80356001600160a01b03811681146124ad57600080fd5b919050565b80356001600160601b03811681146124ad57600080fd5b600080604083850312156124dc57600080fd5b6124e583612496565b91506124f3602084016124b2565b90509250929050565b60005b838110156125175781810151838201526020016124ff565b50506000910152565b600081518084526125388160208601602086016124fc565b601f01601f19169290920160200192915050565b60208152600061109e6020830184612520565b60006020828403121561257157600080fd5b5035919050565b6000806040838503121561258b57600080fd5b61259483612496565b946020939093013593505050565b6000806000606084860312156125b757600080fd5b6125c084612496565b92506125ce60208501612496565b9150604084013590509250925092565b600080604083850312156125f157600080fd5b50508035926020909101359150565b60006060828403121561261257600080fd5b50919050565b60008083601f84011261262a57600080fd5b50813567ffffffffffffffff81111561264257600080fd5b60208301915083602082850101111561077757600080fd5b6000806000806060858703121561267057600080fd5b843567ffffffffffffffff8082111561268857600080fd5b61269488838901612600565b95506126a260208801612496565b945060408701359150808211156126b857600080fd5b506126c587828801612618565b95989497509550505050565b6000602082840312156126e357600080fd5b61109e82612496565b60008060006060848603121561270157600080fd5b8335925061271160208501612496565b915061271f604085016124b2565b90509250925092565b60008060006040848603121561273d57600080fd5b833567ffffffffffffffff8082111561275557600080fd5b61276187838801612600565b9450602086013591508082111561277757600080fd5b5061278486828701612618565b9497909650939450505050565b600080604083850312156127a457600080fd5b6127ad83612496565b9150602083013580151581146127c257600080fd5b809150509250929050565b634e487b7160e01b600052604160045260246000fd5b604051601f8201601f1916810167ffffffffffffffff8111828210171561280c5761280c6127cd565b604052919050565b6000806000806080858703121561282a57600080fd5b61283385612496565b93506020612842818701612496565b935060408601359250606086013567ffffffffffffffff8082111561286657600080fd5b818801915088601f83011261287a57600080fd5b81358181111561288c5761288c6127cd565b61289e601f8201601f191685016127e3565b915080825289848285010111156128b457600080fd5b808484018584013760008482840101525080935050505092959194509250565b600060208083850312156128e757600080fd5b823567ffffffffffffffff808211156128ff57600080fd5b818501915085601f83011261291357600080fd5b813581811115612925576129256127cd565b8060051b91506129368483016127e3565b818152918301840191848101908884111561295057600080fd5b938501935b838510156129755761296685612496565b82529385019390850190612955565b98975050505050505050565b6000806040838503121561299457600080fd5b61299d83612496565b91506124f360208401612496565b600181811c908216806129bf57607f821691505b60208210810361261257634e487b7160e01b600052602260045260246000fd5b6020808252602e908201527f4552433732313a2063616c6c6572206973206e6f7420746f6b656e206f776e6560408201526d1c881b9bdc88185c1c1c9bdd995960921b606082015260800190565b634e487b7160e01b600052601160045260246000fd5b808202811582820484141761049757610497612a2d565b634e487b7160e01b600052601260045260246000fd5b600082612a7f57612a7f612a5a565b500490565b6000808335601e19843603018112612a9b57600080fd5b83018035915067ffffffffffffffff821115612ab657600080fd5b60200191503681900382131561077757600080fd5b634e487b7160e01b600052603260045260246000fd5b600060018201612af357612af3612a2d565b5060010190565b6020808252602a908201527f455243323938313a20726f79616c7479206665652077696c6c206578636565646040820152692073616c65507269636560b01b606082015260800190565b8181038181111561049757610497612a2d565b8082018082111561049757610497612a2d565b8183823760009101908152919050565b601f82111561069357600081815260208120601f850160051c81016020861015612ba15750805b601f850160051c820191505b81811015612bc057828155600101612bad565b505050505050565b815167ffffffffffffffff811115612be257612be26127cd565b612bf681612bf084546129ab565b84612b7a565b602080601f831160018114612c2b5760008415612c135750858301515b600019600386901b1c1916600185901b178555612bc0565b600085815260208120601f198616915b82811015612c5a57888601518255948401946001909101908401612c3b565b5085821015612c785787850151600019600388901b60f8161c191681555b5050505050600190811b01905550565b60208082526032908201527f4552433732313a207472616e7366657220746f206e6f6e20455243373231526560408201527131b2b4bb32b91034b6b83632b6b2b73a32b960711b606082015260800190565b60008351612cec8184602088016124fc565b835190830190612d008183602088016124fc565b01949350505050565b634e487b7160e01b600052602160045260246000fd5b6001600160a01b0385811682528416602082015260408101839052608060608201819052600090612d5290830184612520565b9695505050505050565b600060208284031215612d6e57600080fd5b815161109e81612463565b600082612d8857612d88612a5a565b50069056fea26469706673582212209868037c8c9b53fa2004866e401c522a79da7fc953b3e98780a04a453346f52964736f6c63430008110033",
  "linkReferences": {},
  "deployedLinkReferences": {}
}