{
  "_format": "hh-sol-artifact-1",
  "contractName": "NanakusaNFTFactory",
  "sourceName": "contracts/sbinft/token/erc721/nanakusa/factory/NanakusaNFTFactory.sol",
  "abi": [
    {
      "inputs": [
        {
          "internalType": "address",
          "name": "trustedForwarder",
          "type": "address"
        }
      ],
      "stateMutability": "nonpayable",
      "type": "constructor"
    },
    {
      "anonymous": false,
      "inputs": [
        {
          "indexed": false,
          "internalType": "address",
          "name": "contractAddress",
          "type": "address"
        },
        {
          "indexed": false,
          "internalType": "string",
          "name": "name",
          "type": "string"
        },
        {
          "indexed": false,
          "internalType": "string",
          "name": "symbol",
          "type": "string"
        },
        {
          "indexed": false,
          "internalType": "address",
          "name": "owner",
          "type": "address"
        },
        {
          "indexed": false,
          "internalType": "address",
          "name": "trustedForwarder",
          "type": "address"
        }
      ],
      "name": "NanakusaNFTContractCreated",
      "type": "event"
    },
    {
      "inputs": [
        {
          "internalType": "string",
          "name": "name",
          "type": "string"
        },
        {
          "internalType": "string",
          "name": "symbol",
          "type": "string"
        },
        {
          "internalType": "address[]",
          "name": "operatorList",
          "type": "address[]"
        },
        {
          "internalType": "address",
          "name": "owner",
          "type": "address"
        }
      ],
      "name": "createContract",
      "outputs": [],
      "stateMutability": "nonpayable",
      "type": "function"
    },
    {
      "inputs": [
        {
          "internalType": "address",
          "name": "owner_",
          "type": "address"
        }
      ],
      "name": "getContractByOwner",
      "outputs": [
        {
          "internalType": "address[]",
          "name": "",
          "type": "address[]"
        }
      ],
      "stateMutability": "view",
      "type": "function"
    },
    {
      "inputs": [
        {
          "internalType": "address",
          "name": "forwarder",
          "type": "address"
        }
      ],
      "name": "isTrustedForwarder",
      "outputs": [
        {
          "internalType": "bool",
          "name": "",
          "type": "bool"
        }
      ],
      "stateMutability": "view",
      "type": "function"
    }
  ],
  "bytecode": "0x60c060405234801561001057600080fd5b50604051613cbd380380613cbd83398101604081905261002f91610045565b6001600160a01b0316608081905260a052610075565b60006020828403121561005757600080fd5b81516001600160a01b038116811461006e57600080fd5b9392505050565b60805160a051613c1e61009f6000396000818160e901526102190152600060770152613c1e6000f3fe60806040523480156200001157600080fd5b5060043610620000465760003560e01c80633a300e08146200004b578063572b6c0514620000645780637edebec214620000bc575b600080fd5b620000626200005c366004620003b1565b620000e2565b005b620000a762000075366004620004cb565b7f00000000000000000000000000000000000000000000000000000000000000006001600160a01b0390811691161490565b60405190151581526020015b60405180910390f35b620000d3620000cd366004620004cb565b6200024f565b604051620000b3919062000536565b60008484847f00000000000000000000000000000000000000000000000000000000000000006040516200011690620002c5565b62000125949392919062000593565b604051809103906000f08015801562000142573d6000803e3d6000fd5b5060405163f2fde38b60e01b81526001600160a01b0384811660048301529192509082169063f2fde38b90602401600060405180830381600087803b1580156200018b57600080fd5b505af1158015620001a0573d6000803e3d6000fd5b505050506001600160a01b0382811660009081526020818152604080832080546001810182558185529290932090910180546001600160a01b0319169385169390931790925590517fb8cad47d27c460e6d14c1f2ef0bb20f617ad2db6069c980933c03629d6eb063f906200023f9084908990899088907f000000000000000000000000000000000000000000000000000000000000000090620005ec565b60405180910390a1505050505050565b6001600160a01b03811660009081526020818152604091829020805483518184028101840190945280845260609392830182828015620002b957602002820191906000526020600020905b81546001600160a01b031681526001909101906020018083116200029a575b50505050509050919050565b6135a9806200064083390190565b634e487b7160e01b600052604160045260246000fd5b604051601f8201601f1916810167ffffffffffffffff81118282101715620003155762000315620002d3565b604052919050565b600082601f8301126200032f57600080fd5b813567ffffffffffffffff8111156200034c576200034c620002d3565b62000361601f8201601f1916602001620002e9565b8181528460208386010111156200037757600080fd5b816020850160208301376000918101602001919091529392505050565b80356001600160a01b0381168114620003ac57600080fd5b919050565b60008060008060808587031215620003c857600080fd5b843567ffffffffffffffff80821115620003e157600080fd5b620003ef888389016200031d565b95506020915081870135818111156200040757600080fd5b6200041589828a016200031d565b9550506040870135818111156200042b57600080fd5b8701601f810189136200043d57600080fd5b803582811115620004525762000452620002d3565b8060051b925062000465848401620002e9565b818152928201840192848101908b8511156200048057600080fd5b928501925b84841015620004a957620004998462000394565b8252928501929085019062000485565b809750505050505050620004c06060860162000394565b905092959194509250565b600060208284031215620004de57600080fd5b620004e98262000394565b9392505050565b600081518084526020808501945080840160005b838110156200052b5781516001600160a01b03168752958201959082019060010162000504565b509495945050505050565b602081526000620004e96020830184620004f0565b6000815180845260005b81811015620005735760208185018101518683018201520162000555565b506000602082860101526020601f19601f83011685010191505092915050565b608081526000620005a860808301876200054b565b8281036020840152620005bc81876200054b565b90508281036040840152620005d28186620004f0565b91505060018060a01b038316606083015295945050505050565b600060018060a01b03808816835260a060208401526200061060a08401886200054b565b83810360408501526200062481886200054b565b9582166060850152509290921660809091015250939250505056fe6101606040523480156200001257600080fd5b50604051620035a9380380620035a98339810160408190526200003591620004b9565b604080518082018252601a81527f5342494e4654204e616e616b75736120466163746f79204e46540000000000006020808301918252835180850190945260038452620312e360ec1b9084019081526001600160a01b038516608052825190912083519091206101008290526101208190524660c052879387939290917f8b73c3c69bb8fe3d512ecc4cf759cc79239f7b179b0ffacaa9a75d522b39400f620001238184846040805160208101859052908101839052606081018290524660808201523060a082015260009060c0016040516020818303038152906040528051906020012090509392505050565b60a0523060e0526101405250600292506200014391508490508262000661565b50600362000152828262000661565b50506009805460ff1916905550620001736200016d62000188565b620001a4565b6200017e82620001fe565b505050506200076b565b60006200019f6200030260201b620011341760201c565b905090565b600980546001600160a01b03838116610100818102610100600160a81b031985161790945560405193909204169182907f8be0079c531659141344cd1fd0a4f28419497f9722a3daafe3b4186f6b6457e090600090a35050565b620002086200033a565b60005b8151811015620002fe5760008282815181106200022c576200022c6200072d565b6020026020010151905060006001600160a01b0316816001600160a01b0316141580156200026457506000816001600160a01b03163b115b80156200028a57506001600160a01b0381166000908152600a602052604090205460ff16155b15620002e8576001600160a01b0381166000818152600a6020908152604091829020805460ff1916600117905590519182527fc8dfb5ab9ab6cf753862beaaf785f23636e0eab79a3542f13d4073588583f73d910160405180910390a15b5080620002f58162000743565b9150506200020b565b5050565b6080516000906001600160a01b0316330362000325575060131936013560601c90565b6200019f620003c260201b6200117d1760201c565b6200034462000188565b6001600160a01b03166200036560095461010090046001600160a01b031690565b6001600160a01b031614620003c05760405162461bcd60e51b815260206004820181905260248201527f4f776e61626c653a2063616c6c6572206973206e6f7420746865206f776e6572604482015260640160405180910390fd5b565b3390565b634e487b7160e01b600052604160045260246000fd5b604051601f8201601f191681016001600160401b0381118282101715620004075762000407620003c6565b604052919050565b600082601f8301126200042157600080fd5b81516001600160401b038111156200043d576200043d620003c6565b602062000453601f8301601f19168201620003dc565b82815285828487010111156200046857600080fd5b60005b83811015620004885785810183015182820184015282016200046b565b506000928101909101919091529392505050565b80516001600160a01b0381168114620004b457600080fd5b919050565b60008060008060808587031215620004d057600080fd5b84516001600160401b0380821115620004e857600080fd5b620004f6888389016200040f565b95506020915081870151818111156200050e57600080fd5b6200051c89828a016200040f565b9550506040870151818111156200053257600080fd5b8701601f810189136200054457600080fd5b805182811115620005595762000559620003c6565b8060051b92506200056c848401620003dc565b818152928201840192848101908b8511156200058757600080fd5b928501925b84841015620005b057620005a0846200049c565b825292850192908501906200058c565b809750505050505050620005c7606086016200049c565b905092959194509250565b600181811c90821680620005e757607f821691505b6020821081036200060857634e487b7160e01b600052602260045260246000fd5b50919050565b601f8211156200065c57600081815260208120601f850160051c81016020861015620006375750805b601f850160051c820191505b81811015620006585782815560010162000643565b5050505b505050565b81516001600160401b038111156200067d576200067d620003c6565b62000695816200068e8454620005d2565b846200060e565b602080601f831160018114620006cd5760008415620006b45750858301515b600019600386901b1c1916600185901b17855562000658565b600085815260208120601f198616915b82811015620006fe57888601518255948401946001909101908401620006dd565b50858210156200071d5787850151600019600388901b60f8161c191681555b5050505050600190811b01905550565b634e487b7160e01b600052603260045260246000fd5b6000600182016200076457634e487b7160e01b600052601160045260246000fd5b5060010190565b60805160a05160c05160e051610100516101205161014051612ddc620007cd60003960006116d00152600061171f015260006116fa015260006116530152600061167d015260006116a70152600081816102fd01526111380152612ddc6000f3fe608060405234801561001057600080fd5b50600436106101da5760003560e01c806367db2d9211610104578063a22cb465116100a2578063cad8359111610071578063cad8359114610440578063e79c245514610453578063e985e9c514610466578063f2fde38b1461047957600080fd5b8063a22cb465146103ff578063aa1b103f14610412578063b88d4fde1461041a578063c87b56dd1461042d57600080fd5b80637974e46a116100de5780637974e46a146103c65780638a616bc0146103ce5780638da5cb5b146103e157806395d89b41146103f757600080fd5b806367db2d921461037157806370a082311461039d578063715018a6146103be57600080fd5b80632bb650841161017c5780635944c7531161014b5780635944c7531461032d5780635c975abb146103405780635e73ea341461034b5780636352211e1461035e57600080fd5b80632bb65084146102b457806342842e0e146102c757806342966c68146102da578063572b6c05146102ed57600080fd5b8063081812fc116101b8578063081812fc14610231578063095ea7b31461025c57806323b872dd1461026f5780632a55205a1461028257600080fd5b806301ffc9a7146101df57806304634d8d1461020757806306fdde031461021c575b600080fd5b6101f26101ed366004612492565b61048c565b60405190151581526020015b60405180910390f35b61021a6102153660046124e2565b61049d565b005b6102246104b3565b6040516101fe9190612565565b61024461023f366004612578565b610545565b6040516001600160a01b0390911681526020016101fe565b61021a61026a366004612591565b61056c565b61021a61027d3660046125bb565b610698565b6102956102903660046125f7565b6106d0565b604080516001600160a01b0390931683526020830191909152016101fe565b61021a6102c2366004612673565b61077e565b61021a6102d53660046125bb565b610a3a565b61021a6102e8366004612578565b610a55565b6101f26102fb3660046126ea565b7f00000000000000000000000000000000000000000000000000000000000000006001600160a01b0390811691161490565b61021a61033b366004612705565b610a88565b60095460ff166101f2565b61021a610359366004612741565b610b19565b61024461036c366004612578565b610c97565b6101f261037f3660046126ea565b6001600160a01b03166000908152600a602052604090205460ff1690565b6103b06103ab3660046126ea565b610cf7565b6040519081526020016101fe565b61021a610d7d565b600b546103b0565b61021a6103dc366004612578565b610d91565b60095461010090046001600160a01b0316610244565b610224610e3a565b61021a61040d3660046127aa565b610e49565b61021a610e5b565b61021a61042836600461282d565b610e6c565b61022461043b366004612578565b610eab565b61021a61044e3660046128ed565b610eb6565b61021a6104613660046128ed565b610f77565b6101f261047436600461299a565b61106b565b61021a6104873660046126ea565b6110be565b600061049782611181565b92915050565b6104a561118c565b6104af828261120b565b5050565b6060600280546104c2906129c4565b80601f01602080910402602001604051908101604052809291908181526020018280546104ee906129c4565b801561053b5780601f106105105761010080835404028352916020019161053b565b820191906000526020600020905b81548152906001019060200180831161051e57829003601f168201915b5050505050905090565b6000610550826112c5565b506000908152600660205260409020546001600160a01b031690565b600061057782610c97565b9050806001600160a01b0316836001600160a01b0316036105e95760405162461bcd60e51b815260206004820152602160248201527f4552433732313a20617070726f76616c20746f2063757272656e74206f776e656044820152603960f91b60648201526084015b60405180910390fd5b806001600160a01b03166105fb611324565b6001600160a01b03161480610617575061061781610474611324565b6106895760405162461bcd60e51b815260206004820152603e60248201527f4552433732313a20617070726f76652063616c6c6572206973206e6f7420746f60448201527f6b656e206f776e6572206e6f7220617070726f76656420666f7220616c6c000060648201526084016105e0565b610693838361132e565b505050565b6106a96106a3611324565b8261139c565b6106c55760405162461bcd60e51b81526004016105e0906129f8565b6106938383836113fb565b60008281526001602090815260408083208151808301909252546001600160a01b038116808352600160a01b9091046001600160601b03169282019290925282916107455750604080518082019091526000546001600160a01b0381168252600160a01b90046001600160601b031660208201525b602081015160009061271090610764906001600160601b031687612a5c565b61076e9190612a89565b91519350909150505b9250929050565b6001600160a01b0383166107f25760405162461bcd60e51b815260206004820152603560248201527f4e616e616b7573614e46543a6c617a794d696e74416e645472616e73666572206044820152741d1c985b9cd9995c951bc81a5cc81a5b9d985b1a59605a1b60648201526084016105e0565b6107ff6040850185612a9d565b90506000036108765760405162461bcd60e51b815260206004820152603c60248201527f4e616e616b7573614e46543a6c617a794d696e74416e645472616e736665722060448201527f6d696e74446174612e746f6b656e55524920697320696e76616c69640000000060648201526084016105e0565b600061090983838080601f01602080910402602001604051908101604052809392919081815260200183838082843760009201919091525061090392506108c091508990506115a2565b6108c8611646565b6040805161190160f01b6020808301919091526022820193909352604280820194909452815180820390940184526062019052815191012090565b9061176d565b9050806001600160a01b031661092d6009546001600160a01b036101009091041690565b6001600160a01b03161461099f5760405162461bcd60e51b815260206004820152603360248201527f4e616e616b7573614e46543a6c617a794d696e74416e645472616e73666572206044820152723737ba1039b4b3b732b210313c9027bbb732b960691b60648201526084016105e0565b602085018035906109ba906109b490886126ea565b82611791565b610a05816109cb6040890189612a9d565b8080601f0160208091040260200160405190810160405280939291908181526020018383808284376000920191909152506117ab92505050565b610a30610a1560208801886126ea565b8688602001356040518060200160405280600081525061183e565b600b555050505050565b61069383838360405180602001604052806000815250610e6c565b610a606106a3611324565b610a7c5760405162461bcd60e51b81526004016105e0906129f8565b610a8581611871565b50565b610a90611324565b6001600160a01b0316610aa284610c97565b6001600160a01b031614610b0e5760405162461bcd60e51b815260206004820152602d60248201527f4e616e616b7573614e46543a206f6e6c79206f776e65722063616e207365742060448201526c546f6b656e20526f79616c747960981b60648201526084016105e0565b61069383838361187a565b6000610b286040850185612a9d565b905011610b925760405162461bcd60e51b815260206004820152603260248201527f4e616e616b7573614e46543a6d696e74546f6b656e206d696e74446174612e746044820152711bdad95b955492481a5cc81a5b9d985b1a5960721b60648201526084016105e0565b6000610bdc83838080601f01602080910402602001604051908101604052809392919081815260200183838082843760009201919091525061090392506108c091508890506115a2565b9050806001600160a01b0316610c006009546001600160a01b036101009091041690565b6001600160a01b031614610c685760405162461bcd60e51b815260206004820152602960248201527f4e616e616b7573614e46543a6d696e74546f6b656e206e6f74207369676e656460448201526810313c9027bbb732b960b91b60648201526084016105e0565b60208401803590610c7d906109b490876126ea565b610c8e816109cb6040880188612a9d565b600b5550505050565b6000818152600460205260408120546001600160a01b0316806104975760405162461bcd60e51b8152602060048201526018602482015277115490cdcc8c4e881a5b9d985b1a59081d1bdad95b88125160421b60448201526064016105e0565b60006001600160a01b038216610d615760405162461bcd60e51b815260206004820152602960248201527f4552433732313a2061646472657373207a65726f206973206e6f7420612076616044820152683634b21037bbb732b960b91b60648201526084016105e0565b506001600160a01b031660009081526005602052604090205490565b610d8561118c565b610d8f6000611945565b565b610d99611324565b6001600160a01b0316610dab82610c97565b6001600160a01b031614610e29576040805162461bcd60e51b81526020600482015260248101919091527f4e616e616b7573614e46543a7265736574546f6b656e526f79616c7479206f6e60448201527f6c79206f776e65722063616e20726573657420546f6b656e20526f79616c747960648201526084016105e0565b600090815260016020526040812055565b6060600380546104c2906129c4565b6104af610e54611324565b838361199f565b610e6361118c565b610d8f60008055565b610e7d610e77611324565b8361139c565b610e995760405162461bcd60e51b81526004016105e0906129f8565b610ea58484848461183e565b50505050565b606061049782611a6d565b610ebe61118c565b60005b81518110156104af576000828281518110610ede57610ede612ae4565b60200260200101519050610f0a816001600160a01b03166000908152600a602052604090205460ff1690565b15610f64576001600160a01b0381166000818152600a6020908152604091829020805460ff1916905590519182527ff8f9e1bebee7b0c58697594ecda657e7f23175d236f37eb4407d7a9eaa13bdaa910160405180910390a15b5080610f6f81612afa565b915050610ec1565b610f7f61118c565b60005b81518110156104af576000828281518110610f9f57610f9f612ae4565b6020026020010151905060006001600160a01b0316816001600160a01b031614158015610fd657506000816001600160a01b03163b115b8015610ffb57506001600160a01b0381166000908152600a602052604090205460ff16155b15611058576001600160a01b0381166000818152600a6020908152604091829020805460ff1916600117905590519182527fc8dfb5ab9ab6cf753862beaaf785f23636e0eab79a3542f13d4073588583f73d910160405180910390a15b508061106381612afa565b915050610f82565b6001600160a01b0381166000908152600a602052604081205460ff16806110b757506001600160a01b0380841660009081526007602090815260408083209386168352929052205460ff165b9392505050565b6110c661118c565b6001600160a01b03811661112b5760405162461bcd60e51b815260206004820152602660248201527f4f776e61626c653a206e6577206f776e657220697320746865207a65726f206160448201526564647265737360d01b60648201526084016105e0565b610a8581611945565b60007f00000000000000000000000000000000000000000000000000000000000000006001600160a01b03163303611173575060131936013560601c90565b503390565b905090565b3390565b600061049782611b75565b611194611324565b6001600160a01b03166111b56009546001600160a01b036101009091041690565b6001600160a01b031614610d8f5760405162461bcd60e51b815260206004820181905260248201527f4f776e61626c653a2063616c6c6572206973206e6f7420746865206f776e657260448201526064016105e0565b6127106001600160601b03821611156112365760405162461bcd60e51b81526004016105e090612b13565b6001600160a01b03821661128c5760405162461bcd60e51b815260206004820152601960248201527f455243323938313a20696e76616c69642072656365697665720000000000000060448201526064016105e0565b604080518082019091526001600160a01b039092168083526001600160601b039091166020909201829052600160a01b90910217600055565b6000818152600460205260409020546001600160a01b0316610a855760405162461bcd60e51b8152602060048201526018602482015277115490cdcc8c4e881a5b9d985b1a59081d1bdad95b88125160421b60448201526064016105e0565b6000611178611134565b600081815260066020526040902080546001600160a01b0319166001600160a01b038416908117909155819061136382610c97565b6001600160a01b03167f8c5be1e5ebec7d5bd14f71427d1e84f3dd0314c0f7b2291e5b200ac8c7c3b92560405160405180910390a45050565b6000806113a883610c97565b9050806001600160a01b0316846001600160a01b031614806113cf57506113cf818561106b565b806113f35750836001600160a01b03166113e884610545565b6001600160a01b0316145b949350505050565b826001600160a01b031661140e82610c97565b6001600160a01b0316146114725760405162461bcd60e51b815260206004820152602560248201527f4552433732313a207472616e736665722066726f6d20696e636f72726563742060448201526437bbb732b960d91b60648201526084016105e0565b6001600160a01b0382166114d45760405162461bcd60e51b8152602060048201526024808201527f4552433732313a207472616e7366657220746f20746865207a65726f206164646044820152637265737360e01b60648201526084016105e0565b6114df838383611bb5565b6114ea60008261132e565b6001600160a01b0383166000908152600560205260408120805460019290611513908490612b5d565b90915550506001600160a01b0382166000908152600560205260408120805460019290611541908490612b70565b909155505060008181526004602052604080822080546001600160a01b0319166001600160a01b0386811691821790925591518493918716917fddf252ad1be2c89b69c2b068fc378daa952ba7f163c4a11628f55a4df523b3ef91a4505050565b60007fef794e6d6869d49dbff445812bf818a6333bfc231f266b4c115072185760f4fe6115d260208401846126ea565b60208401356115e46040860186612a9d565b6040516115f2929190612b83565b604051908190038120611629949392916020019384526001600160a01b039290921660208401526040830152606082015260800190565b604051602081830303815290604052805190602001209050919050565b6000306001600160a01b037f00000000000000000000000000000000000000000000000000000000000000001614801561169f57507f000000000000000000000000000000000000000000000000000000000000000046145b156116c957507f000000000000000000000000000000000000000000000000000000000000000090565b50604080517f00000000000000000000000000000000000000000000000000000000000000006020808301919091527f0000000000000000000000000000000000000000000000000000000000000000828401527f000000000000000000000000000000000000000000000000000000000000000060608301524660808301523060a0808401919091528351808403909101815260c0909201909252805191012090565b600080600061177c8585611bc0565b9150915061178981611c02565b509392505050565b6104af828260405180602001604052806000815250611db8565b6000828152600460205260409020546001600160a01b03166118265760405162461bcd60e51b815260206004820152602e60248201527f45524337323155524953746f726167653a2055524920736574206f66206e6f6e60448201526d32bc34b9ba32b73a103a37b5b2b760911b60648201526084016105e0565b60008281526008602052604090206106938282612be1565b6118498484846113fb565b61185584848484611deb565b610ea55760405162461bcd60e51b81526004016105e090612ca1565b610a8581611ef3565b6127106001600160601b03821611156118a55760405162461bcd60e51b81526004016105e090612b13565b6001600160a01b0382166118fb5760405162461bcd60e51b815260206004820152601b60248201527f455243323938313a20496e76616c696420706172616d6574657273000000000060448201526064016105e0565b6040805180820182526001600160a01b0393841681526001600160601b0392831660208083019182526000968752600190529190942093519051909116600160a01b029116179055565b600980546001600160a01b03838116610100818102610100600160a81b031985161790945560405193909204169182907f8be0079c531659141344cd1fd0a4f28419497f9722a3daafe3b4186f6b6457e090600090a35050565b816001600160a01b0316836001600160a01b031603611a005760405162461bcd60e51b815260206004820152601960248201527f4552433732313a20617070726f766520746f2063616c6c65720000000000000060448201526064016105e0565b6001600160a01b03838116600081815260076020908152604080832094871680845294825291829020805460ff191686151590811790915591519182527f17307eab39ab6107e8899845ad3d59bd9653f200f220920489ca2b5937696c31910160405180910390a3505050565b6060611a78826112c5565b60008281526008602052604081208054611a91906129c4565b80601f0160208091040260200160405190810160405280929190818152602001828054611abd906129c4565b8015611b0a5780601f10611adf57610100808354040283529160200191611b0a565b820191906000526020600020905b815481529060010190602001808311611aed57829003601f168201915b505050505090506000611b2860408051602081019091526000815290565b90508051600003611b3a575092915050565b815115611b6c578082604051602001611b54929190612cf3565b60405160208183030381529060405292505050919050565b6113f384611efc565b60006001600160e01b031982166380ac58cd60e01b1480611ba657506001600160e01b03198216635b5e139f60e01b145b80610497575061049782611f6f565b610693838383611fa4565b6000808251604103611bf65760208301516040840151606085015160001a611bea8782858561200b565b94509450505050610777565b50600090506002610777565b6000816004811115611c1657611c16612d22565b03611c1e5750565b6001816004811115611c3257611c32612d22565b03611c7f5760405162461bcd60e51b815260206004820152601860248201527f45434453413a20696e76616c6964207369676e6174757265000000000000000060448201526064016105e0565b6002816004811115611c9357611c93612d22565b03611ce05760405162461bcd60e51b815260206004820152601f60248201527f45434453413a20696e76616c6964207369676e6174757265206c656e6774680060448201526064016105e0565b6003816004811115611cf457611cf4612d22565b03611d4c5760405162461bcd60e51b815260206004820152602260248201527f45434453413a20696e76616c6964207369676e6174757265202773272076616c604482015261756560f01b60648201526084016105e0565b6004816004811115611d6057611d60612d22565b03610a855760405162461bcd60e51b815260206004820152602260248201527f45434453413a20696e76616c6964207369676e6174757265202776272076616c604482015261756560f01b60648201526084016105e0565b611dc283836120f8565b611dcf6000848484611deb565b6106935760405162461bcd60e51b81526004016105e090612ca1565b60006001600160a01b0384163b15611ee857836001600160a01b031663150b7a02611e14611324565b8786866040518563ffffffff1660e01b8152600401611e369493929190612d38565b6020604051808303816000875af1925050508015611e71575060408051601f3d908101601f19168201909252611e6e91810190612d75565b60015b611ece573d808015611e9f576040519150601f19603f3d011682016040523d82523d6000602084013e611ea4565b606091505b508051600003611ec65760405162461bcd60e51b81526004016105e090612ca1565b805181602001fd5b6001600160e01b031916630a85bd0160e11b1490506113f3565b506001949350505050565b610e2981612246565b6060611f07826112c5565b6000611f1e60408051602081019091526000815290565b90506000815111611f3e57604051806020016040528060008152506110b7565b80611f4884612286565b604051602001611f59929190612cf3565b6040516020818303038152906040529392505050565b60006001600160e01b0319821663152a902d60e11b148061049757506301ffc9a760e01b6001600160e01b0319831614610497565b60095460ff16156106935760405162461bcd60e51b815260206004820152602b60248201527f4552433732315061757361626c653a20746f6b656e207472616e73666572207760448201526a1a1a5b19481c185d5cd95960aa1b60648201526084016105e0565b6000807f7fffffffffffffffffffffffffffffff5d576e7357a4501ddfe92f46681b20a083111561204257506000905060036120ef565b8460ff16601b1415801561205a57508460ff16601c14155b1561206b57506000905060046120ef565b6040805160008082526020820180845289905260ff881692820192909252606081018690526080810185905260019060a0016020604051602081039080840390855afa1580156120bf573d6000803e3d6000fd5b5050604051601f1901519150506001600160a01b0381166120e8576000600192509250506120ef565b9150600090505b94509492505050565b6001600160a01b03821661214e5760405162461bcd60e51b815260206004820181905260248201527f4552433732313a206d696e7420746f20746865207a65726f206164647265737360448201526064016105e0565b6000818152600460205260409020546001600160a01b0316156121b35760405162461bcd60e51b815260206004820152601c60248201527f4552433732313a20746f6b656e20616c7265616479206d696e7465640000000060448201526064016105e0565b6121bf60008383611bb5565b6001600160a01b03821660009081526005602052604081208054600192906121e8908490612b70565b909155505060008181526004602052604080822080546001600160a01b0319166001600160a01b03861690811790915590518392907fddf252ad1be2c89b69c2b068fc378daa952ba7f163c4a11628f55a4df523b3ef908290a45050565b61224f81612387565b60008181526008602052604090208054612268906129c4565b159050610a85576000818152600860205260408120610a859161242e565b6060816000036122ad5750506040805180820190915260018152600360fc1b602082015290565b8160005b81156122d757806122c181612afa565b91506122d09050600a83612a89565b91506122b1565b60008167ffffffffffffffff8111156122f2576122f26127e6565b6040519080825280601f01601f19166020018201604052801561231c576020820181803683370190505b5090505b84156113f357612331600183612b5d565b915061233e600a86612d92565b612349906030612b70565b60f81b81838151811061235e5761235e612ae4565b60200101906001600160f81b031916908160001a905350612380600a86612a89565b9450612320565b600061239282610c97565b90506123a081600084611bb5565b6123ab60008361132e565b6001600160a01b03811660009081526005602052604081208054600192906123d4908490612b5d565b909155505060008281526004602052604080822080546001600160a01b0319169055518391906001600160a01b038416907fddf252ad1be2c89b69c2b068fc378daa952ba7f163c4a11628f55a4df523b3ef908390a45050565b50805461243a906129c4565b6000825580601f1061244a575050565b601f016020900490600052602060002090810190610a8591905b808211156124785760008155600101612464565b5090565b6001600160e01b031981168114610a8557600080fd5b6000602082840312156124a457600080fd5b81356110b78161247c565b80356001600160a01b03811681146124c657600080fd5b919050565b80356001600160601b03811681146124c657600080fd5b600080604083850312156124f557600080fd5b6124fe836124af565b915061250c602084016124cb565b90509250929050565b60005b83811015612530578181015183820152602001612518565b50506000910152565b60008151808452612551816020860160208601612515565b601f01601f19169290920160200192915050565b6020815260006110b76020830184612539565b60006020828403121561258a57600080fd5b5035919050565b600080604083850312156125a457600080fd5b6125ad836124af565b946020939093013593505050565b6000806000606084860312156125d057600080fd5b6125d9846124af565b92506125e7602085016124af565b9150604084013590509250925092565b6000806040838503121561260a57600080fd5b50508035926020909101359150565b60006060828403121561262b57600080fd5b50919050565b60008083601f84011261264357600080fd5b50813567ffffffffffffffff81111561265b57600080fd5b60208301915083602082850101111561077757600080fd5b6000806000806060858703121561268957600080fd5b843567ffffffffffffffff808211156126a157600080fd5b6126ad88838901612619565b95506126bb602088016124af565b945060408701359150808211156126d157600080fd5b506126de87828801612631565b95989497509550505050565b6000602082840312156126fc57600080fd5b6110b7826124af565b60008060006060848603121561271a57600080fd5b8335925061272a602085016124af565b9150612738604085016124cb565b90509250925092565b60008060006040848603121561275657600080fd5b833567ffffffffffffffff8082111561276e57600080fd5b61277a87838801612619565b9450602086013591508082111561279057600080fd5b5061279d86828701612631565b9497909650939450505050565b600080604083850312156127bd57600080fd5b6127c6836124af565b9150602083013580151581146127db57600080fd5b809150509250929050565b634e487b7160e01b600052604160045260246000fd5b604051601f8201601f1916810167ffffffffffffffff81118282101715612825576128256127e6565b604052919050565b6000806000806080858703121561284357600080fd5b61284c856124af565b9350602061285b8187016124af565b935060408601359250606086013567ffffffffffffffff8082111561287f57600080fd5b818801915088601f83011261289357600080fd5b8135818111156128a5576128a56127e6565b6128b7601f8201601f191685016127fc565b915080825289848285010111156128cd57600080fd5b808484018584013760008482840101525080935050505092959194509250565b6000602080838503121561290057600080fd5b823567ffffffffffffffff8082111561291857600080fd5b818501915085601f83011261292c57600080fd5b81358181111561293e5761293e6127e6565b8060051b915061294f8483016127fc565b818152918301840191848101908884111561296957600080fd5b938501935b8385101561298e5761297f856124af565b8252938501939085019061296e565b98975050505050505050565b600080604083850312156129ad57600080fd5b6129b6836124af565b915061250c602084016124af565b600181811c908216806129d857607f821691505b60208210810361262b57634e487b7160e01b600052602260045260246000fd5b6020808252602e908201527f4552433732313a2063616c6c6572206973206e6f7420746f6b656e206f776e6560408201526d1c881b9bdc88185c1c1c9bdd995960921b606082015260800190565b634e487b7160e01b600052601160045260246000fd5b808202811582820484141761049757610497612a46565b634e487b7160e01b600052601260045260246000fd5b600082612a9857612a98612a73565b500490565b6000808335601e19843603018112612ab457600080fd5b83018035915067ffffffffffffffff821115612acf57600080fd5b60200191503681900382131561077757600080fd5b634e487b7160e01b600052603260045260246000fd5b600060018201612b0c57612b0c612a46565b5060010190565b6020808252602a908201527f455243323938313a20726f79616c7479206665652077696c6c206578636565646040820152692073616c65507269636560b01b606082015260800190565b8181038181111561049757610497612a46565b8082018082111561049757610497612a46565b8183823760009101908152919050565b601f82111561069357600081815260208120601f850160051c81016020861015612bba5750805b601f850160051c820191505b81811015612bd957828155600101612bc6565b505050505050565b815167ffffffffffffffff811115612bfb57612bfb6127e6565b612c0f81612c0984546129c4565b84612b93565b602080601f831160018114612c445760008415612c2c5750858301515b600019600386901b1c1916600185901b178555612bd9565b600085815260208120601f198616915b82811015612c7357888601518255948401946001909101908401612c54565b5085821015612c915787850151600019600388901b60f8161c191681555b5050505050600190811b01905550565b60208082526032908201527f4552433732313a207472616e7366657220746f206e6f6e20455243373231526560408201527131b2b4bb32b91034b6b83632b6b2b73a32b960711b606082015260800190565b60008351612d05818460208801612515565b835190830190612d19818360208801612515565b01949350505050565b634e487b7160e01b600052602160045260246000fd5b6001600160a01b0385811682528416602082015260408101839052608060608201819052600090612d6b90830184612539565b9695505050505050565b600060208284031215612d8757600080fd5b81516110b78161247c565b600082612da157612da1612a73565b50069056fea26469706673582212206d493ea30d5fc2be0c86c6b1c796a991aed856cb9a564b02f512f38b5cfe077964736f6c63430008110033a264697066735822122093e52771895ee0f9f482a08eeb01cf79bf01355ec58b1f1244b8083b02cd69fd64736f6c63430008110033",
  "linkReferences": {},
  "deployedLinkReferences": {}
}